{
  "contractName": "BtcPriceOracle",
  "abi": [
    {
      "inputs": [
        {
          "internalType": "address",
          "name": "aggregatorAddress",
          "type": "address"
        }
      ],
      "stateMutability": "nonpayable",
      "type": "constructor"
    },
    {
      "inputs": [],
      "name": "aggregator",
      "outputs": [
        {
          "internalType": "contract IChainlink",
          "name": "",
          "type": "address"
        }
      ],
      "stateMutability": "view",
      "type": "function"
    },
    {
      "inputs": [],
      "name": "updatePriceIfNeeded",
      "outputs": [],
      "stateMutability": "pure",
      "type": "function"
    },
    {
      "inputs": [],
      "name": "getPrice",
      "outputs": [
        {
          "internalType": "uint256",
          "name": "",
          "type": "uint256"
        }
      ],
      "stateMutability": "view",
      "type": "function"
    }
  ],
  "bytecode": "0x608060405234801561001057600080fd5b5060405161024e38038061024e83398101604081905261002f91610054565b600080546001600160a01b0319166001600160a01b0392909216919091179055610084565b60006020828403121561006657600080fd5b81516001600160a01b038116811461007d57600080fd5b9392505050565b6101bb806100936000396000f3fe608060405234801561001057600080fd5b50600436106100415760003560e01c8063245a7bfc1461004657806398d5fdca14610076578063f62fb7d21461008c575b600080fd5b600054610059906001600160a01b031681565b6040516001600160a01b0390911681526020015b60405180910390f35b61007e61008e565b60405190815260200161006d565b005b6000805460408051633fabe5a360e21b8152905183926001600160a01b03169163feaf968c9160048083019260a0929190829003018186803b1580156100d357600080fd5b505afa1580156100e7573d6000803e3d6000fd5b505050506040513d601f19601f8201168201806040525081019061010b9190610135565b509195945050505050565b805169ffffffffffffffffffff8116811461013057600080fd5b919050565b600080600080600060a0868803121561014d57600080fd5b61015686610116565b945060208601519350604086015192506060860151915061017960808701610116565b9050929550929590935056fea2646970667358221220e0c4d3065a068a131ab3c9970cbc7b81a7a0a608db91b0c008832c0a5e2012b764736f6c63430008070033",
  "immutableReferences": {},
  "source": "// SPDX-License-Identifier: UNLICENSED\npragma solidity ^0.8.7;\n\nimport '../common/interface/IChainlink.sol';\nimport './interface/IPriceOracle.sol';\n\n\n/// @title Price oracle that fetches BTC price in USD.\ncontract BtcPriceOracle is IPriceOracle {\n    IChainlink public aggregator;\n    // uint8 public tokenDecimals = 18;\n\n    constructor(address aggregatorAddress) {\n        aggregator = IChainlink(aggregatorAddress);\n    }\n\n    function updatePriceIfNeeded() pure external override {\n        return;\n    }\n\n    function getPrice() external override view returns (uint256) {\n        (\n            /*uint80 roundID*/,\n            int rawPrice,\n            /*uint startedAt*/,\n            /*uint timeStamp*/,\n            /*uint80 answeredInRound*/\n        ) = aggregator.latestRoundData();\n        // uint8 decimals = aggregator.decimals();\n\n        // tokenPrice = uint256(rawPrice) * (10**(tokenDecimals - decimals));\n        return uint256(rawPrice);\n    }\n}\n",
  "sourcePath": "/Users/liyangfan/Projects/WorkSpace/bluestone/contracts/oracle/BtcPriceOracle.sol",
  "compiler": {
    "name": "solc",
    "version": "0.8.7+commit.e28d00a7.Emscripten.clang"
  },
  "schemaVersion": "3.4.4",
  "updatedAt": "2022-09-02T13:05:37.253Z",
  "devdoc": {
    "kind": "dev",
    "methods": {
      "getPrice()": {
        "returns": {
          "_0": "tokenPrice"
        }
      },
      "updatePriceIfNeeded()": {
        "details": "Call this function before getPrice() if price freshness is important"
      }
    },
    "title": "Price oracle that fetches BTC price in USD.",
    "version": 1
  },
  "userdoc": {
    "kind": "user",
    "methods": {
      "getPrice()": {
        "notice": "Return the current token price in USD"
      },
      "updatePriceIfNeeded()": {
        "notice": "Update the token price if necessary"
      }
    },
    "version": 1
  }
}