{
  "contractName": "ChainlinkPriceOracle",
  "abi": [
    {
      "inputs": [
        {
          "internalType": "address",
          "name": "aggregatorAddress",
          "type": "address"
        }
      ],
      "stateMutability": "nonpayable",
      "type": "constructor"
    },
    {
      "inputs": [],
      "name": "getLatestPrice",
      "outputs": [
        {
          "internalType": "int256",
          "name": "",
          "type": "int256"
        }
      ],
      "stateMutability": "view",
      "type": "function"
    },
    {
      "inputs": [],
      "name": "getDecimals",
      "outputs": [
        {
          "internalType": "uint8",
          "name": "",
          "type": "uint8"
        }
      ],
      "stateMutability": "view",
      "type": "function"
    }
  ],
  "bytecode": "0x608060405234801561001057600080fd5b506040516102e63803806102e683398101604081905261002f91610054565b600080546001600160a01b0319166001600160a01b0392909216919091179055610084565b60006020828403121561006657600080fd5b81516001600160a01b038116811461007d57600080fd5b9392505050565b610253806100936000396000f3fe608060405234801561001057600080fd5b50600436106100365760003560e01c80638e15f4731461003b578063f0141d8414610056575b600080fd5b610043610070565b6040519081526020015b60405180910390f35b61005e6100f8565b60405160ff909116815260200161004d565b6000805460408051633fabe5a360e21b8152905183926001600160a01b03169163feaf968c9160048083019260a0929190829003018186803b1580156100b557600080fd5b505afa1580156100c9573d6000803e3d6000fd5b505050506040513d601f19601f820116820180604052508101906100ed91906101a3565b509195945050505050565b60008060009054906101000a90046001600160a01b03166001600160a01b031663313ce5676040518163ffffffff1660e01b815260040160206040518083038186803b15801561014757600080fd5b505afa15801561015b573d6000803e3d6000fd5b505050506040513d601f19601f8201168201806040525081019061017f91906101f3565b905090565b805169ffffffffffffffffffff8116811461019e57600080fd5b919050565b600080600080600060a086880312156101bb57600080fd5b6101c486610184565b94506020860151935060408601519250606086015191506101e760808701610184565b90509295509295909350565b60006020828403121561020557600080fd5b815160ff8116811461021657600080fd5b939250505056fea2646970667358221220a8606f014da83e7cf53f6c50af9c721facf955787d027e534a84783a283c75f964736f6c63430008070033",
  "immutableReferences": {},
  "source": "// SPDX-License-Identifier: GPL-3.0\npragma solidity ^0.8.7;\n\nimport \"@chainlink/contracts/src/v0.8/interfaces/AggregatorV3Interface.sol\";\n\ncontract ChainlinkPriceOracle {\n    AggregatorV3Interface internal priceFeed;\n\n    /**\n     * Network: Goerli\n     * Aggregator: ETH/USD\n     * Address: 0xD4a33860578De61DBAbDc8BFdb98FD742fA7028e\n     */\n    constructor(address aggregatorAddress) {\n        priceFeed = AggregatorV3Interface(aggregatorAddress);\n    }\n\n    /**\n     * Returns the latest price\n     */\n    function getLatestPrice() public view returns (int) {\n        (\n            /*uint80 roundID*/,\n            int price,\n            /*uint startedAt*/,\n            /*uint timeStamp*/,\n            /*uint80 answeredInRound*/\n        ) = priceFeed.latestRoundData();\n        return price;\n    }\n\n    function getDecimals() public view returns (uint8) {\n        return priceFeed.decimals();\n    }\n}",
  "sourcePath": "/Users/liyangfan/Projects/WorkSpace/bluestone/contracts/oracle/abstract/ChainlinkPriceOracle.sol",
  "compiler": {
    "name": "solc",
    "version": "0.8.7+commit.e28d00a7.Emscripten.clang"
  },
  "schemaVersion": "3.4.8",
  "updatedAt": "2022-08-31T12:01:34.829Z",
  "devdoc": {
    "kind": "dev",
    "methods": {},
    "version": 1
  },
  "userdoc": {
    "kind": "user",
    "methods": {
      "constructor": {
        "notice": "Network: Goerli Aggregator: ETH/USD Address: 0xD4a33860578De61DBAbDc8BFdb98FD742fA7028e"
      },
      "getLatestPrice()": {
        "notice": "Returns the latest price"
      }
    },
    "version": 1
  }
}