{
  "contractName": "ChainlinkMock",
  "abi": [
    {
      "inputs": [],
      "name": "answer",
      "outputs": [
        {
          "internalType": "int256",
          "name": "",
          "type": "int256"
        }
      ],
      "stateMutability": "view",
      "type": "function",
      "constant": true
    },
    {
      "inputs": [],
      "name": "decimals",
      "outputs": [
        {
          "internalType": "uint8",
          "name": "",
          "type": "uint8"
        }
      ],
      "stateMutability": "pure",
      "type": "function",
      "constant": true
    },
    {
      "inputs": [
        {
          "internalType": "int256",
          "name": "_price",
          "type": "int256"
        }
      ],
      "name": "setPrice",
      "outputs": [],
      "stateMutability": "nonpayable",
      "type": "function"
    },
    {
      "inputs": [],
      "name": "latestRoundData",
      "outputs": [
        {
          "internalType": "uint80",
          "name": "",
          "type": "uint80"
        },
        {
          "internalType": "int256",
          "name": "",
          "type": "int256"
        },
        {
          "internalType": "uint256",
          "name": "",
          "type": "uint256"
        },
        {
          "internalType": "uint256",
          "name": "",
          "type": "uint256"
        },
        {
          "internalType": "uint80",
          "name": "",
          "type": "uint80"
        }
      ],
      "stateMutability": "view",
      "type": "function",
      "constant": true
    }
  ],
  "bytecode": "0x608060405234801561001057600080fd5b50610102806100206000396000f3fe6080604052348015600f57600080fd5b506004361060465760003560e01c8063313ce56714604b57806385bb7d6914605f578063f7a30806146074578063feaf968c146086575b600080fd5b604051601281526020015b60405180910390f35b606760005481565b6040519081526020016056565b6084607f36600460b4565b600055565b005b60008054604080518381526020810192909252810182905260608101829052608081019190915260a0016056565b60006020828403121560c557600080fd5b503591905056fea26469706673582212207c7b0b8577f1d20f2969b86e25766754b74a5088b53e17c8a87b7784ed52171d64736f6c63430008070033",
  "immutableReferences": {},
  "source": "// SPDX-License-Identifier: UNLICENSED\npragma solidity ^0.8.7;\nimport '../interface/IChainlink.sol';\n\ncontract ChainlinkMock is IChainlink {\n    // uint80 public roundId = 1;\n    int256 public answer;\n\n    // uint256 public startedAt = 1000000000;\n    // uint256 public updatedAt = 1200000000;\n    // uint80 public answeredInRound = 213323;\n\n    function decimals() external pure override returns (uint8) {\n        return 18;\n    }\n\n    function setPrice(int256 _price) external {\n        answer = _price;\n    }\n\n    function latestRoundData()\n        external\n        view\n        override\n        returns (\n            uint80,\n            int256,\n            uint256,\n            uint256,\n            uint80\n        )\n    {\n        return (0, answer, 0, 0, 0);\n    }\n}\n",
  "sourcePath": "/Users/liyangfan/Projects/WorkSpace/bluestone/contracts/common/mock/ChainlinkMock.sol",
  "compiler": {
    "name": "solc",
    "version": "0.8.7+commit.e28d00a7.Emscripten.clang"
  },
  "schemaVersion": "3.4.4",
  "updatedAt": "2022-11-01T09:50:38.542Z",
  "networkType": "ethereum",
  "devdoc": {
    "kind": "dev",
    "methods": {},
    "version": 1
  },
  "userdoc": {
    "kind": "user",
    "methods": {},
    "version": 1
  }
}