{
  "contractName": "ConfigurationMock",
  "abi": [
    {
      "inputs": [
        {
          "internalType": "address",
          "name": "tokenAddress",
          "type": "address"
        },
        {
          "internalType": "contract IPriceOracle",
          "name": "priceOracle",
          "type": "address"
        }
      ],
      "name": "setPriceOracle",
      "outputs": [],
      "stateMutability": "nonpayable",
      "type": "function"
    },
    {
      "inputs": [
        {
          "internalType": "address payable",
          "name": "interestReserveAddress",
          "type": "address"
        }
      ],
      "name": "setInterestReserveAddress",
      "outputs": [],
      "stateMutability": "nonpayable",
      "type": "function"
    },
    {
      "inputs": [
        {
          "internalType": "uint256",
          "name": "protocolReserveRatio",
          "type": "uint256"
        }
      ],
      "name": "setProtocolReserveRatio",
      "outputs": [],
      "stateMutability": "nonpayable",
      "type": "function"
    },
    {
      "inputs": [
        {
          "internalType": "address",
          "name": "tokenAddress",
          "type": "address"
        },
        {
          "internalType": "uint256",
          "name": "balanceCap",
          "type": "uint256"
        }
      ],
      "name": "setBalanceCap",
      "outputs": [],
      "stateMutability": "nonpayable",
      "type": "function"
    },
    {
      "inputs": [],
      "name": "getInterestReserveAddress",
      "outputs": [
        {
          "internalType": "address",
          "name": "interestReserveAddress",
          "type": "address"
        }
      ],
      "stateMutability": "view",
      "type": "function"
    },
    {
      "inputs": [],
      "name": "getProtocolReserveRatio",
      "outputs": [
        {
          "internalType": "uint256",
          "name": "protocolReserveRatio",
          "type": "uint256"
        }
      ],
      "stateMutability": "view",
      "type": "function"
    },
    {
      "inputs": [
        {
          "internalType": "address",
          "name": "tokenAddress",
          "type": "address"
        }
      ],
      "name": "getPriceOracleAddress",
      "outputs": [
        {
          "internalType": "address",
          "name": "priceOracleAddress",
          "type": "address"
        }
      ],
      "stateMutability": "view",
      "type": "function"
    },
    {
      "inputs": [
        {
          "internalType": "uint256",
          "name": "depositDistributorFeeRatio",
          "type": "uint256"
        },
        {
          "internalType": "uint256",
          "name": "loanDistributorFeeRatio",
          "type": "uint256"
        }
      ],
      "name": "setMaxDistributorFeeRatios",
      "outputs": [],
      "stateMutability": "nonpayable",
      "type": "function"
    },
    {
      "inputs": [],
      "name": "getMaxDistributorFeeRatios",
      "outputs": [
        {
          "internalType": "uint256",
          "name": "depositDistributorFeeRatio",
          "type": "uint256"
        },
        {
          "internalType": "uint256",
          "name": "loanDistributorFeeRatio",
          "type": "uint256"
        }
      ],
      "stateMutability": "view",
      "type": "function"
    },
    {
      "inputs": [
        {
          "internalType": "address",
          "name": "tokenAddress",
          "type": "address"
        }
      ],
      "name": "getBalanceCap",
      "outputs": [
        {
          "internalType": "uint256",
          "name": "balanceCap",
          "type": "uint256"
        }
      ],
      "stateMutability": "view",
      "type": "function"
    },
    {
      "inputs": [
        {
          "internalType": "address",
          "name": "tokenAddress",
          "type": "address"
        }
      ],
      "name": "enableDepositToken",
      "outputs": [],
      "stateMutability": "nonpayable",
      "type": "function"
    },
    {
      "inputs": [
        {
          "internalType": "uint256",
          "name": "term",
          "type": "uint256"
        }
      ],
      "name": "enableDepositTerm",
      "outputs": [],
      "stateMutability": "nonpayable",
      "type": "function"
    }
  ],
  "bytecode": "0x608060405234801561001057600080fd5b506105d0806100206000396000f3fe608060405234801561001057600080fd5b50600436106100b45760003560e01c8063a461279e11610071578063a461279e146101a2578063cebe314c146101c3578063d30f7b39146101cb578063ddd99eeb146101f1578063e064e81714610217578063ebd7445f14610243576100b4565b806307a7f159146100b957806327efcbfe146100f157806367a74ddc1461011057806383f991571461013e57806394a68ef714610162578063a04360b61461017f575b600080fd5b6100df600480360360208110156100cf57600080fd5b50356001600160a01b0316610269565b60408051918252519081900360200190f35b61010e6004803603602081101561010757600080fd5b5035610284565b005b61010e6004803603604081101561012657600080fd5b506001600160a01b03813581169160200135166102f6565b610146610379565b604080516001600160a01b039092168252519081900360200190f35b61010e6004803603602081101561017857600080fd5b5035610388565b61010e6004803603604081101561019557600080fd5b50803590602001356103e8565b6101aa610446565b6040805192835260208301919091528051918290030190f35b6100df610450565b610146600480360360208110156101e157600080fd5b50356001600160a01b0316610456565b61010e6004803603602081101561020757600080fd5b50356001600160a01b0316610474565b61010e6004803603604081101561022d57600080fd5b506001600160a01b0381351690602001356104d3565b61010e6004803603602081101561025957600080fd5b50356001600160a01b0316610539565b6001600160a01b031660009081526005602052604090205490565b60408051636fdbf96d60e11b815260006004820181905260248201849052915173__Configuration_________________________9263dfb7f2da9260448082019391829003018186803b1580156102db57600080fd5b505af41580156102ef573d6000803e3d6000fd5b5050505050565b60408051635562758f60e01b81526000600482018190526001600160a01b03808616602484015284166044830152915173__Configuration_________________________92635562758f9260648082019391829003018186803b15801561035d57600080fd5b505af4158015610371573d6000803e3d6000fd5b505050505050565b6003546001600160a01b031690565b60408051630e273fb560e31b8152600960048201526007602482015260448101839052905173__DepositManager________________________91637139fda8916064808301926000929190829003018186803b1580156102db57600080fd5b60408051632b05cfad60e01b81526000600482018190526024820185905260448201849052915173__Configuration_________________________92632b05cfad9260648082019391829003018186803b15801561035d57600080fd5b6000546001549091565b60025490565b6001600160a01b039081166000908152600460205260409020541690565b6040805163044b515960e31b81526000600482018190526001600160a01b0384166024830152915173__Configuration_________________________9263225a8ac89260448082019391829003018186803b1580156102db57600080fd5b60408051633b7dd5d560e21b81526000600482018190526001600160a01b038516602483015260448201849052915173__Configuration_________________________9263edf757549260648082019391829003018186803b15801561035d57600080fd5b6040805163486f118960e11b8152600960048201526001600160a01b0383166024820152905173__DepositManager________________________916390de2312916044808301926000929190829003018186803b1580156102db57600080fdfea2646970667358221220461926a0658b543078284ba1edb67d1bcba47d09648470f65fd0dd6b4621ffc864736f6c63430006070033",
  "immutableReferences": {},
  "source": "pragma solidity ^0.6.7;\n\nimport '../../oracle/interface/IPriceOracle.sol';\nimport '../lib/Configuration.sol';\nimport '../lib/LiquidityPools.sol';\nimport '../lib/DepositManager.sol';\nimport '../lib/LoanManager.sol';\n\n\ncontract ConfigurationMock {\n    using Configuration for Configuration.State;\n    using LiquidityPools for LiquidityPools.State;\n    using DepositManager for DepositManager.State;\n    using LoanManager for LoanManager.State;\n\n    Configuration.State _configuration;\n    LiquidityPools.State _liquidityPools;\n    DepositManager.State _depositManager;\n    LoanManager.State _loanManager;\n\n    function setPriceOracle(address tokenAddress, IPriceOracle priceOracle)\n        external\n    {\n        _configuration.setPriceOracle(tokenAddress, priceOracle);\n    }\n\n    function setInterestReserveAddress(address payable interestReserveAddress)\n        external\n    {\n        _configuration.setInterestReserveAddress(interestReserveAddress);\n    }\n\n    function setProtocolReserveRatio(uint256 protocolReserveRatio) external {\n        _configuration.setProtocolReserveRatio(protocolReserveRatio);\n    }\n\n    function setBalanceCap(address tokenAddress, uint256 balanceCap) external {\n        _configuration.setBalanceCap(tokenAddress, balanceCap);\n    }\n\n    function getInterestReserveAddress()\n        external\n        view\n        returns (address interestReserveAddress)\n    {\n        return _configuration.interestReserveAddress;\n    }\n\n    function getProtocolReserveRatio()\n        external\n        view\n        returns (uint256 protocolReserveRatio)\n    {\n        return _configuration.protocolReserveRatio;\n    }\n\n    function getPriceOracleAddress(address tokenAddress)\n        external\n        view\n        returns (address priceOracleAddress)\n    {\n        return address(_configuration.priceOracleByToken[tokenAddress]);\n    }\n\n    function setMaxDistributorFeeRatios(\n        uint256 depositDistributorFeeRatio,\n        uint256 loanDistributorFeeRatio\n    ) external {\n        return\n            _configuration.setMaxDistributorFeeRatios(\n                depositDistributorFeeRatio,\n                loanDistributorFeeRatio\n            );\n    }\n\n    function getMaxDistributorFeeRatios()\n        external\n        view\n        returns (\n            uint256 depositDistributorFeeRatio,\n            uint256 loanDistributorFeeRatio\n        )\n    {\n        return (\n            _configuration.depositDistributorFeeRatio,\n            _configuration.loanDistributorFeeRatio\n        );\n    }\n\n    function getBalanceCap(address tokenAddress)\n        external\n        view\n        returns (uint256 balanceCap)\n    {\n        return _configuration.balanceCapByToken[tokenAddress];\n    }\n\n    // -- Helpers --\n\n    function enableDepositToken(address tokenAddress) external {\n        _depositManager.enableDepositToken(tokenAddress);\n    }\n\n    function enableDepositTerm(uint256 term) external {\n        _depositManager.enableDepositTerm(_liquidityPools, term);\n    }\n}\n",
  "sourcePath": "/Users/ethereum/Projects/bluestone/bluestone/contracts/protocol/mock/ConfigurationMock.sol",
  "compiler": {
    "name": "solc",
    "version": "0.6.7+commit.b8d736ae.Emscripten.clang"
  },
  "schemaVersion": "3.1.0",
  "updatedAt": "2020-09-15T02:50:37.535Z",
  "devdoc": {
    "methods": {}
  },
  "userdoc": {
    "methods": {}
  }
}