{
  "contractName": "ConfigurationMock",
  "abi": [
    {
      "inputs": [
        {
          "internalType": "address",
          "name": "tokenAddress",
          "type": "address"
        },
        {
          "internalType": "contract IPriceOracle",
          "name": "priceOracle",
          "type": "address"
        }
      ],
      "name": "setPriceOracle",
      "outputs": [],
      "stateMutability": "nonpayable",
      "type": "function"
    },
    {
      "inputs": [
        {
          "internalType": "address payable",
          "name": "interestReserveAddress",
          "type": "address"
        }
      ],
      "name": "setInterestReserveAddress",
      "outputs": [],
      "stateMutability": "nonpayable",
      "type": "function"
    },
    {
      "inputs": [
        {
          "internalType": "uint256",
          "name": "protocolReserveRatio",
          "type": "uint256"
        }
      ],
      "name": "setProtocolReserveRatio",
      "outputs": [],
      "stateMutability": "nonpayable",
      "type": "function"
    },
    {
      "inputs": [
        {
          "internalType": "address",
          "name": "tokenAddress",
          "type": "address"
        },
        {
          "internalType": "uint256",
          "name": "balanceCap",
          "type": "uint256"
        }
      ],
      "name": "setBalanceCap",
      "outputs": [],
      "stateMutability": "nonpayable",
      "type": "function"
    },
    {
      "inputs": [],
      "name": "getInterestReserveAddress",
      "outputs": [
        {
          "internalType": "address",
          "name": "interestReserveAddress",
          "type": "address"
        }
      ],
      "stateMutability": "view",
      "type": "function"
    },
    {
      "inputs": [],
      "name": "getProtocolReserveRatio",
      "outputs": [
        {
          "internalType": "uint256",
          "name": "protocolReserveRatio",
          "type": "uint256"
        }
      ],
      "stateMutability": "view",
      "type": "function"
    },
    {
      "inputs": [
        {
          "internalType": "address",
          "name": "tokenAddress",
          "type": "address"
        }
      ],
      "name": "getPriceOracleAddress",
      "outputs": [
        {
          "internalType": "address",
          "name": "priceOracleAddress",
          "type": "address"
        }
      ],
      "stateMutability": "view",
      "type": "function"
    },
    {
      "inputs": [
        {
          "internalType": "uint256",
          "name": "depositDistributorFeeRatio",
          "type": "uint256"
        },
        {
          "internalType": "uint256",
          "name": "loanDistributorFeeRatio",
          "type": "uint256"
        }
      ],
      "name": "setMaxDistributorFeeRatios",
      "outputs": [],
      "stateMutability": "nonpayable",
      "type": "function"
    },
    {
      "inputs": [],
      "name": "getMaxDistributorFeeRatios",
      "outputs": [
        {
          "internalType": "uint256",
          "name": "depositDistributorFeeRatio",
          "type": "uint256"
        },
        {
          "internalType": "uint256",
          "name": "loanDistributorFeeRatio",
          "type": "uint256"
        }
      ],
      "stateMutability": "view",
      "type": "function"
    },
    {
      "inputs": [
        {
          "internalType": "address",
          "name": "tokenAddress",
          "type": "address"
        }
      ],
      "name": "getBalanceCap",
      "outputs": [
        {
          "internalType": "uint256",
          "name": "balanceCap",
          "type": "uint256"
        }
      ],
      "stateMutability": "view",
      "type": "function"
    },
    {
      "inputs": [
        {
          "internalType": "address",
          "name": "tokenAddress",
          "type": "address"
        }
      ],
      "name": "enableDepositToken",
      "outputs": [],
      "stateMutability": "nonpayable",
      "type": "function"
    },
    {
      "inputs": [
        {
          "internalType": "uint256",
          "name": "term",
          "type": "uint256"
        }
      ],
      "name": "enableDepositTerm",
      "outputs": [],
      "stateMutability": "nonpayable",
      "type": "function"
    }
  ],
  "bytecode": "0x608060405234801561001057600080fd5b50610557806100206000396000f3fe608060405234801561001057600080fd5b50600436106100b45760003560e01c8063a461279e11610071578063a461279e14610168578063cebe314c14610183578063d30f7b391461018b578063ddd99eeb146101b7578063e064e817146101ca578063ebd7445f146101dd57600080fd5b806307a7f159146100b957806327efcbfe146100f557806367a74ddc1461010a57806383f991571461011d57806394a68ef714610142578063a04360b614610155575b600080fd5b6100e26100c7366004610445565b6001600160a01b031660009081526005602052604090205490565b6040519081526020015b60405180910390f35b6101086101033660046104ce565b6101f0565b005b610108610118366004610469565b61025e565b6003546001600160a01b03165b6040516001600160a01b0390911681526020016100ec565b6101086101503660046104ce565b6102dd565b6101086101633660046104e7565b610323565b600054600154604080519283526020830191909152016100ec565b6002546100e2565b61012a610199366004610445565b6001600160a01b039081166000908152600460205260409020541690565b6101086101c5366004610445565b610369565b6101086101d83660046104a2565b6103b0565b6101086101eb366004610445565b6103fe565b604051636fdbf96d60e11b8152600060048201526024810182905273__Configuration_________________________9063dfb7f2da906044015b60006040518083038186803b15801561024357600080fd5b505af4158015610257573d6000803e3d6000fd5b5050505050565b604051635562758f60e01b8152600060048201526001600160a01b0380841660248301528216604482015273__Configuration_________________________90635562758f906064015b60006040518083038186803b1580156102c157600080fd5b505af41580156102d5573d6000803e3d6000fd5b505050505050565b604051630e273fb560e31b815260096004820152600760248201526044810182905273__DepositManager________________________90637139fda89060640161022b565b604051632b05cfad60e01b815260006004820152602481018390526044810182905273__Configuration_________________________90632b05cfad906064016102a9565b60405163044b515960e31b8152600060048201526001600160a01b038216602482015273__Configuration_________________________9063225a8ac89060440161022b565b604051633b7dd5d560e21b8152600060048201526001600160a01b03831660248201526044810182905273__Configuration_________________________9063edf75754906064016102a9565b60405163486f118960e11b8152600960048201526001600160a01b038216602482015273__DepositManager________________________906390de23129060440161022b565b60006020828403121561045757600080fd5b813561046281610509565b9392505050565b6000806040838503121561047c57600080fd5b823561048781610509565b9150602083013561049781610509565b809150509250929050565b600080604083850312156104b557600080fd5b82356104c081610509565b946020939093013593505050565b6000602082840312156104e057600080fd5b5035919050565b600080604083850312156104fa57600080fd5b50508035926020909101359150565b6001600160a01b038116811461051e57600080fd5b5056fea264697066735822122036cc11d29bce5b1295bd644584ec8ece48c5c55a33fb80f99d46292b19505f2964736f6c63430008070033",
  "immutableReferences": {},
  "source": "// SPDX-License-Identifier: UNLICENSED\npragma solidity ^0.8.7;\n\nimport '../../oracle/interface/IPriceOracle.sol';\nimport '../lib/Configuration.sol';\nimport '../lib/LiquidityPools.sol';\nimport '../lib/DepositManager.sol';\nimport '../lib/LoanManager.sol';\n\ncontract ConfigurationMock {\n    using Configuration for Configuration.State;\n    using LiquidityPools for LiquidityPools.State;\n    using DepositManager for DepositManager.State;\n    using LoanManager for LoanManager.State;\n\n    Configuration.State _configuration;\n    LiquidityPools.State _liquidityPools;\n    DepositManager.State _depositManager;\n    LoanManager.State _loanManager;\n\n    function setPriceOracle(address tokenAddress, IPriceOracle priceOracle)\n        external\n    {\n        _configuration.setPriceOracle(tokenAddress, priceOracle);\n    }\n\n    function setInterestReserveAddress(address payable interestReserveAddress)\n        external\n    {\n        _configuration.setInterestReserveAddress(interestReserveAddress);\n    }\n\n    function setProtocolReserveRatio(uint256 protocolReserveRatio) external {\n        _configuration.setProtocolReserveRatio(protocolReserveRatio);\n    }\n\n    function setBalanceCap(address tokenAddress, uint256 balanceCap) external {\n        _configuration.setBalanceCap(tokenAddress, balanceCap);\n    }\n\n    function getInterestReserveAddress()\n        external\n        view\n        returns (address interestReserveAddress)\n    {\n        return _configuration.interestReserveAddress;\n    }\n\n    function getProtocolReserveRatio()\n        external\n        view\n        returns (uint256 protocolReserveRatio)\n    {\n        return _configuration.protocolReserveRatio;\n    }\n\n    function getPriceOracleAddress(address tokenAddress)\n        external\n        view\n        returns (address priceOracleAddress)\n    {\n        return address(_configuration.priceOracleByToken[tokenAddress]);\n    }\n\n    function setMaxDistributorFeeRatios(\n        uint256 depositDistributorFeeRatio,\n        uint256 loanDistributorFeeRatio\n    ) external {\n        return\n            _configuration.setMaxDistributorFeeRatios(\n                depositDistributorFeeRatio,\n                loanDistributorFeeRatio\n            );\n    }\n\n    function getMaxDistributorFeeRatios()\n        external\n        view\n        returns (\n            uint256 depositDistributorFeeRatio,\n            uint256 loanDistributorFeeRatio\n        )\n    {\n        return (\n            _configuration.depositDistributorFeeRatio,\n            _configuration.loanDistributorFeeRatio\n        );\n    }\n\n    function getBalanceCap(address tokenAddress)\n        external\n        view\n        returns (uint256 balanceCap)\n    {\n        return _configuration.balanceCapByToken[tokenAddress];\n    }\n\n    // -- Helpers --\n\n    function enableDepositToken(address tokenAddress) external {\n        _depositManager.enableDepositToken(tokenAddress);\n    }\n\n    function enableDepositTerm(uint256 term) external {\n        _depositManager.enableDepositTerm(_liquidityPools, term);\n    }\n}\n",
  "sourcePath": "/Users/liyangfan/Projects/WorkSpace/bluestone/contracts/protocol/mock/ConfigurationMock.sol",
  "compiler": {
    "name": "solc",
    "version": "0.8.7+commit.e28d00a7.Emscripten.clang"
  },
  "schemaVersion": "3.4.4",
  "updatedAt": "2022-11-01T09:41:33.021Z",
  "devdoc": {
    "kind": "dev",
    "methods": {},
    "version": 1
  },
  "userdoc": {
    "kind": "user",
    "methods": {},
    "version": 1
  }
}