{
  "contractName": "DaiPriceOracle",
  "abi": [
    {
      "inputs": [
        {
          "internalType": "contract IERC20",
          "name": "_weth",
          "type": "address"
        },
        {
          "internalType": "contract IERC20",
          "name": "_dai",
          "type": "address"
        },
        {
          "internalType": "contract IMedianizer",
          "name": "_medianizer",
          "type": "address"
        },
        {
          "internalType": "contract IOasisDex",
          "name": "_oasis",
          "type": "address"
        },
        {
          "internalType": "address",
          "name": "_uniswap",
          "type": "address"
        },
        {
          "internalType": "uint256",
          "name": "_oasisEthAmount",
          "type": "uint256"
        },
        {
          "internalType": "uint256",
          "name": "_priceUpperBound",
          "type": "uint256"
        },
        {
          "internalType": "uint256",
          "name": "_priceLowerBound",
          "type": "uint256"
        }
      ],
      "stateMutability": "nonpayable",
      "type": "constructor"
    },
    {
      "anonymous": false,
      "inputs": [
        {
          "indexed": false,
          "internalType": "uint256",
          "name": "oasisEthAmount",
          "type": "uint256"
        },
        {
          "indexed": false,
          "internalType": "uint256",
          "name": "oldPrice",
          "type": "uint256"
        }
      ],
      "name": "GetOasisPriceFailed",
      "type": "event"
    },
    {
      "anonymous": false,
      "inputs": [
        {
          "indexed": false,
          "internalType": "uint256",
          "name": "oasisEthAmount",
          "type": "uint256"
        },
        {
          "indexed": false,
          "internalType": "uint256",
          "name": "oasisPrice",
          "type": "uint256"
        }
      ],
      "name": "GetOasisPriceSucceed",
      "type": "event"
    },
    {
      "anonymous": false,
      "inputs": [
        {
          "indexed": true,
          "internalType": "address",
          "name": "previousOwner",
          "type": "address"
        },
        {
          "indexed": true,
          "internalType": "address",
          "name": "newOwner",
          "type": "address"
        }
      ],
      "name": "OwnershipTransferred",
      "type": "event"
    },
    {
      "anonymous": false,
      "inputs": [
        {
          "indexed": false,
          "internalType": "uint256",
          "name": "price",
          "type": "uint256"
        }
      ],
      "name": "PriceUpdated",
      "type": "event"
    },
    {
      "anonymous": false,
      "inputs": [
        {
          "indexed": true,
          "internalType": "address",
          "name": "adminAddress",
          "type": "address"
        },
        {
          "indexed": false,
          "internalType": "uint256",
          "name": "oasisEthAmount",
          "type": "uint256"
        }
      ],
      "name": "SetOasisEthAmountSucceed",
      "type": "event"
    },
    {
      "anonymous": false,
      "inputs": [
        {
          "indexed": true,
          "internalType": "address",
          "name": "adminAddress",
          "type": "address"
        },
        {
          "indexed": false,
          "internalType": "uint256",
          "name": "priceUpperBound",
          "type": "uint256"
        },
        {
          "indexed": false,
          "internalType": "uint256",
          "name": "priceLowerBound",
          "type": "uint256"
        }
      ],
      "name": "SetPriceBoundarySucceed",
      "type": "event"
    },
    {
      "inputs": [],
      "name": "dai",
      "outputs": [
        {
          "internalType": "contract IERC20",
          "name": "",
          "type": "address"
        }
      ],
      "stateMutability": "view",
      "type": "function"
    },
    {
      "inputs": [],
      "name": "lastFetchedAt",
      "outputs": [
        {
          "internalType": "uint256",
          "name": "",
          "type": "uint256"
        }
      ],
      "stateMutability": "view",
      "type": "function"
    },
    {
      "inputs": [],
      "name": "lastUpdatedAt",
      "outputs": [
        {
          "internalType": "uint256",
          "name": "",
          "type": "uint256"
        }
      ],
      "stateMutability": "view",
      "type": "function"
    },
    {
      "inputs": [],
      "name": "medianizer",
      "outputs": [
        {
          "internalType": "contract IMedianizer",
          "name": "",
          "type": "address"
        }
      ],
      "stateMutability": "view",
      "type": "function"
    },
    {
      "inputs": [],
      "name": "oasis",
      "outputs": [
        {
          "internalType": "contract IOasisDex",
          "name": "",
          "type": "address"
        }
      ],
      "stateMutability": "view",
      "type": "function"
    },
    {
      "inputs": [],
      "name": "oasisEthAmount",
      "outputs": [
        {
          "internalType": "uint256",
          "name": "",
          "type": "uint256"
        }
      ],
      "stateMutability": "view",
      "type": "function"
    },
    {
      "inputs": [],
      "name": "owner",
      "outputs": [
        {
          "internalType": "address",
          "name": "",
          "type": "address"
        }
      ],
      "stateMutability": "view",
      "type": "function"
    },
    {
      "inputs": [],
      "name": "price",
      "outputs": [
        {
          "internalType": "uint256",
          "name": "",
          "type": "uint256"
        }
      ],
      "stateMutability": "view",
      "type": "function"
    },
    {
      "inputs": [],
      "name": "priceLowerBound",
      "outputs": [
        {
          "internalType": "uint256",
          "name": "",
          "type": "uint256"
        }
      ],
      "stateMutability": "view",
      "type": "function"
    },
    {
      "inputs": [],
      "name": "priceUpperBound",
      "outputs": [
        {
          "internalType": "uint256",
          "name": "",
          "type": "uint256"
        }
      ],
      "stateMutability": "view",
      "type": "function"
    },
    {
      "inputs": [],
      "name": "renounceOwnership",
      "outputs": [],
      "stateMutability": "nonpayable",
      "type": "function"
    },
    {
      "inputs": [
        {
          "internalType": "address",
          "name": "newOwner",
          "type": "address"
        }
      ],
      "name": "transferOwnership",
      "outputs": [],
      "stateMutability": "nonpayable",
      "type": "function"
    },
    {
      "inputs": [],
      "name": "uniswap",
      "outputs": [
        {
          "internalType": "address",
          "name": "",
          "type": "address"
        }
      ],
      "stateMutability": "view",
      "type": "function"
    },
    {
      "inputs": [],
      "name": "weth",
      "outputs": [
        {
          "internalType": "contract IERC20",
          "name": "",
          "type": "address"
        }
      ],
      "stateMutability": "view",
      "type": "function"
    },
    {
      "inputs": [
        {
          "internalType": "uint256",
          "name": "_oasisEthAmount",
          "type": "uint256"
        }
      ],
      "name": "setOasisEthAmount",
      "outputs": [],
      "stateMutability": "nonpayable",
      "type": "function"
    },
    {
      "inputs": [
        {
          "internalType": "uint256",
          "name": "_priceUpperBound",
          "type": "uint256"
        },
        {
          "internalType": "uint256",
          "name": "_priceLowerBound",
          "type": "uint256"
        }
      ],
      "name": "setPriceBoundary",
      "outputs": [],
      "stateMutability": "nonpayable",
      "type": "function"
    },
    {
      "inputs": [],
      "name": "updatePriceIfNeeded",
      "outputs": [],
      "stateMutability": "nonpayable",
      "type": "function"
    },
    {
      "inputs": [],
      "name": "getPrice",
      "outputs": [
        {
          "internalType": "uint256",
          "name": "",
          "type": "uint256"
        }
      ],
      "stateMutability": "view",
      "type": "function"
    },
    {
      "inputs": [],
      "name": "fetchPrice",
      "outputs": [
        {
          "internalType": "uint256",
          "name": "",
          "type": "uint256"
        }
      ],
      "stateMutability": "nonpayable",
      "type": "function"
    },
    {
      "inputs": [],
      "name": "getMedianizerPrice",
      "outputs": [
        {
          "internalType": "uint256",
          "name": "",
          "type": "uint256"
        }
      ],
      "stateMutability": "view",
      "type": "function"
    },
    {
      "inputs": [
        {
          "internalType": "uint256",
          "name": "ethUsd",
          "type": "uint256"
        }
      ],
      "name": "getOasisPrice",
      "outputs": [
        {
          "internalType": "uint256",
          "name": "",
          "type": "uint256"
        }
      ],
      "stateMutability": "nonpayable",
      "type": "function"
    },
    {
      "inputs": [
        {
          "internalType": "uint256",
          "name": "ethUsd",
          "type": "uint256"
        }
      ],
      "name": "getUniswapPrice",
      "outputs": [
        {
          "internalType": "uint256",
          "name": "",
          "type": "uint256"
        }
      ],
      "stateMutability": "view",
      "type": "function"
    }
  ],
  "bytecode": "0x60806040523480156200001157600080fd5b50604051620013ca380380620013ca83398101604081905262000034916200011c565b6000620000496001600160e01b036200011816565b600080546001600160a01b0319166001600160a01b0383169081178255604051929350917f8be0079c531659141344cd1fd0a4f28419497f9722a3daafe3b4186f6b6457e0908290a350600180546001600160a01b03199081166001600160a01b039a8b1617909155600280548216988a16989098179097556003805488169689169690961790955560048054871694881694909417909355600580549095169190951617909255600692909255600755600855670de0b6b3a764000060095542600a819055600b55620001cf565b3390565b600080600080600080600080610100898b03121562000139578384fd5b88516200014681620001b6565b60208a01519098506200015981620001b6565b60408a01519097506200016c81620001b6565b60608a01519096506200017f81620001b6565b60808a01519095506200019281620001b6565b60a08a015160c08b015160e0909b0151999c989b5096999598909790945092505050565b6001600160a01b0381168114620001cc57600080fd5b50565b6111eb80620001df6000396000f3fe608060405234801561001057600080fd5b50600436106101415760003560e01c80638c2b1444116100b8578063a3afda1a1161007c578063a3afda1a1461020c578063b972821914610214578063f1bf44fd1461021c578063f2fde38b1461022f578063f4b9fa7514610242578063f62fb7d21461024a57610141565b80638c2b1444146101d95780638da5cb5b146101e15780638db80719146101e957806398d5fdca146101fc578063a035b1fe1461020457610141565b80632681f7e41161010a5780632681f7e41461019c57806327ed82be146101a457806331c8d924146101ac5780633fc8cef3146101bf57806354aea127146101c7578063715018a6146101cf57610141565b80621c58be14610146578063053571e1146101645780630a7d8486146101795780630fdb11cf146101815780631b76bb6d14610189575b600080fd5b61014e610252565b60405161015b919061117e565b60405180910390f35b61016c610258565b60405161015b9190610f28565b61014e610267565b61014e6102e9565b61014e610197366004610ece565b61032b565b61016c610775565b61014e610784565b61014e6101ba366004610ece565b61078a565b61016c610845565b61014e610854565b6101d761085a565b005b61014e6108e2565b61016c6108e8565b6101d76101f7366004610ee6565b6108f7565b61014e6109c4565b61014e6109ca565b61016c6109d0565b61014e6109df565b6101d761022a366004610ece565b6109e5565b6101d761023d366004610e6f565b610a7c565b61016c610b32565b6101d7610b41565b60065481565b6003546001600160a01b031681565b600354604080516315f789a960e21b815290516000926001600160a01b0316916357de26a4916004808301926020929190829003018186803b1580156102ac57600080fd5b505afa1580156102c0573d6000803e3d6000fd5b505050506040513d601f19601f820116820180604052508101906102e49190610eb6565b905090565b6000806102f4610267565b905060006103018261032b565b9050600061030e8361078a565b90506103238282670de0b6b3a7640000610cb0565b935050505090565b6000600460009054906101000a90046001600160a01b03166001600160a01b031663c2b6b58c6040518163ffffffff1660e01b815260040160206040518083038186803b15801561037b57600080fd5b505afa15801561038f573d6000803e3d6000fd5b505050506040513d601f19601f820116820180604052508101906103b39190610e96565b806104355750600480546040805163f582d29360e01b815290516001600160a01b039092169263f582d293928282019260209290829003018186803b1580156103fb57600080fd5b505afa15801561040f573d6000803e3d6000fd5b505050506040513d601f19601f820116820180604052508101906104339190610e96565b155b806104b7575060048054604080516301492a0b60e01b815290516001600160a01b03909216926301492a0b928282019260209290829003018186803b15801561047d57600080fd5b505afa158015610491573d6000803e3d6000fd5b505050506040513d601f19601f820116820180604052508101906104b59190610e96565b155b156104c55750600954610770565b60048054600254600154600654604051630a2513a960e11b81526001600160a01b039485169563144a2752956105019581169416929101610f3c565b60206040518083038186803b15801561051957600080fd5b505afa925050508015610549575060408051601f3d908101601f1916820190925261054691810190610eb6565b60015b61058157600080516020611196833981519152600654600954604051610570929190611187565b60405180910390a150600954610770565b806105bb576000805160206111968339815191526006546009546040516105a9929190611187565b60405180910390a15050600954610770565b600480546002546001546006546040516001623809a360e21b031981526001600160a01b039485169563ff1fd974956105fa9581169416929101610f3c565b60206040518083038186803b15801561061257600080fd5b505afa925050508015610642575060408051601f3d908101601f1916820190925261063f91810190610eb6565b60015b610669576000805160206111968339815191526006546009546040516105a9929190611187565b806106a557600080516020611196833981519152600654600954604051610691929190611187565b60405180910390a160095492505050610770565b60006106de6106bf84600654610d0590919063ffffffff16565b6006546106d2908563ffffffff610d0516565b9063ffffffff610d4816565b9050600061070360026106f7868663ffffffff610d0516565b9063ffffffff610d0516565b905060006107278261071b898663ffffffff610d0516565b9063ffffffff610d6d16565b90507f175191ea0c86f64235c34673d60dbeb640803472fc12071f41fdeec05904dc156006548260405161075c929190611187565b60405180910390a194506107709350505050565b919050565b6005546001600160a01b031681565b600a5481565b6005546002546040516370a0823160e01b81526000926001600160a01b0390811680319385939216916370a08231916107c591600401610f28565b60206040518083038186803b1580156107dd57600080fd5b505afa1580156107f1573d6000803e3d6000fd5b505050506040513d601f19601f820116820180604052508101906108159190610eb6565b9050806108285760095492505050610770565b61083c8161071b868563ffffffff610d0516565b92505050610770565b6001546001600160a01b031681565b600b5481565b610862610daf565b6000546001600160a01b039081169116146108985760405162461bcd60e51b815260040161088f90611100565b60405180910390fd5b600080546040516001600160a01b03909116907f8be0079c531659141344cd1fd0a4f28419497f9722a3daafe3b4186f6b6457e0908390a3600080546001600160a01b0319169055565b60085481565b6000546001600160a01b031690565b6108ff610daf565b6000546001600160a01b0390811691161461092c5760405162461bcd60e51b815260040161088f90611100565b670de0b6b3a764000082116109535760405162461bcd60e51b815260040161088f90611135565b670de0b6b3a7640000811061097a5760405162461bcd60e51b815260040161088f906110b7565b6007829055600881905560405133907f89dfd73ad1e5c67b88e9fe1d36c9eb2d1a077bbfcca0084d9e7dc75306631307906109b89085908590611187565b60405180910390a25050565b60095490565b60095481565b6004546001600160a01b031681565b60075481565b6109ed610daf565b6000546001600160a01b03908116911614610a1a5760405162461bcd60e51b815260040161088f90611100565b60008111610a3a5760405162461bcd60e51b815260040161088f90611030565b600681905560405133907fd3c1ddea05709acf5e9d9d99ad9bbf37572a0cbab431d283b39d85d6c44348f090610a7190849061117e565b60405180910390a250565b610a84610daf565b6000546001600160a01b03908116911614610ab15760405162461bcd60e51b815260040161088f90611100565b6001600160a01b038116610ad75760405162461bcd60e51b815260040161088f90610fb3565b600080546040516001600160a01b03808516939216917f8be0079c531659141344cd1fd0a4f28419497f9722a3daafe3b4186f6b6457e091a3600080546001600160a01b0319166001600160a01b0392909216919091179055565b6002546001600160a01b031681565b600173__DateTime______________________________633e239e1a600a5442036040518263ffffffff1660e01b8152600401610b7e919061117e565b60206040518083038186803b158015610b9657600080fd5b505af4158015610baa573d6000803e3d6000fd5b505050506040513d601f19601f82011682018060405250810190610bce9190610f07565b60ff161015610bdc57610cae565b6000610be66102e9565b42600a556009549091508110801590610c195750662386f26fc10000610c1760095483610db390919063ffffffff16565b105b80610c49575060095481108015610c495750600954662386f26fc1000090610c47908363ffffffff610db316565b105b80610c605750600854811080610c60575060075481115b15610c6b5750610cae565b600981905542600b556040517f66cbca4f3c64fecf1dcb9ce094abcf7f68c3450a1d4e3a8e917dd621edb4ebe090610ca490839061117e565b60405180910390a1505b565b600080610cc685610cc18686610df5565b610df5565b905084811415610ce257610cda8484610df5565b915050610cfe565b83811415610cf457610cda8584610df5565b610cda8585610df5565b9392505050565b600082610d1457506000610d42565b82820282848281610d2157fe5b0414610d3f5760405162461bcd60e51b815260040161088f90611076565b90505b92915050565b600082820183811015610d3f5760405162461bcd60e51b815260040161088f90610ff9565b6000610d3f83836040518060400160405280601a81526020017f536166654d6174683a206469766973696f6e206279207a65726f000000000000815250610e0c565b3390565b6000610d3f83836040518060400160405280601e81526020017f536166654d6174683a207375627472616374696f6e206f766572666c6f770000815250610e43565b600081831015610e055781610d3f565b5090919050565b60008183610e2d5760405162461bcd60e51b815260040161088f9190610f60565b506000838581610e3957fe5b0495945050505050565b60008184841115610e675760405162461bcd60e51b815260040161088f9190610f60565b505050900390565b600060208284031215610e80578081fd5b81356001600160a01b0381168114610d3f578182fd5b600060208284031215610ea7578081fd5b81518015158114610d3f578182fd5b600060208284031215610ec7578081fd5b5051919050565b600060208284031215610edf578081fd5b5035919050565b60008060408385031215610ef8578081fd5b50508035926020909101359150565b600060208284031215610f18578081fd5b815160ff81168114610d3f578182fd5b6001600160a01b0391909116815260200190565b6001600160a01b039384168152919092166020820152604081019190915260600190565b6000602080835283518082850152825b81811015610f8c57858101830151858201604001528201610f70565b81811115610f9d5783604083870101525b50601f01601f1916929092016040019392505050565b60208082526026908201527f4f776e61626c653a206e6577206f776e657220697320746865207a65726f206160408201526564647265737360d01b606082015260800190565b6020808252601b908201527f536166654d6174683a206164646974696f6e206f766572666c6f770000000000604082015260600190565b60208082526026908201527f44616950726963654f7261636c653a20696e76616c6964206f61736973457468604082015265105b5bdd5b9d60d21b606082015260800190565b60208082526021908201527f536166654d6174683a206d756c7469706c69636174696f6e206f766572666c6f6040820152607760f81b606082015260800190565b60208082526029908201527f44616950726963654f7261636c653a20696e76616c6964206c6f77657220626f604082015268756e6420707269636560b81b606082015260800190565b6020808252818101527f4f776e61626c653a2063616c6c6572206973206e6f7420746865206f776e6572604082015260600190565b60208082526029908201527f44616950726963654f7261636c653a20696e76616c696420757070657220626f604082015268756e6420707269636560b81b606082015260800190565b90815260200190565b91825260208201526040019056fede0650cb59a100f33f3aee65019f0ae9dc20344adba34a16175667c41545185da26469706673582212201ebb1fb80a57dc9da27ef34e9784c0f84aa51a691cda7d11a1274c68e7ee31d364736f6c63430006070033",
  "immutableReferences": {},
  "source": "pragma solidity ^0.6.7;\npragma experimental ABIEncoderV2;\n\nimport '@openzeppelin/contracts/access/Ownable.sol';\nimport '@openzeppelin/contracts/token/ERC20/IERC20.sol';\nimport '@openzeppelin/contracts/math/Math.sol';\nimport '@openzeppelin/contracts/math/SafeMath.sol';\nimport '../common/interface/IMedianizer.sol';\nimport '../common/interface/IOasisDex.sol';\nimport '../common/lib/DateTime.sol';\nimport './interface/IPriceOracle.sol';\n\n\ncontract DaiPriceOracle is IPriceOracle, Ownable {\n    using SafeMath for uint256;\n\n    uint256 constant EXPECTED_PRICE = 10**18; // 1.0\n\n    // Minimum time difference in hours to trigger price fetch\n    uint256 constant MIN_HOURS_DIFF = 1;\n\n    // Minimum price difference to trigger price update\n    uint256 constant MIN_PRICE_DIFF = 10**16; // 0.01 (1%)\n\n    event PriceUpdated(uint256 price);\n    event SetOasisEthAmountSucceed(\n        address indexed adminAddress,\n        uint256 oasisEthAmount\n    );\n    event SetPriceBoundarySucceed(\n        address indexed adminAddress,\n        uint256 priceUpperBound,\n        uint256 priceLowerBound\n    );\n    event GetOasisPriceSucceed(uint256 oasisEthAmount, uint256 oasisPrice);\n    event GetOasisPriceFailed(uint256 oasisEthAmount, uint256 oldPrice);\n\n    IERC20 public weth;\n    IERC20 public dai;\n    IMedianizer public medianizer;\n    IOasisDex public oasis;\n    address public uniswap;\n    uint256 public oasisEthAmount;\n    uint256 public priceUpperBound;\n    uint256 public priceLowerBound;\n    uint256 public price;\n    uint256 public lastFetchedAt;\n    uint256 public lastUpdatedAt;\n\n    constructor(\n        IERC20 _weth,\n        IERC20 _dai,\n        IMedianizer _medianizer,\n        IOasisDex _oasis,\n        address _uniswap,\n        uint256 _oasisEthAmount,\n        uint256 _priceUpperBound,\n        uint256 _priceLowerBound\n    ) public {\n        weth = _weth;\n        dai = _dai;\n        medianizer = _medianizer;\n        oasis = _oasis;\n        uniswap = _uniswap;\n        oasisEthAmount = _oasisEthAmount;\n        priceUpperBound = _priceUpperBound;\n        priceLowerBound = _priceLowerBound;\n        price = EXPECTED_PRICE;\n        lastFetchedAt = now;\n        lastUpdatedAt = now;\n    }\n\n    function setOasisEthAmount(uint256 _oasisEthAmount) external onlyOwner {\n        require(_oasisEthAmount > 0, 'DaiPriceOracle: invalid oasisEthAmount');\n\n        oasisEthAmount = _oasisEthAmount;\n\n        emit SetOasisEthAmountSucceed(msg.sender, _oasisEthAmount);\n    }\n\n    function setPriceBoundary(\n        uint256 _priceUpperBound,\n        uint256 _priceLowerBound\n    ) external onlyOwner {\n        require(\n            _priceUpperBound > EXPECTED_PRICE,\n            'DaiPriceOracle: invalid upper bound price'\n        );\n        require(\n            _priceLowerBound < EXPECTED_PRICE,\n            'DaiPriceOracle: invalid lower bound price'\n        );\n\n        priceUpperBound = _priceUpperBound;\n        priceLowerBound = _priceLowerBound;\n\n        emit SetPriceBoundarySucceed(\n            msg.sender,\n            _priceUpperBound,\n            _priceLowerBound\n        );\n    }\n\n    // prettier-ignore\n    function updatePriceIfNeeded() external override {\n        if (DateTime.getHour(now - lastFetchedAt) < MIN_HOURS_DIFF) {\n            return;\n        }\n\n        uint256 newPrice = fetchPrice();\n        lastFetchedAt = now;\n\n        /// Do not update price if:\n        /// 1. Price diff is too small, or\n        /// 2. New price is smaller than lower bound or larger than upper bound\n        if (\n            (newPrice >= price && newPrice.sub(price) < MIN_PRICE_DIFF) ||\n            (newPrice < price && price.sub(newPrice) < MIN_PRICE_DIFF) ||\n            (newPrice < priceLowerBound || newPrice > priceUpperBound)\n        ) {\n            return;\n        }\n\n        price = newPrice;\n        lastUpdatedAt = now;\n\n        emit PriceUpdated(price);\n    }\n\n    // prettier-ignore\n    function getPrice() external view override returns (uint256) {\n        return price;\n    }\n\n    function fetchPrice() public returns (uint256) {\n        uint256 ethPrice = getMedianizerPrice();\n        uint256 oasisPrice = getOasisPrice(ethPrice);\n        uint256 uniswapPrice = getUniswapPrice(ethPrice);\n\n        return _getMidValue(oasisPrice, uniswapPrice, EXPECTED_PRICE);\n    }\n\n    function getMedianizerPrice() public view returns (uint256) {\n        return uint256(medianizer.read());\n    }\n\n    function getOasisPrice(uint256 ethUsd) public returns (uint256) {\n        // If Oasis is not operational, return old price\n        if (\n            oasis.isClosed() || !oasis.buyEnabled() || !oasis.matchingEnabled()\n        ) {\n            return price;\n        }\n\n        try\n            oasis.getBuyAmount(address(dai), address(weth), oasisEthAmount)\n        returns (uint256 buyAmount) {\n            if (buyAmount == 0) {\n                emit GetOasisPriceFailed(oasisEthAmount, price);\n                return price;\n            }\n\n            try\n                oasis.getPayAmount(address(dai), address(weth), oasisEthAmount)\n            returns (uint256 payAmount) {\n                if (payAmount == 0) {\n                    emit GetOasisPriceFailed(oasisEthAmount, price);\n                    return price;\n                }\n\n                uint256 num = oasisEthAmount.mul(payAmount).add(\n                    oasisEthAmount.mul(buyAmount)\n                );\n                uint256 den = buyAmount.mul(payAmount).mul(2);\n                uint256 oasisPrice = ethUsd.mul(num).div(den);\n\n                emit GetOasisPriceSucceed(oasisEthAmount, oasisPrice);\n                return oasisPrice;\n            } catch {\n                /// In case there is not enough depth and the Oasis call reverts,\n                /// emit an error event and return current price\n                emit GetOasisPriceFailed(oasisEthAmount, price);\n                return price;\n            }\n        } catch {\n            /// In case there is not enough depth and the Oasis call reverts,\n            /// emit an error event and return current price\n            emit GetOasisPriceFailed(oasisEthAmount, price);\n            return price;\n        }\n    }\n\n    function getUniswapPrice(uint256 ethUsd) public view returns (uint256) {\n        uint256 ethAmt = uniswap.balance;\n        uint256 daiAmt = dai.balanceOf(uniswap);\n\n        if (daiAmt == 0) {\n            return price;\n        } else {\n            return ethUsd.mul(ethAmt).div(daiAmt);\n        }\n    }\n\n    function _getMidValue(\n        uint256 a,\n        uint256 b,\n        uint256 c\n    ) private pure returns (uint256) {\n        uint256 maximum = Math.max(a, Math.max(b, c));\n\n        if (maximum == a) {\n            return Math.max(b, c);\n        } else if (maximum == b) {\n            return Math.max(a, c);\n        } else {\n            return Math.max(a, b);\n        }\n    }\n}\n",
  "sourcePath": "/Users/ethereum/Projects/bluestone/bluestone/contracts/oracle/DaiPriceOracle.sol",
  "compiler": {
    "name": "solc",
    "version": "0.6.7+commit.b8d736ae.Emscripten.clang"
  },
  "schemaVersion": "3.1.0",
  "updatedAt": "2020-09-15T02:50:37.454Z",
  "devdoc": {
    "methods": {
      "owner()": {
        "details": "Returns the address of the current owner."
      },
      "renounceOwnership()": {
        "details": "Leaves the contract without owner. It will not be possible to call `onlyOwner` functions anymore. Can only be called by the current owner.     * NOTE: Renouncing ownership will leave the contract without an owner, thereby removing any functionality that is only available to the owner."
      },
      "transferOwnership(address)": {
        "details": "Transfers ownership of the contract to a new account (`newOwner`). Can only be called by the current owner."
      }
    }
  },
  "userdoc": {
    "methods": {}
  }
}