{
  "contractName": "DaiPriceOracle",
  "abi": [
    {
      "inputs": [
        {
          "internalType": "contract IERC20",
          "name": "_weth",
          "type": "address"
        },
        {
          "internalType": "contract IERC20",
          "name": "_dai",
          "type": "address"
        },
        {
          "internalType": "contract IMedianizer",
          "name": "_medianizer",
          "type": "address"
        },
        {
          "internalType": "contract IOasisDex",
          "name": "_oasis",
          "type": "address"
        },
        {
          "internalType": "address",
          "name": "_uniswap",
          "type": "address"
        },
        {
          "internalType": "uint256",
          "name": "_oasisEthAmount",
          "type": "uint256"
        },
        {
          "internalType": "uint256",
          "name": "_priceUpperBound",
          "type": "uint256"
        },
        {
          "internalType": "uint256",
          "name": "_priceLowerBound",
          "type": "uint256"
        }
      ],
      "stateMutability": "nonpayable",
      "type": "constructor"
    },
    {
      "anonymous": false,
      "inputs": [
        {
          "indexed": false,
          "internalType": "uint256",
          "name": "oasisEthAmount",
          "type": "uint256"
        },
        {
          "indexed": false,
          "internalType": "uint256",
          "name": "oldPrice",
          "type": "uint256"
        }
      ],
      "name": "GetOasisPriceFailed",
      "type": "event"
    },
    {
      "anonymous": false,
      "inputs": [
        {
          "indexed": false,
          "internalType": "uint256",
          "name": "oasisEthAmount",
          "type": "uint256"
        },
        {
          "indexed": false,
          "internalType": "uint256",
          "name": "oasisPrice",
          "type": "uint256"
        }
      ],
      "name": "GetOasisPriceSucceed",
      "type": "event"
    },
    {
      "anonymous": false,
      "inputs": [
        {
          "indexed": true,
          "internalType": "address",
          "name": "previousOwner",
          "type": "address"
        },
        {
          "indexed": true,
          "internalType": "address",
          "name": "newOwner",
          "type": "address"
        }
      ],
      "name": "OwnershipTransferred",
      "type": "event"
    },
    {
      "anonymous": false,
      "inputs": [
        {
          "indexed": false,
          "internalType": "uint256",
          "name": "price",
          "type": "uint256"
        }
      ],
      "name": "PriceUpdated",
      "type": "event"
    },
    {
      "anonymous": false,
      "inputs": [
        {
          "indexed": true,
          "internalType": "address",
          "name": "adminAddress",
          "type": "address"
        },
        {
          "indexed": false,
          "internalType": "uint256",
          "name": "oasisEthAmount",
          "type": "uint256"
        }
      ],
      "name": "SetOasisEthAmountSucceed",
      "type": "event"
    },
    {
      "anonymous": false,
      "inputs": [
        {
          "indexed": true,
          "internalType": "address",
          "name": "adminAddress",
          "type": "address"
        },
        {
          "indexed": false,
          "internalType": "uint256",
          "name": "priceUpperBound",
          "type": "uint256"
        },
        {
          "indexed": false,
          "internalType": "uint256",
          "name": "priceLowerBound",
          "type": "uint256"
        }
      ],
      "name": "SetPriceBoundarySucceed",
      "type": "event"
    },
    {
      "inputs": [],
      "name": "dai",
      "outputs": [
        {
          "internalType": "contract IERC20",
          "name": "",
          "type": "address"
        }
      ],
      "stateMutability": "view",
      "type": "function"
    },
    {
      "inputs": [],
      "name": "lastFetchedAt",
      "outputs": [
        {
          "internalType": "uint256",
          "name": "",
          "type": "uint256"
        }
      ],
      "stateMutability": "view",
      "type": "function"
    },
    {
      "inputs": [],
      "name": "lastUpdatedAt",
      "outputs": [
        {
          "internalType": "uint256",
          "name": "",
          "type": "uint256"
        }
      ],
      "stateMutability": "view",
      "type": "function"
    },
    {
      "inputs": [],
      "name": "medianizer",
      "outputs": [
        {
          "internalType": "contract IMedianizer",
          "name": "",
          "type": "address"
        }
      ],
      "stateMutability": "view",
      "type": "function"
    },
    {
      "inputs": [],
      "name": "oasis",
      "outputs": [
        {
          "internalType": "contract IOasisDex",
          "name": "",
          "type": "address"
        }
      ],
      "stateMutability": "view",
      "type": "function"
    },
    {
      "inputs": [],
      "name": "oasisEthAmount",
      "outputs": [
        {
          "internalType": "uint256",
          "name": "",
          "type": "uint256"
        }
      ],
      "stateMutability": "view",
      "type": "function"
    },
    {
      "inputs": [],
      "name": "owner",
      "outputs": [
        {
          "internalType": "address",
          "name": "",
          "type": "address"
        }
      ],
      "stateMutability": "view",
      "type": "function"
    },
    {
      "inputs": [],
      "name": "price",
      "outputs": [
        {
          "internalType": "uint256",
          "name": "",
          "type": "uint256"
        }
      ],
      "stateMutability": "view",
      "type": "function"
    },
    {
      "inputs": [],
      "name": "priceLowerBound",
      "outputs": [
        {
          "internalType": "uint256",
          "name": "",
          "type": "uint256"
        }
      ],
      "stateMutability": "view",
      "type": "function"
    },
    {
      "inputs": [],
      "name": "priceUpperBound",
      "outputs": [
        {
          "internalType": "uint256",
          "name": "",
          "type": "uint256"
        }
      ],
      "stateMutability": "view",
      "type": "function"
    },
    {
      "inputs": [],
      "name": "renounceOwnership",
      "outputs": [],
      "stateMutability": "nonpayable",
      "type": "function"
    },
    {
      "inputs": [
        {
          "internalType": "address",
          "name": "newOwner",
          "type": "address"
        }
      ],
      "name": "transferOwnership",
      "outputs": [],
      "stateMutability": "nonpayable",
      "type": "function"
    },
    {
      "inputs": [],
      "name": "uniswap",
      "outputs": [
        {
          "internalType": "address",
          "name": "",
          "type": "address"
        }
      ],
      "stateMutability": "view",
      "type": "function"
    },
    {
      "inputs": [],
      "name": "weth",
      "outputs": [
        {
          "internalType": "contract IERC20",
          "name": "",
          "type": "address"
        }
      ],
      "stateMutability": "view",
      "type": "function"
    },
    {
      "inputs": [
        {
          "internalType": "uint256",
          "name": "_oasisEthAmount",
          "type": "uint256"
        }
      ],
      "name": "setOasisEthAmount",
      "outputs": [],
      "stateMutability": "nonpayable",
      "type": "function"
    },
    {
      "inputs": [
        {
          "internalType": "uint256",
          "name": "_priceUpperBound",
          "type": "uint256"
        },
        {
          "internalType": "uint256",
          "name": "_priceLowerBound",
          "type": "uint256"
        }
      ],
      "name": "setPriceBoundary",
      "outputs": [],
      "stateMutability": "nonpayable",
      "type": "function"
    },
    {
      "inputs": [],
      "name": "updatePriceIfNeeded",
      "outputs": [],
      "stateMutability": "nonpayable",
      "type": "function"
    },
    {
      "inputs": [],
      "name": "getPrice",
      "outputs": [
        {
          "internalType": "uint256",
          "name": "",
          "type": "uint256"
        }
      ],
      "stateMutability": "view",
      "type": "function"
    },
    {
      "inputs": [],
      "name": "fetchPrice",
      "outputs": [
        {
          "internalType": "uint256",
          "name": "",
          "type": "uint256"
        }
      ],
      "stateMutability": "nonpayable",
      "type": "function"
    },
    {
      "inputs": [],
      "name": "getMedianizerPrice",
      "outputs": [
        {
          "internalType": "uint256",
          "name": "",
          "type": "uint256"
        }
      ],
      "stateMutability": "view",
      "type": "function"
    },
    {
      "inputs": [
        {
          "internalType": "uint256",
          "name": "ethUsd",
          "type": "uint256"
        }
      ],
      "name": "getOasisPrice",
      "outputs": [
        {
          "internalType": "uint256",
          "name": "",
          "type": "uint256"
        }
      ],
      "stateMutability": "nonpayable",
      "type": "function"
    },
    {
      "inputs": [
        {
          "internalType": "uint256",
          "name": "ethUsd",
          "type": "uint256"
        }
      ],
      "name": "getUniswapPrice",
      "outputs": [
        {
          "internalType": "uint256",
          "name": "",
          "type": "uint256"
        }
      ],
      "stateMutability": "view",
      "type": "function"
    }
  ],
  "bytecode": "0x60806040523480156200001157600080fd5b50604051620010e4380380620010e4833981016040819052620000349162000114565b6200003f33620000c4565b600180546001600160a01b03199081166001600160a01b039a8b1617909155600280548216988a16989098179097556003805488169689169690961790955560048054871694881694909417909355600580549095169190951617909255600692909255600755600855670de0b6b3a764000060095542600a819055600b55620001c8565b600080546001600160a01b038381166001600160a01b0319831681178455604051919092169283917f8be0079c531659141344cd1fd0a4f28419497f9722a3daafe3b4186f6b6457e09190a35050565b600080600080600080600080610100898b0312156200013257600080fd5b88516200013f81620001af565b60208a01519098506200015281620001af565b60408a01519097506200016581620001af565b60608a01519096506200017881620001af565b60808a01519095506200018b81620001af565b60a08a015160c08b015160e0909b0151999c989b5096999598909790945092505050565b6001600160a01b0381168114620001c557600080fd5b50565b610f0c80620001d86000396000f3fe608060405234801561001057600080fd5b50600436106101415760003560e01c80638c2b1444116100b8578063a3afda1a1161007c578063a3afda1a14610243578063b972821914610256578063f1bf44fd1461025f578063f2fde38b14610272578063f4b9fa7514610285578063f62fb7d21461029857600080fd5b80638c2b1444146102055780638da5cb5b1461020e5780638db807191461021f57806398d5fdca14610232578063a035b1fe1461023a57600080fd5b80632681f7e41161010a5780632681f7e4146101b057806327ed82be146101c357806331c8d924146101cc5780633fc8cef3146101df57806354aea127146101f2578063715018a6146101fb57600080fd5b80621c58be14610146578063053571e1146101625780630a7d84861461018d5780630fdb11cf146101955780631b76bb6d1461019d575b600080fd5b61014f60065481565b6040519081526020015b60405180910390f35b600354610175906001600160a01b031681565b6040516001600160a01b039091168152602001610159565b61014f6102a0565b61014f610322565b61014f6101ab366004610dd2565b610364565b600554610175906001600160a01b031681565b61014f600a5481565b61014f6101da366004610dd2565b6107b6565b600154610175906001600160a01b031681565b61014f600b5481565b610203610867565b005b61014f60085481565b6000546001600160a01b0316610175565b61020361022d366004610deb565b61087b565b60095461014f565b61014f60095481565b600454610175906001600160a01b031681565b61014f60075481565b61020361026d366004610dd2565b6109a3565b610203610280366004610d6e565b610a47565b600254610175906001600160a01b031681565b610203610ac0565b600354604080516315f789a960e21b815290516000926001600160a01b0316916357de26a4916004808301926020929190829003018186803b1580156102e557600080fd5b505afa1580156102f9573d6000803e3d6000fd5b505050506040513d601f19601f8201168201806040525081019061031d9190610db9565b919050565b60008061032d6102a0565b9050600061033a82610364565b90506000610347836107b6565b905061035c8282670de0b6b3a7640000610c28565b935050505090565b6000600460009054906101000a90046001600160a01b03166001600160a01b031663c2b6b58c6040518163ffffffff1660e01b815260040160206040518083038186803b1580156103b457600080fd5b505afa1580156103c8573d6000803e3d6000fd5b505050506040513d601f19601f820116820180604052508101906103ec9190610d97565b8061046e5750600480546040805163f582d29360e01b815290516001600160a01b039092169263f582d293928282019260209290829003018186803b15801561043457600080fd5b505afa158015610448573d6000803e3d6000fd5b505050506040513d601f19601f8201168201806040525081019061046c9190610d97565b155b806104f0575060048054604080516301492a0b60e01b815290516001600160a01b03909216926301492a0b928282019260209290829003018186803b1580156104b657600080fd5b505afa1580156104ca573d6000803e3d6000fd5b505050506040513d601f19601f820116820180604052508101906104ee9190610d97565b155b156104fd57505060095490565b60048054600254600154600654604051630a2513a960e11b81526001600160a01b039384169581019590955290821660248501526044840152169063144a27529060640160206040518083038186803b15801561055957600080fd5b505afa925050508015610589575060408051601f3d908101601f1916820190925261058691810190610db9565b60015b6105c957600080516020610eb78339815191526006546009546040516105b9929190918252602082015260400190565b60405180910390a1505060095490565b8061060c57600080516020610eb78339815191526006546009546040516105fa929190918252602082015260400190565b60405180910390a15050600954919050565b600480546002546001546006546040516001623809a360e21b031981526001600160a01b039384169581019590955290821660248501526044840152169063ff1fd9749060640160206040518083038186803b15801561066b57600080fd5b505afa92505050801561069b575060408051601f3d908101601f1916820190925261069891810190610db9565b60015b6106cb57600080516020610eb78339815191526006546009546040516105fa929190918252602082015260400190565b8061070f57600080516020610eb78339815191526006546009546040516106fc929190918252602082015260400190565b60405180910390a1505060095492915050565b600061073c61072984600654610c7d90919063ffffffff16565b6006546107369085610c7d565b90610c89565b90506000610755600261074f8686610c7d565b90610c7d565b9050600061076d826107678986610c7d565b90610c95565b60065460408051918252602082018390529192507f175191ea0c86f64235c34673d60dbeb640803472fc12071f41fdeec05904dc15910160405180910390a19695505050505050565b6005546002546040516370a0823160e01b81526001600160a01b039283166004820181905260009390319284929116906370a082319060240160206040518083038186803b15801561080757600080fd5b505afa15801561081b573d6000803e3d6000fd5b505050506040513d601f19601f8201168201806040525081019061083f9190610db9565b90508061085157505060095492915050565b61085f816107678685610c7d565b949350505050565b61086f610ca1565b6108796000610cfb565b565b610883610ca1565b670de0b6b3a764000082116108f15760405162461bcd60e51b815260206004820152602960248201527f44616950726963654f7261636c653a20696e76616c696420757070657220626f604482015268756e6420707269636560b81b60648201526084015b60405180910390fd5b670de0b6b3a7640000811061095a5760405162461bcd60e51b815260206004820152602960248201527f44616950726963654f7261636c653a20696e76616c6964206c6f77657220626f604482015268756e6420707269636560b81b60648201526084016108e8565b60078290556008819055604080518381526020810183905233917f89dfd73ad1e5c67b88e9fe1d36c9eb2d1a077bbfcca0084d9e7dc75306631307910160405180910390a25050565b6109ab610ca1565b60008111610a0a5760405162461bcd60e51b815260206004820152602660248201527f44616950726963654f7261636c653a20696e76616c6964206f61736973457468604482015265105b5bdd5b9d60d21b60648201526084016108e8565b600681905560405181815233907fd3c1ddea05709acf5e9d9d99ad9bbf37572a0cbab431d283b39d85d6c44348f09060200160405180910390a250565b610a4f610ca1565b6001600160a01b038116610ab45760405162461bcd60e51b815260206004820152602660248201527f4f776e61626c653a206e6577206f776e657220697320746865207a65726f206160448201526564647265737360d01b60648201526084016108e8565b610abd81610cfb565b50565b600173__DateTime______________________________633e239e1a600a5442610aea9190610e89565b6040518263ffffffff1660e01b8152600401610b0891815260200190565b60206040518083038186803b158015610b2057600080fd5b505af4158015610b34573d6000803e3d6000fd5b505050506040513d601f19601f82011682018060405250810190610b589190610e0d565b60ff161015610b6357565b6000610b6d610322565b42600a556009549091508110801590610ba05750662386f26fc10000610b9e60095483610d4b90919063ffffffff16565b105b80610bca575060095481108015610bca5750600954662386f26fc1000090610bc89083610d4b565b105b80610be15750600854811080610be1575060075481115b15610be95750565b600981905542600b556040518181527f66cbca4f3c64fecf1dcb9ce094abcf7f68c3450a1d4e3a8e917dd621edb4ebe09060200160405180910390a150565b600080610c3e85610c398686610d57565b610d57565b905084811415610c5a57610c528484610d57565b915050610c76565b83811415610c6c57610c528584610d57565b610c528585610d57565b9392505050565b6000610c768284610e6a565b6000610c768284610e30565b6000610c768284610e48565b6000546001600160a01b031633146108795760405162461bcd60e51b815260206004820181905260248201527f4f776e61626c653a2063616c6c6572206973206e6f7420746865206f776e657260448201526064016108e8565b600080546001600160a01b038381166001600160a01b0319831681178455604051919092169283917f8be0079c531659141344cd1fd0a4f28419497f9722a3daafe3b4186f6b6457e09190a35050565b6000610c768284610e89565b600081831015610d675781610c76565b5090919050565b600060208284031215610d8057600080fd5b81356001600160a01b0381168114610c7657600080fd5b600060208284031215610da957600080fd5b81518015158114610c7657600080fd5b600060208284031215610dcb57600080fd5b5051919050565b600060208284031215610de457600080fd5b5035919050565b60008060408385031215610dfe57600080fd5b50508035926020909101359150565b600060208284031215610e1f57600080fd5b815160ff81168114610c7657600080fd5b60008219821115610e4357610e43610ea0565b500190565b600082610e6557634e487b7160e01b600052601260045260246000fd5b500490565b6000816000190483118215151615610e8457610e84610ea0565b500290565b600082821015610e9b57610e9b610ea0565b500390565b634e487b7160e01b600052601160045260246000fdfede0650cb59a100f33f3aee65019f0ae9dc20344adba34a16175667c41545185da26469706673582212200e207fa0f9fcc9bec803d59a2cde7581ead074edf5634a209026629a785817c264736f6c63430008070033",
  "immutableReferences": {},
  "source": "// SPDX-License-Identifier: UNLICENSED\npragma solidity ^0.8.7;\npragma experimental ABIEncoderV2;\n\nimport '@openzeppelin/contracts/access/Ownable.sol';\nimport '@openzeppelin/contracts/token/ERC20/IERC20.sol';\nimport '@openzeppelin/contracts/utils/math/Math.sol';\nimport '@openzeppelin/contracts/utils/math/SafeMath.sol';\nimport '../common/interface/IMedianizer.sol';\nimport '../common/interface/IOasisDex.sol';\nimport '../common/lib/DateTime.sol';\nimport './interface/IPriceOracle.sol';\n\n\ncontract DaiPriceOracle is IPriceOracle, Ownable {\n    using SafeMath for uint256;\n\n    uint256 constant EXPECTED_PRICE = 10**18; // 1.0\n\n    // Minimum time difference in hours to trigger price fetch\n    uint256 constant MIN_HOURS_DIFF = 1;\n\n    // Minimum price difference to trigger price update\n    uint256 constant MIN_PRICE_DIFF = 10**16; // 0.01 (1%)\n\n    event PriceUpdated(uint256 price);\n    event SetOasisEthAmountSucceed(\n        address indexed adminAddress,\n        uint256 oasisEthAmount\n    );\n    event SetPriceBoundarySucceed(\n        address indexed adminAddress,\n        uint256 priceUpperBound,\n        uint256 priceLowerBound\n    );\n    event GetOasisPriceSucceed(uint256 oasisEthAmount, uint256 oasisPrice);\n    event GetOasisPriceFailed(uint256 oasisEthAmount, uint256 oldPrice);\n\n    IERC20 public weth;\n    IERC20 public dai;\n    IMedianizer public medianizer;\n    IOasisDex public oasis;\n    address public uniswap;\n    uint256 public oasisEthAmount;\n    uint256 public priceUpperBound;\n    uint256 public priceLowerBound;\n    uint256 public price;\n    uint256 public lastFetchedAt;\n    uint256 public lastUpdatedAt;\n\n    constructor(\n        IERC20 _weth,\n        IERC20 _dai,\n        IMedianizer _medianizer,\n        IOasisDex _oasis,\n        address _uniswap,\n        uint256 _oasisEthAmount,\n        uint256 _priceUpperBound,\n        uint256 _priceLowerBound\n    ) {\n        weth = _weth;\n        dai = _dai;\n        medianizer = _medianizer;\n        oasis = _oasis;\n        uniswap = _uniswap;\n        oasisEthAmount = _oasisEthAmount;\n        priceUpperBound = _priceUpperBound;\n        priceLowerBound = _priceLowerBound;\n        price = EXPECTED_PRICE;\n        lastFetchedAt = block.timestamp;\n        lastUpdatedAt = block.timestamp;\n    }\n\n    function setOasisEthAmount(uint256 _oasisEthAmount) external onlyOwner {\n        require(_oasisEthAmount > 0, 'DaiPriceOracle: invalid oasisEthAmount');\n\n        oasisEthAmount = _oasisEthAmount;\n\n        emit SetOasisEthAmountSucceed(msg.sender, _oasisEthAmount);\n    }\n\n    function setPriceBoundary(\n        uint256 _priceUpperBound,\n        uint256 _priceLowerBound\n    ) external onlyOwner {\n        require(\n            _priceUpperBound > EXPECTED_PRICE,\n            'DaiPriceOracle: invalid upper bound price'\n        );\n        require(\n            _priceLowerBound < EXPECTED_PRICE,\n            'DaiPriceOracle: invalid lower bound price'\n        );\n\n        priceUpperBound = _priceUpperBound;\n        priceLowerBound = _priceLowerBound;\n\n        emit SetPriceBoundarySucceed(\n            msg.sender,\n            _priceUpperBound,\n            _priceLowerBound\n        );\n    }\n\n    // prettier-ignore\n    function updatePriceIfNeeded() external override {\n        if (DateTime.getHour(block.timestamp - lastFetchedAt) < MIN_HOURS_DIFF) {\n            return;\n        }\n\n        uint256 newPrice = fetchPrice();\n        lastFetchedAt = block.timestamp;\n\n        /// Do not update price if:\n        /// 1. Price diff is too small, or\n        /// 2. New price is smaller than lower bound or larger than upper bound\n        if (\n            (newPrice >= price && newPrice.sub(price) < MIN_PRICE_DIFF) ||\n            (newPrice < price && price.sub(newPrice) < MIN_PRICE_DIFF) ||\n            (newPrice < priceLowerBound || newPrice > priceUpperBound)\n        ) {\n            return;\n        }\n\n        price = newPrice;\n        lastUpdatedAt = block.timestamp;\n\n        emit PriceUpdated(price);\n    }\n\n    // prettier-ignore\n    function getPrice() external view override returns (uint256) {\n        return price;\n    }\n\n    function fetchPrice() public returns (uint256) {\n        uint256 ethPrice = getMedianizerPrice();\n        uint256 oasisPrice = getOasisPrice(ethPrice);\n        uint256 uniswapPrice = getUniswapPrice(ethPrice);\n\n        return _getMidValue(oasisPrice, uniswapPrice, EXPECTED_PRICE);\n    }\n\n    function getMedianizerPrice() public view returns (uint256) {\n        return uint256(medianizer.read());\n    }\n\n    function getOasisPrice(uint256 ethUsd) public returns (uint256) {\n        // If Oasis is not operational, return old price\n        if (\n            oasis.isClosed() || !oasis.buyEnabled() || !oasis.matchingEnabled()\n        ) {\n            return price;\n        }\n\n        try\n            oasis.getBuyAmount(address(dai), address(weth), oasisEthAmount)\n        returns (uint256 buyAmount) {\n            if (buyAmount == 0) {\n                emit GetOasisPriceFailed(oasisEthAmount, price);\n                return price;\n            }\n\n            try\n                oasis.getPayAmount(address(dai), address(weth), oasisEthAmount)\n            returns (uint256 payAmount) {\n                if (payAmount == 0) {\n                    emit GetOasisPriceFailed(oasisEthAmount, price);\n                    return price;\n                }\n\n                uint256 num = oasisEthAmount.mul(payAmount).add(\n                    oasisEthAmount.mul(buyAmount)\n                );\n                uint256 den = buyAmount.mul(payAmount).mul(2);\n                uint256 oasisPrice = ethUsd.mul(num).div(den);\n\n                emit GetOasisPriceSucceed(oasisEthAmount, oasisPrice);\n                return oasisPrice;\n            } catch {\n                /// In case there is not enough depth and the Oasis call reverts,\n                /// emit an error event and return current price\n                emit GetOasisPriceFailed(oasisEthAmount, price);\n                return price;\n            }\n        } catch {\n            /// In case there is not enough depth and the Oasis call reverts,\n            /// emit an error event and return current price\n            emit GetOasisPriceFailed(oasisEthAmount, price);\n            return price;\n        }\n    }\n\n    function getUniswapPrice(uint256 ethUsd) public view returns (uint256) {\n        uint256 ethAmt = uniswap.balance;\n        uint256 daiAmt = dai.balanceOf(uniswap);\n\n        if (daiAmt == 0) {\n            return price;\n        } else {\n            return ethUsd.mul(ethAmt).div(daiAmt);\n        }\n    }\n\n    function _getMidValue(\n        uint256 a,\n        uint256 b,\n        uint256 c\n    ) private pure returns (uint256) {\n        uint256 maximum = Math.max(a, Math.max(b, c));\n\n        if (maximum == a) {\n            return Math.max(b, c);\n        } else if (maximum == b) {\n            return Math.max(a, c);\n        } else {\n            return Math.max(a, b);\n        }\n    }\n}\n",
  "sourcePath": "/Users/liyangfan/Projects/WorkSpace/bluestone/contracts/oracle/DaiPriceOracle.sol",
  "compiler": {
    "name": "solc",
    "version": "0.8.7+commit.e28d00a7.Emscripten.clang"
  },
  "schemaVersion": "3.4.4",
  "updatedAt": "2022-09-04T04:07:38.334Z",
  "networkType": "ethereum",
  "devdoc": {
    "kind": "dev",
    "methods": {
      "getPrice()": {
        "returns": {
          "_0": "tokenPrice"
        }
      },
      "owner()": {
        "details": "Returns the address of the current owner."
      },
      "renounceOwnership()": {
        "details": "Leaves the contract without owner. It will not be possible to call `onlyOwner` functions anymore. Can only be called by the current owner. NOTE: Renouncing ownership will leave the contract without an owner, thereby removing any functionality that is only available to the owner."
      },
      "transferOwnership(address)": {
        "details": "Transfers ownership of the contract to a new account (`newOwner`). Can only be called by the current owner."
      },
      "updatePriceIfNeeded()": {
        "details": "Call this function before getPrice() if price freshness is important"
      }
    },
    "version": 1
  },
  "userdoc": {
    "kind": "user",
    "methods": {
      "getPrice()": {
        "notice": "Return the current token price in USD"
      },
      "updatePriceIfNeeded()": {
        "notice": "Update the token price if necessary"
      }
    },
    "version": 1
  }
}