{
  "contractName": "DateTime",
  "abi": [
    {
      "inputs": [],
      "name": "dayInSeconds",
      "outputs": [
        {
          "internalType": "uint256",
          "name": "",
          "type": "uint256"
        }
      ],
      "stateMutability": "pure",
      "type": "function",
      "constant": true
    },
    {
      "inputs": [
        {
          "internalType": "uint256",
          "name": "timestamp",
          "type": "uint256"
        }
      ],
      "name": "getHour",
      "outputs": [
        {
          "internalType": "uint8",
          "name": "",
          "type": "uint8"
        }
      ],
      "stateMutability": "pure",
      "type": "function",
      "constant": true
    },
    {
      "inputs": [
        {
          "internalType": "uint256",
          "name": "timestamp",
          "type": "uint256"
        }
      ],
      "name": "getMinute",
      "outputs": [
        {
          "internalType": "uint8",
          "name": "",
          "type": "uint8"
        }
      ],
      "stateMutability": "pure",
      "type": "function",
      "constant": true
    },
    {
      "inputs": [
        {
          "internalType": "uint256",
          "name": "timestamp",
          "type": "uint256"
        }
      ],
      "name": "getSecond",
      "outputs": [
        {
          "internalType": "uint8",
          "name": "",
          "type": "uint8"
        }
      ],
      "stateMutability": "pure",
      "type": "function",
      "constant": true
    },
    {
      "inputs": [
        {
          "internalType": "uint256",
          "name": "timestamp",
          "type": "uint256"
        }
      ],
      "name": "secondsUntilMidnight",
      "outputs": [
        {
          "internalType": "uint256",
          "name": "",
          "type": "uint256"
        }
      ],
      "stateMutability": "pure",
      "type": "function",
      "constant": true
    },
    {
      "inputs": [
        {
          "internalType": "uint256",
          "name": "timestamp",
          "type": "uint256"
        }
      ],
      "name": "toDays",
      "outputs": [
        {
          "internalType": "uint256",
          "name": "",
          "type": "uint256"
        }
      ],
      "stateMutability": "pure",
      "type": "function",
      "constant": true
    },
    {
      "inputs": [],
      "name": "toDays",
      "outputs": [
        {
          "internalType": "uint256",
          "name": "",
          "type": "uint256"
        }
      ],
      "stateMutability": "view",
      "type": "function",
      "constant": true
    },
    {
      "inputs": [
        {
          "internalType": "uint256",
          "name": "timestamp",
          "type": "uint256"
        }
      ],
      "name": "to3Minutes",
      "outputs": [
        {
          "internalType": "uint256",
          "name": "",
          "type": "uint256"
        }
      ],
      "stateMutability": "pure",
      "type": "function",
      "constant": true
    }
  ],
  "bytecode": "0x61031861003a600b82828239805160001a60731461002d57634e487b7160e01b600052600060045260246000fd5b30600052607381538281f3fe73000000000000000000000000000000000000000030146080604052600436106100925760003560e01c8063a5655d9011610065578063a5655d9014610108578063ae63586c1461011b578063fa93f88314610124578063fada01711461013757600080fd5b80630cd6f239146100975780633e239e1a146100bd57806348e8b0bb146100e25780638aa001fc146100f5575b600080fd5b6100aa6100a536600461023f565b61013f565b6040519081526020015b60405180910390f35b6100d06100cb36600461023f565b610154565b60405160ff90911681526020016100b4565b6100aa6100f036600461023f565b610178565b6100d061010336600461023f565b61019f565b6100aa61011636600461023f565b6101ac565b620151806100aa565b6100d061013236600461023f565b610221565b6100aa61022f565b600061014e6201518083610258565b92915050565b60006018603c6101648185610258565b61016e9190610258565b61014e91906102a2565b60006003603c61018b62015180856102a2565b6101959190610258565b61014e9190610258565b600061014e603c836102a2565b6000806101b883610154565b905060006101c584610221565b905060006101d28561019f565b90508060ff16603c8360ff166101e8919061026c565b6101f7610e1060ff871661026c565b610204906201518061028b565b61020e919061028b565b610218919061028b565b95945050505050565b6000603c61016e8184610258565b600061023a4261013f565b905090565b60006020828403121561025157600080fd5b5035919050565b600082610267576102676102cc565b500490565b6000816000190483118215151615610286576102866102b6565b500290565b60008282101561029d5761029d6102b6565b500390565b6000826102b1576102b16102cc565b500690565b634e487b7160e01b600052601160045260246000fd5b634e487b7160e01b600052601260045260246000fdfea26469706673582212206603bb86a0285f5a0049764a90c0fb7616a9122a47fab69b4df261c363c439a064736f6c63430008070033",
  "immutableReferences": {},
  "source": "// SPDX-License-Identifier: UNLICENSED\npragma solidity ^0.8.7;\n\n/// Unix timestamp conversion utilities\n/// To learn more, try this online converter: https://www.epochconverter.com/\nlibrary DateTime {\n    uint256 constant DAY_IN_SECONDS = 86400;\n    uint256 constant HOUR_IN_SECONDS = 3600;\n    uint256 constant MINUTE_IN_SECONDS = 60;\n\n    function dayInSeconds() public pure returns (uint256) {\n        return 86400;\n    }\n\n    function getHour(uint256 timestamp) public pure returns (uint8) {\n        return uint8((timestamp / 60 / 60) % 24);\n    }\n\n    function getMinute(uint256 timestamp) public pure returns (uint8) {\n        return uint8((timestamp / 60) % 60);\n    }\n\n    function getSecond(uint256 timestamp) public pure returns (uint8) {\n        return uint8(timestamp % 60);\n    }\n\n    function secondsUntilMidnight(uint256 timestamp)\n        public\n        pure\n        returns (uint256)\n    {\n        uint8 hour = getHour(timestamp);\n        uint8 minute = getMinute(timestamp);\n        uint8 second = getSecond(timestamp);\n\n        return\n            DAY_IN_SECONDS -\n            hour *\n            HOUR_IN_SECONDS -\n            minute *\n            MINUTE_IN_SECONDS -\n            second;\n    }\n\n    function toDays() external view returns (uint256) {\n        return toDays(block.timestamp);\n    }\n\n    function toDays(uint256 timestamp) public pure returns (uint256) {\n        return timestamp / DAY_IN_SECONDS;\n    }\n\n    function to3Minutes(uint256 timestamp) external pure returns (uint256) {\n        return uint256(timestamp % DAY_IN_SECONDS) / MINUTE_IN_SECONDS / 3;\n    }\n}\n",
  "sourcePath": "/Users/liyangfan/Projects/WorkSpace/bluestone/contracts/common/lib/DateTime.sol",
  "compiler": {
    "name": "solc",
    "version": "0.8.7+commit.e28d00a7.Emscripten.clang"
  },
  "schemaVersion": "3.4.4",
  "updatedAt": "2022-11-01T09:49:14.834Z",
  "networkType": "ethereum",
  "devdoc": {
    "kind": "dev",
    "methods": {},
    "version": 1
  },
  "userdoc": {
    "kind": "user",
    "methods": {},
    "notice": "Unix timestamp conversion utilities To learn more, try this online converter: https://www.epochconverter.com/",
    "version": 1
  }
}