{
  "contractName": "DateTime",
  "abi": [
    {
      "inputs": [],
      "name": "dayInSeconds",
      "outputs": [
        {
          "internalType": "uint256",
          "name": "",
          "type": "uint256"
        }
      ],
      "stateMutability": "pure",
      "type": "function"
    },
    {
      "inputs": [
        {
          "internalType": "uint256",
          "name": "timestamp",
          "type": "uint256"
        }
      ],
      "name": "getHour",
      "outputs": [
        {
          "internalType": "uint8",
          "name": "",
          "type": "uint8"
        }
      ],
      "stateMutability": "pure",
      "type": "function"
    },
    {
      "inputs": [
        {
          "internalType": "uint256",
          "name": "timestamp",
          "type": "uint256"
        }
      ],
      "name": "getMinute",
      "outputs": [
        {
          "internalType": "uint8",
          "name": "",
          "type": "uint8"
        }
      ],
      "stateMutability": "pure",
      "type": "function"
    },
    {
      "inputs": [
        {
          "internalType": "uint256",
          "name": "timestamp",
          "type": "uint256"
        }
      ],
      "name": "getSecond",
      "outputs": [
        {
          "internalType": "uint8",
          "name": "",
          "type": "uint8"
        }
      ],
      "stateMutability": "pure",
      "type": "function"
    },
    {
      "inputs": [
        {
          "internalType": "uint256",
          "name": "timestamp",
          "type": "uint256"
        }
      ],
      "name": "secondsUntilMidnight",
      "outputs": [
        {
          "internalType": "uint256",
          "name": "",
          "type": "uint256"
        }
      ],
      "stateMutability": "pure",
      "type": "function"
    },
    {
      "inputs": [
        {
          "internalType": "uint256",
          "name": "timestamp",
          "type": "uint256"
        }
      ],
      "name": "toDays",
      "outputs": [
        {
          "internalType": "uint256",
          "name": "",
          "type": "uint256"
        }
      ],
      "stateMutability": "pure",
      "type": "function"
    },
    {
      "inputs": [],
      "name": "toDays",
      "outputs": [
        {
          "internalType": "uint256",
          "name": "",
          "type": "uint256"
        }
      ],
      "stateMutability": "view",
      "type": "function"
    },
    {
      "inputs": [
        {
          "internalType": "uint256",
          "name": "timestamp",
          "type": "uint256"
        }
      ],
      "name": "to3Minutes",
      "outputs": [
        {
          "internalType": "uint256",
          "name": "",
          "type": "uint256"
        }
      ],
      "stateMutability": "pure",
      "type": "function"
    }
  ],
  "bytecode": "0x610262610026600b82828239805160001a60731461001957fe5b30600052607381538281f3fe73000000000000000000000000000000000000000030146080604052600436106100925760003560e01c8063a5655d9011610065578063a5655d9014610133578063ae63586c14610150578063fa93f88314610158578063fada01711461017557610092565b80630cd6f239146100975780633e239e1a146100c657806348e8b0bb146100f95780638aa001fc14610116575b600080fd5b6100b4600480360360208110156100ad57600080fd5b503561017d565b60408051918252519081900360200190f35b6100e3600480360360208110156100dc57600080fd5b503561018c565b6040805160ff9092168252519081900360200190f35b6100b46004803603602081101561010f57600080fd5b50356101a5565b6100e36004803603602081101561012c57600080fd5b50356101b7565b6100b46004803603602081101561014957600080fd5b50356101c1565b6100b461020a565b6100e36004803603602081101561016e57600080fd5b5035610211565b6100b461021c565b600062015180825b0492915050565b60006018603c8084045b048161019e57fe5b0692915050565b60006003603c62015180840604610185565b6000603c8261019e565b6000806101cd8361018c565b905060006101da84610211565b905060006101e7856101b7565b60ff908116928116603c029316610e100262015180039290920303915050919050565b6201518090565b6000603c8083610196565b60006102274261017d565b90509056fea264697066735822122057d57f08a27f34345808324d6753c94af1f5faa9983c072cb4fa83d66fd2067b64736f6c63430006070033",
  "immutableReferences": {},
  "source": "pragma solidity ^0.6.7;\n\n\n/// Unix timestamp conversion utilities\n/// To learn more, try this online converter: https://www.epochconverter.com/\nlibrary DateTime {\n    uint256 constant DAY_IN_SECONDS = 86400;\n    uint256 constant HOUR_IN_SECONDS = 3600;\n    uint256 constant MINUTE_IN_SECONDS = 60;\n\n    function dayInSeconds() public pure returns (uint256) {\n        return 86400;\n    }\n\n    function getHour(uint256 timestamp) public pure returns (uint8) {\n        return uint8((timestamp / 60 / 60) % 24);\n    }\n\n    function getMinute(uint256 timestamp) public pure returns (uint8) {\n        return uint8((timestamp / 60) % 60);\n    }\n\n    function getSecond(uint256 timestamp) public pure returns (uint8) {\n        return uint8(timestamp % 60);\n    }\n\n    function secondsUntilMidnight(uint256 timestamp)\n        public\n        pure\n        returns (uint256)\n    {\n        uint8 hour = getHour(timestamp);\n        uint8 minute = getMinute(timestamp);\n        uint8 second = getSecond(timestamp);\n\n        return\n            DAY_IN_SECONDS -\n            hour *\n            HOUR_IN_SECONDS -\n            minute *\n            MINUTE_IN_SECONDS -\n            second;\n    }\n\n    function toDays() external view returns (uint256) {\n        return toDays(now);\n    }\n\n    function toDays(uint256 timestamp) public pure returns (uint256) {\n        return timestamp / DAY_IN_SECONDS;\n    }\n\n    function to3Minutes(uint256 timestamp) external pure returns (uint256) {\n        return uint256(timestamp % DAY_IN_SECONDS) / MINUTE_IN_SECONDS / 3;\n    }\n}\n",
  "sourcePath": "/Users/ethereum/Projects/bluestone/bluestone/contracts/common/lib/DateTime.sol",
  "compiler": {
    "name": "solc",
    "version": "0.6.7+commit.b8d736ae.Emscripten.clang"
  },
  "schemaVersion": "3.1.0",
  "updatedAt": "2020-09-15T02:50:37.442Z",
  "devdoc": {
    "methods": {}
  },
  "userdoc": {
    "methods": {},
    "notice": "Unix timestamp conversion utilities To learn more, try this online converter: https://www.epochconverter.com/"
  }
}