{
  "contractName": "DepositManagerMock",
  "abi": [
    {
      "inputs": [
        {
          "internalType": "uint256",
          "name": "term",
          "type": "uint256"
        }
      ],
      "name": "enableDepositTerm",
      "outputs": [],
      "stateMutability": "nonpayable",
      "type": "function"
    },
    {
      "inputs": [
        {
          "internalType": "uint256[]",
          "name": "terms",
          "type": "uint256[]"
        }
      ],
      "name": "enableDepositTerms",
      "outputs": [],
      "stateMutability": "nonpayable",
      "type": "function"
    },
    {
      "inputs": [
        {
          "internalType": "uint256",
          "name": "term",
          "type": "uint256"
        }
      ],
      "name": "disableDepositTerm",
      "outputs": [],
      "stateMutability": "nonpayable",
      "type": "function"
    },
    {
      "inputs": [
        {
          "internalType": "uint256[]",
          "name": "terms",
          "type": "uint256[]"
        }
      ],
      "name": "disableDepositTerms",
      "outputs": [],
      "stateMutability": "nonpayable",
      "type": "function"
    },
    {
      "inputs": [
        {
          "internalType": "address",
          "name": "tokenAddress",
          "type": "address"
        }
      ],
      "name": "enableDepositToken",
      "outputs": [],
      "stateMutability": "nonpayable",
      "type": "function"
    },
    {
      "inputs": [
        {
          "internalType": "address",
          "name": "tokenAddress",
          "type": "address"
        }
      ],
      "name": "disableDepositToken",
      "outputs": [],
      "stateMutability": "nonpayable",
      "type": "function"
    },
    {
      "inputs": [
        {
          "internalType": "uint256",
          "name": "depositDistributorFeeRatio",
          "type": "uint256"
        },
        {
          "internalType": "uint256",
          "name": "loanDistributorFeeRatio",
          "type": "uint256"
        }
      ],
      "name": "setMaxDistributorFeeRatios",
      "outputs": [],
      "stateMutability": "nonpayable",
      "type": "function"
    },
    {
      "inputs": [
        {
          "internalType": "address",
          "name": "tokenAddress",
          "type": "address"
        },
        {
          "internalType": "uint256",
          "name": "depositAmount",
          "type": "uint256"
        },
        {
          "internalType": "uint256",
          "name": "depositTerm",
          "type": "uint256"
        },
        {
          "internalType": "address payable",
          "name": "distributorAddress",
          "type": "address"
        }
      ],
      "name": "deposit",
      "outputs": [
        {
          "internalType": "bytes32",
          "name": "depositId",
          "type": "bytes32"
        }
      ],
      "stateMutability": "payable",
      "type": "function"
    },
    {
      "inputs": [
        {
          "internalType": "bytes32",
          "name": "depositId",
          "type": "bytes32"
        }
      ],
      "name": "withdraw",
      "outputs": [
        {
          "internalType": "uint256",
          "name": "withdrewAmount",
          "type": "uint256"
        }
      ],
      "stateMutability": "nonpayable",
      "type": "function"
    },
    {
      "inputs": [
        {
          "internalType": "bytes32",
          "name": "depositId",
          "type": "bytes32"
        }
      ],
      "name": "earlyWithdraw",
      "outputs": [
        {
          "internalType": "uint256",
          "name": "withdrewAmount",
          "type": "uint256"
        }
      ],
      "stateMutability": "nonpayable",
      "type": "function"
    },
    {
      "inputs": [],
      "name": "getDepositTerms",
      "outputs": [
        {
          "internalType": "uint256[]",
          "name": "depositTermList",
          "type": "uint256[]"
        }
      ],
      "stateMutability": "view",
      "type": "function"
    },
    {
      "inputs": [],
      "name": "getDepositTokens",
      "outputs": [
        {
          "internalType": "address[]",
          "name": "depositTokenAddressList",
          "type": "address[]"
        }
      ],
      "stateMutability": "view",
      "type": "function"
    },
    {
      "inputs": [
        {
          "internalType": "bytes32",
          "name": "depositId",
          "type": "bytes32"
        }
      ],
      "name": "getDepositRecordById",
      "outputs": [
        {
          "components": [
            {
              "internalType": "bytes32",
              "name": "depositId",
              "type": "bytes32"
            },
            {
              "internalType": "address",
              "name": "tokenAddress",
              "type": "address"
            },
            {
              "internalType": "uint256",
              "name": "depositTerm",
              "type": "uint256"
            },
            {
              "internalType": "uint256",
              "name": "depositAmount",
              "type": "uint256"
            },
            {
              "internalType": "uint256",
              "name": "poolId",
              "type": "uint256"
            },
            {
              "internalType": "uint256",
              "name": "interest",
              "type": "uint256"
            },
            {
              "internalType": "uint256",
              "name": "createdAt",
              "type": "uint256"
            },
            {
              "internalType": "uint256",
              "name": "withdrewAt",
              "type": "uint256"
            },
            {
              "internalType": "uint256",
              "name": "weight",
              "type": "uint256"
            }
          ],
          "internalType": "struct IStruct.GetDepositRecordResponse",
          "name": "depositRecord",
          "type": "tuple"
        }
      ],
      "stateMutability": "view",
      "type": "function"
    },
    {
      "inputs": [
        {
          "internalType": "bytes32",
          "name": "depositId",
          "type": "bytes32"
        }
      ],
      "name": "getInterestDistributionByDepositId",
      "outputs": [
        {
          "internalType": "uint256",
          "name": "interestForDepositor",
          "type": "uint256"
        },
        {
          "internalType": "uint256",
          "name": "interestForDepositDistributor",
          "type": "uint256"
        },
        {
          "internalType": "uint256",
          "name": "interestForLoanDistributor",
          "type": "uint256"
        },
        {
          "internalType": "uint256",
          "name": "interestForProtocolReserve",
          "type": "uint256"
        }
      ],
      "stateMutability": "view",
      "type": "function"
    },
    {
      "inputs": [
        {
          "internalType": "address",
          "name": "accountAddress",
          "type": "address"
        }
      ],
      "name": "getDepositRecordsByAccount",
      "outputs": [
        {
          "components": [
            {
              "internalType": "bytes32",
              "name": "depositId",
              "type": "bytes32"
            },
            {
              "internalType": "address",
              "name": "tokenAddress",
              "type": "address"
            },
            {
              "internalType": "uint256",
              "name": "depositTerm",
              "type": "uint256"
            },
            {
              "internalType": "uint256",
              "name": "depositAmount",
              "type": "uint256"
            },
            {
              "internalType": "uint256",
              "name": "poolId",
              "type": "uint256"
            },
            {
              "internalType": "uint256",
              "name": "interest",
              "type": "uint256"
            },
            {
              "internalType": "uint256",
              "name": "createdAt",
              "type": "uint256"
            },
            {
              "internalType": "uint256",
              "name": "withdrewAt",
              "type": "uint256"
            },
            {
              "internalType": "uint256",
              "name": "weight",
              "type": "uint256"
            }
          ],
          "internalType": "struct IStruct.GetDepositRecordResponse[]",
          "name": "depositRecordList",
          "type": "tuple[]"
        }
      ],
      "stateMutability": "view",
      "type": "function"
    },
    {
      "inputs": [
        {
          "internalType": "bytes32",
          "name": "depositId",
          "type": "bytes32"
        }
      ],
      "name": "isDepositEarlyWithdrawable",
      "outputs": [
        {
          "internalType": "bool",
          "name": "isEarlyWithdrawable",
          "type": "bool"
        }
      ],
      "stateMutability": "view",
      "type": "function"
    },
    {
      "inputs": [
        {
          "internalType": "address",
          "name": "tokenAddress",
          "type": "address"
        },
        {
          "internalType": "uint256",
          "name": "poolId",
          "type": "uint256"
        }
      ],
      "name": "getPoolById",
      "outputs": [
        {
          "components": [
            {
              "internalType": "uint256",
              "name": "depositAmount",
              "type": "uint256"
            },
            {
              "internalType": "uint256",
              "name": "availableAmount",
              "type": "uint256"
            },
            {
              "internalType": "uint256",
              "name": "loanInterest",
              "type": "uint256"
            },
            {
              "internalType": "uint256",
              "name": "totalDepositWeight",
              "type": "uint256"
            },
            {
              "internalType": "uint256",
              "name": "depositDistributorFeeRatio",
              "type": "uint256"
            },
            {
              "internalType": "uint256",
              "name": "loanDistributorFeeRatio",
              "type": "uint256"
            },
            {
              "internalType": "uint256",
              "name": "protocolReserveRatio",
              "type": "uint256"
            }
          ],
          "internalType": "struct IStruct.Pool",
          "name": "pool",
          "type": "tuple"
        }
      ],
      "stateMutability": "view",
      "type": "function"
    },
    {
      "inputs": [],
      "name": "getPoolGroupSize",
      "outputs": [
        {
          "internalType": "uint256",
          "name": "poolGroupSize",
          "type": "uint256"
        }
      ],
      "stateMutability": "view",
      "type": "function"
    },
    {
      "inputs": [
        {
          "internalType": "contract IInterestModel",
          "name": "interestModel",
          "type": "address"
        }
      ],
      "name": "setInterestModel",
      "outputs": [],
      "stateMutability": "nonpayable",
      "type": "function"
    },
    {
      "inputs": [
        {
          "internalType": "address payable",
          "name": "interestReserveAddress",
          "type": "address"
        }
      ],
      "name": "setInterestReserveAddress",
      "outputs": [],
      "stateMutability": "nonpayable",
      "type": "function"
    },
    {
      "inputs": [
        {
          "internalType": "address",
          "name": "tokenAddress",
          "type": "address"
        },
        {
          "internalType": "uint256",
          "name": "balanceCap",
          "type": "uint256"
        }
      ],
      "name": "setBalanceCap",
      "outputs": [],
      "stateMutability": "nonpayable",
      "type": "function"
    },
    {
      "inputs": [
        {
          "internalType": "address",
          "name": "tokenAddress",
          "type": "address"
        },
        {
          "internalType": "contract IPriceOracle",
          "name": "priceOracle",
          "type": "address"
        }
      ],
      "name": "setPriceOracle",
      "outputs": [],
      "stateMutability": "nonpayable",
      "type": "function"
    },
    {
      "inputs": [
        {
          "internalType": "address",
          "name": "loanTokenAddress",
          "type": "address"
        },
        {
          "internalType": "address",
          "name": "collateralTokenAddress",
          "type": "address"
        },
        {
          "internalType": "uint256",
          "name": "minCollateralCoverageRatio",
          "type": "uint256"
        },
        {
          "internalType": "uint256",
          "name": "liquidationDiscount",
          "type": "uint256"
        }
      ],
      "name": "setLoanAndCollateralTokenPair",
      "outputs": [],
      "stateMutability": "nonpayable",
      "type": "function"
    },
    {
      "inputs": [
        {
          "internalType": "address",
          "name": "loanTokenAddress",
          "type": "address"
        },
        {
          "internalType": "address",
          "name": "collateralTokenAddress",
          "type": "address"
        },
        {
          "internalType": "uint256",
          "name": "loanAmount",
          "type": "uint256"
        },
        {
          "internalType": "uint256",
          "name": "collateralAmount",
          "type": "uint256"
        },
        {
          "internalType": "uint256",
          "name": "loanTerm",
          "type": "uint256"
        },
        {
          "internalType": "address payable",
          "name": "distributorAddress",
          "type": "address"
        }
      ],
      "name": "loan",
      "outputs": [
        {
          "internalType": "bytes32",
          "name": "loanId",
          "type": "bytes32"
        }
      ],
      "stateMutability": "payable",
      "type": "function"
    }
  ],
  "bytecode": "0x608060405234801561001057600080fd5b506119bf806100206000396000f3fe60806040526004361061014b5760003560e01c80637d22afda116100b6578063b9a850e31161006f578063b9a850e31461041e578063ce7e856a1461043e578063ddd99eeb1461045e578063e064e8171461047e578063ebd7445f1461049e578063fb01600d146104be57600080fd5b80637d22afda1461035e57806386111b781461037e5780638b6099db146103ab5780638e19899e146103be57806394a68ef7146103de578063a04360b6146103fe57600080fd5b806350780dbb1161010857806350780dbb1461023657806367a74ddc146102565780636cf6f524146102765780636d2b0839146102985780636e3f5d52146102c85780637550baef146102e857600080fd5b80630896c1a0146101505780630a69fca314610174578063289caaf3146101875780633250ef9e146101c75780634b3c7b6a146101e75780634bbf5b3c14610214575b600080fd5b34801561015c57600080fd5b506008545b6040519081526020015b60405180910390f35b610161610182366004611346565b6104e0565b34801561019357600080fd5b506101a76101a23660046115bf565b6105f0565b60408051948552602085019390935291830152606082015260800161016b565b3480156101d357600080fd5b506101616101e23660046115bf565b610611565b3480156101f357600080fd5b506102076102023660046112e3565b6106ac565b60405161016b919061179b565b34801561022057600080fd5b5061023461022f366004611300565b61074c565b005b34801561024257600080fd5b506102346102513660046115bf565b6107da565b34801561026257600080fd5b506102346102713660046113ad565b61084b565b34801561028257600080fd5b5061028b6108ca565b60405161016b91906117de565b3480156102a457600080fd5b506102b86102b33660046115bf565b610925565b604051901515815260200161016b565b3480156102d457600080fd5b506102346102e33660046112e3565b6109b9565b3480156102f457600080fd5b506103086103033660046113e6565b610a00565b60405161016b9190600060e082019050825182526020830151602083015260408301516040830152606083015160608301526080830151608083015260a083015160a083015260c083015160c083015292915050565b34801561036a57600080fd5b50610234610379366004611505565b610ae0565b34801561038a57600080fd5b5061039e6103993660046115bf565b610b1d565b60405161016b9190611816565b6101616103b9366004611412565b610c0a565b3480156103ca57600080fd5b506101616103d93660046115bf565b610cf6565b3480156103ea57600080fd5b506102346103f93660046115bf565b610d46565b34801561040a57600080fd5b50610234610419366004611692565b610d8c565b34801561042a57600080fd5b50610234610439366004611505565b610dd2565b34801561044a57600080fd5b506102346104593660046112e3565b610e0c565b34801561046a57600080fd5b506102346104793660046112e3565b610e53565b34801561048a57600080fd5b506102346104993660046113e6565b610e9a565b3480156104aa57600080fd5b506102346104b93660046112e3565b610ee8565b3480156104ca57600080fd5b506104d3610f2f565b60405161016b919061174e565b6040805160c0810182526001600160a01b03888116825287811660208301908152828401888152606084018881526080850188815287851660a08701908152965163097e950160e31b81526010600482015260006024820181905260076044830152875187166064830152945186166084820152925160a4840152905160c48301525160e482015293519091166101048401529173__LoanManager___________________________90634bf4a808906101240160206040518083038186803b1580156105ac57600080fd5b505af41580156105c0573d6000803e3d6000fd5b505050506040513d601f19601f820116820180604052508101906105e491906115d8565b98975050505050505050565b60008080806106026009600787610f93565b93509350935093509193509193565b604051630e53750760e41b815260096004820152600760248201526044810182905260009073__DepositManager________________________9063e5375070906064015b60206040518083038186803b15801561066e57600080fd5b505af4158015610682573d6000803e3d6000fd5b505050506040513d601f19601f820116820180604052508101906106a691906115d8565b92915050565b604051630e654ee760e41b815260096004820152600760248201526001600160a01b038216604482015260609073__DepositManager________________________9063e654ee709060640160006040518083038186803b15801561071057600080fd5b505af4158015610724573d6000803e3d6000fd5b505050506040513d6000823e601f3d908101601f191682016040526106a6919081019061145c565b6040516392f0341160e01b8152601060048201526001600160a01b03808616602483015284166044820152606481018390526084810182905273__LoanManager___________________________906392f034119060a40160006040518083038186803b1580156107bc57600080fd5b505af41580156107d0573d6000803e3d6000fd5b5050505050505050565b604051600162b7e75360e01b03198152600960048201526024810182905273__DepositManager________________________9063ff4818ad906044015b60006040518083038186803b15801561083057600080fd5b505af4158015610844573d6000803e3d6000fd5b5050505050565b604051635562758f60e01b8152600060048201526001600160a01b0380841660248301528216604482015273__Configuration_________________________90635562758f906064015b60006040518083038186803b1580156108ae57600080fd5b505af41580156108c2573d6000803e3d6000fd5b505050505050565b6060600960010180548060200260200160405190810160405280929190818152602001828054801561091b57602002820191906000526020600020905b815481526020019060010190808311610907575b5050505050905090565b60405163284e74a560e21b815260096004820152600760248201526044810182905260009073__DepositManager________________________9063a139d2949060640160206040518083038186803b15801561098157600080fd5b505af4158015610995573d6000803e3d6000fd5b505050506040513d601f19601f820116820180604052508101906106a6919061159d565b604051633e814c3b60e01b8152600060048201526001600160a01b038216602482015273__Configuration_________________________90633e814c3b90604401610818565b610a406040518060e00160405280600081526020016000815260200160008152602001600081526020016000815260200160008152602001600081525090565b6040516352af126f60e01b8152600760048201526001600160a01b03841660248201526044810183905273__LiquidityPools________________________906352af126f9060640160e06040518083038186803b158015610aa157600080fd5b505af4158015610ab5573d6000803e3d6000fd5b505050506040513d601f19601f82011682018060405250810190610ad9919061160e565b9392505050565b60405163156368df60e01b815273__DepositManager________________________9063156368df90610818906009906007908690600401611846565b610b786040518061012001604052806000801916815260200160006001600160a01b03168152602001600081526020016000815260200160008152602001600081526020016000815260200160008152602001600081525090565b604051631c63e3d760e11b815260096004820152600760248201526044810183905273__DepositManager________________________906338c7c7ae906064016101206040518083038186803b158015610bd257600080fd5b505af4158015610be6573d6000803e3d6000fd5b505050506040513d601f19601f820116820180604052508101906106a691906115f1565b604080516080810182526001600160a01b03868116825260208201868152828401868152858316606085019081529451636aa1d5e360e01b8152600960048201526007602482015260006044820181905285518516606483015292516084820152905160a4820152935190911660c48401529173__DepositManager________________________90636aa1d5e39060e40160206040518083038186803b158015610cb457600080fd5b505af4158015610cc8573d6000803e3d6000fd5b505050506040513d601f19601f82011682018060405250810190610cec91906115d8565b9695505050505050565b6040516321ca206960e01b81526009600482015260006024820181905260076044830152606482018390529073__DepositManager________________________906321ca206990608401610656565b604051630e273fb560e31b815260096004820152600760248201526044810182905273__DepositManager________________________90637139fda890606401610818565b604051632b05cfad60e01b815260006004820152602481018390526044810182905273__Configuration_________________________90632b05cfad90606401610896565b604051630ac9024b60e11b815273__DepositManager________________________90631592049690610818906009908590600401611825565b604051631c2f3ab560e31b8152600960048201526001600160a01b038216602482015273__DepositManager________________________9063e179d5a890604401610818565b60405163044b515960e31b8152600060048201526001600160a01b038216602482015273__Configuration_________________________9063225a8ac890604401610818565b604051633b7dd5d560e21b8152600060048201526001600160a01b03831660248201526044810182905273__Configuration_________________________9063edf7575490606401610896565b60405163486f118960e11b8152600960048201526001600160a01b038216602482015273__DepositManager________________________906390de231290604401610818565b6060600960020180548060200260200160405190810160405280929190818152602001828054801561091b57602002820191906000526020600020905b81546001600160a01b03168152600190910190602001808311610f6c575050505050905090565b60008181526005808501602090815260408084208151610140810183528154815260018201546001600160a01b03908116948201949094526002820154841692810183905260038201546060820152600482015460808201529381015460a0850152600681015460c0850152600781015460e0850152600881015461010085015260090154909116610120830152829182918291906110835760405162461bcd60e51b815260206004820152602260248201527f4465706f7369744d616e616765723a20696e76616c6964206465706f73697420604482015261125160f21b606482015260840160405180910390fd5b60408181015160a083015191516352af126f60e01b8152600481018a90526001600160a01b039091166024820152604481019190915260009073__LiquidityPools________________________906352af126f9060640160e06040518083038186803b1580156110f357600080fd5b505af4158015611107573d6000803e3d6000fd5b505050506040513d601f19601f8201168201806040525081019061112b919061160e565b905080606001516000141561114f5760008060008095509550955095505050611226565b6000611199670de0b6b3a764000061118861118e8560600151611188670de0b6b3a764000089610100015161122f90919063ffffffff16565b9061123b565b60408601519061122f565b90506111be670de0b6b3a764000061118884608001518461122f90919063ffffffff16565b95506111e3670de0b6b3a76400006111888460a001518461122f90919063ffffffff16565b9450611208670de0b6b3a76400006111888460c001518461122f90919063ffffffff16565b93506112208461121a8781858b611247565b90611247565b96505050505b93509350935093565b6000610ad9828461190f565b6000610ad982846118ed565b6000610ad9828461192e565b805161125e81611971565b919050565b6000610120828403121561127657600080fd5b61127e61186e565b90508151815261129060208301611253565b602082015260408201516040820152606082015160608201526080820151608082015260a082015160a082015260c082015160c082015260e082015160e082015261010080830151818301525092915050565b6000602082840312156112f557600080fd5b8135610ad981611971565b6000806000806080858703121561131657600080fd5b843561132181611971565b9350602085013561133181611971565b93969395505050506040820135916060013590565b60008060008060008060c0878903121561135f57600080fd5b863561136a81611971565b9550602087013561137a81611971565b945060408701359350606087013592506080870135915060a087013561139f81611971565b809150509295509295509295565b600080604083850312156113c057600080fd5b82356113cb81611971565b915060208301356113db81611971565b809150509250929050565b600080604083850312156113f957600080fd5b823561140481611971565b946020939093013593505050565b6000806000806080858703121561142857600080fd5b843561143381611971565b93506020850135925060408501359150606085013561145181611971565b939692955090935050565b6000602080838503121561146f57600080fd5b825167ffffffffffffffff81111561148657600080fd5b8301601f8101851361149757600080fd5b80516114aa6114a5826118c9565b611898565b81815283810190838501610120808502860187018a10156114ca57600080fd5b600095505b848610156114f7576114e18a83611263565b84526001959095019492860192908101906114cf565b509098975050505050505050565b6000602080838503121561151857600080fd5b823567ffffffffffffffff81111561152f57600080fd5b8301601f8101851361154057600080fd5b803561154e6114a5826118c9565b80828252848201915084840188868560051b870101111561156e57600080fd5b600094505b83851015611591578035835260019490940193918501918501611573565b50979650505050505050565b6000602082840312156115af57600080fd5b81518015158114610ad957600080fd5b6000602082840312156115d157600080fd5b5035919050565b6000602082840312156115ea57600080fd5b5051919050565b6000610120828403121561160457600080fd5b610ad98383611263565b600060e0828403121561162057600080fd5b60405160e0810181811067ffffffffffffffff821117156116435761164361195b565b8060405250825181526020830151602082015260408301516040820152606083015160608201526080830151608082015260a083015160a082015260c083015160c08201528091505092915050565b600080604083850312156116a557600080fd5b50508035926020909101359150565b600081518084526020808501945080840160005b838110156116e4578151875295820195908201906001016116c8565b509495945050505050565b805182526020808201516001600160a01b03169083015260408082015190830152606080820151908301526080808201519083015260a0808201519083015260c0808201519083015260e0808201519083015261010090810151910152565b6020808252825182820181905260009190848201906040850190845b8181101561178f5783516001600160a01b03168352928401929184019160010161176a565b50909695505050505050565b6020808252825182820181905260009190848201906040850190845b8181101561178f576117ca8385516116ef565b9284019261012092909201916001016117b7565b6020808252825182820181905260009190848201906040850190845b8181101561178f578351835292840192918401916001016117fa565b61012081016106a682846116ef565b82815260406020820152600061183e60408301846116b4565b949350505050565b83815282602082015260606040820152600061186560608301846116b4565b95945050505050565b604051610120810167ffffffffffffffff811182821017156118925761189261195b565b60405290565b604051601f8201601f1916810167ffffffffffffffff811182821017156118c1576118c161195b565b604052919050565b600067ffffffffffffffff8211156118e3576118e361195b565b5060051b60200190565b60008261190a57634e487b7160e01b600052601260045260246000fd5b500490565b600081600019048311821515161561192957611929611945565b500290565b60008282101561194057611940611945565b500390565b634e487b7160e01b600052601160045260246000fd5b634e487b7160e01b600052604160045260246000fd5b6001600160a01b038116811461198657600080fd5b5056fea2646970667358221220f863e3a9a877cd93be1a1e44f4c7bb667dc0cade9bd5c2f51337ae463ab7d1b564736f6c63430008070033",
  "immutableReferences": {},
  "source": "// SPDX-License-Identifier: UNLICENSED\npragma solidity ^0.8.7;\npragma experimental ABIEncoderV2;\n\nimport '../interface/IStruct.sol';\nimport '../interface/IInterestModel.sol';\nimport '../lib/Configuration.sol';\nimport '../lib/LiquidityPools.sol';\nimport '../lib/DepositManager.sol';\nimport '../lib/LoanManager.sol';\n\ncontract DepositManagerMock {\n    using Configuration for Configuration.State;\n    using LiquidityPools for LiquidityPools.State;\n    using DepositManager for DepositManager.State;\n    using LoanManager for LoanManager.State;\n\n    Configuration.State _configuration;\n    LiquidityPools.State _liquidityPools;\n    DepositManager.State _depositManager;\n    LoanManager.State _loanManager;\n\n    function enableDepositTerm(uint256 term) external {\n        _depositManager.enableDepositTerm(_liquidityPools, term);\n    }\n\n    function enableDepositTerms(uint256[] memory terms) public {\n        _depositManager.enableDepositTerms(_liquidityPools, terms);\n    }\n\n    function disableDepositTerm(uint256 term) external {\n        _depositManager.disableDepositTerm(term);\n    }\n\n    function disableDepositTerms(uint256[] memory terms) public {\n        _depositManager.disableDepositTerms(terms);\n    }\n\n    function enableDepositToken(address tokenAddress) external {\n        _depositManager.enableDepositToken(tokenAddress);\n    }\n\n    function disableDepositToken(address tokenAddress) external {\n        _depositManager.disableDepositToken(tokenAddress);\n    }\n\n    function setMaxDistributorFeeRatios(\n        uint256 depositDistributorFeeRatio,\n        uint256 loanDistributorFeeRatio\n    ) external {\n        _configuration.setMaxDistributorFeeRatios(\n            depositDistributorFeeRatio,\n            loanDistributorFeeRatio\n        );\n    }\n\n    function deposit(\n        address tokenAddress,\n        uint256 depositAmount,\n        uint256 depositTerm,\n        address payable distributorAddress\n    ) external payable returns (bytes32 depositId) {\n        IStruct.DepositParameters memory depositParameters = IStruct\n            .DepositParameters({\n            tokenAddress: tokenAddress,\n            depositAmount: depositAmount,\n            depositTerm: depositTerm,\n            distributorAddress: distributorAddress\n        });\n\n        return\n            _depositManager.deposit(\n                _liquidityPools,\n                _configuration,\n                depositParameters\n            );\n    }\n\n    function withdraw(bytes32 depositId)\n        external\n        returns (uint256 withdrewAmount)\n    {\n        return\n            _depositManager.withdraw(\n                _configuration,\n                _liquidityPools,\n                depositId\n            );\n    }\n\n    function earlyWithdraw(bytes32 depositId)\n        external\n        returns (uint256 withdrewAmount)\n    {\n        return _depositManager.earlyWithdraw(_liquidityPools, depositId);\n    }\n\n    function getDepositTerms()\n        external\n        view\n        returns (uint256[] memory depositTermList)\n    {\n        return _depositManager.depositTermList;\n    }\n\n    function getDepositTokens()\n        external\n        view\n        returns (address[] memory depositTokenAddressList)\n    {\n        return _depositManager.depositTokenAddressList;\n    }\n\n    function getDepositRecordById(bytes32 depositId)\n        external\n        view\n        returns (IStruct.GetDepositRecordResponse memory depositRecord)\n    {\n        return _depositManager.getDepositRecordById(_liquidityPools, depositId);\n    }\n\n    function getInterestDistributionByDepositId(bytes32 depositId)\n        external\n        view\n        returns (\n            uint256 interestForDepositor,\n            uint256 interestForDepositDistributor,\n            uint256 interestForLoanDistributor,\n            uint256 interestForProtocolReserve\n        )\n    {\n        return\n            _depositManager._getInterestDistributionByDepositId(\n                _liquidityPools,\n                depositId\n            );\n    }\n\n    function getDepositRecordsByAccount(address accountAddress)\n        external\n        view\n        returns (IStruct.GetDepositRecordResponse[] memory depositRecordList)\n    {\n        return\n            _depositManager.getDepositRecordsByAccount(\n                _liquidityPools,\n                accountAddress\n            );\n    }\n\n    function isDepositEarlyWithdrawable(bytes32 depositId)\n        external\n        view\n        returns (bool isEarlyWithdrawable)\n    {\n        return\n            _depositManager.isDepositEarlyWithdrawable(\n                _liquidityPools,\n                depositId\n            );\n    }\n\n    // --- Helpers ---\n\n    function getPoolById(address tokenAddress, uint256 poolId)\n        external\n        view\n        returns (IStruct.Pool memory pool)\n    {\n        return _liquidityPools.getPoolById(tokenAddress, poolId);\n    }\n\n    function getPoolGroupSize() external view returns (uint256 poolGroupSize) {\n        return _liquidityPools.poolGroupSize;\n    }\n\n    function setInterestModel(IInterestModel interestModel) external {\n        _configuration.setInterestModel(interestModel);\n    }\n\n    function setInterestReserveAddress(address payable interestReserveAddress)\n        external\n    {\n        _configuration.setInterestReserveAddress(interestReserveAddress);\n    }\n\n    function setBalanceCap(address tokenAddress, uint256 balanceCap) external {\n        _configuration.setBalanceCap(tokenAddress, balanceCap);\n    }\n\n    function setPriceOracle(address tokenAddress, IPriceOracle priceOracle)\n        external\n    {\n        _configuration.setPriceOracle(tokenAddress, priceOracle);\n    }\n\n    function setLoanAndCollateralTokenPair(\n        address loanTokenAddress,\n        address collateralTokenAddress,\n        uint256 minCollateralCoverageRatio,\n        uint256 liquidationDiscount\n    ) external {\n        _loanManager.setLoanAndCollateralTokenPair(\n            loanTokenAddress,\n            collateralTokenAddress,\n            minCollateralCoverageRatio,\n            liquidationDiscount\n        );\n    }\n\n    function loan(\n        address loanTokenAddress,\n        address collateralTokenAddress,\n        uint256 loanAmount,\n        uint256 collateralAmount,\n        uint256 loanTerm,\n        address payable distributorAddress\n    ) external payable returns (bytes32 loanId) {\n        IStruct.LoanParameters memory loanParameters = IStruct.LoanParameters({\n            loanTokenAddress: loanTokenAddress,\n            collateralTokenAddress: collateralTokenAddress,\n            loanAmount: loanAmount,\n            collateralAmount: collateralAmount,\n            loanTerm: loanTerm,\n            distributorAddress: distributorAddress\n        });\n\n        return\n            _loanManager.loan(_configuration, _liquidityPools, loanParameters);\n    }\n}\n",
  "sourcePath": "/Users/liyangfan/Projects/WorkSpace/bluestone/contracts/protocol/mock/DepositManagerMock.sol",
  "compiler": {
    "name": "solc",
    "version": "0.8.7+commit.e28d00a7.Emscripten.clang"
  },
  "schemaVersion": "3.4.4",
  "updatedAt": "2022-09-02T13:05:37.415Z",
  "devdoc": {
    "kind": "dev",
    "methods": {},
    "version": 1
  },
  "userdoc": {
    "kind": "user",
    "methods": {},
    "version": 1
  }
}