{
  "contractName": "DepositManagerMock",
  "abi": [
    {
      "inputs": [
        {
          "internalType": "uint256",
          "name": "term",
          "type": "uint256"
        }
      ],
      "name": "enableDepositTerm",
      "outputs": [],
      "stateMutability": "nonpayable",
      "type": "function"
    },
    {
      "inputs": [
        {
          "internalType": "uint256",
          "name": "term",
          "type": "uint256"
        }
      ],
      "name": "disableDepositTerm",
      "outputs": [],
      "stateMutability": "nonpayable",
      "type": "function"
    },
    {
      "inputs": [
        {
          "internalType": "address",
          "name": "tokenAddress",
          "type": "address"
        }
      ],
      "name": "enableDepositToken",
      "outputs": [],
      "stateMutability": "nonpayable",
      "type": "function"
    },
    {
      "inputs": [
        {
          "internalType": "address",
          "name": "tokenAddress",
          "type": "address"
        }
      ],
      "name": "disableDepositToken",
      "outputs": [],
      "stateMutability": "nonpayable",
      "type": "function"
    },
    {
      "inputs": [
        {
          "internalType": "uint256",
          "name": "depositDistributorFeeRatio",
          "type": "uint256"
        },
        {
          "internalType": "uint256",
          "name": "loanDistributorFeeRatio",
          "type": "uint256"
        }
      ],
      "name": "setMaxDistributorFeeRatios",
      "outputs": [],
      "stateMutability": "nonpayable",
      "type": "function"
    },
    {
      "inputs": [
        {
          "internalType": "address",
          "name": "tokenAddress",
          "type": "address"
        },
        {
          "internalType": "uint256",
          "name": "depositAmount",
          "type": "uint256"
        },
        {
          "internalType": "uint256",
          "name": "depositTerm",
          "type": "uint256"
        },
        {
          "internalType": "address payable",
          "name": "distributorAddress",
          "type": "address"
        }
      ],
      "name": "deposit",
      "outputs": [
        {
          "internalType": "bytes32",
          "name": "depositId",
          "type": "bytes32"
        }
      ],
      "stateMutability": "payable",
      "type": "function"
    },
    {
      "inputs": [
        {
          "internalType": "bytes32",
          "name": "depositId",
          "type": "bytes32"
        }
      ],
      "name": "withdraw",
      "outputs": [
        {
          "internalType": "uint256",
          "name": "withdrewAmount",
          "type": "uint256"
        }
      ],
      "stateMutability": "nonpayable",
      "type": "function"
    },
    {
      "inputs": [
        {
          "internalType": "bytes32",
          "name": "depositId",
          "type": "bytes32"
        }
      ],
      "name": "earlyWithdraw",
      "outputs": [
        {
          "internalType": "uint256",
          "name": "withdrewAmount",
          "type": "uint256"
        }
      ],
      "stateMutability": "nonpayable",
      "type": "function"
    },
    {
      "inputs": [],
      "name": "getDepositTerms",
      "outputs": [
        {
          "internalType": "uint256[]",
          "name": "depositTermList",
          "type": "uint256[]"
        }
      ],
      "stateMutability": "view",
      "type": "function"
    },
    {
      "inputs": [],
      "name": "getDepositTokens",
      "outputs": [
        {
          "internalType": "address[]",
          "name": "depositTokenAddressList",
          "type": "address[]"
        }
      ],
      "stateMutability": "view",
      "type": "function"
    },
    {
      "inputs": [
        {
          "internalType": "bytes32",
          "name": "depositId",
          "type": "bytes32"
        }
      ],
      "name": "getDepositRecordById",
      "outputs": [
        {
          "components": [
            {
              "internalType": "bytes32",
              "name": "depositId",
              "type": "bytes32"
            },
            {
              "internalType": "address",
              "name": "tokenAddress",
              "type": "address"
            },
            {
              "internalType": "uint256",
              "name": "depositTerm",
              "type": "uint256"
            },
            {
              "internalType": "uint256",
              "name": "depositAmount",
              "type": "uint256"
            },
            {
              "internalType": "uint256",
              "name": "poolId",
              "type": "uint256"
            },
            {
              "internalType": "uint256",
              "name": "interest",
              "type": "uint256"
            },
            {
              "internalType": "uint256",
              "name": "createdAt",
              "type": "uint256"
            },
            {
              "internalType": "uint256",
              "name": "withdrewAt",
              "type": "uint256"
            },
            {
              "internalType": "uint256",
              "name": "weight",
              "type": "uint256"
            }
          ],
          "internalType": "struct IStruct.GetDepositRecordResponse",
          "name": "depositRecord",
          "type": "tuple"
        }
      ],
      "stateMutability": "view",
      "type": "function"
    },
    {
      "inputs": [
        {
          "internalType": "bytes32",
          "name": "depositId",
          "type": "bytes32"
        }
      ],
      "name": "getInterestDistributionByDepositId",
      "outputs": [
        {
          "internalType": "uint256",
          "name": "interestForDepositor",
          "type": "uint256"
        },
        {
          "internalType": "uint256",
          "name": "interestForDepositDistributor",
          "type": "uint256"
        },
        {
          "internalType": "uint256",
          "name": "interestForLoanDistributor",
          "type": "uint256"
        },
        {
          "internalType": "uint256",
          "name": "interestForProtocolReserve",
          "type": "uint256"
        }
      ],
      "stateMutability": "view",
      "type": "function"
    },
    {
      "inputs": [
        {
          "internalType": "address",
          "name": "accountAddress",
          "type": "address"
        }
      ],
      "name": "getDepositRecordsByAccount",
      "outputs": [
        {
          "components": [
            {
              "internalType": "bytes32",
              "name": "depositId",
              "type": "bytes32"
            },
            {
              "internalType": "address",
              "name": "tokenAddress",
              "type": "address"
            },
            {
              "internalType": "uint256",
              "name": "depositTerm",
              "type": "uint256"
            },
            {
              "internalType": "uint256",
              "name": "depositAmount",
              "type": "uint256"
            },
            {
              "internalType": "uint256",
              "name": "poolId",
              "type": "uint256"
            },
            {
              "internalType": "uint256",
              "name": "interest",
              "type": "uint256"
            },
            {
              "internalType": "uint256",
              "name": "createdAt",
              "type": "uint256"
            },
            {
              "internalType": "uint256",
              "name": "withdrewAt",
              "type": "uint256"
            },
            {
              "internalType": "uint256",
              "name": "weight",
              "type": "uint256"
            }
          ],
          "internalType": "struct IStruct.GetDepositRecordResponse[]",
          "name": "depositRecordList",
          "type": "tuple[]"
        }
      ],
      "stateMutability": "view",
      "type": "function"
    },
    {
      "inputs": [
        {
          "internalType": "bytes32",
          "name": "depositId",
          "type": "bytes32"
        }
      ],
      "name": "isDepositEarlyWithdrawable",
      "outputs": [
        {
          "internalType": "bool",
          "name": "isEarlyWithdrawable",
          "type": "bool"
        }
      ],
      "stateMutability": "view",
      "type": "function"
    },
    {
      "inputs": [
        {
          "internalType": "address",
          "name": "tokenAddress",
          "type": "address"
        },
        {
          "internalType": "uint256",
          "name": "poolId",
          "type": "uint256"
        }
      ],
      "name": "getPoolById",
      "outputs": [
        {
          "components": [
            {
              "internalType": "uint256",
              "name": "depositAmount",
              "type": "uint256"
            },
            {
              "internalType": "uint256",
              "name": "availableAmount",
              "type": "uint256"
            },
            {
              "internalType": "uint256",
              "name": "loanInterest",
              "type": "uint256"
            },
            {
              "internalType": "uint256",
              "name": "totalDepositWeight",
              "type": "uint256"
            },
            {
              "internalType": "uint256",
              "name": "depositDistributorFeeRatio",
              "type": "uint256"
            },
            {
              "internalType": "uint256",
              "name": "loanDistributorFeeRatio",
              "type": "uint256"
            },
            {
              "internalType": "uint256",
              "name": "protocolReserveRatio",
              "type": "uint256"
            }
          ],
          "internalType": "struct IStruct.Pool",
          "name": "pool",
          "type": "tuple"
        }
      ],
      "stateMutability": "view",
      "type": "function"
    },
    {
      "inputs": [],
      "name": "getPoolGroupSize",
      "outputs": [
        {
          "internalType": "uint256",
          "name": "poolGroupSize",
          "type": "uint256"
        }
      ],
      "stateMutability": "view",
      "type": "function"
    },
    {
      "inputs": [
        {
          "internalType": "contract IInterestModel",
          "name": "interestModel",
          "type": "address"
        }
      ],
      "name": "setInterestModel",
      "outputs": [],
      "stateMutability": "nonpayable",
      "type": "function"
    },
    {
      "inputs": [
        {
          "internalType": "address payable",
          "name": "interestReserveAddress",
          "type": "address"
        }
      ],
      "name": "setInterestReserveAddress",
      "outputs": [],
      "stateMutability": "nonpayable",
      "type": "function"
    },
    {
      "inputs": [
        {
          "internalType": "address",
          "name": "tokenAddress",
          "type": "address"
        },
        {
          "internalType": "uint256",
          "name": "balanceCap",
          "type": "uint256"
        }
      ],
      "name": "setBalanceCap",
      "outputs": [],
      "stateMutability": "nonpayable",
      "type": "function"
    },
    {
      "inputs": [
        {
          "internalType": "address",
          "name": "tokenAddress",
          "type": "address"
        },
        {
          "internalType": "contract IPriceOracle",
          "name": "priceOracle",
          "type": "address"
        }
      ],
      "name": "setPriceOracle",
      "outputs": [],
      "stateMutability": "nonpayable",
      "type": "function"
    },
    {
      "inputs": [
        {
          "internalType": "address",
          "name": "loanTokenAddress",
          "type": "address"
        },
        {
          "internalType": "address",
          "name": "collateralTokenAddress",
          "type": "address"
        },
        {
          "internalType": "uint256",
          "name": "minCollateralCoverageRatio",
          "type": "uint256"
        },
        {
          "internalType": "uint256",
          "name": "liquidationDiscount",
          "type": "uint256"
        }
      ],
      "name": "setLoanAndCollateralTokenPair",
      "outputs": [],
      "stateMutability": "nonpayable",
      "type": "function"
    },
    {
      "inputs": [
        {
          "internalType": "address",
          "name": "loanTokenAddress",
          "type": "address"
        },
        {
          "internalType": "address",
          "name": "collateralTokenAddress",
          "type": "address"
        },
        {
          "internalType": "uint256",
          "name": "loanAmount",
          "type": "uint256"
        },
        {
          "internalType": "uint256",
          "name": "collateralAmount",
          "type": "uint256"
        },
        {
          "internalType": "uint256",
          "name": "loanTerm",
          "type": "uint256"
        },
        {
          "internalType": "address payable",
          "name": "distributorAddress",
          "type": "address"
        }
      ],
      "name": "loan",
      "outputs": [
        {
          "internalType": "bytes32",
          "name": "loanId",
          "type": "bytes32"
        }
      ],
      "stateMutability": "payable",
      "type": "function"
    }
  ],
  "bytecode": "0x608060405234801561001057600080fd5b50611a50806100206000396000f3fe6080604052600436106101355760003560e01c80637550baef116100ab578063a04360b61161006f578063a04360b614610373578063ce7e856a14610393578063ddd99eeb146103b3578063e064e817146103d3578063ebd7445f146103f3578063fb01600d1461041357610135565b80637550baef146102c657806386111b78146102f35780638b6099db146103205780638e19899e1461033357806394a68ef71461035357610135565b80634bbf5b3c116100fd5780634bbf5b3c146101f557806350780dbb1461021757806367a74ddc146102375780636cf6f524146102575780636d2b0839146102795780636e3f5d52146102a657610135565b80630896c1a01461013a5780630a69fca314610165578063289caaf3146101785780633250ef9e146101a85780634b3c7b6a146101c8575b600080fd5b34801561014657600080fd5b5061014f610435565b60405161015c91906116e6565b60405180910390f35b61014f610173366004611309565b61043b565b34801561018457600080fd5b506101986101933660046114e2565b61051b565b60405161015c949392919061188d565b3480156101b457600080fd5b5061014f6101c33660046114e2565b610542565b3480156101d457600080fd5b506101e86101e33660046112a8565b6105d8565b60405161015c9190611660565b34801561020157600080fd5b506102156102103660046112c4565b61066c565b005b34801561022357600080fd5b506102156102323660046114e2565b6106e2565b34801561024357600080fd5b5061021561025236600461136f565b610752565b34801561026357600080fd5b5061026c6107c2565b60405161015c91906116a3565b34801561028557600080fd5b506102996102943660046114e2565b61081d565b60405161015c91906116db565b3480156102b257600080fd5b506102156102c13660046112a8565b6108ad565b3480156102d257600080fd5b506102e66102e13660046113a7565b6108e7565b60405161015c91906117d4565b3480156102ff57600080fd5b5061031361030e3660046114e2565b610982565b60405161015c91906117c5565b61014f61032e3660046113d2565b610a18565b34801561033f57600080fd5b5061014f61034e3660046114e2565b610ae7565b34801561035f57600080fd5b5061021561036e3660046114e2565b610b29565b34801561037f57600080fd5b5061021561038e366004611593565b610b66565b34801561039f57600080fd5b506102156103ae3660046112a8565b610ba2565b3480156103bf57600080fd5b506102156103ce3660046112a8565b610bdc565b3480156103df57600080fd5b506102156103ee3660046113a7565b610c16565b3480156103ff57600080fd5b5061021561040e3660046112a8565b610c52565b34801561041f57600080fd5b50610428610c8c565b60405161015c9190611613565b60085490565b6000610445611089565b506040805160c0810182526001600160a01b03808a16825288811660208301528183018890526060820187905260808201869052841660a0820152905163097e950160e31b815273__LoanManager___________________________90634bf4a808906104bf906010906000906007908790600401611952565b60206040518083038186803b1580156104d757600080fd5b505af41580156104eb573d6000803e3d6000fd5b505050506040513d601f19601f8201168201806040525081019061050f91906114fa565b98975050505050505050565b6000808080610533600960078763ffffffff610cf016565b93509350935093509193509193565b604051630e53750760e41b815260009073__DepositManager________________________9063e537507090610582906009906007908790600401611877565b60206040518083038186803b15801561059a57600080fd5b505af41580156105ae573d6000803e3d6000fd5b505050506040513d601f19601f820116820180604052508101906105d291906114fa565b92915050565b604051630e654ee760e41b815260609073__DepositManager________________________9063e654ee70906106189060099060079087906004016118a8565b60006040518083038186803b15801561063057600080fd5b505af4158015610644573d6000803e3d6000fd5b505050506040513d6000823e601f3d908101601f191682016040526105d2919081019061141b565b6040516392f0341160e01b815273__LoanManager___________________________906392f03411906106ac906010908890889088908890600401611923565b60006040518083038186803b1580156106c457600080fd5b505af41580156106d8573d6000803e3d6000fd5b5050505050505050565b604051600162b7e75360e01b0319815273__DepositManager________________________9063ff4818ad9061071f906009908590600401611915565b60006040518083038186803b15801561073757600080fd5b505af415801561074b573d6000803e3d6000fd5b5050505050565b604051635562758f60e01b815273__Configuration_________________________90635562758f9061078e9060009086908690600401611839565b60006040518083038186803b1580156107a657600080fd5b505af41580156107ba573d6000803e3d6000fd5b505050505050565b6060600960010180548060200260200160405190810160405280929190818152602001828054801561081357602002820191906000526020600020905b8154815260200190600101908083116107ff575b5050505050905090565b60405163284e74a560e21b815260009073__DepositManager________________________9063a139d2949061085d906009906007908790600401611877565b60206040518083038186803b15801561087557600080fd5b505af4158015610889573d6000803e3d6000fd5b505050506040513d601f19601f820116820180604052508101906105d291906114c2565b604051633e814c3b60e01b815273__Configuration_________________________90633e814c3b9061071f906000908590600401611822565b6108ef6110da565b6040516352af126f60e01b815273__LiquidityPools________________________906352af126f9061092b9060079087908790600401611858565b60e06040518083038186803b15801561094357600080fd5b505af4158015610957573d6000803e3d6000fd5b505050506040513d601f19601f8201168201806040525081019061097b919061152e565b9392505050565b61098a611117565b604051631c63e3d760e11b815273__DepositManager________________________906338c7c7ae906109c7906009906007908790600401611877565b6101206040518083038186803b1580156109e057600080fd5b505af41580156109f4573d6000803e3d6000fd5b505050506040513d601f19601f820116820180604052508101906105d29190611512565b6000610a2261116f565b50604080516080810182526001600160a01b03808816825260208201879052818301869052841660608201529051636aa1d5e360e01b815273__DepositManager________________________90636aa1d5e390610a8d9060099060079060009087906004016118c7565b60206040518083038186803b158015610aa557600080fd5b505af4158015610ab9573d6000803e3d6000fd5b505050506040513d601f19601f82011682018060405250810190610add91906114fa565b9695505050505050565b6040516321ca206960e01b815260009073__DepositManager________________________906321ca206990610582906009908590600790889060040161188d565b604051630e273fb560e31b815273__DepositManager________________________90637139fda89061071f906009906007908690600401611877565b604051632b05cfad60e01b815273__Configuration_________________________90632b05cfad9061078e9060009086908690600401611877565b604051631c2f3ab560e31b815273__DepositManager________________________9063e179d5a89061071f906009908590600401611822565b60405163044b515960e31b815273__Configuration_________________________9063225a8ac89061071f906000908590600401611822565b604051633b7dd5d560e21b815273__Configuration_________________________9063edf757549061078e9060009086908690600401611858565b60405163486f118960e11b815273__DepositManager________________________906390de23129061071f906009908590600401611822565b6060600960020180548060200260200160405190810160405280929190818152602001828054801561081357602002820191906000526020600020905b81546001600160a01b03168152600190910190602001808311610cc9575050505050905090565b600080600080610cfe6111a9565b506000858152600580890160209081526040928390208351610140810185528154815260018201546001600160a01b03908116938201939093526002820154831694810185905260038201546060820152600482015460808201529281015460a0840152600681015460c0840152600781015460e08401526008810154610100840152600901541661012082015290610db25760405162461bcd60e51b8152600401610da990611783565b60405180910390fd5b610dba6110da565b60408083015160a084015191516352af126f60e01b815273__LiquidityPools________________________926352af126f92610dfc928d9290600401611858565b60e06040518083038186803b158015610e1457600080fd5b505af4158015610e28573d6000803e3d6000fd5b505050506040513d601f19601f82011682018060405250810190610e4c919061152e565b9050806060015160001415610e70575060009450849350839250829150610f5f9050565b6000610ec6670de0b6b3a7640000610ea9610eb58560600151610ea9670de0b6b3a7640000896101000151610f6890919063ffffffff16565b9063ffffffff610fa216565b60408601519063ffffffff610f6816565b9050610eeb670de0b6b3a7640000610ea9846080015184610f6890919063ffffffff16565b9550610f10670de0b6b3a7640000610ea98460a0015184610f6890919063ffffffff16565b9450610f35670de0b6b3a7640000610ea98460c0015184610f6890919063ffffffff16565b9350610f5984610f4d8781858b63ffffffff610fe416565b9063ffffffff610fe416565b96505050505b93509350935093565b600082610f77575060006105d2565b82820282848281610f8457fe5b041461097b5760405162461bcd60e51b8152600401610da990611742565b600061097b83836040518060400160405280601a81526020017f536166654d6174683a206469766973696f6e206279207a65726f000000000000815250611026565b600061097b83836040518060400160405280601e81526020017f536166654d6174683a207375627472616374696f6e206f766572666c6f77000081525061105d565b600081836110475760405162461bcd60e51b8152600401610da991906116ef565b50600083858161105357fe5b0495945050505050565b600081848411156110815760405162461bcd60e51b8152600401610da991906116ef565b505050900390565b6040518060c0016040528060006001600160a01b0316815260200160006001600160a01b0316815260200160008152602001600081526020016000815260200160006001600160a01b031681525090565b6040518060e00160405280600081526020016000815260200160008152602001600081526020016000815260200160008152602001600081525090565b6040518061012001604052806000801916815260200160006001600160a01b03168152602001600081526020016000815260200160008152602001600081526020016000815260200160008152602001600081525090565b604051806080016040528060006001600160a01b03168152602001600081526020016000815260200160006001600160a01b031681525090565b6040518061014001604052806000801916815260200160006001600160a01b0316815260200160006001600160a01b0316815260200160008152602001600081526020016000815260200160008152602001600081526020016000815260200160006001600160a01b031681525090565b80516105d281611a02565b6000610120808385031215611238578182fd5b611241816119bb565b91505081518152611255836020840161121a565b602082015260408201516040820152606082015160608201526080820151608082015260a082015160a082015260c082015160c082015260e082015160e082015261010080830151818301525092915050565b6000602082840312156112b9578081fd5b813561097b81611a02565b600080600080608085870312156112d9578283fd5b84356112e481611a02565b935060208501356112f481611a02565b93969395505050506040820135916060013590565b60008060008060008060c08789031215611321578182fd5b863561132c81611a02565b9550602087013561133c81611a02565b945060408701359350606087013592506080870135915060a087013561136181611a02565b809150509295509295509295565b60008060408385031215611381578182fd5b823561138c81611a02565b9150602083013561139c81611a02565b809150509250929050565b600080604083850312156113b9578182fd5b82356113c481611a02565b946020939093013593505050565b600080600080608085870312156113e7578384fd5b84356113f281611a02565b93506020850135925060408501359150606085013561141081611a02565b939692955090935050565b6000602080838503121561142d578182fd5b825167ffffffffffffffff811115611443578283fd5b80840185601f820112611454578384fd5b80519150611469611464836119e2565b6119bb565b82815283810190828501610120808602850187018a1015611488578788fd5b8794505b858510156114b45761149e8a83611225565b845260019490940193928601929081019061148c565b509098975050505050505050565b6000602082840312156114d3578081fd5b8151801515811461097b578182fd5b6000602082840312156114f3578081fd5b5035919050565b60006020828403121561150b578081fd5b5051919050565b60006101208284031215611524578081fd5b61097b8383611225565b600060e0828403121561153f578081fd5b61154960e06119bb565b825181526020830151602082015260408301516040820152606083015160608201526080830151608082015260a083015160a082015260c083015160c08201528091505092915050565b600080604083850312156115a5578182fd5b50508035926020909101359150565b805182526020808201516001600160a01b03169083015260408082015190830152606080820151908301526080808201519083015260a0808201519083015260c0808201519083015260e0808201519083015261010090810151910152565b6020808252825182820181905260009190848201906040850190845b818110156116545783516001600160a01b03168352928401929184019160010161162f565b50909695505050505050565b6020808252825182820181905260009190848201906040850190845b818110156116545761168f8385516115b4565b92840192610120929092019160010161167c565b6020808252825182820181905260009190848201906040850190845b81811015611654578351835292840192918401916001016116bf565b901515815260200190565b90815260200190565b6000602080835283518082850152825b8181101561171b578581018301518582016040015282016116ff565b8181111561172c5783604083870101525b50601f01601f1916929092016040019392505050565b60208082526021908201527f536166654d6174683a206d756c7469706c69636174696f6e206f766572666c6f6040820152607760f81b606082015260800190565b60208082526022908201527f4465706f7369744d616e616765723a20696e76616c6964206465706f73697420604082015261125160f21b606082015260800190565b61012081016105d282846115b4565b600060e082019050825182526020830151602083015260408301516040830152606083015160608301526080830151608083015260a083015160a083015260c083015160c083015292915050565b9182526001600160a01b0316602082015260400190565b9283526001600160a01b03918216602084015216604082015260600190565b9283526001600160a01b03919091166020830152604082015260600190565b9283526020830191909152604082015260600190565b93845260208401929092526040830152606082015260800190565b92835260208301919091526001600160a01b0316604082015260600190565b93845260208085019390935260408085019290925280516001600160a01b039081166060808701919091529382015160808601529181015160a085015291909101511660c082015260e00190565b918252602082015260400190565b9485526001600160a01b0393841660208601529190921660408401526060830191909152608082015260a00190565b60006101208201905085825284602083015283604083015260018060a01b03808451166060840152806020850151166080840152604084015160a0840152606084015160c0840152608084015160e08401528060a0850151166101008401525095945050505050565b60405181810167ffffffffffffffff811182821017156119da57600080fd5b604052919050565b600067ffffffffffffffff8211156119f8578081fd5b5060209081020190565b6001600160a01b0381168114611a1757600080fd5b5056fea2646970667358221220e401efe3103ddac789d6700655ddcea0685037ad09d2825de2b8bf031fcdf4ff64736f6c63430006070033",
  "immutableReferences": {},
  "source": "pragma solidity ^0.6.7;\npragma experimental ABIEncoderV2;\n\nimport '../interface/IStruct.sol';\nimport '../interface/IInterestModel.sol';\nimport '../lib/Configuration.sol';\nimport '../lib/LiquidityPools.sol';\nimport '../lib/DepositManager.sol';\nimport '../lib/LoanManager.sol';\n\n\ncontract DepositManagerMock {\n    using Configuration for Configuration.State;\n    using LiquidityPools for LiquidityPools.State;\n    using DepositManager for DepositManager.State;\n    using LoanManager for LoanManager.State;\n\n    Configuration.State _configuration;\n    LiquidityPools.State _liquidityPools;\n    DepositManager.State _depositManager;\n    LoanManager.State _loanManager;\n\n    function enableDepositTerm(uint256 term) external {\n        _depositManager.enableDepositTerm(_liquidityPools, term);\n    }\n\n    function disableDepositTerm(uint256 term) external {\n        _depositManager.disableDepositTerm(term);\n    }\n\n    function enableDepositToken(address tokenAddress) external {\n        _depositManager.enableDepositToken(tokenAddress);\n    }\n\n    function disableDepositToken(address tokenAddress) external {\n        _depositManager.disableDepositToken(tokenAddress);\n    }\n\n    function setMaxDistributorFeeRatios(\n        uint256 depositDistributorFeeRatio,\n        uint256 loanDistributorFeeRatio\n    ) external {\n        _configuration.setMaxDistributorFeeRatios(\n            depositDistributorFeeRatio,\n            loanDistributorFeeRatio\n        );\n    }\n\n    function deposit(\n        address tokenAddress,\n        uint256 depositAmount,\n        uint256 depositTerm,\n        address payable distributorAddress\n    ) external payable returns (bytes32 depositId) {\n        IStruct.DepositParameters memory depositParameters = IStruct\n            .DepositParameters({\n            tokenAddress: tokenAddress,\n            depositAmount: depositAmount,\n            depositTerm: depositTerm,\n            distributorAddress: distributorAddress\n        });\n\n        return\n            _depositManager.deposit(\n                _liquidityPools,\n                _configuration,\n                depositParameters\n            );\n    }\n\n    function withdraw(bytes32 depositId)\n        external\n        returns (uint256 withdrewAmount)\n    {\n        return\n            _depositManager.withdraw(\n                _configuration,\n                _liquidityPools,\n                depositId\n            );\n    }\n\n    function earlyWithdraw(bytes32 depositId)\n        external\n        returns (uint256 withdrewAmount)\n    {\n        return _depositManager.earlyWithdraw(_liquidityPools, depositId);\n    }\n\n    function getDepositTerms()\n        external\n        view\n        returns (uint256[] memory depositTermList)\n    {\n        return _depositManager.depositTermList;\n    }\n\n    function getDepositTokens()\n        external\n        view\n        returns (address[] memory depositTokenAddressList)\n    {\n        return _depositManager.depositTokenAddressList;\n    }\n\n    function getDepositRecordById(bytes32 depositId)\n        external\n        view\n        returns (IStruct.GetDepositRecordResponse memory depositRecord)\n    {\n        return _depositManager.getDepositRecordById(_liquidityPools, depositId);\n    }\n\n    function getInterestDistributionByDepositId(bytes32 depositId)\n        external\n        view\n        returns (\n            uint256 interestForDepositor,\n            uint256 interestForDepositDistributor,\n            uint256 interestForLoanDistributor,\n            uint256 interestForProtocolReserve\n        )\n    {\n        return\n            _depositManager._getInterestDistributionByDepositId(\n                _liquidityPools,\n                depositId\n            );\n    }\n\n    function getDepositRecordsByAccount(address accountAddress)\n        external\n        view\n        returns (IStruct.GetDepositRecordResponse[] memory depositRecordList)\n    {\n        return\n            _depositManager.getDepositRecordsByAccount(\n                _liquidityPools,\n                accountAddress\n            );\n    }\n\n    function isDepositEarlyWithdrawable(bytes32 depositId)\n        external\n        view\n        returns (bool isEarlyWithdrawable)\n    {\n        return\n            _depositManager.isDepositEarlyWithdrawable(\n                _liquidityPools,\n                depositId\n            );\n    }\n\n    // --- Helpers ---\n\n    function getPoolById(address tokenAddress, uint256 poolId)\n        external\n        view\n        returns (IStruct.Pool memory pool)\n    {\n        return _liquidityPools.getPoolById(tokenAddress, poolId);\n    }\n\n    function getPoolGroupSize() external view returns (uint256 poolGroupSize) {\n        return _liquidityPools.poolGroupSize;\n    }\n\n    function setInterestModel(IInterestModel interestModel) external {\n        _configuration.setInterestModel(interestModel);\n    }\n\n    function setInterestReserveAddress(address payable interestReserveAddress)\n        external\n    {\n        _configuration.setInterestReserveAddress(interestReserveAddress);\n    }\n\n    function setBalanceCap(address tokenAddress, uint256 balanceCap) external {\n        _configuration.setBalanceCap(tokenAddress, balanceCap);\n    }\n\n    function setPriceOracle(address tokenAddress, IPriceOracle priceOracle)\n        external\n    {\n        _configuration.setPriceOracle(tokenAddress, priceOracle);\n    }\n\n    function setLoanAndCollateralTokenPair(\n        address loanTokenAddress,\n        address collateralTokenAddress,\n        uint256 minCollateralCoverageRatio,\n        uint256 liquidationDiscount\n    ) external {\n        _loanManager.setLoanAndCollateralTokenPair(\n            loanTokenAddress,\n            collateralTokenAddress,\n            minCollateralCoverageRatio,\n            liquidationDiscount\n        );\n    }\n\n    function loan(\n        address loanTokenAddress,\n        address collateralTokenAddress,\n        uint256 loanAmount,\n        uint256 collateralAmount,\n        uint256 loanTerm,\n        address payable distributorAddress\n    ) external payable returns (bytes32 loanId) {\n        IStruct.LoanParameters memory loanParameters = IStruct.LoanParameters({\n            loanTokenAddress: loanTokenAddress,\n            collateralTokenAddress: collateralTokenAddress,\n            loanAmount: loanAmount,\n            collateralAmount: collateralAmount,\n            loanTerm: loanTerm,\n            distributorAddress: distributorAddress\n        });\n\n        return\n            _loanManager.loan(_configuration, _liquidityPools, loanParameters);\n    }\n}\n",
  "sourcePath": "/Users/ethereum/Projects/bluestone/bluestone/contracts/protocol/mock/DepositManagerMock.sol",
  "compiler": {
    "name": "solc",
    "version": "0.6.7+commit.b8d736ae.Emscripten.clang"
  },
  "schemaVersion": "3.1.0",
  "updatedAt": "2020-09-15T02:50:37.537Z",
  "devdoc": {
    "methods": {}
  },
  "userdoc": {
    "methods": {}
  }
}