{
  "contractName": "DepositManagerMock",
  "abi": [
    {
      "inputs": [
        {
          "internalType": "uint256",
          "name": "term",
          "type": "uint256"
        }
      ],
      "name": "enableDepositTerm",
      "outputs": [],
      "stateMutability": "nonpayable",
      "type": "function"
    },
    {
      "inputs": [
        {
          "internalType": "uint256[]",
          "name": "terms",
          "type": "uint256[]"
        }
      ],
      "name": "enableDepositTerms",
      "outputs": [],
      "stateMutability": "nonpayable",
      "type": "function"
    },
    {
      "inputs": [
        {
          "internalType": "uint256",
          "name": "term",
          "type": "uint256"
        }
      ],
      "name": "disableDepositTerm",
      "outputs": [],
      "stateMutability": "nonpayable",
      "type": "function"
    },
    {
      "inputs": [
        {
          "internalType": "uint256[]",
          "name": "terms",
          "type": "uint256[]"
        }
      ],
      "name": "disableDepositTerms",
      "outputs": [],
      "stateMutability": "nonpayable",
      "type": "function"
    },
    {
      "inputs": [
        {
          "internalType": "address",
          "name": "tokenAddress",
          "type": "address"
        }
      ],
      "name": "enableDepositToken",
      "outputs": [],
      "stateMutability": "nonpayable",
      "type": "function"
    },
    {
      "inputs": [
        {
          "internalType": "address",
          "name": "tokenAddress",
          "type": "address"
        }
      ],
      "name": "disableDepositToken",
      "outputs": [],
      "stateMutability": "nonpayable",
      "type": "function"
    },
    {
      "inputs": [
        {
          "internalType": "uint256",
          "name": "depositDistributorFeeRatio",
          "type": "uint256"
        },
        {
          "internalType": "uint256",
          "name": "loanDistributorFeeRatio",
          "type": "uint256"
        }
      ],
      "name": "setMaxDistributorFeeRatios",
      "outputs": [],
      "stateMutability": "nonpayable",
      "type": "function"
    },
    {
      "inputs": [
        {
          "internalType": "address",
          "name": "tokenAddress",
          "type": "address"
        },
        {
          "internalType": "uint256",
          "name": "depositAmount",
          "type": "uint256"
        },
        {
          "internalType": "uint256",
          "name": "depositTerm",
          "type": "uint256"
        },
        {
          "internalType": "address payable",
          "name": "distributorAddress",
          "type": "address"
        }
      ],
      "name": "deposit",
      "outputs": [
        {
          "internalType": "bytes32",
          "name": "depositId",
          "type": "bytes32"
        }
      ],
      "stateMutability": "payable",
      "type": "function"
    },
    {
      "inputs": [
        {
          "internalType": "bytes32",
          "name": "depositId",
          "type": "bytes32"
        }
      ],
      "name": "withdraw",
      "outputs": [
        {
          "internalType": "uint256",
          "name": "withdrewAmount",
          "type": "uint256"
        }
      ],
      "stateMutability": "nonpayable",
      "type": "function"
    },
    {
      "inputs": [
        {
          "internalType": "bytes32",
          "name": "depositId",
          "type": "bytes32"
        }
      ],
      "name": "earlyWithdraw",
      "outputs": [
        {
          "internalType": "uint256",
          "name": "withdrewAmount",
          "type": "uint256"
        }
      ],
      "stateMutability": "nonpayable",
      "type": "function"
    },
    {
      "inputs": [],
      "name": "getDepositTerms",
      "outputs": [
        {
          "internalType": "uint256[]",
          "name": "depositTermList",
          "type": "uint256[]"
        }
      ],
      "stateMutability": "view",
      "type": "function"
    },
    {
      "inputs": [],
      "name": "getDepositTokens",
      "outputs": [
        {
          "internalType": "address[]",
          "name": "depositTokenAddressList",
          "type": "address[]"
        }
      ],
      "stateMutability": "view",
      "type": "function"
    },
    {
      "inputs": [
        {
          "internalType": "bytes32",
          "name": "depositId",
          "type": "bytes32"
        }
      ],
      "name": "getDepositRecordById",
      "outputs": [
        {
          "components": [
            {
              "internalType": "bytes32",
              "name": "depositId",
              "type": "bytes32"
            },
            {
              "internalType": "address",
              "name": "tokenAddress",
              "type": "address"
            },
            {
              "internalType": "uint256",
              "name": "depositTerm",
              "type": "uint256"
            },
            {
              "internalType": "uint256",
              "name": "depositAmount",
              "type": "uint256"
            },
            {
              "internalType": "uint256",
              "name": "poolId",
              "type": "uint256"
            },
            {
              "internalType": "uint256",
              "name": "interest",
              "type": "uint256"
            },
            {
              "internalType": "uint256",
              "name": "createdAt",
              "type": "uint256"
            },
            {
              "internalType": "uint256",
              "name": "withdrewAt",
              "type": "uint256"
            },
            {
              "internalType": "uint256",
              "name": "weight",
              "type": "uint256"
            }
          ],
          "internalType": "struct IStruct.GetDepositRecordResponse",
          "name": "depositRecord",
          "type": "tuple"
        }
      ],
      "stateMutability": "view",
      "type": "function"
    },
    {
      "inputs": [
        {
          "internalType": "bytes32",
          "name": "depositId",
          "type": "bytes32"
        }
      ],
      "name": "getInterestDistributionByDepositId",
      "outputs": [
        {
          "internalType": "uint256",
          "name": "interestForDepositor",
          "type": "uint256"
        },
        {
          "internalType": "uint256",
          "name": "interestForDepositDistributor",
          "type": "uint256"
        },
        {
          "internalType": "uint256",
          "name": "interestForLoanDistributor",
          "type": "uint256"
        },
        {
          "internalType": "uint256",
          "name": "interestForProtocolReserve",
          "type": "uint256"
        }
      ],
      "stateMutability": "view",
      "type": "function"
    },
    {
      "inputs": [
        {
          "internalType": "address",
          "name": "accountAddress",
          "type": "address"
        }
      ],
      "name": "getDepositRecordsByAccount",
      "outputs": [
        {
          "components": [
            {
              "internalType": "bytes32",
              "name": "depositId",
              "type": "bytes32"
            },
            {
              "internalType": "address",
              "name": "tokenAddress",
              "type": "address"
            },
            {
              "internalType": "uint256",
              "name": "depositTerm",
              "type": "uint256"
            },
            {
              "internalType": "uint256",
              "name": "depositAmount",
              "type": "uint256"
            },
            {
              "internalType": "uint256",
              "name": "poolId",
              "type": "uint256"
            },
            {
              "internalType": "uint256",
              "name": "interest",
              "type": "uint256"
            },
            {
              "internalType": "uint256",
              "name": "createdAt",
              "type": "uint256"
            },
            {
              "internalType": "uint256",
              "name": "withdrewAt",
              "type": "uint256"
            },
            {
              "internalType": "uint256",
              "name": "weight",
              "type": "uint256"
            }
          ],
          "internalType": "struct IStruct.GetDepositRecordResponse[]",
          "name": "depositRecordList",
          "type": "tuple[]"
        }
      ],
      "stateMutability": "view",
      "type": "function"
    },
    {
      "inputs": [
        {
          "internalType": "bytes32",
          "name": "depositId",
          "type": "bytes32"
        }
      ],
      "name": "isDepositEarlyWithdrawable",
      "outputs": [
        {
          "internalType": "bool",
          "name": "isEarlyWithdrawable",
          "type": "bool"
        }
      ],
      "stateMutability": "view",
      "type": "function"
    },
    {
      "inputs": [
        {
          "internalType": "address",
          "name": "tokenAddress",
          "type": "address"
        },
        {
          "internalType": "uint256",
          "name": "poolId",
          "type": "uint256"
        }
      ],
      "name": "getPoolById",
      "outputs": [
        {
          "components": [
            {
              "internalType": "uint256",
              "name": "depositAmount",
              "type": "uint256"
            },
            {
              "internalType": "uint256",
              "name": "availableAmount",
              "type": "uint256"
            },
            {
              "internalType": "uint256",
              "name": "loanInterest",
              "type": "uint256"
            },
            {
              "internalType": "uint256",
              "name": "totalDepositWeight",
              "type": "uint256"
            },
            {
              "internalType": "uint256",
              "name": "depositDistributorFeeRatio",
              "type": "uint256"
            },
            {
              "internalType": "uint256",
              "name": "loanDistributorFeeRatio",
              "type": "uint256"
            },
            {
              "internalType": "uint256",
              "name": "protocolReserveRatio",
              "type": "uint256"
            }
          ],
          "internalType": "struct IStruct.Pool",
          "name": "pool",
          "type": "tuple"
        }
      ],
      "stateMutability": "view",
      "type": "function"
    },
    {
      "inputs": [],
      "name": "getPoolGroupSize",
      "outputs": [
        {
          "internalType": "uint256",
          "name": "poolGroupSize",
          "type": "uint256"
        }
      ],
      "stateMutability": "view",
      "type": "function"
    },
    {
      "inputs": [
        {
          "internalType": "contract IInterestModel",
          "name": "interestModel",
          "type": "address"
        }
      ],
      "name": "setInterestModel",
      "outputs": [],
      "stateMutability": "nonpayable",
      "type": "function"
    },
    {
      "inputs": [
        {
          "internalType": "address payable",
          "name": "interestReserveAddress",
          "type": "address"
        }
      ],
      "name": "setInterestReserveAddress",
      "outputs": [],
      "stateMutability": "nonpayable",
      "type": "function"
    },
    {
      "inputs": [
        {
          "internalType": "address",
          "name": "tokenAddress",
          "type": "address"
        },
        {
          "internalType": "uint256",
          "name": "balanceCap",
          "type": "uint256"
        }
      ],
      "name": "setBalanceCap",
      "outputs": [],
      "stateMutability": "nonpayable",
      "type": "function"
    },
    {
      "inputs": [
        {
          "internalType": "address",
          "name": "tokenAddress",
          "type": "address"
        },
        {
          "internalType": "contract IPriceOracle",
          "name": "priceOracle",
          "type": "address"
        }
      ],
      "name": "setPriceOracle",
      "outputs": [],
      "stateMutability": "nonpayable",
      "type": "function"
    },
    {
      "inputs": [
        {
          "internalType": "address",
          "name": "loanTokenAddress",
          "type": "address"
        },
        {
          "internalType": "address",
          "name": "collateralTokenAddress",
          "type": "address"
        },
        {
          "internalType": "uint256",
          "name": "minCollateralCoverageRatio",
          "type": "uint256"
        },
        {
          "internalType": "uint256",
          "name": "liquidationDiscount",
          "type": "uint256"
        }
      ],
      "name": "setLoanAndCollateralTokenPair",
      "outputs": [],
      "stateMutability": "nonpayable",
      "type": "function"
    },
    {
      "inputs": [
        {
          "internalType": "address",
          "name": "loanTokenAddress",
          "type": "address"
        },
        {
          "internalType": "address",
          "name": "collateralTokenAddress",
          "type": "address"
        },
        {
          "internalType": "uint256",
          "name": "loanAmount",
          "type": "uint256"
        },
        {
          "internalType": "uint256",
          "name": "collateralAmount",
          "type": "uint256"
        },
        {
          "internalType": "uint256",
          "name": "loanTerm",
          "type": "uint256"
        },
        {
          "internalType": "address payable",
          "name": "distributorAddress",
          "type": "address"
        }
      ],
      "name": "loan",
      "outputs": [
        {
          "internalType": "bytes32",
          "name": "loanId",
          "type": "bytes32"
        }
      ],
      "stateMutability": "payable",
      "type": "function"
    }
  ],
  "bytecode": "0x608060405234801561001057600080fd5b50611c33806100206000396000f3fe60806040526004361061014b5760003560e01c80637d22afda116100b6578063b9a850e31161006f578063b9a850e3146103c9578063ce7e856a146103e9578063ddd99eeb14610409578063e064e81714610429578063ebd7445f14610449578063fb01600d146104695761014b565b80637d22afda1461030957806386111b78146103295780638b6099db146103565780638e19899e1461036957806394a68ef714610389578063a04360b6146103a95761014b565b806350780dbb1161010857806350780dbb1461022d57806367a74ddc1461024d5780636cf6f5241461026d5780636d2b08391461028f5780636e3f5d52146102bc5780637550baef146102dc5761014b565b80630896c1a0146101505780630a69fca31461017b578063289caaf31461018e5780633250ef9e146101be5780634b3c7b6a146101de5780634bbf5b3c1461020b575b600080fd5b34801561015c57600080fd5b5061016561048b565b6040516101729190611880565b60405180910390f35b6101656101893660046113d6565b610491565b34801561019a57600080fd5b506101ae6101a9366004611642565b610571565b6040516101729493929190611a48565b3480156101ca57600080fd5b506101656101d9366004611642565b610598565b3480156101ea57600080fd5b506101fe6101f9366004611375565b61062e565b60405161017291906117fa565b34801561021757600080fd5b5061022b610226366004611391565b6106c2565b005b34801561023957600080fd5b5061022b610248366004611642565b610738565b34801561025957600080fd5b5061022b61026836600461143c565b6107a8565b34801561027957600080fd5b50610282610818565b604051610172919061183d565b34801561029b57600080fd5b506102af6102aa366004611642565b610873565b6040516101729190611875565b3480156102c857600080fd5b5061022b6102d7366004611375565b610903565b3480156102e857600080fd5b506102fc6102f7366004611474565b61093d565b604051610172919061196e565b34801561031557600080fd5b5061022b61032436600461158f565b6109d8565b34801561033557600080fd5b50610349610344366004611642565b610a15565b604051610172919061195f565b61016561036436600461149f565b610aab565b34801561037557600080fd5b50610165610384366004611642565b610b7a565b34801561039557600080fd5b5061022b6103a4366004611642565b610bbc565b3480156103b557600080fd5b5061022b6103c43660046116f3565b610bf9565b3480156103d557600080fd5b5061022b6103e436600461158f565b610c35565b3480156103f557600080fd5b5061022b610404366004611375565b610c6f565b34801561041557600080fd5b5061022b610424366004611375565b610ca9565b34801561043557600080fd5b5061022b610444366004611474565b610ce3565b34801561045557600080fd5b5061022b610464366004611375565b610d1f565b34801561047557600080fd5b5061047e610d59565b60405161017291906117ad565b60085490565b600061049b611156565b506040805160c0810182526001600160a01b03808a16825288811660208301528183018890526060820187905260808201869052841660a0820152905163097e950160e31b815273__LoanManager___________________________90634bf4a80890610515906010906000906007908790600401611b35565b60206040518083038186803b15801561052d57600080fd5b505af4158015610541573d6000803e3d6000fd5b505050506040513d601f19601f82011682018060405250810190610565919061165a565b98975050505050505050565b6000808080610589600960078763ffffffff610dbd16565b93509350935093509193509193565b604051630e53750760e41b815260009073__DepositManager________________________9063e5375070906105d8906009906007908790600401611a11565b60206040518083038186803b1580156105f057600080fd5b505af4158015610604573d6000803e3d6000fd5b505050506040513d601f19601f82011682018060405250810190610628919061165a565b92915050565b604051630e654ee760e41b815260609073__DepositManager________________________9063e654ee709061066e906009906007908790600401611a63565b60006040518083038186803b15801561068657600080fd5b505af415801561069a573d6000803e3d6000fd5b505050506040513d6000823e601f3d908101601f1916820160405261062891908101906114e8565b6040516392f0341160e01b815273__LoanManager___________________________906392f0341190610702906010908890889088908890600401611b06565b60006040518083038186803b15801561071a57600080fd5b505af415801561072e573d6000803e3d6000fd5b5050505050505050565b604051600162b7e75360e01b0319815273__DepositManager________________________9063ff4818ad90610775906009908590600401611af8565b60006040518083038186803b15801561078d57600080fd5b505af41580156107a1573d6000803e3d6000fd5b5050505050565b604051635562758f60e01b815273__Configuration_________________________90635562758f906107e490600090869086906004016119d3565b60006040518083038186803b1580156107fc57600080fd5b505af4158015610810573d6000803e3d6000fd5b505050505050565b6060600960010180548060200260200160405190810160405280929190818152602001828054801561086957602002820191906000526020600020905b815481526020019060010190808311610855575b5050505050905090565b60405163284e74a560e21b815260009073__DepositManager________________________9063a139d294906108b3906009906007908790600401611a11565b60206040518083038186803b1580156108cb57600080fd5b505af41580156108df573d6000803e3d6000fd5b505050506040513d601f19601f820116820180604052508101906106289190611622565b604051633e814c3b60e01b815273__Configuration_________________________90633e814c3b906107759060009085906004016119bc565b6109456111a7565b6040516352af126f60e01b815273__LiquidityPools________________________906352af126f9061098190600790879087906004016119f2565b60e06040518083038186803b15801561099957600080fd5b505af41580156109ad573d6000803e3d6000fd5b505050506040513d601f19601f820116820180604052508101906109d1919061168e565b9392505050565b60405163156368df60e01b815273__DepositManager________________________9063156368df90610775906009906007908690600401611a82565b610a1d6111e4565b604051631c63e3d760e11b815273__DepositManager________________________906338c7c7ae90610a5a906009906007908790600401611a11565b6101206040518083038186803b158015610a7357600080fd5b505af4158015610a87573d6000803e3d6000fd5b505050506040513d601f19601f820116820180604052508101906106289190611672565b6000610ab561123c565b50604080516080810182526001600160a01b03808816825260208201879052818301869052841660608201529051636aa1d5e360e01b815273__DepositManager________________________90636aa1d5e390610b20906009906007906000908790600401611aaa565b60206040518083038186803b158015610b3857600080fd5b505af4158015610b4c573d6000803e3d6000fd5b505050506040513d601f19601f82011682018060405250810190610b70919061165a565b9695505050505050565b6040516321ca206960e01b815260009073__DepositManager________________________906321ca2069906105d89060099085906007908890600401611a48565b604051630e273fb560e31b815273__DepositManager________________________90637139fda890610775906009906007908690600401611a11565b604051632b05cfad60e01b815273__Configuration_________________________90632b05cfad906107e49060009086908690600401611a11565b604051630ac9024b60e11b815273__DepositManager________________________90631592049690610775906009908590600401611a27565b604051631c2f3ab560e31b815273__DepositManager________________________9063e179d5a8906107759060099085906004016119bc565b60405163044b515960e31b815273__Configuration_________________________9063225a8ac8906107759060009085906004016119bc565b604051633b7dd5d560e21b815273__Configuration_________________________9063edf75754906107e490600090869086906004016119f2565b60405163486f118960e11b815273__DepositManager________________________906390de2312906107759060099085906004016119bc565b6060600960020180548060200260200160405190810160405280929190818152602001828054801561086957602002820191906000526020600020905b81546001600160a01b03168152600190910190602001808311610d96575050505050905090565b600080600080610dcb611276565b506000858152600580890160209081526040928390208351610140810185528154815260018201546001600160a01b03908116938201939093526002820154831694810185905260038201546060820152600482015460808201529281015460a0840152600681015460c0840152600781015460e08401526008810154610100840152600901541661012082015290610e7f5760405162461bcd60e51b8152600401610e769061191d565b60405180910390fd5b610e876111a7565b60408083015160a084015191516352af126f60e01b815273__LiquidityPools________________________926352af126f92610ec9928d92906004016119f2565b60e06040518083038186803b158015610ee157600080fd5b505af4158015610ef5573d6000803e3d6000fd5b505050506040513d601f19601f82011682018060405250810190610f19919061168e565b9050806060015160001415610f3d57506000945084935083925082915061102c9050565b6000610f93670de0b6b3a7640000610f76610f828560600151610f76670de0b6b3a764000089610100015161103590919063ffffffff16565b9063ffffffff61106f16565b60408601519063ffffffff61103516565b9050610fb8670de0b6b3a7640000610f7684608001518461103590919063ffffffff16565b9550610fdd670de0b6b3a7640000610f768460a001518461103590919063ffffffff16565b9450611002670de0b6b3a7640000610f768460c001518461103590919063ffffffff16565b93506110268461101a8781858b63ffffffff6110b116565b9063ffffffff6110b116565b96505050505b93509350935093565b60008261104457506000610628565b8282028284828161105157fe5b04146109d15760405162461bcd60e51b8152600401610e76906118dc565b60006109d183836040518060400160405280601a81526020017f536166654d6174683a206469766973696f6e206279207a65726f0000000000008152506110f3565b60006109d183836040518060400160405280601e81526020017f536166654d6174683a207375627472616374696f6e206f766572666c6f77000081525061112a565b600081836111145760405162461bcd60e51b8152600401610e769190611889565b50600083858161112057fe5b0495945050505050565b6000818484111561114e5760405162461bcd60e51b8152600401610e769190611889565b505050900390565b6040518060c0016040528060006001600160a01b0316815260200160006001600160a01b0316815260200160008152602001600081526020016000815260200160006001600160a01b031681525090565b6040518060e00160405280600081526020016000815260200160008152602001600081526020016000815260200160008152602001600081525090565b6040518061012001604052806000801916815260200160006001600160a01b03168152602001600081526020016000815260200160008152602001600081526020016000815260200160008152602001600081525090565b604051806080016040528060006001600160a01b03168152602001600081526020016000815260200160006001600160a01b031681525090565b6040518061014001604052806000801916815260200160006001600160a01b0316815260200160006001600160a01b0316815260200160008152602001600081526020016000815260200160008152602001600081526020016000815260200160006001600160a01b031681525090565b805161062881611be5565b6000610120808385031215611305578182fd5b61130e81611b9e565b9150508151815261132283602084016112e7565b602082015260408201516040820152606082015160608201526080820151608082015260a082015160a082015260c082015160c082015260e082015160e082015261010080830151818301525092915050565b600060208284031215611386578081fd5b81356109d181611be5565b600080600080608085870312156113a6578283fd5b84356113b181611be5565b935060208501356113c181611be5565b93969395505050506040820135916060013590565b60008060008060008060c087890312156113ee578182fd5b86356113f981611be5565b9550602087013561140981611be5565b945060408701359350606087013592506080870135915060a087013561142e81611be5565b809150509295509295509295565b6000806040838503121561144e578182fd5b823561145981611be5565b9150602083013561146981611be5565b809150509250929050565b60008060408385031215611486578182fd5b823561149181611be5565b946020939093013593505050565b600080600080608085870312156114b4578182fd5b84356114bf81611be5565b9350602085013592506040850135915060608501356114dd81611be5565b939692955090935050565b600060208083850312156114fa578182fd5b825167ffffffffffffffff811115611510578283fd5b80840185601f820112611521578384fd5b8051915061153661153183611bc5565b611b9e565b82815283810190828501610120808602850187018a1015611555578788fd5b8794505b858510156115815761156b8a836112f2565b8452600194909401939286019290810190611559565b509098975050505050505050565b600060208083850312156115a1578182fd5b823567ffffffffffffffff8111156115b7578283fd5b80840185601f8201126115c8578384fd5b803591506115d861153183611bc5565b82815283810190828501858502840186018910156115f4578687fd5b8693505b848410156116165780358352600193909301929185019185016115f8565b50979650505050505050565b600060208284031215611633578081fd5b815180151581146109d1578182fd5b600060208284031215611653578081fd5b5035919050565b60006020828403121561166b578081fd5b5051919050565b60006101208284031215611684578081fd5b6109d183836112f2565b600060e0828403121561169f578081fd5b6116a960e0611b9e565b825181526020830151602082015260408301516040820152606083015160608201526080830151608082015260a083015160a082015260c083015160c08201528091505092915050565b60008060408385031215611705578182fd5b50508035926020909101359150565b6000815180845260208085019450808401835b8381101561174357815187529582019590820190600101611727565b509495945050505050565b805182526020808201516001600160a01b03169083015260408082015190830152606080820151908301526080808201519083015260a0808201519083015260c0808201519083015260e0808201519083015261010090810151910152565b6020808252825182820181905260009190848201906040850190845b818110156117ee5783516001600160a01b0316835292840192918401916001016117c9565b50909695505050505050565b6020808252825182820181905260009190848201906040850190845b818110156117ee5761182983855161174e565b928401926101209290920191600101611816565b6020808252825182820181905260009190848201906040850190845b818110156117ee57835183529284019291840191600101611859565b901515815260200190565b90815260200190565b6000602080835283518082850152825b818110156118b557858101830151858201604001528201611899565b818111156118c65783604083870101525b50601f01601f1916929092016040019392505050565b60208082526021908201527f536166654d6174683a206d756c7469706c69636174696f6e206f766572666c6f6040820152607760f81b606082015260800190565b60208082526022908201527f4465706f7369744d616e616765723a20696e76616c6964206465706f73697420604082015261125160f21b606082015260800190565b6101208101610628828461174e565b600060e082019050825182526020830151602083015260408301516040830152606083015160608301526080830151608083015260a083015160a083015260c083015160c083015292915050565b9182526001600160a01b0316602082015260400190565b9283526001600160a01b03918216602084015216604082015260600190565b9283526001600160a01b03919091166020830152604082015260600190565b9283526020830191909152604082015260600190565b600083825260406020830152611a406040830184611714565b949350505050565b93845260208401929092526040830152606082015260800190565b92835260208301919091526001600160a01b0316604082015260600190565b600084825283602083015260606040830152611aa16060830184611714565b95945050505050565b93845260208085019390935260408085019290925280516001600160a01b039081166060808701919091529382015160808601529181015160a085015291909101511660c082015260e00190565b918252602082015260400190565b9485526001600160a01b0393841660208601529190921660408401526060830191909152608082015260a00190565b60006101208201905085825284602083015283604083015260018060a01b03808451166060840152806020850151166080840152604084015160a0840152606084015160c0840152608084015160e08401528060a0850151166101008401525095945050505050565b60405181810167ffffffffffffffff81118282101715611bbd57600080fd5b604052919050565b600067ffffffffffffffff821115611bdb578081fd5b5060209081020190565b6001600160a01b0381168114611bfa57600080fd5b5056fea26469706673582212201ba0e289793344d0618830a0f18d5765c8bc1e5d581cbe9eecc076079ac46f1b64736f6c63430006070033",
  "immutableReferences": {},
  "source": "pragma solidity ^0.6.7;\npragma experimental ABIEncoderV2;\n\nimport '../interface/IStruct.sol';\nimport '../interface/IInterestModel.sol';\nimport '../lib/Configuration.sol';\nimport '../lib/LiquidityPools.sol';\nimport '../lib/DepositManager.sol';\nimport '../lib/LoanManager.sol';\n\ncontract DepositManagerMock {\n    using Configuration for Configuration.State;\n    using LiquidityPools for LiquidityPools.State;\n    using DepositManager for DepositManager.State;\n    using LoanManager for LoanManager.State;\n\n    Configuration.State _configuration;\n    LiquidityPools.State _liquidityPools;\n    DepositManager.State _depositManager;\n    LoanManager.State _loanManager;\n\n    function enableDepositTerm(uint256 term) external {\n        _depositManager.enableDepositTerm(_liquidityPools, term);\n    }\n\n    function enableDepositTerms(uint256[] memory terms) public {\n        _depositManager.enableDepositTerms(_liquidityPools, terms);\n    }\n\n    function disableDepositTerm(uint256 term) external {\n        _depositManager.disableDepositTerm(term);\n    }\n\n    function disableDepositTerms(uint256[] memory terms) public {\n        _depositManager.disableDepositTerms(terms);\n    }\n\n    function enableDepositToken(address tokenAddress) external {\n        _depositManager.enableDepositToken(tokenAddress);\n    }\n\n    function disableDepositToken(address tokenAddress) external {\n        _depositManager.disableDepositToken(tokenAddress);\n    }\n\n    function setMaxDistributorFeeRatios(\n        uint256 depositDistributorFeeRatio,\n        uint256 loanDistributorFeeRatio\n    ) external {\n        _configuration.setMaxDistributorFeeRatios(\n            depositDistributorFeeRatio,\n            loanDistributorFeeRatio\n        );\n    }\n\n    function deposit(\n        address tokenAddress,\n        uint256 depositAmount,\n        uint256 depositTerm,\n        address payable distributorAddress\n    ) external payable returns (bytes32 depositId) {\n        IStruct.DepositParameters memory depositParameters = IStruct\n            .DepositParameters({\n            tokenAddress: tokenAddress,\n            depositAmount: depositAmount,\n            depositTerm: depositTerm,\n            distributorAddress: distributorAddress\n        });\n\n        return\n            _depositManager.deposit(\n                _liquidityPools,\n                _configuration,\n                depositParameters\n            );\n    }\n\n    function withdraw(bytes32 depositId)\n        external\n        returns (uint256 withdrewAmount)\n    {\n        return\n            _depositManager.withdraw(\n                _configuration,\n                _liquidityPools,\n                depositId\n            );\n    }\n\n    function earlyWithdraw(bytes32 depositId)\n        external\n        returns (uint256 withdrewAmount)\n    {\n        return _depositManager.earlyWithdraw(_liquidityPools, depositId);\n    }\n\n    function getDepositTerms()\n        external\n        view\n        returns (uint256[] memory depositTermList)\n    {\n        return _depositManager.depositTermList;\n    }\n\n    function getDepositTokens()\n        external\n        view\n        returns (address[] memory depositTokenAddressList)\n    {\n        return _depositManager.depositTokenAddressList;\n    }\n\n    function getDepositRecordById(bytes32 depositId)\n        external\n        view\n        returns (IStruct.GetDepositRecordResponse memory depositRecord)\n    {\n        return _depositManager.getDepositRecordById(_liquidityPools, depositId);\n    }\n\n    function getInterestDistributionByDepositId(bytes32 depositId)\n        external\n        view\n        returns (\n            uint256 interestForDepositor,\n            uint256 interestForDepositDistributor,\n            uint256 interestForLoanDistributor,\n            uint256 interestForProtocolReserve\n        )\n    {\n        return\n            _depositManager._getInterestDistributionByDepositId(\n                _liquidityPools,\n                depositId\n            );\n    }\n\n    function getDepositRecordsByAccount(address accountAddress)\n        external\n        view\n        returns (IStruct.GetDepositRecordResponse[] memory depositRecordList)\n    {\n        return\n            _depositManager.getDepositRecordsByAccount(\n                _liquidityPools,\n                accountAddress\n            );\n    }\n\n    function isDepositEarlyWithdrawable(bytes32 depositId)\n        external\n        view\n        returns (bool isEarlyWithdrawable)\n    {\n        return\n            _depositManager.isDepositEarlyWithdrawable(\n                _liquidityPools,\n                depositId\n            );\n    }\n\n    // --- Helpers ---\n\n    function getPoolById(address tokenAddress, uint256 poolId)\n        external\n        view\n        returns (IStruct.Pool memory pool)\n    {\n        return _liquidityPools.getPoolById(tokenAddress, poolId);\n    }\n\n    function getPoolGroupSize() external view returns (uint256 poolGroupSize) {\n        return _liquidityPools.poolGroupSize;\n    }\n\n    function setInterestModel(IInterestModel interestModel) external {\n        _configuration.setInterestModel(interestModel);\n    }\n\n    function setInterestReserveAddress(address payable interestReserveAddress)\n        external\n    {\n        _configuration.setInterestReserveAddress(interestReserveAddress);\n    }\n\n    function setBalanceCap(address tokenAddress, uint256 balanceCap) external {\n        _configuration.setBalanceCap(tokenAddress, balanceCap);\n    }\n\n    function setPriceOracle(address tokenAddress, IPriceOracle priceOracle)\n        external\n    {\n        _configuration.setPriceOracle(tokenAddress, priceOracle);\n    }\n\n    function setLoanAndCollateralTokenPair(\n        address loanTokenAddress,\n        address collateralTokenAddress,\n        uint256 minCollateralCoverageRatio,\n        uint256 liquidationDiscount\n    ) external {\n        _loanManager.setLoanAndCollateralTokenPair(\n            loanTokenAddress,\n            collateralTokenAddress,\n            minCollateralCoverageRatio,\n            liquidationDiscount\n        );\n    }\n\n    function loan(\n        address loanTokenAddress,\n        address collateralTokenAddress,\n        uint256 loanAmount,\n        uint256 collateralAmount,\n        uint256 loanTerm,\n        address payable distributorAddress\n    ) external payable returns (bytes32 loanId) {\n        IStruct.LoanParameters memory loanParameters = IStruct.LoanParameters({\n            loanTokenAddress: loanTokenAddress,\n            collateralTokenAddress: collateralTokenAddress,\n            loanAmount: loanAmount,\n            collateralAmount: collateralAmount,\n            loanTerm: loanTerm,\n            distributorAddress: distributorAddress\n        });\n\n        return\n            _loanManager.loan(_configuration, _liquidityPools, loanParameters);\n    }\n}\n",
  "sourcePath": "/Users/tianyouluo/codes/bluestone/contracts/protocol/mock/DepositManagerMock.sol",
  "compiler": {
    "name": "solc",
    "version": "0.6.7+commit.b8d736ae.Emscripten.clang"
  },
  "schemaVersion": "3.3.3",
  "updatedAt": "2021-05-28T02:21:29.627Z",
  "networkType": "ethereum",
  "devdoc": {
    "methods": {}
  },
  "userdoc": {
    "methods": {}
  }
}