{
  "contractName": "EthOracle",
  "abi": [
    {
      "inputs": [],
      "stateMutability": "nonpayable",
      "type": "constructor"
    },
    {
      "inputs": [],
      "name": "getDecimals",
      "outputs": [
        {
          "internalType": "uint8",
          "name": "",
          "type": "uint8"
        }
      ],
      "stateMutability": "view",
      "type": "function"
    },
    {
      "inputs": [],
      "name": "getLatestPrice",
      "outputs": [
        {
          "internalType": "int256",
          "name": "",
          "type": "int256"
        }
      ],
      "stateMutability": "view",
      "type": "function"
    },
    {
      "inputs": [],
      "name": "updatePriceIfNeeded",
      "outputs": [],
      "stateMutability": "pure",
      "type": "function"
    },
    {
      "inputs": [],
      "name": "getPrice",
      "outputs": [
        {
          "internalType": "uint256",
          "name": "tokenPrice",
          "type": "uint256"
        }
      ],
      "stateMutability": "view",
      "type": "function"
    }
  ],
  "bytecode": "0x608060405234801561001057600080fd5b50600080546001600160a01b03191673d4a33860578de61dbabdc8bfdb98fd742fa7028e1790556103fb806100466000396000f3fe608060405234801561001057600080fd5b506004361061004c5760003560e01c80638e15f4731461005157806398d5fdca1461006c578063f0141d8414610074578063f62fb7d21461008e575b600080fd5b610059610090565b6040519081526020015b60405180910390f35b610059610118565b61007c610158565b60405160ff9091168152602001610063565b005b6000805460408051633fabe5a360e21b8152905183926001600160a01b03169163feaf968c9160048083019260a0929190829003018186803b1580156100d557600080fd5b505afa1580156100e9573d6000803e3d6000fd5b505050506040513d601f19601f8201168201806040525081019061010d9190610203565b509195945050505050565b600080610123610090565b9050600061012f610158565b905061013c81601261038c565b61014790600a6102c0565b610151908361036d565b9250505090565b60008060009054906101000a90046001600160a01b03166001600160a01b031663313ce5676040518163ffffffff1660e01b815260040160206040518083038186803b1580156101a757600080fd5b505afa1580156101bb573d6000803e3d6000fd5b505050506040513d601f19601f820116820180604052508101906101df9190610253565b905090565b805169ffffffffffffffffffff811681146101fe57600080fd5b919050565b600080600080600060a0868803121561021b57600080fd5b610224866101e4565b9450602086015193506040860151925060608601519150610247608087016101e4565b90509295509295909350565b60006020828403121561026557600080fd5b815160ff8116811461027657600080fd5b9392505050565b600181815b808511156102b857816000190482111561029e5761029e6103af565b808516156102ab57918102915b93841c9390800290610282565b509250929050565b600061027660ff8416836000826102d957506001610367565b816102e657506000610367565b81600181146102fc576002811461030657610322565b6001915050610367565b60ff841115610317576103176103af565b50506001821b610367565b5060208310610133831016604e8410600b8410161715610345575081810a610367565b61034f838361027d565b8060001904821115610363576103636103af565b0290505b92915050565b6000816000190483118215151615610387576103876103af565b500290565b600060ff821660ff8416808210156103a6576103a66103af565b90039392505050565b634e487b7160e01b600052601160045260246000fdfea264697066735822122075742e58eafe8c51500cb2eb840b583463d8640dfbf67ed593120ef2b56b39a664736f6c63430008070033",
  "immutableReferences": {},
  "source": "// SPDX-License-Identifier: GPL-3.0\npragma solidity ^0.8.7;\nimport './abstract/ChainlinkPriceOracle.sol';\nimport './interface/IPriceOracle.sol';\n\ncontract EthOracle is IPriceOracle, ChainlinkPriceOracle {\n    constructor()\n        ChainlinkPriceOracle(0xD4a33860578De61DBAbDc8BFdb98FD742fA7028e)\n    {}\n\n    function updatePriceIfNeeded() external pure override {\n        return;\n    }\n\n    function getPrice() external view override returns (uint256 tokenPrice) {\n        int256 rawPrice = getLatestPrice();\n        uint8 decimals = getDecimals();\n        tokenPrice = uint256(rawPrice) * (10**(18 - decimals));\n    }\n}\n",
  "sourcePath": "/Users/liyangfan/Projects/WorkSpace/bluestone/contracts/oracle/OracleETH.sol",
  "compiler": {
    "name": "solc",
    "version": "0.8.7+commit.e28d00a7.Emscripten.clang"
  },
  "schemaVersion": "3.4.8",
  "updatedAt": "2022-08-31T12:01:34.825Z",
  "devdoc": {
    "kind": "dev",
    "methods": {
      "getPrice()": {
        "returns": {
          "tokenPrice": "tokenPrice"
        }
      },
      "updatePriceIfNeeded()": {
        "details": "Call this function before getPrice() if price freshness is important"
      }
    },
    "version": 1
  },
  "userdoc": {
    "kind": "user",
    "methods": {
      "getLatestPrice()": {
        "notice": "Returns the latest price"
      },
      "getPrice()": {
        "notice": "Return the current token price in USD"
      },
      "updatePriceIfNeeded()": {
        "notice": "Update the token price if necessary"
      }
    },
    "version": 1
  }
}