{
  "contractName": "EthPriceOracle",
  "abi": [
    {
      "inputs": [
        {
          "internalType": "address",
          "name": "aggregatorAddress",
          "type": "address"
        }
      ],
      "stateMutability": "nonpayable",
      "type": "constructor"
    },
    {
      "inputs": [],
      "name": "aggregator",
      "outputs": [
        {
          "internalType": "contract IChainlink",
          "name": "",
          "type": "address"
        }
      ],
      "stateMutability": "view",
      "type": "function"
    },
    {
      "inputs": [],
      "name": "tokenDecimals",
      "outputs": [
        {
          "internalType": "uint8",
          "name": "",
          "type": "uint8"
        }
      ],
      "stateMutability": "view",
      "type": "function"
    },
    {
      "inputs": [],
      "name": "updatePriceIfNeeded",
      "outputs": [],
      "stateMutability": "pure",
      "type": "function"
    },
    {
      "inputs": [],
      "name": "getPrice",
      "outputs": [
        {
          "internalType": "uint256",
          "name": "tokenPrice",
          "type": "uint256"
        }
      ],
      "stateMutability": "view",
      "type": "function"
    }
  ],
  "bytecode": "0x60806040526000805460ff60a01b1916600960a11b17905534801561002357600080fd5b506040516104bd3803806104bd83398101604081905261004291610067565b600080546001600160a01b0319166001600160a01b0392909216919091179055610097565b60006020828403121561007957600080fd5b81516001600160a01b038116811461009057600080fd5b9392505050565b610417806100a66000396000f3fe608060405234801561001057600080fd5b506004361061004c5760003560e01c8063245a7bfc146100515780633b97e8561461008157806398d5fdca146100a7578063f62fb7d2146100bd575b600080fd5b600054610064906001600160a01b031681565b6040516001600160a01b0390911681526020015b60405180910390f35b60005461009590600160a01b900460ff1681565b60405160ff9091168152602001610078565b6100af6100bf565b604051908152602001610078565b005b6000805460408051633fabe5a360e21b8152905183926001600160a01b03169163feaf968c9160048083019260a0929190829003018186803b15801561010457600080fd5b505afa158015610118573d6000803e3d6000fd5b505050506040513d601f19601f8201168201806040525081019061013c919061021f565b50505091505060008060009054906101000a90046001600160a01b03166001600160a01b031663313ce5676040518163ffffffff1660e01b815260040160206040518083038186803b15801561019157600080fd5b505afa1580156101a5573d6000803e3d6000fd5b505050506040513d601f19601f820116820180604052508101906101c9919061026f565b6000549091506101e4908290600160a01b900460ff166103a8565b6101ef90600a6102dc565b6101f99083610389565b9250505090565b805169ffffffffffffffffffff8116811461021a57600080fd5b919050565b600080600080600060a0868803121561023757600080fd5b61024086610200565b945060208601519350604086015192506060860151915061026360808701610200565b90509295509295909350565b60006020828403121561028157600080fd5b815160ff8116811461029257600080fd5b9392505050565b600181815b808511156102d45781600019048211156102ba576102ba6103cb565b808516156102c757918102915b93841c939080029061029e565b509250929050565b600061029260ff8416836000826102f557506001610383565b8161030257506000610383565b816001811461031857600281146103225761033e565b6001915050610383565b60ff841115610333576103336103cb565b50506001821b610383565b5060208310610133831016604e8410600b8410161715610361575081810a610383565b61036b8383610299565b806000190482111561037f5761037f6103cb565b0290505b92915050565b60008160001904831182151516156103a3576103a36103cb565b500290565b600060ff821660ff8416808210156103c2576103c26103cb565b90039392505050565b634e487b7160e01b600052601160045260246000fdfea2646970667358221220627ad49b3cc9e3911bb715f0aa6c43a50b8fd1f8b2abc5a2268950891e2b063964736f6c63430008070033",
  "immutableReferences": {},
  "source": "// SPDX-License-Identifier: UNLICENSED\npragma solidity ^0.8.7;\n\nimport '../common/interface/IChainlink.sol';\nimport './interface/IPriceOracle.sol';\n\n/// @title Price oracle that fetches ETH price in USD.\ncontract EthPriceOracle is IPriceOracle {\n    IChainlink public aggregator;\n    uint8 public tokenDecimals = 18;\n\n    constructor(address aggregatorAddress) {\n        aggregator = IChainlink(aggregatorAddress);\n    }\n\n    function updatePriceIfNeeded() external pure override {\n        return;\n    }\n\n    function getPrice() external view override returns (uint256 tokenPrice) {\n        (\n            ,\n            /*uint80 roundID*/\n            int256 rawPrice,\n            ,\n            ,\n\n        ) = /*uint startedAt*/\n            /*uint timeStamp*/\n            /*uint80 answeredInRound*/\n            aggregator.latestRoundData();\n        uint8 decimals = aggregator.decimals();\n\n        tokenPrice = uint256(rawPrice) * (10**(tokenDecimals - decimals));\n        // return uint256(rawPrice);\n    }\n}\n",
  "sourcePath": "/Users/liyangfan/Projects/WorkSpace/bluestone/contracts/oracle/EthPriceOracle.sol",
  "compiler": {
    "name": "solc",
    "version": "0.8.7+commit.e28d00a7.Emscripten.clang"
  },
  "schemaVersion": "3.4.4",
  "updatedAt": "2022-10-13T07:24:15.139Z",
  "devdoc": {
    "kind": "dev",
    "methods": {
      "getPrice()": {
        "returns": {
          "tokenPrice": "tokenPrice"
        }
      },
      "updatePriceIfNeeded()": {
        "details": "Call this function before getPrice() if price freshness is important"
      }
    },
    "title": "Price oracle that fetches ETH price in USD.",
    "version": 1
  },
  "userdoc": {
    "kind": "user",
    "methods": {
      "getPrice()": {
        "notice": "Return the current token price in USD"
      },
      "updatePriceIfNeeded()": {
        "notice": "Update the token price if necessary"
      }
    },
    "version": 1
  }
}