{
  "contractName": "EthPriceOracle",
  "abi": [
    {
      "inputs": [
        {
          "internalType": "address",
          "name": "medianizerAddress",
          "type": "address"
        }
      ],
      "stateMutability": "nonpayable",
      "type": "constructor"
    },
    {
      "inputs": [],
      "name": "medianizer",
      "outputs": [
        {
          "internalType": "contract IMedianizer",
          "name": "",
          "type": "address"
        }
      ],
      "stateMutability": "view",
      "type": "function"
    },
    {
      "inputs": [],
      "name": "updatePriceIfNeeded",
      "outputs": [],
      "stateMutability": "nonpayable",
      "type": "function"
    },
    {
      "inputs": [],
      "name": "getPrice",
      "outputs": [
        {
          "internalType": "uint256",
          "name": "",
          "type": "uint256"
        }
      ],
      "stateMutability": "view",
      "type": "function"
    }
  ],
  "bytecode": "0x608060405234801561001057600080fd5b506040516101ad3803806101ad8339818101604052602081101561003357600080fd5b5051600080546001600160a01b039092166001600160a01b0319909216919091179055610148806100656000396000f3fe608060405234801561001057600080fd5b50600436106100415760003560e01c8063053571e11461004657806398d5fdca1461006a578063f62fb7d214610084575b600080fd5b61004e61008e565b604080516001600160a01b039092168252519081900360200190f35b61007261009d565b60408051918252519081900360200190f35b61008c610110565b005b6000546001600160a01b031681565b60008054604080516359e02dd760e01b8152815184936001600160a01b0316926359e02dd79260048082019391829003018186803b1580156100de57600080fd5b505afa1580156100f2573d6000803e3d6000fd5b505050506040513d604081101561010857600080fd5b505191505090565b56fea2646970667358221220fc20e586bec14459f013b77328bba9e326087ce1ea932285cb33f32df444392d64736f6c63430006070033",
  "immutableReferences": {},
  "source": "pragma solidity ^0.6.7;\n\nimport '../common/interface/IMedianizer.sol';\nimport './interface/IPriceOracle.sol';\n\n\n/// @title Price oracle that fetches ETH price in USD.\ncontract EthPriceOracle is IPriceOracle {\n    IMedianizer public medianizer;\n\n    constructor(address medianizerAddress) public {\n        medianizer = IMedianizer(medianizerAddress);\n    }\n\n    function updatePriceIfNeeded() external override {\n        return;\n    }\n\n    function getPrice() external override view returns (uint256) {\n        (bytes32 value, ) = medianizer.peek();\n        return uint256(value);\n    }\n}\n",
  "sourcePath": "/Users/ethereum/Projects/bluestone/bluestone/contracts/oracle/EthPriceOracle.sol",
  "compiler": {
    "name": "solc",
    "version": "0.6.7+commit.b8d736ae.Emscripten.clang"
  },
  "schemaVersion": "3.1.0",
  "updatedAt": "2020-09-15T02:50:37.461Z",
  "devdoc": {
    "methods": {},
    "title": "Price oracle that fetches ETH price in USD."
  },
  "userdoc": {
    "methods": {}
  }
}