{
  "contractName": "FixedPriceOracle",
  "abi": [
    {
      "inputs": [
        {
          "internalType": "uint256",
          "name": "price",
          "type": "uint256"
        }
      ],
      "stateMutability": "nonpayable",
      "type": "constructor"
    },
    {
      "inputs": [],
      "name": "updatePriceIfNeeded",
      "outputs": [],
      "stateMutability": "nonpayable",
      "type": "function"
    },
    {
      "inputs": [],
      "name": "getPrice",
      "outputs": [
        {
          "internalType": "uint256",
          "name": "",
          "type": "uint256"
        }
      ],
      "stateMutability": "view",
      "type": "function"
    }
  ],
  "bytecode": "0x608060405234801561001057600080fd5b506040516100db3803806100db8339818101604052602081101561003357600080fd5b50516000556095806100466000396000f3fe6080604052348015600f57600080fd5b506004361060325760003560e01c806398d5fdca146037578063f62fb7d214604f575b600080fd5b603d6057565b60408051918252519081900360200190f35b6055605d565b005b60005490565b56fea2646970667358221220e9e74c67be53c352e2dedfd8bcd6fd61457cc4f06e4e1fe3e39e0de65f95fc7e64736f6c63430006070033",
  "immutableReferences": {},
  "source": "pragma solidity ^0.6.7;\n\nimport './interface/IPriceOracle.sol';\n\n\n/// @title Price oracle that returns a fixed price in USD.\ncontract FixedPriceOracle is IPriceOracle {\n    uint256 private _price;\n\n    constructor(uint256 price) public {\n        _price = price;\n    }\n\n    function updatePriceIfNeeded() external override {\n        return;\n    }\n\n    function getPrice() external override view returns (uint256) {\n        return _price;\n    }\n}\n",
  "sourcePath": "/Users/ethereum/Projects/bluestone/bluestone/contracts/oracle/FixedPriceOracle.sol",
  "compiler": {
    "name": "solc",
    "version": "0.6.7+commit.b8d736ae.Emscripten.clang"
  },
  "schemaVersion": "3.1.0",
  "updatedAt": "2020-09-15T02:50:37.463Z",
  "devdoc": {
    "methods": {},
    "title": "Price oracle that returns a fixed price in USD."
  },
  "userdoc": {
    "methods": {}
  }
}