{
  "contractName": "FixedPriceOracle",
  "abi": [
    {
      "inputs": [
        {
          "internalType": "uint256",
          "name": "price",
          "type": "uint256"
        }
      ],
      "stateMutability": "nonpayable",
      "type": "constructor"
    },
    {
      "inputs": [],
      "name": "updatePriceIfNeeded",
      "outputs": [],
      "stateMutability": "pure",
      "type": "function"
    },
    {
      "inputs": [],
      "name": "getPrice",
      "outputs": [
        {
          "internalType": "uint256",
          "name": "",
          "type": "uint256"
        }
      ],
      "stateMutability": "view",
      "type": "function"
    }
  ],
  "bytecode": "0x608060405234801561001057600080fd5b506040516100e23803806100e283398101604081905261002f91610037565b600055610050565b60006020828403121561004957600080fd5b5051919050565b60848061005e6000396000f3fe6080604052348015600f57600080fd5b506004361060325760003560e01c806398d5fdca146037578063f62fb7d214604c575b600080fd5b60005460405190815260200160405180910390f35b00fea26469706673582212206a3f614d72acecb6b9a81b2e027030a2c63292e8bb76e7058832dea42a1835f164736f6c63430008070033",
  "immutableReferences": {},
  "source": "// SPDX-License-Identifier: UNLICENSED\npragma solidity ^0.8.7;\n\nimport './interface/IPriceOracle.sol';\n\n\n/// @title Price oracle that returns a fixed price in USD.\ncontract FixedPriceOracle is IPriceOracle {\n    uint256 private _price;\n\n    constructor(uint256 price) {\n        _price = price;\n    }\n\n    function updatePriceIfNeeded() pure external override {\n        return;\n    }\n\n    function getPrice() external override view returns (uint256) {\n        return _price;\n    }\n}\n",
  "sourcePath": "/Users/liyangfan/Projects/WorkSpace/bluestone/contracts/oracle/FixedPriceOracle.sol",
  "compiler": {
    "name": "solc",
    "version": "0.8.7+commit.e28d00a7.Emscripten.clang"
  },
  "schemaVersion": "3.4.4",
  "updatedAt": "2022-09-02T13:05:37.264Z",
  "devdoc": {
    "kind": "dev",
    "methods": {
      "getPrice()": {
        "returns": {
          "_0": "tokenPrice"
        }
      },
      "updatePriceIfNeeded()": {
        "details": "Call this function before getPrice() if price freshness is important"
      }
    },
    "title": "Price oracle that returns a fixed price in USD.",
    "version": 1
  },
  "userdoc": {
    "kind": "user",
    "methods": {
      "getPrice()": {
        "notice": "Return the current token price in USD"
      },
      "updatePriceIfNeeded()": {
        "notice": "Update the token price if necessary"
      }
    },
    "version": 1
  }
}