{
  "contractName": "InterestRateModel",
  "abi": [
    {
      "anonymous": false,
      "inputs": [
        {
          "indexed": true,
          "internalType": "address",
          "name": "previousOwner",
          "type": "address"
        },
        {
          "indexed": true,
          "internalType": "address",
          "name": "newOwner",
          "type": "address"
        }
      ],
      "name": "OwnershipTransferred",
      "type": "event"
    },
    {
      "inputs": [],
      "name": "owner",
      "outputs": [
        {
          "internalType": "address",
          "name": "",
          "type": "address"
        }
      ],
      "stateMutability": "view",
      "type": "function"
    },
    {
      "inputs": [],
      "name": "renounceOwnership",
      "outputs": [],
      "stateMutability": "nonpayable",
      "type": "function"
    },
    {
      "inputs": [
        {
          "internalType": "address",
          "name": "newOwner",
          "type": "address"
        }
      ],
      "name": "transferOwnership",
      "outputs": [],
      "stateMutability": "nonpayable",
      "type": "function"
    },
    {
      "inputs": [
        {
          "internalType": "uint256",
          "name": "amount",
          "type": "uint256"
        },
        {
          "internalType": "uint256",
          "name": "term",
          "type": "uint256"
        }
      ],
      "name": "getDepositWeight",
      "outputs": [
        {
          "internalType": "uint256",
          "name": "",
          "type": "uint256"
        }
      ],
      "stateMutability": "pure",
      "type": "function"
    },
    {
      "inputs": [
        {
          "internalType": "address",
          "name": "tokenAddress",
          "type": "address"
        },
        {
          "internalType": "uint256",
          "name": "loanTerm",
          "type": "uint256"
        },
        {
          "internalType": "uint256",
          "name": "maxLoanTerm",
          "type": "uint256"
        }
      ],
      "name": "getLoanInterestRate",
      "outputs": [
        {
          "internalType": "uint256",
          "name": "loanInterestRate",
          "type": "uint256"
        }
      ],
      "stateMutability": "view",
      "type": "function"
    },
    {
      "inputs": [
        {
          "internalType": "address",
          "name": "tokenAddress",
          "type": "address"
        }
      ],
      "name": "getLoanParameters",
      "outputs": [
        {
          "components": [
            {
              "internalType": "uint256[]",
              "name": "termList",
              "type": "uint256[]"
            },
            {
              "internalType": "uint256[]",
              "name": "interestRateList",
              "type": "uint256[]"
            }
          ],
          "internalType": "struct InterestRateModel.LoanParameters",
          "name": "",
          "type": "tuple"
        }
      ],
      "stateMutability": "view",
      "type": "function"
    },
    {
      "inputs": [
        {
          "internalType": "address",
          "name": "tokenAddress",
          "type": "address"
        },
        {
          "internalType": "uint256[]",
          "name": "loanTerms",
          "type": "uint256[]"
        },
        {
          "internalType": "uint256[]",
          "name": "loanInterestRates",
          "type": "uint256[]"
        }
      ],
      "name": "setLoanParameters",
      "outputs": [],
      "stateMutability": "nonpayable",
      "type": "function"
    }
  ],
  "bytecode": "0x608060405234801561001057600080fd5b5061001a3361001f565b61006f565b600080546001600160a01b038381166001600160a01b0319831681178455604051919092169283917f8be0079c531659141344cd1fd0a4f28419497f9722a3daafe3b4186f6b6457e09190a35050565b6108488061007e6000396000f3fe608060405234801561001057600080fd5b506004361061007d5760003560e01c8063715018a61161005b578063715018a6146100d05780638cc3e53b146100d85780638da5cb5b146100f8578063f2fde38b1461011357600080fd5b806347b511fe146100825780634ddaf8dc146100975780635ac0e1d2146100bd575b600080fd5b610095610090366004610659565b610126565b005b6100aa6100a53660046106da565b6101f9565b6040519081526020015b60405180910390f35b6100aa6100cb36600461070d565b610354565b610095610360565b6100eb6100e636600461063e565b610374565b6040516100b4919061076a565b6000546040516001600160a01b0390911681526020016100b4565b61009561012136600461063e565b610453565b61012e6104cc565b8281146101be5760405162461bcd60e51b815260206004820152604d60248201527f496e746572657374526174654d6f64656c3a20546865206c656e677468206f6660448201527f205465726d73206172726179206d75737420657175616c20746f20496e74657260648201526c6573745261746520617272617960981b608482015260a4015b60405180910390fd5b6001600160a01b03851660009081526001602052604090206101e1818686610576565b506101f0600182018484610576565b50505050505050565b6000818311156102625760405162461bcd60e51b815260206004820152602e60248201527f496e746572657374526174654d6f64656c3a204c6f616e207465726d2065786360448201526d65656473206d61782076616c756560901b60648201526084016101b5565b6001600160a01b0384166000908152600160205260408120905b81548110156102e7578482600001828154811061029b5761029b6107fc565b906000526020600020015414156102d5578160010181815481106102c1576102c16107fc565b90600052602060002001549250505061034d565b806102df816107cb565b91505061027c565b5060405162461bcd60e51b815260206004820152603460248201527f496e746572657374526174654d6f64656c3a204c6f616e20696e746572657374604482015273081c985d19481a185d995b89dd081cd95d1d195960621b60648201526084016101b5565b9392505050565b600061034d82846107ac565b6103686104cc565b6103726000610526565b565b604080518082018252606080825260208083018290526001600160a01b038516600090815260018252849020845181549283028101840186529485018281529394939092849284918401828280156103eb57602002820191906000526020600020905b8154815260200190600101908083116103d7575b505050505081526020016001820180548060200260200160405190810160405280929190818152602001828054801561044357602002820191906000526020600020905b81548152602001906001019080831161042f575b5050505050815250509050919050565b61045b6104cc565b6001600160a01b0381166104c05760405162461bcd60e51b815260206004820152602660248201527f4f776e61626c653a206e6577206f776e657220697320746865207a65726f206160448201526564647265737360d01b60648201526084016101b5565b6104c981610526565b50565b6000546001600160a01b031633146103725760405162461bcd60e51b815260206004820181905260248201527f4f776e61626c653a2063616c6c6572206973206e6f7420746865206f776e657260448201526064016101b5565b600080546001600160a01b038381166001600160a01b0319831681178455604051919092169283917f8be0079c531659141344cd1fd0a4f28419497f9722a3daafe3b4186f6b6457e09190a35050565b8280548282559060005260206000209081019282156105b1579160200282015b828111156105b1578235825591602001919060010190610596565b506105bd9291506105c1565b5090565b5b808211156105bd57600081556001016105c2565b80356001600160a01b03811681146105ed57600080fd5b919050565b60008083601f84011261060457600080fd5b50813567ffffffffffffffff81111561061c57600080fd5b6020830191508360208260051b850101111561063757600080fd5b9250929050565b60006020828403121561065057600080fd5b61034d826105d6565b60008060008060006060868803121561067157600080fd5b61067a866105d6565b9450602086013567ffffffffffffffff8082111561069757600080fd5b6106a389838a016105f2565b909650945060408801359150808211156106bc57600080fd5b506106c9888289016105f2565b969995985093965092949392505050565b6000806000606084860312156106ef57600080fd5b6106f8846105d6565b95602085013595506040909401359392505050565b6000806040838503121561072057600080fd5b50508035926020909101359150565b600081518084526020808501945080840160005b8381101561075f57815187529582019590820190600101610743565b509495945050505050565b602081526000825160406020840152610786606084018261072f565b90506020840151601f198483030160408501526107a3828261072f565b95945050505050565b60008160001904831182151516156107c6576107c66107e6565b500290565b60006000198214156107df576107df6107e6565b5060010190565b634e487b7160e01b600052601160045260246000fd5b634e487b7160e01b600052603260045260246000fdfea2646970667358221220ce4d8c9d7efb35865594f36fef49b1e1b8471a6614559be373f181791081cc4864736f6c63430008070033",
  "immutableReferences": {},
  "source": "// SPDX-License-Identifier: UNLICENSED\npragma solidity ^0.8.7;\n\nimport '@openzeppelin/contracts/access/Ownable.sol';\nimport '../interface/IInterestRateModel.sol';\n\ncontract InterestRateModel is IInterestRateModel, Ownable {\n    mapping(address => LoanParameters) _loanParametersByTokenAddress;\n\n    struct LoanParameters {\n        uint256[] termList;\n        uint256[] interestRateList;\n    }\n\n    function getDepositWeight(uint256 amount, uint256 term)\n        external\n        pure\n        override\n        returns (uint256)\n    {\n        return amount * term;\n    }\n\n    function getLoanInterestRate(\n        address tokenAddress,\n        uint256 loanTerm,\n        uint256 maxLoanTerm\n    ) external view override returns (uint256 loanInterestRate) {\n        require(\n            loanTerm <= maxLoanTerm,\n            'InterestRateModel: Loan term exceeds max value'\n        );\n        LoanParameters storage loanParameters = _loanParametersByTokenAddress[\n            tokenAddress\n        ];\n        for (uint256 i = 0; i < loanParameters.termList.length; i++) {\n            if (loanParameters.termList[i] == loanTerm) {\n                return loanParameters.interestRateList[i];\n            }\n        }\n        revert(\"InterestRateModel: Loan interest rate haven't setted\");\n    }\n\n    function getLoanParameters(address tokenAddress)\n        external\n        view\n        returns (LoanParameters memory)\n    {\n        return _loanParametersByTokenAddress[tokenAddress];\n    }\n\n    function setLoanParameters(\n        address tokenAddress,\n        uint256[] calldata loanTerms,\n        uint256[] calldata loanInterestRates\n    ) external onlyOwner {\n        require(\n            loanTerms.length == loanInterestRates.length,\n            'InterestRateModel: The length of Terms array must equal to InterestRate array'\n        );\n        LoanParameters storage loanParameters = _loanParametersByTokenAddress[\n            tokenAddress\n        ];\n        loanParameters.termList = loanTerms;\n        loanParameters.interestRateList = loanInterestRates;\n    }\n}\n",
  "sourcePath": "/Users/liyangfan/Projects/WorkSpace/bluestone/contracts/protocol/interestRateModels/MappingInterestRateModel.sol",
  "compiler": {
    "name": "solc",
    "version": "0.8.7+commit.e28d00a7.Emscripten.clang"
  },
  "schemaVersion": "3.4.4",
  "updatedAt": "2022-10-13T09:13:12.640Z",
  "devdoc": {
    "kind": "dev",
    "methods": {
      "owner()": {
        "details": "Returns the address of the current owner."
      },
      "renounceOwnership()": {
        "details": "Leaves the contract without owner. It will not be possible to call `onlyOwner` functions anymore. Can only be called by the current owner. NOTE: Renouncing ownership will leave the contract without an owner, thereby removing any functionality that is only available to the owner."
      },
      "transferOwnership(address)": {
        "details": "Transfers ownership of the contract to a new account (`newOwner`). Can only be called by the current owner."
      }
    },
    "version": 1
  },
  "userdoc": {
    "kind": "user",
    "methods": {},
    "version": 1
  }
}