{
  "contractName": "InterestModel",
  "abi": [
    {
      "anonymous": false,
      "inputs": [
        {
          "indexed": true,
          "internalType": "address",
          "name": "previousOwner",
          "type": "address"
        },
        {
          "indexed": true,
          "internalType": "address",
          "name": "newOwner",
          "type": "address"
        }
      ],
      "name": "OwnershipTransferred",
      "type": "event"
    },
    {
      "inputs": [],
      "name": "owner",
      "outputs": [
        {
          "internalType": "address",
          "name": "",
          "type": "address"
        }
      ],
      "stateMutability": "view",
      "type": "function"
    },
    {
      "inputs": [],
      "name": "renounceOwnership",
      "outputs": [],
      "stateMutability": "nonpayable",
      "type": "function"
    },
    {
      "inputs": [
        {
          "internalType": "address",
          "name": "newOwner",
          "type": "address"
        }
      ],
      "name": "transferOwnership",
      "outputs": [],
      "stateMutability": "nonpayable",
      "type": "function"
    },
    {
      "inputs": [
        {
          "internalType": "uint256",
          "name": "amount",
          "type": "uint256"
        },
        {
          "internalType": "uint256",
          "name": "term",
          "type": "uint256"
        }
      ],
      "name": "getDepositWeight",
      "outputs": [
        {
          "internalType": "uint256",
          "name": "",
          "type": "uint256"
        }
      ],
      "stateMutability": "pure",
      "type": "function"
    },
    {
      "inputs": [
        {
          "internalType": "address",
          "name": "tokenAddress",
          "type": "address"
        },
        {
          "internalType": "uint256",
          "name": "loanTerm",
          "type": "uint256"
        },
        {
          "internalType": "uint256",
          "name": "maxLoanTerm",
          "type": "uint256"
        }
      ],
      "name": "getLoanInterestRate",
      "outputs": [
        {
          "internalType": "uint256",
          "name": "loanInterestRate",
          "type": "uint256"
        }
      ],
      "stateMutability": "view",
      "type": "function"
    },
    {
      "inputs": [
        {
          "internalType": "address",
          "name": "tokenAddress",
          "type": "address"
        }
      ],
      "name": "getLoanParameters",
      "outputs": [
        {
          "internalType": "uint256",
          "name": "loanInterestRateLowerBound",
          "type": "uint256"
        },
        {
          "internalType": "uint256",
          "name": "loanInterestRateUpperBound",
          "type": "uint256"
        }
      ],
      "stateMutability": "view",
      "type": "function"
    },
    {
      "inputs": [
        {
          "internalType": "address",
          "name": "tokenAddress",
          "type": "address"
        },
        {
          "internalType": "uint256",
          "name": "loanInterestRateLowerBound",
          "type": "uint256"
        },
        {
          "internalType": "uint256",
          "name": "loanInterestRateUpperBound",
          "type": "uint256"
        }
      ],
      "name": "setLoanParameters",
      "outputs": [],
      "stateMutability": "nonpayable",
      "type": "function"
    }
  ],
  "bytecode": "0x608060405234801561001057600080fd5b5061001a3361001f565b61006f565b600080546001600160a01b038381166001600160a01b0319831681178455604051919092169283917f8be0079c531659141344cd1fd0a4f28419497f9722a3daafe3b4186f6b6457e09190a35050565b6104918061007e6000396000f3fe608060405234801561001057600080fd5b506004361061007d5760003560e01c8063715018a61161005b578063715018a6146100d05780638cc3e53b146100d85780638da5cb5b1461011e578063f2fde38b1461013957600080fd5b80630e7364a4146100825780634ddaf8dc146100975780635ac0e1d2146100bd575b600080fd5b610095610090366004610398565b61014c565b005b6100aa6100a5366004610398565b610189565b6040519081526020015b60405180910390f35b6100aa6100cb3660046103cb565b6101ee565b610095610201565b6101096100e636600461037d565b6001600160a01b0316600090815260016020819052604090912080549101549091565b604080519283526020830191909152016100b4565b6000546040516001600160a01b0390911681526020016100b4565b61009561014736600461037d565b610215565b610154610293565b60408051808201825292835260208084019283526001600160a01b039094166000908152600194859052209151825551910155565b6001600160a01b038316600090815260016020818152604080842081518083019092528054808352930154918101829052916101e36101dc866101d6896101d087876102ed565b906102f9565b90610305565b83906102ed565b979650505050505050565b60006101fa83836102f9565b9392505050565b610209610293565b6102136000610311565b565b61021d610293565b6001600160a01b0381166102875760405162461bcd60e51b815260206004820152602660248201527f4f776e61626c653a206e6577206f776e657220697320746865207a65726f206160448201526564647265737360d01b60648201526084015b60405180910390fd5b61029081610311565b50565b6000546001600160a01b031633146102135760405162461bcd60e51b815260206004820181905260248201527f4f776e61626c653a2063616c6c6572206973206e6f7420746865206f776e6572604482015260640161027e565b60006101fa828461042e565b60006101fa828461040f565b60006101fa82846103ed565b600080546001600160a01b038381166001600160a01b0319831681178455604051919092169283917f8be0079c531659141344cd1fd0a4f28419497f9722a3daafe3b4186f6b6457e09190a35050565b80356001600160a01b038116811461037857600080fd5b919050565b60006020828403121561038f57600080fd5b6101fa82610361565b6000806000606084860312156103ad57600080fd5b6103b684610361565b95602085013595506040909401359392505050565b600080604083850312156103de57600080fd5b50508035926020909101359150565b60008261040a57634e487b7160e01b600052601260045260246000fd5b500490565b600081600019048311821515161561042957610429610445565b500290565b60008282101561044057610440610445565b500390565b634e487b7160e01b600052601160045260246000fdfea2646970667358221220739a477c6d53ddeadc4d12f05350e2a0b646cf3cf393acf75fa9b9a5279daad364736f6c63430008070033",
  "immutableReferences": {},
  "source": "// SPDX-License-Identifier: UNLICENSED\npragma solidity ^0.8.7;\n\nimport '@openzeppelin/contracts/access/Ownable.sol';\nimport '@openzeppelin/contracts/utils/math/SafeMath.sol';\nimport './interface/IInterestModel.sol';\n\ncontract InterestModel is IInterestModel, Ownable {\n    using SafeMath for uint256;\n\n    mapping(address => LoanParameters) _loanParametersByTokenAddress;\n\n    // Parameters to help calculate loan interest rate\n    struct LoanParameters {\n        uint256 loanInterestRateLowerBound;\n        uint256 loanInterestRateUpperBound;\n    }\n\n    function getDepositWeight(uint256 amount, uint256 term)\n        external\n        pure\n        override\n        returns (uint256)\n    {\n        return amount.mul(term);\n    }\n\n    function getLoanInterestRate(\n        address tokenAddress,\n        uint256 loanTerm,\n        uint256 maxLoanTerm\n    ) external view override returns (uint256 loanInterestRate) {\n        LoanParameters memory params = _loanParametersByTokenAddress[\n            tokenAddress\n        ];\n        uint256 H = params.loanInterestRateUpperBound;\n        uint256 L = params.loanInterestRateLowerBound;\n\n        return H.sub(H.sub(L).mul(loanTerm).div(maxLoanTerm));\n    }\n\n    function getLoanParameters(address tokenAddress)\n        external\n        view\n        returns (\n            uint256 loanInterestRateLowerBound,\n            uint256 loanInterestRateUpperBound\n        )\n    {\n        return (\n            _loanParametersByTokenAddress[tokenAddress]\n                .loanInterestRateLowerBound,\n            _loanParametersByTokenAddress[tokenAddress]\n                .loanInterestRateUpperBound\n        );\n    }\n\n    function setLoanParameters(\n        address tokenAddress,\n        uint256 loanInterestRateLowerBound,\n        uint256 loanInterestRateUpperBound\n    ) external onlyOwner {\n        _loanParametersByTokenAddress[tokenAddress] = LoanParameters({\n            loanInterestRateLowerBound: loanInterestRateLowerBound,\n            loanInterestRateUpperBound: loanInterestRateUpperBound\n        });\n    }\n}\n",
  "sourcePath": "/Users/liyangfan/Projects/WorkSpace/bluestone/contracts/protocol/InterestModel.sol",
  "compiler": {
    "name": "solc",
    "version": "0.8.7+commit.e28d00a7.Emscripten.clang"
  },
  "schemaVersion": "3.4.8",
  "updatedAt": "2022-09-08T09:45:12.080Z",
  "devdoc": {
    "kind": "dev",
    "methods": {
      "owner()": {
        "details": "Returns the address of the current owner."
      },
      "renounceOwnership()": {
        "details": "Leaves the contract without owner. It will not be possible to call `onlyOwner` functions anymore. Can only be called by the current owner. NOTE: Renouncing ownership will leave the contract without an owner, thereby removing any functionality that is only available to the owner."
      },
      "transferOwnership(address)": {
        "details": "Transfers ownership of the contract to a new account (`newOwner`). Can only be called by the current owner."
      }
    },
    "version": 1
  },
  "userdoc": {
    "kind": "user",
    "methods": {},
    "version": 1
  }
}