{
  "contractName": "InterestModel",
  "abi": [
    {
      "anonymous": false,
      "inputs": [
        {
          "indexed": true,
          "internalType": "address",
          "name": "previousOwner",
          "type": "address"
        },
        {
          "indexed": true,
          "internalType": "address",
          "name": "newOwner",
          "type": "address"
        }
      ],
      "name": "OwnershipTransferred",
      "type": "event"
    },
    {
      "inputs": [],
      "name": "owner",
      "outputs": [
        {
          "internalType": "address",
          "name": "",
          "type": "address"
        }
      ],
      "stateMutability": "view",
      "type": "function",
      "constant": true
    },
    {
      "inputs": [],
      "name": "renounceOwnership",
      "outputs": [],
      "stateMutability": "nonpayable",
      "type": "function"
    },
    {
      "inputs": [
        {
          "internalType": "address",
          "name": "newOwner",
          "type": "address"
        }
      ],
      "name": "transferOwnership",
      "outputs": [],
      "stateMutability": "nonpayable",
      "type": "function"
    },
    {
      "inputs": [
        {
          "internalType": "uint256",
          "name": "amount",
          "type": "uint256"
        },
        {
          "internalType": "uint256",
          "name": "term",
          "type": "uint256"
        }
      ],
      "name": "getDepositWeight",
      "outputs": [
        {
          "internalType": "uint256",
          "name": "",
          "type": "uint256"
        }
      ],
      "stateMutability": "pure",
      "type": "function",
      "constant": true
    },
    {
      "inputs": [
        {
          "internalType": "address",
          "name": "tokenAddress",
          "type": "address"
        },
        {
          "internalType": "uint256",
          "name": "loanTerm",
          "type": "uint256"
        },
        {
          "internalType": "uint256",
          "name": "maxLoanTerm",
          "type": "uint256"
        }
      ],
      "name": "getLoanInterestRate",
      "outputs": [
        {
          "internalType": "uint256",
          "name": "loanInterestRate",
          "type": "uint256"
        }
      ],
      "stateMutability": "view",
      "type": "function",
      "constant": true
    },
    {
      "inputs": [
        {
          "internalType": "address",
          "name": "tokenAddress",
          "type": "address"
        }
      ],
      "name": "getLoanParameters",
      "outputs": [
        {
          "internalType": "uint256",
          "name": "loanInterestRateLowerBound",
          "type": "uint256"
        },
        {
          "internalType": "uint256",
          "name": "loanInterestRateUpperBound",
          "type": "uint256"
        }
      ],
      "stateMutability": "view",
      "type": "function",
      "constant": true
    },
    {
      "inputs": [
        {
          "internalType": "address",
          "name": "tokenAddress",
          "type": "address"
        },
        {
          "internalType": "uint256",
          "name": "loanInterestRateLowerBound",
          "type": "uint256"
        },
        {
          "internalType": "uint256",
          "name": "loanInterestRateUpperBound",
          "type": "uint256"
        }
      ],
      "name": "setLoanParameters",
      "outputs": [],
      "stateMutability": "nonpayable",
      "type": "function"
    }
  ],
  "bytecode": "0x608060405260006100176001600160e01b0361006616565b600080546001600160a01b0319166001600160a01b0383169081178255604051929350917f8be0079c531659141344cd1fd0a4f28419497f9722a3daafe3b4186f6b6457e0908290a35061006a565b3390565b610755806100796000396000f3fe608060405234801561001057600080fd5b506004361061007d5760003560e01c8063715018a61161005b578063715018a61461011d5780638cc3e53b146101255780638da5cb5b14610164578063f2fde38b146101885761007d565b80630e7364a4146100825780634ddaf8dc146100b65780635ac0e1d2146100fa575b600080fd5b6100b46004803603606081101561009857600080fd5b506001600160a01b0381351690602081013590604001356101ae565b005b6100e8600480360360608110156100cc57600080fd5b506001600160a01b03813516906020810135906040013561024d565b60408051918252519081900360200190f35b6100e86004803603604081101561011057600080fd5b50803590602001356102d6565b6100b46102f1565b61014b6004803603602081101561013b57600080fd5b50356001600160a01b03166103a5565b6040805192835260208301919091528051918290030190f35b61016c6103c8565b604080516001600160a01b039092168252519081900360200190f35b6100b46004803603602081101561019e57600080fd5b50356001600160a01b03166103d7565b6101b66104e1565b6000546001600160a01b03908116911614610218576040805162461bcd60e51b815260206004820181905260248201527f4f776e61626c653a2063616c6c6572206973206e6f7420746865206f776e6572604482015290519081900360640190fd5b60408051808201825292835260208084019283526001600160a01b039094166000908152600194859052209151825551910155565b60006102576106be565b506001600160a01b03841660009081526001602081815260409283902083518085019094528054808552920154908301819052906102cb6102be866102b2896102a6878763ffffffff6104e516565b9063ffffffff61052716565b9063ffffffff61058016565b839063ffffffff6104e516565b979650505050505050565b60006102e8838363ffffffff61052716565b90505b92915050565b6102f96104e1565b6000546001600160a01b0390811691161461035b576040805162461bcd60e51b815260206004820181905260248201527f4f776e61626c653a2063616c6c6572206973206e6f7420746865206f776e6572604482015290519081900360640190fd5b600080546040516001600160a01b03909116907f8be0079c531659141344cd1fd0a4f28419497f9722a3daafe3b4186f6b6457e0908390a3600080546001600160a01b0319169055565b6001600160a01b0316600090815260016020819052604090912080549101549091565b6000546001600160a01b031690565b6103df6104e1565b6000546001600160a01b03908116911614610441576040805162461bcd60e51b815260206004820181905260248201527f4f776e61626c653a2063616c6c6572206973206e6f7420746865206f776e6572604482015290519081900360640190fd5b6001600160a01b0381166104865760405162461bcd60e51b81526004018080602001828103825260268152602001806106d96026913960400191505060405180910390fd5b600080546040516001600160a01b03808516939216917f8be0079c531659141344cd1fd0a4f28419497f9722a3daafe3b4186f6b6457e091a3600080546001600160a01b0319166001600160a01b0392909216919091179055565b3390565b60006102e883836040518060400160405280601e81526020017f536166654d6174683a207375627472616374696f6e206f766572666c6f7700008152506105c2565b600082610536575060006102eb565b8282028284828161054357fe5b04146102e85760405162461bcd60e51b81526004018080602001828103825260218152602001806106ff6021913960400191505060405180910390fd5b60006102e883836040518060400160405280601a81526020017f536166654d6174683a206469766973696f6e206279207a65726f000000000000815250610659565b600081848411156106515760405162461bcd60e51b81526004018080602001828103825283818151815260200191508051906020019080838360005b838110156106165781810151838201526020016105fe565b50505050905090810190601f1680156106435780820380516001836020036101000a031916815260200191505b509250505060405180910390fd5b505050900390565b600081836106a85760405162461bcd60e51b81526020600482018181528351602484015283519092839260449091019190850190808383600083156106165781810151838201526020016105fe565b5060008385816106b457fe5b0495945050505050565b60405180604001604052806000815260200160008152509056fe4f776e61626c653a206e6577206f776e657220697320746865207a65726f2061646472657373536166654d6174683a206d756c7469706c69636174696f6e206f766572666c6f77a264697066735822122073aae9ecd8a6e047e1990096c1d4b4f4b8e5a150c5483085fc423e1cee6a852664736f6c63430006070033",
  "immutableReferences": {},
  "source": "pragma solidity ^0.6.7;\n\nimport '@openzeppelin/contracts/access/Ownable.sol';\nimport '@openzeppelin/contracts/math/SafeMath.sol';\nimport './interface/IInterestModel.sol';\n\n\ncontract InterestModel is IInterestModel, Ownable {\n    using SafeMath for uint256;\n\n    mapping(address => LoanParameters) _loanParametersByTokenAddress;\n\n    // Parameters to help calculate loan interest rate\n    struct LoanParameters {\n        uint256 loanInterestRateLowerBound;\n        uint256 loanInterestRateUpperBound;\n    }\n\n    function getDepositWeight(uint256 amount, uint256 term)\n        external\n        override\n        pure\n        returns (uint256)\n    {\n        return amount.mul(term);\n    }\n\n    function getLoanInterestRate(\n        address tokenAddress,\n        uint256 loanTerm,\n        uint256 maxLoanTerm\n    ) external override view returns (uint256 loanInterestRate) {\n\n            LoanParameters memory params\n         = _loanParametersByTokenAddress[tokenAddress];\n        uint256 H = params.loanInterestRateUpperBound;\n        uint256 L = params.loanInterestRateLowerBound;\n\n        return H.sub(H.sub(L).mul(loanTerm).div(maxLoanTerm));\n    }\n\n    function getLoanParameters(address tokenAddress)\n        external\n        view\n        returns (\n            uint256 loanInterestRateLowerBound,\n            uint256 loanInterestRateUpperBound\n        )\n    {\n        return (\n            _loanParametersByTokenAddress[tokenAddress]\n                .loanInterestRateLowerBound,\n            _loanParametersByTokenAddress[tokenAddress]\n                .loanInterestRateUpperBound\n        );\n    }\n\n    function setLoanParameters(\n        address tokenAddress,\n        uint256 loanInterestRateLowerBound,\n        uint256 loanInterestRateUpperBound\n    ) external onlyOwner {\n        _loanParametersByTokenAddress[tokenAddress] = LoanParameters({\n            loanInterestRateLowerBound: loanInterestRateLowerBound,\n            loanInterestRateUpperBound: loanInterestRateUpperBound\n        });\n    }\n}\n",
  "sourcePath": "/Users/tianyouluo/codes/bluestone/contracts/protocol/InterestModel.sol",
  "compiler": {
    "name": "solc",
    "version": "0.6.7+commit.b8d736ae.Emscripten.clang"
  },
  "schemaVersion": "3.3.3",
  "updatedAt": "2021-05-28T02:21:30.362Z",
  "networkType": "ethereum",
  "devdoc": {
    "methods": {
      "owner()": {
        "details": "Returns the address of the current owner."
      },
      "renounceOwnership()": {
        "details": "Leaves the contract without owner. It will not be possible to call `onlyOwner` functions anymore. Can only be called by the current owner.     * NOTE: Renouncing ownership will leave the contract without an owner, thereby removing any functionality that is only available to the owner."
      },
      "transferOwnership(address)": {
        "details": "Transfers ownership of the contract to a new account (`newOwner`). Can only be called by the current owner."
      }
    }
  },
  "userdoc": {
    "methods": {}
  }
}