{
  "contractName": "LiquidityPoolsMock",
  "abi": [
    {
      "inputs": [
        {
          "internalType": "uint256",
          "name": "",
          "type": "uint256"
        }
      ],
      "name": "loanIdList",
      "outputs": [
        {
          "internalType": "bytes32",
          "name": "",
          "type": "bytes32"
        }
      ],
      "stateMutability": "view",
      "type": "function"
    },
    {
      "inputs": [
        {
          "internalType": "uint256",
          "name": "poolGroupSize",
          "type": "uint256"
        }
      ],
      "name": "setPoolGroupSize",
      "outputs": [],
      "stateMutability": "nonpayable",
      "type": "function"
    },
    {
      "inputs": [
        {
          "internalType": "address",
          "name": "tokenAddress",
          "type": "address"
        },
        {
          "internalType": "uint256",
          "name": "depositAmount",
          "type": "uint256"
        },
        {
          "internalType": "uint256",
          "name": "depositTerm",
          "type": "uint256"
        },
        {
          "internalType": "uint256",
          "name": "depositWeight",
          "type": "uint256"
        },
        {
          "internalType": "uint256",
          "name": "depositDistributorFeeRatio",
          "type": "uint256"
        },
        {
          "internalType": "uint256",
          "name": "loanDistributorFeeRatio",
          "type": "uint256"
        },
        {
          "internalType": "uint256",
          "name": "protocolReserveRatio",
          "type": "uint256"
        }
      ],
      "name": "addDepositToPool",
      "outputs": [
        {
          "internalType": "uint256",
          "name": "poolId",
          "type": "uint256"
        }
      ],
      "stateMutability": "nonpayable",
      "type": "function"
    },
    {
      "inputs": [
        {
          "internalType": "address",
          "name": "tokenAddress",
          "type": "address"
        },
        {
          "internalType": "uint256",
          "name": "depositAmount",
          "type": "uint256"
        },
        {
          "internalType": "uint256",
          "name": "depositWeight",
          "type": "uint256"
        },
        {
          "internalType": "uint256",
          "name": "availableAmount",
          "type": "uint256"
        },
        {
          "internalType": "uint256",
          "name": "poolId",
          "type": "uint256"
        }
      ],
      "name": "withdrawFromPool",
      "outputs": [],
      "stateMutability": "nonpayable",
      "type": "function"
    },
    {
      "inputs": [
        {
          "internalType": "bytes32",
          "name": "loanId",
          "type": "bytes32"
        }
      ],
      "name": "loanFromPools",
      "outputs": [],
      "stateMutability": "nonpayable",
      "type": "function"
    },
    {
      "inputs": [
        {
          "internalType": "bytes32",
          "name": "loanId",
          "type": "bytes32"
        },
        {
          "internalType": "uint256",
          "name": "repayAmount",
          "type": "uint256"
        }
      ],
      "name": "repayLoanToPools",
      "outputs": [],
      "stateMutability": "nonpayable",
      "type": "function"
    },
    {
      "inputs": [
        {
          "internalType": "address",
          "name": "tokenAddress",
          "type": "address"
        }
      ],
      "name": "getPoolsByToken",
      "outputs": [
        {
          "components": [
            {
              "internalType": "uint256",
              "name": "poolId",
              "type": "uint256"
            },
            {
              "internalType": "uint256",
              "name": "depositAmount",
              "type": "uint256"
            },
            {
              "internalType": "uint256",
              "name": "availableAmount",
              "type": "uint256"
            },
            {
              "internalType": "uint256",
              "name": "loanInterest",
              "type": "uint256"
            },
            {
              "internalType": "uint256",
              "name": "totalDepositWeight",
              "type": "uint256"
            }
          ],
          "internalType": "struct IStruct.GetPoolsByTokenResponse[]",
          "name": "poolList",
          "type": "tuple[]"
        }
      ],
      "stateMutability": "view",
      "type": "function"
    },
    {
      "inputs": [
        {
          "internalType": "address",
          "name": "tokenAddress",
          "type": "address"
        },
        {
          "internalType": "uint256",
          "name": "poolId",
          "type": "uint256"
        }
      ],
      "name": "getPoolById",
      "outputs": [
        {
          "components": [
            {
              "internalType": "uint256",
              "name": "depositAmount",
              "type": "uint256"
            },
            {
              "internalType": "uint256",
              "name": "availableAmount",
              "type": "uint256"
            },
            {
              "internalType": "uint256",
              "name": "loanInterest",
              "type": "uint256"
            },
            {
              "internalType": "uint256",
              "name": "totalDepositWeight",
              "type": "uint256"
            },
            {
              "internalType": "uint256",
              "name": "depositDistributorFeeRatio",
              "type": "uint256"
            },
            {
              "internalType": "uint256",
              "name": "loanDistributorFeeRatio",
              "type": "uint256"
            },
            {
              "internalType": "uint256",
              "name": "protocolReserveRatio",
              "type": "uint256"
            }
          ],
          "internalType": "struct IStruct.Pool",
          "name": "pool",
          "type": "tuple"
        }
      ],
      "stateMutability": "view",
      "type": "function"
    },
    {
      "inputs": [
        {
          "internalType": "address",
          "name": "tokenAddress",
          "type": "address"
        },
        {
          "internalType": "uint256",
          "name": "poolIndex",
          "type": "uint256"
        }
      ],
      "name": "getPoolByIndex",
      "outputs": [
        {
          "components": [
            {
              "internalType": "uint256",
              "name": "depositAmount",
              "type": "uint256"
            },
            {
              "internalType": "uint256",
              "name": "availableAmount",
              "type": "uint256"
            },
            {
              "internalType": "uint256",
              "name": "loanInterest",
              "type": "uint256"
            },
            {
              "internalType": "uint256",
              "name": "totalDepositWeight",
              "type": "uint256"
            },
            {
              "internalType": "uint256",
              "name": "depositDistributorFeeRatio",
              "type": "uint256"
            },
            {
              "internalType": "uint256",
              "name": "loanDistributorFeeRatio",
              "type": "uint256"
            },
            {
              "internalType": "uint256",
              "name": "protocolReserveRatio",
              "type": "uint256"
            }
          ],
          "internalType": "struct IStruct.Pool",
          "name": "pool",
          "type": "tuple"
        }
      ],
      "stateMutability": "view",
      "type": "function"
    },
    {
      "inputs": [],
      "name": "getPoolGroupSize",
      "outputs": [
        {
          "internalType": "uint256",
          "name": "poolGroupSize",
          "type": "uint256"
        }
      ],
      "stateMutability": "view",
      "type": "function"
    },
    {
      "inputs": [
        {
          "internalType": "address",
          "name": "tokenAddress",
          "type": "address"
        },
        {
          "internalType": "uint256[]",
          "name": "depositAmountList",
          "type": "uint256[]"
        },
        {
          "internalType": "uint256[]",
          "name": "availableAmountList",
          "type": "uint256[]"
        },
        {
          "internalType": "uint256[]",
          "name": "depositDistributorFeeRatioList",
          "type": "uint256[]"
        },
        {
          "internalType": "uint256[]",
          "name": "loanDistributorFeeRatioList",
          "type": "uint256[]"
        },
        {
          "internalType": "uint256[]",
          "name": "protocolReserveRatioList",
          "type": "uint256[]"
        }
      ],
      "name": "populatePoolGroup",
      "outputs": [],
      "stateMutability": "nonpayable",
      "type": "function"
    },
    {
      "inputs": [
        {
          "internalType": "address",
          "name": "loanTokenAddress",
          "type": "address"
        },
        {
          "internalType": "uint256",
          "name": "loanAmount",
          "type": "uint256"
        },
        {
          "internalType": "uint256",
          "name": "loanTerm",
          "type": "uint256"
        },
        {
          "internalType": "uint256",
          "name": "loanInterest",
          "type": "uint256"
        }
      ],
      "name": "createLoanRecord",
      "outputs": [],
      "stateMutability": "nonpayable",
      "type": "function"
    },
    {
      "inputs": [
        {
          "internalType": "bytes32",
          "name": "loanId",
          "type": "bytes32"
        },
        {
          "internalType": "uint256",
          "name": "poolIndex",
          "type": "uint256"
        }
      ],
      "name": "getLoanRecordLoanAmountByPool",
      "outputs": [
        {
          "internalType": "uint256",
          "name": "loanAmountByPool",
          "type": "uint256"
        }
      ],
      "stateMutability": "view",
      "type": "function"
    },
    {
      "inputs": [
        {
          "internalType": "bytes32",
          "name": "loanId",
          "type": "bytes32"
        }
      ],
      "name": "getLoanRecordById",
      "outputs": [
        {
          "components": [
            {
              "internalType": "bool",
              "name": "isClosed",
              "type": "bool"
            },
            {
              "internalType": "bytes32",
              "name": "loanId",
              "type": "bytes32"
            },
            {
              "internalType": "address payable",
              "name": "ownerAddress",
              "type": "address"
            },
            {
              "internalType": "address",
              "name": "loanTokenAddress",
              "type": "address"
            },
            {
              "internalType": "address",
              "name": "collateralTokenAddress",
              "type": "address"
            },
            {
              "internalType": "uint256",
              "name": "loanAmount",
              "type": "uint256"
            },
            {
              "internalType": "uint256",
              "name": "collateralAmount",
              "type": "uint256"
            },
            {
              "internalType": "uint256",
              "name": "loanTerm",
              "type": "uint256"
            },
            {
              "internalType": "uint256",
              "name": "annualInterestRate",
              "type": "uint256"
            },
            {
              "internalType": "uint256",
              "name": "interest",
              "type": "uint256"
            },
            {
              "internalType": "uint256",
              "name": "liquidationDiscount",
              "type": "uint256"
            },
            {
              "internalType": "uint256",
              "name": "alreadyPaidAmount",
              "type": "uint256"
            },
            {
              "internalType": "uint256",
              "name": "liquidatedAmount",
              "type": "uint256"
            },
            {
              "internalType": "uint256",
              "name": "soldCollateralAmount",
              "type": "uint256"
            },
            {
              "internalType": "uint256",
              "name": "createdAt",
              "type": "uint256"
            },
            {
              "internalType": "uint256",
              "name": "dueAt",
              "type": "uint256"
            },
            {
              "internalType": "uint256",
              "name": "lastInterestUpdatedAt",
              "type": "uint256"
            },
            {
              "internalType": "uint256",
              "name": "lastRepaidAt",
              "type": "uint256"
            },
            {
              "internalType": "uint256",
              "name": "lastLiquidatedAt",
              "type": "uint256"
            },
            {
              "internalType": "address payable",
              "name": "distributorAddress",
              "type": "address"
            },
            {
              "internalType": "uint256",
              "name": "distributorInterest",
              "type": "uint256"
            }
          ],
          "internalType": "struct IStruct.LoanRecord",
          "name": "loanRecord",
          "type": "tuple"
        }
      ],
      "stateMutability": "view",
      "type": "function"
    }
  ],
  "bytecode": "0x608060405234801561001057600080fd5b506114e1806100206000396000f3fe608060405234801561001057600080fd5b50600436106100ea5760003560e01c806386959b4b1161008c578063d6a7c40911610066578063d6a7c409146102d3578063e91d36b6146102e6578063eed6539c146102f9578063f6dabb711461030c57600080fd5b806386959b4b1461028d57806398bfb69c146102ad578063c63f7557146102c057600080fd5b80633cb581a1116100c85780633cb581a11461012e578063454f05381461014e5780634a918e8b146102115780637550baef1461027a57600080fd5b806302c3bfd5146100ef5780630896c1a014610104578063391720311461011b575b600080fd5b6101026100fd366004610e86565b61031f565b005b6001545b6040519081526020015b60405180910390f35b610108610129366004611032565b6105ba565b61014161013c366004611173565b610686565b60405161011291906112b9565b61010261015c366004610fb7565b600254604080513360208201529081019190915260009060600160408051808303601f1901815291815281516020928301206000818152600393849052918220600180820183905593810180546001600160a01b0319166001600160a01b039a909a16999099179098556005880196909655600780880195909555600990960192909255508154908101825592527fa66cc928b5edb82af9bd49922954155ab7b0942694bea4ce44661d9a8736c68890910155565b61022461021f366004610f8d565b610863565b6040516101129190600060e082019050825182526020830151602083015260408301516040830152606083015160608301526080830151608083015260a083015160a083015260c083015160c083015292915050565b610224610288366004610f8d565b6109d5565b6102a061029b366004610e6b565b610a63565b604051610112919061124b565b6101026102bb366004610ff0565b610b02565b6101026102ce36600461118c565b610b97565b6101026102e1366004611173565b610c1d565b6101086102f436600461118c565b610c9b565b610108610307366004611173565b610d75565b61010261031a366004611173565b610d96565b6001805461032c91611436565b89111561039d5760405162461bcd60e51b815260206004820152603460248201527f4c6971756964697479506f6f6c734d6f636b3a20696e76616c6964206465706f6044820152730e6d2e882dadeeadce898d2e6e840d8cadccee8d60631b60648201526084015b60405180910390fd5b8887146104385760405162461bcd60e51b815260206004820152605760248201527f4c6971756964697479506f6f6c734d6f636b3a206465706f736974416d6f756e60448201527f744c69737420616e6420617661696c61626c65416d6f756e744c697374206d7560648201527f73742068617665207468652073616d65206c656e677468000000000000000000608482015260a401610394565b6001600160a01b038b16600090815260208181526040808320815163fada017160e01b8152915190939273__DateTime______________________________9263fada01719260048083019392829003018186803b15801561049957600080fd5b505af41580156104ad573d6000803e3d6000fd5b505050506040513d601f19601f820116820180604052508101906104d19190611232565b905060005b8b8110156105aa5760008281526020849052604090208d8d838181106104fe576104fe61147f565b60200291909101358255508b8b8381811061051b5761051b61147f565b602002919091013560018301555089898381811061053b5761053b61147f565b602002919091013560048301555087878381811061055b5761055b61147f565b602002919091013560058301555085858381811061057b5761057b61147f565b6020029190910135600683015550610594836001611436565b92505080806105a29061144e565b9150506104d6565b5050505050505050505050505050565b604051631e706bd560e01b81526000600482018190526001600160a01b038916602483015260448201889052606482018790526084820186905260a4820185905260c4820184905260e482018390529073__LiquidityPools________________________90631e706bd5906101040160206040518083038186803b15801561064257600080fd5b505af4158015610656573d6000803e3d6000fd5b505050506040513d601f19601f8201168201806040525081019061067a9190611232565b98975050505050505050565b610752604051806102a001604052806000151581526020016000801916815260200160006001600160a01b0316815260200160006001600160a01b0316815260200160006001600160a01b03168152602001600081526020016000815260200160008152602001600081526020016000815260200160008152602001600081526020016000815260200160008152602001600081526020016000815260200160008152602001600081526020016000815260200160006001600160a01b03168152602001600081525090565b5060009081526003602081815260409283902083516102a081018552815460ff161515815260018201549281019290925260028101546001600160a01b03908116948301949094529182015483166060820152600482015483166080820152600582015460a0820152600682015460c0820152600782015460e082015260088201546101008201526009820154610120820152600a820154610140820152600b820154610160820152600c820154610180820152600d8201546101a0820152600e8201546101c0820152600f8201546101e082015260108201546102008201526011820154610220820152601282015461024082015260138201549092166102608301526014015461028082015290565b6108a36040518060e00160405280600081526020016000815260200160008152602001600081526020016000815260200160008152602001600081525090565b600073__LiquidityPools________________________6352af126f9091858573__DateTime______________________________63fada01716040518163ffffffff1660e01b815260040160206040518083038186803b15801561090757600080fd5b505af415801561091b573d6000803e3d6000fd5b505050506040513d601f19601f8201168201806040525081019061093f9190611232565b6109499190611436565b6040516001600160e01b031960e086901b16815260048101939093526001600160a01b03909116602483015260448201526064015b60e06040518083038186803b15801561099657600080fd5b505af41580156109aa573d6000803e3d6000fd5b505050506040513d601f19601f820116820180604052508101906109ce91906111ae565b9392505050565b610a156040518060e00160405280600081526020016000815260200160008152602001600081526020016000815260200160008152602001600081525090565b6040516352af126f60e01b8152600060048201526001600160a01b03841660248201526044810183905273__LiquidityPools________________________906352af126f9060640161097e565b60405163991a26b360e01b8152600060048201526001600160a01b038216602482015260609073__LiquidityPools________________________9063991a26b39060440160006040518083038186803b158015610ac057600080fd5b505af4158015610ad4573d6000803e3d6000fd5b505050506040513d6000823e601f3d908101601f19168201604052610afc9190810190611085565b92915050565b60405163448d172160e11b8152600060048201526001600160a01b038616602482015260448101859052606481018490526084810183905260a4810182905273__LiquidityPools________________________9063891a2e429060c40160006040518083038186803b158015610b7857600080fd5b505af4158015610b8c573d6000803e3d6000fd5b505050505050505050565b60008281526003602052604080822090516364465e6360e01b8152600481019290925260248201819052604482018390529073__LiquidityPools________________________906364465e639060640160006040518083038186803b158015610c0057600080fd5b505af4158015610c14573d6000803e3d6000fd5b50505050505050565b60008181526003602052604080822090516399d4a3e960e01b81526004810192909252602482018190529073__LiquidityPools________________________906399d4a3e99060440160006040518083038186803b158015610c7f57600080fd5b505af4158015610c93573d6000803e3d6000fd5b505050505050565b6000828152600360208181526040808420928301546001600160a01b03168452838252808420868552600181018352818520825163fada017160e01b81529251919390928692889273__DateTime______________________________9263fada01719260048083019392829003018186803b158015610d1a57600080fd5b505af4158015610d2e573d6000803e3d6000fd5b505050506040513d601f19601f82011682018060405250810190610d529190611232565b610d5c9190611436565b8152602001908152602001600020549250505092915050565b60078181548110610d8557600080fd5b600091825260209091200154905081565b604051631421448b60e21b8152600060048201526024810182905273__LiquidityPools________________________90635085122c9060440160006040518083038186803b158015610de857600080fd5b505af4158015610dfc573d6000803e3d6000fd5b5050505050565b80356001600160a01b0381168114610e1a57600080fd5b919050565b60008083601f840112610e3157600080fd5b50813567ffffffffffffffff811115610e4957600080fd5b6020830191508360208260051b8501011115610e6457600080fd5b9250929050565b600060208284031215610e7d57600080fd5b6109ce82610e03565b600080600080600080600080600080600060c08c8e031215610ea757600080fd5b610eb08c610e03565b9a5067ffffffffffffffff8060208e01351115610ecc57600080fd5b610edc8e60208f01358f01610e1f565b909b50995060408d0135811015610ef257600080fd5b610f028e60408f01358f01610e1f565b909950975060608d0135811015610f1857600080fd5b610f288e60608f01358f01610e1f565b909750955060808d0135811015610f3e57600080fd5b610f4e8e60808f01358f01610e1f565b909550935060a08d0135811015610f6457600080fd5b50610f758d60a08e01358e01610e1f565b81935080925050509295989b509295989b9093969950565b60008060408385031215610fa057600080fd5b610fa983610e03565b946020939093013593505050565b60008060008060808587031215610fcd57600080fd5b610fd685610e03565b966020860135965060408601359560600135945092505050565b600080600080600060a0868803121561100857600080fd5b61101186610e03565b97602087013597506040870135966060810135965060800135945092505050565b600080600080600080600060e0888a03121561104d57600080fd5b61105688610e03565b9960208901359950604089013598606081013598506080810135975060a0810135965060c00135945092505050565b6000602080838503121561109857600080fd5b825167ffffffffffffffff808211156110b057600080fd5b818501915085601f8301126110c457600080fd5b8151818111156110d6576110d6611495565b6110e4848260051b01611405565b818152848101925083850160a0808402860187018a101561110457600080fd5b60009550855b848110156111645781838c031215611120578687fd5b6111286113dc565b8351815288840151898201526040808501519082015260608085015190820152608080850151908201528652948701949181019160010161110a565b50919998505050505050505050565b60006020828403121561118557600080fd5b5035919050565b6000806040838503121561119f57600080fd5b50508035926020909101359150565b600060e082840312156111c057600080fd5b60405160e0810181811067ffffffffffffffff821117156111e3576111e3611495565b8060405250825181526020830151602082015260408301516040820152606083015160608201526080830151608082015260a083015160a082015260c083015160c08201528091505092915050565b60006020828403121561124457600080fd5b5051919050565b602080825282518282018190526000919060409081850190868401855b828110156112ac5781518051855286810151878601528581015186860152606080820151908601526080908101519085015260a09093019290850190600101611268565b5091979650505050505050565b8151151581526102a081016020830151602083015260408301516112e860408401826001600160a01b03169052565b50606083015161130360608401826001600160a01b03169052565b50608083015161131e60808401826001600160a01b03169052565b5060a0838101519083015260c0808401519083015260e08084015190830152610100808401519083015261012080840151908301526101408084015190830152610160808401519083015261018080840151908301526101a080840151908301526101c080840151908301526101e08084015190830152610200808401519083015261022080840151908301526102408084015190830152610260808401516001600160a01b03811682850152505061028092830151919092015290565b60405160a0810167ffffffffffffffff811182821017156113ff576113ff611495565b60405290565b604051601f8201601f1916810167ffffffffffffffff8111828210171561142e5761142e611495565b604052919050565b6000821982111561144957611449611469565b500190565b600060001982141561146257611462611469565b5060010190565b634e487b7160e01b600052601160045260246000fd5b634e487b7160e01b600052603260045260246000fd5b634e487b7160e01b600052604160045260246000fdfea2646970667358221220f9e6914bf624840d7df1ff6d40820baf5e4f6468ff37fe3b5df26769b3b9767864736f6c63430008070033",
  "immutableReferences": {},
  "source": "// SPDX-License-Identifier: UNLICENSED\npragma solidity ^0.8.7;\npragma experimental ABIEncoderV2;\n\nimport '../../common/lib/DateTime.sol';\nimport '../lib/LiquidityPools.sol';\nimport '../lib/LoanManager.sol';\nimport '../interface/IStruct.sol';\n\ncontract LiquidityPoolsMock {\n    using LiquidityPools for LiquidityPools.State;\n    using LoanManager for LoanManager.State;\n\n    LiquidityPools.State _liquidityPools;\n    LoanManager.State _loanManager;\n\n    bytes32[] public loanIdList;\n\n    function setPoolGroupSize(uint256 poolGroupSize) external {\n        _liquidityPools.setPoolGroupSize(poolGroupSize);\n    }\n\n    function addDepositToPool(\n        address tokenAddress,\n        uint256 depositAmount,\n        uint256 depositTerm,\n        uint256 depositWeight,\n        uint256 depositDistributorFeeRatio,\n        uint256 loanDistributorFeeRatio,\n        uint256 protocolReserveRatio\n    ) external returns (uint256 poolId) {\n        return\n            _liquidityPools.addDepositToPool(\n                tokenAddress,\n                depositAmount,\n                depositTerm,\n                depositWeight,\n                depositDistributorFeeRatio,\n                loanDistributorFeeRatio,\n                protocolReserveRatio\n            );\n    }\n\n    function withdrawFromPool(\n        address tokenAddress,\n        uint256 depositAmount,\n        uint256 depositWeight,\n        uint256 availableAmount,\n        uint256 poolId\n    ) external {\n        _liquidityPools.withdrawFromPool(\n            tokenAddress,\n            depositAmount,\n            depositWeight,\n            availableAmount,\n            poolId\n        );\n    }\n\n    function loanFromPools(bytes32 loanId) external {\n        IStruct.LoanRecord storage loanRecord = _loanManager.loanRecordById[\n            loanId\n        ];\n\n        _liquidityPools.loanFromPools(loanRecord);\n    }\n\n    function repayLoanToPools(bytes32 loanId, uint256 repayAmount) external {\n        IStruct.LoanRecord storage loanRecord = _loanManager.loanRecordById[\n            loanId\n        ];\n\n        _liquidityPools.repayLoanToPools(loanRecord, repayAmount);\n    }\n\n    function getPoolsByToken(address tokenAddress)\n        external\n        view\n        returns (IStruct.GetPoolsByTokenResponse[] memory poolList)\n    {\n        return _liquidityPools.getPoolsByToken(tokenAddress);\n    }\n\n    function getPoolById(address tokenAddress, uint256 poolId)\n        external\n        view\n        returns (IStruct.Pool memory pool)\n    {\n        return _liquidityPools.getPoolById(tokenAddress, poolId);\n    }\n\n    function getPoolByIndex(address tokenAddress, uint256 poolIndex)\n        external\n        view\n        returns (IStruct.Pool memory pool)\n    {\n        return\n            _liquidityPools.getPoolById(\n                tokenAddress,\n                DateTime.toDays() + poolIndex\n            );\n    }\n\n    /// --- Helpers\n\n    function getPoolGroupSize() external view returns (uint256 poolGroupSize) {\n        return _liquidityPools.poolGroupSize;\n    }\n\n    function populatePoolGroup(\n        address tokenAddress,\n        uint256[] calldata depositAmountList,\n        uint256[] calldata availableAmountList,\n        uint256[] calldata depositDistributorFeeRatioList,\n        uint256[] calldata loanDistributorFeeRatioList,\n        uint256[] calldata protocolReserveRatioList\n    ) external {\n        require(\n            depositAmountList.length <= _liquidityPools.poolGroupSize + 1,\n            'LiquidityPoolsMock: invalid depositAmountList length'\n        );\n        require(\n            depositAmountList.length == availableAmountList.length,\n            'LiquidityPoolsMock: depositAmountList and availableAmountList must have the same length'\n        );\n\n        LiquidityPools.PoolGroup storage poolGroup = _liquidityPools.poolGroups[\n            tokenAddress\n        ];\n\n        uint256 poolId = DateTime.toDays();\n\n        for (uint256 i = 0; i < depositAmountList.length; i++) {\n            IStruct.Pool storage pool = poolGroup.poolsById[poolId];\n            pool.depositAmount = depositAmountList[i];\n            pool.availableAmount = availableAmountList[i];\n            pool.depositDistributorFeeRatio = depositDistributorFeeRatioList[i];\n            pool.loanDistributorFeeRatio = loanDistributorFeeRatioList[i];\n            pool.protocolReserveRatio = protocolReserveRatioList[i];\n            poolId = poolId + 1;\n        }\n    }\n\n    function createLoanRecord(\n        address loanTokenAddress,\n        uint256 loanAmount,\n        uint256 loanTerm,\n        uint256 loanInterest\n    ) external {\n        bytes32 loanId = keccak256(\n            abi.encode(msg.sender, _loanManager.numLoans)\n        );\n\n        IStruct.LoanRecord storage loanRecord = _loanManager.loanRecordById[\n            loanId\n        ];\n\n        loanRecord.loanId = loanId;\n        loanRecord.loanTokenAddress = loanTokenAddress;\n        loanRecord.loanAmount = loanAmount;\n        loanRecord.loanTerm = loanTerm;\n        loanRecord.interest = loanInterest;\n\n        loanIdList.push(loanId);\n    }\n\n    function getLoanRecordLoanAmountByPool(bytes32 loanId, uint256 poolIndex)\n        external\n        view\n        returns (uint256 loanAmountByPool)\n    {\n        IStruct.LoanRecord storage loanRecord = _loanManager.loanRecordById[\n            loanId\n        ];\n\n        LiquidityPools.PoolGroup storage poolGroup = _liquidityPools.poolGroups[\n            loanRecord.loanTokenAddress\n        ];\n\n        return\n            poolGroup.loanAmountByLoanIdAndPoolId[loanId][\n                DateTime.toDays() + poolIndex\n            ];\n    }\n\n    function getLoanRecordById(bytes32 loanId)\n        external\n        view\n        returns (IStruct.LoanRecord memory loanRecord)\n    {\n        return _loanManager.loanRecordById[loanId];\n    }\n}\n",
  "sourcePath": "/Users/liyangfan/Projects/WorkSpace/bluestone/contracts/protocol/mock/LiquidityPoolsMock.sol",
  "compiler": {
    "name": "solc",
    "version": "0.8.7+commit.e28d00a7.Emscripten.clang"
  },
  "schemaVersion": "3.4.4",
  "updatedAt": "2022-11-01T09:41:33.039Z",
  "devdoc": {
    "kind": "dev",
    "methods": {},
    "version": 1
  },
  "userdoc": {
    "kind": "user",
    "methods": {
      "getPoolGroupSize()": {
        "notice": "--- Helpers"
      }
    },
    "version": 1
  }
}