{
  "contractName": "LiquidityPoolsMock",
  "abi": [
    {
      "inputs": [
        {
          "internalType": "uint256",
          "name": "",
          "type": "uint256"
        }
      ],
      "name": "loanIdList",
      "outputs": [
        {
          "internalType": "bytes32",
          "name": "",
          "type": "bytes32"
        }
      ],
      "stateMutability": "view",
      "type": "function"
    },
    {
      "inputs": [
        {
          "internalType": "uint256",
          "name": "poolGroupSize",
          "type": "uint256"
        }
      ],
      "name": "setPoolGroupSize",
      "outputs": [],
      "stateMutability": "nonpayable",
      "type": "function"
    },
    {
      "inputs": [
        {
          "internalType": "address",
          "name": "tokenAddress",
          "type": "address"
        },
        {
          "internalType": "uint256",
          "name": "depositAmount",
          "type": "uint256"
        },
        {
          "internalType": "uint256",
          "name": "depositTerm",
          "type": "uint256"
        },
        {
          "internalType": "uint256",
          "name": "depositWeight",
          "type": "uint256"
        },
        {
          "internalType": "uint256",
          "name": "depositDistributorFeeRatio",
          "type": "uint256"
        },
        {
          "internalType": "uint256",
          "name": "loanDistributorFeeRatio",
          "type": "uint256"
        },
        {
          "internalType": "uint256",
          "name": "protocolReserveRatio",
          "type": "uint256"
        }
      ],
      "name": "addDepositToPool",
      "outputs": [
        {
          "internalType": "uint256",
          "name": "poolId",
          "type": "uint256"
        }
      ],
      "stateMutability": "nonpayable",
      "type": "function"
    },
    {
      "inputs": [
        {
          "internalType": "address",
          "name": "tokenAddress",
          "type": "address"
        },
        {
          "internalType": "uint256",
          "name": "depositAmount",
          "type": "uint256"
        },
        {
          "internalType": "uint256",
          "name": "depositWeight",
          "type": "uint256"
        },
        {
          "internalType": "uint256",
          "name": "availableAmount",
          "type": "uint256"
        },
        {
          "internalType": "uint256",
          "name": "poolId",
          "type": "uint256"
        }
      ],
      "name": "withdrawFromPool",
      "outputs": [],
      "stateMutability": "nonpayable",
      "type": "function"
    },
    {
      "inputs": [
        {
          "internalType": "bytes32",
          "name": "loanId",
          "type": "bytes32"
        }
      ],
      "name": "loanFromPools",
      "outputs": [],
      "stateMutability": "nonpayable",
      "type": "function"
    },
    {
      "inputs": [
        {
          "internalType": "bytes32",
          "name": "loanId",
          "type": "bytes32"
        },
        {
          "internalType": "uint256",
          "name": "repayAmount",
          "type": "uint256"
        }
      ],
      "name": "repayLoanToPools",
      "outputs": [],
      "stateMutability": "nonpayable",
      "type": "function"
    },
    {
      "inputs": [
        {
          "internalType": "address",
          "name": "tokenAddress",
          "type": "address"
        }
      ],
      "name": "getPoolsByToken",
      "outputs": [
        {
          "components": [
            {
              "internalType": "uint256",
              "name": "poolId",
              "type": "uint256"
            },
            {
              "internalType": "uint256",
              "name": "depositAmount",
              "type": "uint256"
            },
            {
              "internalType": "uint256",
              "name": "availableAmount",
              "type": "uint256"
            },
            {
              "internalType": "uint256",
              "name": "loanInterest",
              "type": "uint256"
            },
            {
              "internalType": "uint256",
              "name": "totalDepositWeight",
              "type": "uint256"
            }
          ],
          "internalType": "struct IStruct.GetPoolsByTokenResponse[]",
          "name": "poolList",
          "type": "tuple[]"
        }
      ],
      "stateMutability": "view",
      "type": "function"
    },
    {
      "inputs": [
        {
          "internalType": "address",
          "name": "tokenAddress",
          "type": "address"
        },
        {
          "internalType": "uint256",
          "name": "poolId",
          "type": "uint256"
        }
      ],
      "name": "getPoolById",
      "outputs": [
        {
          "components": [
            {
              "internalType": "uint256",
              "name": "depositAmount",
              "type": "uint256"
            },
            {
              "internalType": "uint256",
              "name": "availableAmount",
              "type": "uint256"
            },
            {
              "internalType": "uint256",
              "name": "loanInterest",
              "type": "uint256"
            },
            {
              "internalType": "uint256",
              "name": "totalDepositWeight",
              "type": "uint256"
            },
            {
              "internalType": "uint256",
              "name": "depositDistributorFeeRatio",
              "type": "uint256"
            },
            {
              "internalType": "uint256",
              "name": "loanDistributorFeeRatio",
              "type": "uint256"
            },
            {
              "internalType": "uint256",
              "name": "protocolReserveRatio",
              "type": "uint256"
            }
          ],
          "internalType": "struct IStruct.Pool",
          "name": "pool",
          "type": "tuple"
        }
      ],
      "stateMutability": "view",
      "type": "function"
    },
    {
      "inputs": [
        {
          "internalType": "address",
          "name": "tokenAddress",
          "type": "address"
        },
        {
          "internalType": "uint256",
          "name": "poolIndex",
          "type": "uint256"
        }
      ],
      "name": "getPoolByIndex",
      "outputs": [
        {
          "components": [
            {
              "internalType": "uint256",
              "name": "depositAmount",
              "type": "uint256"
            },
            {
              "internalType": "uint256",
              "name": "availableAmount",
              "type": "uint256"
            },
            {
              "internalType": "uint256",
              "name": "loanInterest",
              "type": "uint256"
            },
            {
              "internalType": "uint256",
              "name": "totalDepositWeight",
              "type": "uint256"
            },
            {
              "internalType": "uint256",
              "name": "depositDistributorFeeRatio",
              "type": "uint256"
            },
            {
              "internalType": "uint256",
              "name": "loanDistributorFeeRatio",
              "type": "uint256"
            },
            {
              "internalType": "uint256",
              "name": "protocolReserveRatio",
              "type": "uint256"
            }
          ],
          "internalType": "struct IStruct.Pool",
          "name": "pool",
          "type": "tuple"
        }
      ],
      "stateMutability": "view",
      "type": "function"
    },
    {
      "inputs": [],
      "name": "getPoolGroupSize",
      "outputs": [
        {
          "internalType": "uint256",
          "name": "poolGroupSize",
          "type": "uint256"
        }
      ],
      "stateMutability": "view",
      "type": "function"
    },
    {
      "inputs": [
        {
          "internalType": "address",
          "name": "tokenAddress",
          "type": "address"
        },
        {
          "internalType": "uint256[]",
          "name": "depositAmountList",
          "type": "uint256[]"
        },
        {
          "internalType": "uint256[]",
          "name": "availableAmountList",
          "type": "uint256[]"
        },
        {
          "internalType": "uint256[]",
          "name": "depositDistributorFeeRatioList",
          "type": "uint256[]"
        },
        {
          "internalType": "uint256[]",
          "name": "loanDistributorFeeRatioList",
          "type": "uint256[]"
        },
        {
          "internalType": "uint256[]",
          "name": "protocolReserveRatioList",
          "type": "uint256[]"
        }
      ],
      "name": "populatePoolGroup",
      "outputs": [],
      "stateMutability": "nonpayable",
      "type": "function"
    },
    {
      "inputs": [
        {
          "internalType": "address",
          "name": "loanTokenAddress",
          "type": "address"
        },
        {
          "internalType": "uint256",
          "name": "loanAmount",
          "type": "uint256"
        },
        {
          "internalType": "uint256",
          "name": "loanTerm",
          "type": "uint256"
        },
        {
          "internalType": "uint256",
          "name": "loanInterest",
          "type": "uint256"
        }
      ],
      "name": "createLoanRecord",
      "outputs": [],
      "stateMutability": "nonpayable",
      "type": "function"
    },
    {
      "inputs": [
        {
          "internalType": "bytes32",
          "name": "loanId",
          "type": "bytes32"
        },
        {
          "internalType": "uint256",
          "name": "poolIndex",
          "type": "uint256"
        }
      ],
      "name": "getLoanRecordLoanAmountByPool",
      "outputs": [
        {
          "internalType": "uint256",
          "name": "loanAmountByPool",
          "type": "uint256"
        }
      ],
      "stateMutability": "view",
      "type": "function"
    },
    {
      "inputs": [
        {
          "internalType": "bytes32",
          "name": "loanId",
          "type": "bytes32"
        }
      ],
      "name": "getLoanRecordById",
      "outputs": [
        {
          "components": [
            {
              "internalType": "bool",
              "name": "isClosed",
              "type": "bool"
            },
            {
              "internalType": "bytes32",
              "name": "loanId",
              "type": "bytes32"
            },
            {
              "internalType": "address payable",
              "name": "ownerAddress",
              "type": "address"
            },
            {
              "internalType": "address",
              "name": "loanTokenAddress",
              "type": "address"
            },
            {
              "internalType": "address",
              "name": "collateralTokenAddress",
              "type": "address"
            },
            {
              "internalType": "uint256",
              "name": "loanAmount",
              "type": "uint256"
            },
            {
              "internalType": "uint256",
              "name": "collateralAmount",
              "type": "uint256"
            },
            {
              "internalType": "uint256",
              "name": "loanTerm",
              "type": "uint256"
            },
            {
              "internalType": "uint256",
              "name": "annualInterestRate",
              "type": "uint256"
            },
            {
              "internalType": "uint256",
              "name": "interest",
              "type": "uint256"
            },
            {
              "internalType": "uint256",
              "name": "minCollateralCoverageRatio",
              "type": "uint256"
            },
            {
              "internalType": "uint256",
              "name": "liquidationDiscount",
              "type": "uint256"
            },
            {
              "internalType": "uint256",
              "name": "alreadyPaidAmount",
              "type": "uint256"
            },
            {
              "internalType": "uint256",
              "name": "liquidatedAmount",
              "type": "uint256"
            },
            {
              "internalType": "uint256",
              "name": "soldCollateralAmount",
              "type": "uint256"
            },
            {
              "internalType": "uint256",
              "name": "createdAt",
              "type": "uint256"
            },
            {
              "internalType": "uint256",
              "name": "dueAt",
              "type": "uint256"
            },
            {
              "internalType": "uint256",
              "name": "lastInterestUpdatedAt",
              "type": "uint256"
            },
            {
              "internalType": "uint256",
              "name": "lastRepaidAt",
              "type": "uint256"
            },
            {
              "internalType": "uint256",
              "name": "lastLiquidatedAt",
              "type": "uint256"
            },
            {
              "internalType": "address payable",
              "name": "distributorAddress",
              "type": "address"
            },
            {
              "internalType": "uint256",
              "name": "distributorInterest",
              "type": "uint256"
            }
          ],
          "internalType": "struct IStruct.LoanRecord",
          "name": "loanRecord",
          "type": "tuple"
        }
      ],
      "stateMutability": "view",
      "type": "function"
    }
  ],
  "bytecode": "0x608060405234801561001057600080fd5b506114ad806100206000396000f3fe608060405234801561001057600080fd5b50600436106100ea5760003560e01c806386959b4b1161008c578063d6a7c40911610066578063d6a7c409146101e1578063e91d36b6146101f4578063eed6539c14610207578063f6dabb711461021a576100ea565b806386959b4b1461019b57806398bfb69c146101bb578063c63f7557146101ce576100ea565b80633cb581a1116100c85780633cb581a114610135578063454f0538146101555780634a918e8b146101685780637550baef14610188576100ea565b806302c3bfd5146100ef5780630896c1a0146101045780633917203114610122575b600080fd5b6101026100fd366004610cef565b61022d565b005b61010c6103d8565b60405161011991906110ec565b60405180910390f35b61010c610130366004610e98565b6103de565b610148610143366004610f9c565b610482565b6040516101199190611203565b610102610163366004610e1b565b6105a6565b61017b610176366004610df1565b610659565b6040516101199190611320565b61017b610196366004610df1565b610783565b6101ae6101a9366004610cd4565b6107c7565b604051610119919061107e565b6101026101c9366004610e55565b610858565b6101026101dc366004610fb4565b6108d1565b6101026101ef366004610f9c565b61094f565b61010c610202366004610fb4565b6109ca565b61010c610215366004610f9c565b610a68565b610102610228366004610f9c565b610a86565b600180540189111561025a5760405162461bcd60e51b81526004016102519061112c565b60405180910390fd5b8887146102795760405162461bcd60e51b815260040161025190611180565b6001600160a01b038b16600090815260208181526040808320815163fada017160e01b8152915190939273__DateTime______________________________9263fada01719260048083019392829003018186803b1580156102da57600080fd5b505af41580156102ee573d6000803e3d6000fd5b505050506040513d601f19601f82011682018060405250810190610312919061103a565b905060005b8b8110156103c85760008281526020849052604090208d8d8381811061033957fe5b60200291909101358255508b8b8381811061035057fe5b602002919091013560018301555089898381811061036a57fe5b602002919091013560048301555087878381811061038457fe5b602002919091013560058301555085858381811061039e57fe5b60200291909101356006830155506103bd83600163ffffffff610af316565b925050600101610317565b5050505050505050505050505050565b60015490565b604051631e706bd560e01b815260009073__LiquidityPools________________________90631e706bd5906104269084908c908c908c908c908c908c908c906004016113d5565b60206040518083038186803b15801561043e57600080fd5b505af4158015610452573d6000803e3d6000fd5b505050506040513d601f19601f82011682018060405250810190610476919061103a565b98975050505050505050565b61048a610b18565b5060009081526003602081815260409283902083516102c081018552815460ff161515815260018201549281019290925260028101546001600160a01b03908116948301949094529182015483166060820152600482015483166080820152600582015460a0820152600682015460c0820152600782015460e082015260088201546101008201526009820154610120820152600a820154610140820152600b820154610160820152600c820154610180820152600d8201546101a0820152600e8201546101c0820152600f8201546101e082015260108201546102008201526011820154610220820152601282015461024082015260138201546102608201526014820154909216610280830152601501546102a082015290565b6002546040516000916105be91339190602001611065565b60408051808303601f1901815291815281516020928301206000818152600393849052918220600180820183905593810180546001600160a01b0319166001600160a01b039a909a16999099179098556005880196909655600780880195909555600990960192909255508154908101825592527fa66cc928b5edb82af9bd49922954155ab7b0942694bea4ce44661d9a8736c68890910155565b610661610be8565b600073__LiquidityPools________________________6352af126f90918561070c8673__DateTime______________________________63fada01716040518163ffffffff1660e01b815260040160206040518083038186803b1580156106c857600080fd5b505af41580156106dc573d6000803e3d6000fd5b505050506040513d601f19601f82011682018060405250810190610700919061103a565b9063ffffffff610af316565b6040518463ffffffff1660e01b815260040161072a93929190611385565b60e06040518083038186803b15801561074257600080fd5b505af4158015610756573d6000803e3d6000fd5b505050506040513d601f19601f8201168201806040525081019061077a9190610fd5565b90505b92915050565b61078b610be8565b6040516352af126f60e01b815273__LiquidityPools________________________906352af126f9061072a9060009087908790600401611385565b60405163991a26b360e01b815260609073__LiquidityPools________________________9063991a26b39061080490600090869060040161136e565b60006040518083038186803b15801561081c57600080fd5b505af4158015610830573d6000803e3d6000fd5b505050506040513d6000823e601f3d908101601f1916820160405261077d9190810190610eec565b60405163448d172160e11b815273__LiquidityPools________________________9063891a2e429061089a90600090899089908990899089906004016113a4565b60006040518083038186803b1580156108b257600080fd5b505af41580156108c6573d6000803e3d6000fd5b505050505050505050565b60008281526003602052604080822090516364465e6360e01b8152909173__LiquidityPools________________________916364465e639161091a9185908790600401611422565b60006040518083038186803b15801561093257600080fd5b505af4158015610946573d6000803e3d6000fd5b50505050505050565b60008181526003602052604080822090516399d4a3e960e01b8152909173__LiquidityPools________________________916399d4a3e991610996918590600401611414565b60006040518083038186803b1580156109ae57600080fd5b505af41580156109c2573d6000803e3d6000fd5b505050505050565b6000828152600360208181526040808420928301546001600160a01b03168452838252808420868552600181018352818520825163fada017160e01b81529251919390928692610a4f92899273__DateTime______________________________9263fada017192600480840193919291829003018186803b1580156106c857600080fd5b8152602001908152602001600020549250505092915050565b60078181548110610a7557fe5b600091825260209091200154905081565b604051631421448b60e21b815273__LiquidityPools________________________90635085122c90610ac0906000908590600401611414565b60006040518083038186803b158015610ad857600080fd5b505af4158015610aec573d6000803e3d6000fd5b5050505050565b60008282018381101561077a5760405162461bcd60e51b8152600401610251906110f5565b604051806102c001604052806000151581526020016000801916815260200160006001600160a01b0316815260200160006001600160a01b0316815260200160006001600160a01b0316815260200160008152602001600081526020016000815260200160008152602001600081526020016000815260200160008152602001600081526020016000815260200160008152602001600081526020016000815260200160008152602001600081526020016000815260200160006001600160a01b03168152602001600081525090565b6040518060e00160405280600081526020016000815260200160008152602001600081526020016000815260200160008152602001600081525090565b80356001600160a01b038116811461077d57600080fd5b60008083601f840112610c4d578081fd5b50813567ffffffffffffffff811115610c64578182fd5b6020830191508360208083028501011115610c7e57600080fd5b9250929050565b600060a08284031215610c96578081fd5b610ca060a0611438565b9050815181526020820151602082015260408201516040820152606082015160608201526080820151608082015292915050565b600060208284031215610ce5578081fd5b61077a8383610c25565b600080600080600080600080600080600060c08c8e031215610d0f578687fd5b610d198d8d610c25565b9a5067ffffffffffffffff8060208e01351115610d34578788fd5b610d448e60208f01358f01610c3c565b909b50995060408d0135811015610d59578788fd5b610d698e60408f01358f01610c3c565b909950975060608d0135811015610d7e578687fd5b610d8e8e60608f01358f01610c3c565b909750955060808d0135811015610da3578485fd5b610db38e60808f01358f01610c3c565b909550935060a08d0135811015610dc8578283fd5b50610dd98d60a08e01358e01610c3c565b81935080925050509295989b509295989b9093969950565b60008060408385031215610e03578182fd5b610e0d8484610c25565b946020939093013593505050565b60008060008060808587031215610e30578384fd5b8435610e3b8161145f565b966020860135965060408601359560600135945092505050565b600080600080600060a08688031215610e6c578081fd5b8535610e778161145f565b97602087013597506040870135966060810135965060800135945092505050565b600080600080600080600060e0888a031215610eb2578283fd5b8735610ebd8161145f565b9960208901359950604089013598606081013598506080810135975060a0810135965060c00135945092505050565b60006020808385031215610efe578182fd5b825167ffffffffffffffff80821115610f15578384fd5b81850186601f820112610f26578485fd5b8051925081831115610f36578485fd5b610f438485850201611438565b838152848101925081850160a0808602840187018a1015610f62578788fd5b8793505b85841015610f8e57610f788a83610c85565b8552938601936001939093019290810190610f66565b509098975050505050505050565b600060208284031215610fad578081fd5b5035919050565b60008060408385031215610fc6578182fd5b50508035926020909101359150565b600060e08284031215610fe6578081fd5b610ff060e0611438565b825181526020830151602082015260408301516040820152606083015160608201526080830151608082015260a083015160a082015260c083015160c08201528091505092915050565b60006020828403121561104b578081fd5b5051919050565b6001600160a01b03169052565b15159052565b6001600160a01b03929092168252602082015260400190565b602080825282518282018190526000919060409081850190868401855b828110156110df5781518051855286810151878601528581015186860152606080820151908601526080908101519085015260a0909301929085019060010161109b565b5091979650505050505050565b90815260200190565b6020808252601b908201527f536166654d6174683a206164646974696f6e206f766572666c6f770000000000604082015260600190565b60208082526034908201527f4c6971756964697479506f6f6c734d6f636b3a20696e76616c6964206465706f6040820152730e6d2e882dadeeadce898d2e6e840d8cadccee8d60631b606082015260800190565b60208082526057908201527f4c6971756964697479506f6f6c734d6f636b3a206465706f736974416d6f756e60408201527f744c69737420616e6420617661696c61626c65416d6f756e744c697374206d7560608201527f73742068617665207468652073616d65206c656e677468000000000000000000608082015260a00190565b60006102c08201905061121782845161105f565b6020830151602083015260408301516112336040840182611052565b5060608301516112466060840182611052565b5060808301516112596080840182611052565b5060a0838101519083015260c0808401519083015260e08084015190830152610100808401519083015261012080840151908301526101408084015190830152610160808401519083015261018080840151908301526101a080840151908301526101c080840151908301526101e0808401519083015261020080840151908301526102208084015190830152610240808401519083015261026080840151908301526102808084015161130f82850182611052565b50506102a092830151919092015290565b600060e082019050825182526020830151602083015260408301516040830152606083015160608301526080830151608083015260a083015160a083015260c083015160c083015292915050565b9182526001600160a01b0316602082015260400190565b9283526001600160a01b03919091166020830152604082015260600190565b9586526001600160a01b0394909416602086015260408501929092526060840152608083015260a082015260c00190565b9788526001600160a01b0396909616602088015260408701949094526060860192909252608085015260a084015260c083015260e08201526101000190565b918252602082015260400190565b9283526020830191909152604082015260600190565b60405181810167ffffffffffffffff8111828210171561145757600080fd5b604052919050565b6001600160a01b038116811461147457600080fd5b5056fea26469706673582212208380e81934b66a60aa35ee60bfb8ecf48c4b91cafda9a685a5874bb26638643f64736f6c63430006070033",
  "immutableReferences": {},
  "source": "pragma solidity ^0.6.7;\npragma experimental ABIEncoderV2;\n\nimport '@openzeppelin/contracts/math/SafeMath.sol';\nimport '../../common/lib/DateTime.sol';\nimport '../lib/LiquidityPools.sol';\nimport '../lib/LoanManager.sol';\nimport '../interface/IStruct.sol';\n\n\ncontract LiquidityPoolsMock {\n    using LiquidityPools for LiquidityPools.State;\n    using LoanManager for LoanManager.State;\n    using SafeMath for uint256;\n\n    LiquidityPools.State _liquidityPools;\n    LoanManager.State _loanManager;\n\n    bytes32[] public loanIdList;\n\n    function setPoolGroupSize(uint256 poolGroupSize) external {\n        _liquidityPools.setPoolGroupSize(poolGroupSize);\n    }\n\n    function addDepositToPool(\n        address tokenAddress,\n        uint256 depositAmount,\n        uint256 depositTerm,\n        uint256 depositWeight,\n        uint256 depositDistributorFeeRatio,\n        uint256 loanDistributorFeeRatio,\n        uint256 protocolReserveRatio\n    ) external returns (uint256 poolId) {\n        return\n            _liquidityPools.addDepositToPool(\n                tokenAddress,\n                depositAmount,\n                depositTerm,\n                depositWeight,\n                depositDistributorFeeRatio,\n                loanDistributorFeeRatio,\n                protocolReserveRatio\n            );\n    }\n\n    function withdrawFromPool(\n        address tokenAddress,\n        uint256 depositAmount,\n        uint256 depositWeight,\n        uint256 availableAmount,\n        uint256 poolId\n    ) external {\n        _liquidityPools.withdrawFromPool(\n            tokenAddress,\n            depositAmount,\n            depositWeight,\n            availableAmount,\n            poolId\n        );\n    }\n\n    function loanFromPools(bytes32 loanId) external {\n        IStruct.LoanRecord storage loanRecord = _loanManager\n            .loanRecordById[loanId];\n\n        _liquidityPools.loanFromPools(loanRecord);\n    }\n\n    function repayLoanToPools(bytes32 loanId, uint256 repayAmount) external {\n        IStruct.LoanRecord storage loanRecord = _loanManager\n            .loanRecordById[loanId];\n\n        _liquidityPools.repayLoanToPools(loanRecord, repayAmount);\n    }\n\n    function getPoolsByToken(address tokenAddress)\n        external\n        view\n        returns (IStruct.GetPoolsByTokenResponse[] memory poolList)\n    {\n        return _liquidityPools.getPoolsByToken(tokenAddress);\n    }\n\n    function getPoolById(address tokenAddress, uint256 poolId)\n        external\n        view\n        returns (IStruct.Pool memory pool)\n    {\n        return _liquidityPools.getPoolById(tokenAddress, poolId);\n    }\n\n    function getPoolByIndex(address tokenAddress, uint256 poolIndex)\n        external\n        view\n        returns (IStruct.Pool memory pool)\n    {\n        return\n            _liquidityPools.getPoolById(\n                tokenAddress,\n                DateTime.toDays().add(poolIndex)\n            );\n    }\n\n    /// --- Helpers\n\n    function getPoolGroupSize() external view returns (uint256 poolGroupSize) {\n        return _liquidityPools.poolGroupSize;\n    }\n\n    function populatePoolGroup(\n        address tokenAddress,\n        uint256[] calldata depositAmountList,\n        uint256[] calldata availableAmountList,\n        uint256[] calldata depositDistributorFeeRatioList,\n        uint256[] calldata loanDistributorFeeRatioList,\n        uint256[] calldata protocolReserveRatioList\n    ) external {\n        require(\n            depositAmountList.length <= _liquidityPools.poolGroupSize + 1,\n            'LiquidityPoolsMock: invalid depositAmountList length'\n        );\n        require(\n            depositAmountList.length == availableAmountList.length,\n            'LiquidityPoolsMock: depositAmountList and availableAmountList must have the same length'\n        );\n\n        LiquidityPools.PoolGroup storage poolGroup = _liquidityPools\n            .poolGroups[tokenAddress];\n\n        uint256 poolId = DateTime.toDays();\n\n        for (uint256 i = 0; i < depositAmountList.length; i++) {\n            IStruct.Pool storage pool = poolGroup.poolsById[poolId];\n            pool.depositAmount = depositAmountList[i];\n            pool.availableAmount = availableAmountList[i];\n            pool.depositDistributorFeeRatio = depositDistributorFeeRatioList[i];\n            pool.loanDistributorFeeRatio = loanDistributorFeeRatioList[i];\n            pool.protocolReserveRatio = protocolReserveRatioList[i];\n            poolId = poolId.add(1);\n        }\n    }\n\n    function createLoanRecord(\n        address loanTokenAddress,\n        uint256 loanAmount,\n        uint256 loanTerm,\n        uint256 loanInterest\n    ) external {\n        bytes32 loanId = keccak256(\n            abi.encode(msg.sender, _loanManager.numLoans)\n        );\n\n        IStruct.LoanRecord storage loanRecord = _loanManager\n            .loanRecordById[loanId];\n\n        loanRecord.loanId = loanId;\n        loanRecord.loanTokenAddress = loanTokenAddress;\n        loanRecord.loanAmount = loanAmount;\n        loanRecord.loanTerm = loanTerm;\n        loanRecord.interest = loanInterest;\n\n        loanIdList.push(loanId);\n    }\n\n    function getLoanRecordLoanAmountByPool(bytes32 loanId, uint256 poolIndex)\n        external\n        view\n        returns (uint256 loanAmountByPool)\n    {\n        IStruct.LoanRecord storage loanRecord = _loanManager\n            .loanRecordById[loanId];\n\n        LiquidityPools.PoolGroup storage poolGroup = _liquidityPools\n            .poolGroups[loanRecord.loanTokenAddress];\n\n        return\n            poolGroup.loanAmountByLoanIdAndPoolId[loanId][DateTime.toDays().add(\n                poolIndex\n            )];\n    }\n\n    function getLoanRecordById(bytes32 loanId)\n        external\n        view\n        returns (IStruct.LoanRecord memory loanRecord)\n    {\n        return _loanManager.loanRecordById[loanId];\n    }\n}\n",
  "sourcePath": "/Users/ethereum/Projects/bluestone/bluestone/contracts/protocol/mock/LiquidityPoolsMock.sol",
  "compiler": {
    "name": "solc",
    "version": "0.6.7+commit.b8d736ae.Emscripten.clang"
  },
  "schemaVersion": "3.1.0",
  "updatedAt": "2020-09-15T02:50:37.541Z",
  "devdoc": {
    "methods": {}
  },
  "userdoc": {
    "methods": {
      "getPoolGroupSize()": {
        "notice": "--- Helpers"
      }
    }
  }
}