{
  "contractName": "LoanManagerMock",
  "abi": [
    {
      "inputs": [
        {
          "internalType": "uint256",
          "name": "depositDistributorFeeRatio",
          "type": "uint256"
        },
        {
          "internalType": "uint256",
          "name": "loanDistributorFeeRatio",
          "type": "uint256"
        }
      ],
      "name": "setMaxDistributorFeeRatios",
      "outputs": [],
      "stateMutability": "nonpayable",
      "type": "function"
    },
    {
      "inputs": [
        {
          "internalType": "address",
          "name": "loanTokenAddress",
          "type": "address"
        },
        {
          "internalType": "address",
          "name": "collateralTokenAddress",
          "type": "address"
        },
        {
          "internalType": "uint256",
          "name": "loanAmount",
          "type": "uint256"
        },
        {
          "internalType": "uint256",
          "name": "collateralAmount",
          "type": "uint256"
        },
        {
          "internalType": "uint256",
          "name": "loanTerm",
          "type": "uint256"
        },
        {
          "internalType": "address payable",
          "name": "distributorAddress",
          "type": "address"
        }
      ],
      "name": "loan",
      "outputs": [
        {
          "internalType": "bytes32",
          "name": "loanId",
          "type": "bytes32"
        }
      ],
      "stateMutability": "payable",
      "type": "function"
    },
    {
      "inputs": [
        {
          "internalType": "bytes32",
          "name": "loanId",
          "type": "bytes32"
        },
        {
          "internalType": "uint256",
          "name": "repayAmount",
          "type": "uint256"
        }
      ],
      "name": "repayLoan",
      "outputs": [
        {
          "internalType": "uint256",
          "name": "remainingDebt",
          "type": "uint256"
        }
      ],
      "stateMutability": "payable",
      "type": "function"
    },
    {
      "inputs": [
        {
          "internalType": "bytes32",
          "name": "loanId",
          "type": "bytes32"
        },
        {
          "internalType": "uint256",
          "name": "liquidateAmount",
          "type": "uint256"
        }
      ],
      "name": "liquidateLoan",
      "outputs": [
        {
          "internalType": "uint256",
          "name": "remainingCollateral",
          "type": "uint256"
        },
        {
          "internalType": "uint256",
          "name": "liquidatedAmount",
          "type": "uint256"
        }
      ],
      "stateMutability": "payable",
      "type": "function"
    },
    {
      "inputs": [
        {
          "internalType": "bytes32",
          "name": "loanId",
          "type": "bytes32"
        }
      ],
      "name": "getLoanRecordById",
      "outputs": [
        {
          "components": [
            {
              "internalType": "bool",
              "name": "isClosed",
              "type": "bool"
            },
            {
              "internalType": "bytes32",
              "name": "loanId",
              "type": "bytes32"
            },
            {
              "internalType": "address",
              "name": "loanTokenAddress",
              "type": "address"
            },
            {
              "internalType": "address",
              "name": "collateralTokenAddress",
              "type": "address"
            },
            {
              "internalType": "uint256",
              "name": "loanAmount",
              "type": "uint256"
            },
            {
              "internalType": "uint256",
              "name": "collateralAmount",
              "type": "uint256"
            },
            {
              "internalType": "uint256",
              "name": "loanTerm",
              "type": "uint256"
            },
            {
              "internalType": "uint256",
              "name": "annualInterestRate",
              "type": "uint256"
            },
            {
              "internalType": "uint256",
              "name": "interest",
              "type": "uint256"
            },
            {
              "internalType": "uint256",
              "name": "collateralCoverageRatio",
              "type": "uint256"
            },
            {
              "internalType": "uint256",
              "name": "minCollateralCoverageRatio",
              "type": "uint256"
            },
            {
              "internalType": "uint256",
              "name": "alreadyPaidAmount",
              "type": "uint256"
            },
            {
              "internalType": "uint256",
              "name": "liquidatedAmount",
              "type": "uint256"
            },
            {
              "internalType": "uint256",
              "name": "soldCollateralAmount",
              "type": "uint256"
            },
            {
              "internalType": "uint256",
              "name": "createdAt",
              "type": "uint256"
            },
            {
              "internalType": "uint256",
              "name": "dueAt",
              "type": "uint256"
            },
            {
              "internalType": "uint256",
              "name": "remainingDebt",
              "type": "uint256"
            }
          ],
          "internalType": "struct IStruct.GetLoanRecordResponse",
          "name": "loanRecord",
          "type": "tuple"
        }
      ],
      "stateMutability": "view",
      "type": "function"
    },
    {
      "inputs": [
        {
          "internalType": "address",
          "name": "accountAddress",
          "type": "address"
        }
      ],
      "name": "getLoanRecordsByAccount",
      "outputs": [
        {
          "components": [
            {
              "internalType": "bool",
              "name": "isClosed",
              "type": "bool"
            },
            {
              "internalType": "bytes32",
              "name": "loanId",
              "type": "bytes32"
            },
            {
              "internalType": "address",
              "name": "loanTokenAddress",
              "type": "address"
            },
            {
              "internalType": "address",
              "name": "collateralTokenAddress",
              "type": "address"
            },
            {
              "internalType": "uint256",
              "name": "loanAmount",
              "type": "uint256"
            },
            {
              "internalType": "uint256",
              "name": "collateralAmount",
              "type": "uint256"
            },
            {
              "internalType": "uint256",
              "name": "loanTerm",
              "type": "uint256"
            },
            {
              "internalType": "uint256",
              "name": "annualInterestRate",
              "type": "uint256"
            },
            {
              "internalType": "uint256",
              "name": "interest",
              "type": "uint256"
            },
            {
              "internalType": "uint256",
              "name": "collateralCoverageRatio",
              "type": "uint256"
            },
            {
              "internalType": "uint256",
              "name": "minCollateralCoverageRatio",
              "type": "uint256"
            },
            {
              "internalType": "uint256",
              "name": "alreadyPaidAmount",
              "type": "uint256"
            },
            {
              "internalType": "uint256",
              "name": "liquidatedAmount",
              "type": "uint256"
            },
            {
              "internalType": "uint256",
              "name": "soldCollateralAmount",
              "type": "uint256"
            },
            {
              "internalType": "uint256",
              "name": "createdAt",
              "type": "uint256"
            },
            {
              "internalType": "uint256",
              "name": "dueAt",
              "type": "uint256"
            },
            {
              "internalType": "uint256",
              "name": "remainingDebt",
              "type": "uint256"
            }
          ],
          "internalType": "struct IStruct.GetLoanRecordResponse[]",
          "name": "loanRecordList",
          "type": "tuple[]"
        }
      ],
      "stateMutability": "view",
      "type": "function"
    },
    {
      "inputs": [
        {
          "internalType": "bytes32",
          "name": "loanId",
          "type": "bytes32"
        },
        {
          "internalType": "uint256",
          "name": "collateralAmount",
          "type": "uint256"
        }
      ],
      "name": "addCollateral",
      "outputs": [
        {
          "internalType": "uint256",
          "name": "totalCollateralAmount",
          "type": "uint256"
        }
      ],
      "stateMutability": "payable",
      "type": "function"
    },
    {
      "inputs": [
        {
          "internalType": "bytes32",
          "name": "loanId",
          "type": "bytes32"
        },
        {
          "internalType": "uint256",
          "name": "collateralAmount",
          "type": "uint256"
        }
      ],
      "name": "subtractCollateral",
      "outputs": [
        {
          "internalType": "uint256",
          "name": "totalCollateralAmount",
          "type": "uint256"
        }
      ],
      "stateMutability": "nonpayable",
      "type": "function"
    },
    {
      "inputs": [
        {
          "internalType": "address",
          "name": "loanTokenAddress",
          "type": "address"
        },
        {
          "internalType": "address",
          "name": "collateralTokenAddress",
          "type": "address"
        },
        {
          "internalType": "uint256",
          "name": "minCollateralCoverageRatio",
          "type": "uint256"
        },
        {
          "internalType": "uint256",
          "name": "liquidationDiscount",
          "type": "uint256"
        }
      ],
      "name": "setLoanAndCollateralTokenPair",
      "outputs": [],
      "stateMutability": "nonpayable",
      "type": "function"
    },
    {
      "inputs": [
        {
          "internalType": "address",
          "name": "loanTokenAddress",
          "type": "address"
        },
        {
          "internalType": "address",
          "name": "collateralTokenAddress",
          "type": "address"
        }
      ],
      "name": "removeLoanAndCollateralTokenPair",
      "outputs": [],
      "stateMutability": "nonpayable",
      "type": "function"
    },
    {
      "inputs": [],
      "name": "getLoanAndCollateralTokenPairs",
      "outputs": [
        {
          "components": [
            {
              "internalType": "address",
              "name": "loanTokenAddress",
              "type": "address"
            },
            {
              "internalType": "address",
              "name": "collateralTokenAddress",
              "type": "address"
            },
            {
              "internalType": "uint256",
              "name": "minCollateralCoverageRatio",
              "type": "uint256"
            },
            {
              "internalType": "uint256",
              "name": "liquidationDiscount",
              "type": "uint256"
            }
          ],
          "internalType": "struct IStruct.LoanAndCollateralTokenPair[]",
          "name": "loanAndCollateralTokenPairList",
          "type": "tuple[]"
        }
      ],
      "stateMutability": "view",
      "type": "function"
    },
    {
      "inputs": [
        {
          "internalType": "uint256",
          "name": "term",
          "type": "uint256"
        }
      ],
      "name": "enableDepositTerm",
      "outputs": [],
      "stateMutability": "nonpayable",
      "type": "function"
    },
    {
      "inputs": [
        {
          "internalType": "address",
          "name": "tokenAddress",
          "type": "address"
        }
      ],
      "name": "enableDepositToken",
      "outputs": [],
      "stateMutability": "nonpayable",
      "type": "function"
    },
    {
      "inputs": [
        {
          "internalType": "address",
          "name": "tokenAddress",
          "type": "address"
        },
        {
          "internalType": "uint256",
          "name": "depositAmount",
          "type": "uint256"
        },
        {
          "internalType": "uint256",
          "name": "depositTerm",
          "type": "uint256"
        },
        {
          "internalType": "address payable",
          "name": "distributorAddress",
          "type": "address"
        }
      ],
      "name": "deposit",
      "outputs": [
        {
          "internalType": "bytes32",
          "name": "depositId",
          "type": "bytes32"
        }
      ],
      "stateMutability": "payable",
      "type": "function"
    },
    {
      "inputs": [
        {
          "internalType": "address",
          "name": "tokenAddress",
          "type": "address"
        },
        {
          "internalType": "uint256",
          "name": "term",
          "type": "uint256"
        }
      ],
      "name": "getLoanInterestRate",
      "outputs": [
        {
          "internalType": "uint256",
          "name": "loanInterestRate",
          "type": "uint256"
        }
      ],
      "stateMutability": "view",
      "type": "function"
    },
    {
      "inputs": [
        {
          "internalType": "address",
          "name": "tokenAddress",
          "type": "address"
        }
      ],
      "name": "getPoolsByToken",
      "outputs": [
        {
          "components": [
            {
              "internalType": "uint256",
              "name": "poolId",
              "type": "uint256"
            },
            {
              "internalType": "uint256",
              "name": "depositAmount",
              "type": "uint256"
            },
            {
              "internalType": "uint256",
              "name": "availableAmount",
              "type": "uint256"
            },
            {
              "internalType": "uint256",
              "name": "loanInterest",
              "type": "uint256"
            },
            {
              "internalType": "uint256",
              "name": "totalDepositWeight",
              "type": "uint256"
            }
          ],
          "internalType": "struct IStruct.GetPoolsByTokenResponse[]",
          "name": "poolList",
          "type": "tuple[]"
        }
      ],
      "stateMutability": "view",
      "type": "function"
    },
    {
      "inputs": [
        {
          "internalType": "address",
          "name": "tokenAddress",
          "type": "address"
        },
        {
          "internalType": "uint256",
          "name": "poolId",
          "type": "uint256"
        }
      ],
      "name": "getPoolById",
      "outputs": [
        {
          "components": [
            {
              "internalType": "uint256",
              "name": "depositAmount",
              "type": "uint256"
            },
            {
              "internalType": "uint256",
              "name": "availableAmount",
              "type": "uint256"
            },
            {
              "internalType": "uint256",
              "name": "loanInterest",
              "type": "uint256"
            },
            {
              "internalType": "uint256",
              "name": "totalDepositWeight",
              "type": "uint256"
            },
            {
              "internalType": "uint256",
              "name": "depositDistributorFeeRatio",
              "type": "uint256"
            },
            {
              "internalType": "uint256",
              "name": "loanDistributorFeeRatio",
              "type": "uint256"
            },
            {
              "internalType": "uint256",
              "name": "protocolReserveRatio",
              "type": "uint256"
            }
          ],
          "internalType": "struct IStruct.Pool",
          "name": "pool",
          "type": "tuple"
        }
      ],
      "stateMutability": "view",
      "type": "function"
    },
    {
      "inputs": [
        {
          "internalType": "address",
          "name": "tokenAddress",
          "type": "address"
        },
        {
          "internalType": "contract IPriceOracle",
          "name": "priceOracle",
          "type": "address"
        }
      ],
      "name": "setPriceOracle",
      "outputs": [],
      "stateMutability": "nonpayable",
      "type": "function"
    },
    {
      "inputs": [
        {
          "internalType": "uint256",
          "name": "poolGroupSize",
          "type": "uint256"
        }
      ],
      "name": "setPoolGroupSize",
      "outputs": [],
      "stateMutability": "nonpayable",
      "type": "function"
    },
    {
      "inputs": [
        {
          "internalType": "contract IInterestRateModel",
          "name": "interestRateModel",
          "type": "address"
        }
      ],
      "name": "setInterestRateModel",
      "outputs": [],
      "stateMutability": "nonpayable",
      "type": "function"
    },
    {
      "inputs": [
        {
          "internalType": "address",
          "name": "tokenAddress",
          "type": "address"
        },
        {
          "internalType": "uint256",
          "name": "balanceCap",
          "type": "uint256"
        }
      ],
      "name": "setBalanceCap",
      "outputs": [],
      "stateMutability": "nonpayable",
      "type": "function"
    }
  ],
  "bytecode": "0x608060405234801561001057600080fd5b5061189e806100206000396000f3fe60806040526004361061012a5760003560e01c80637550baef116100ab57806394a68ef71161006f57806394a68ef714610384578063a04360b6146103a4578063db2f90ae146103c4578063e064e817146103d7578063ebd7445f146103f7578063f6dabb711461041757600080fd5b80637550baef1461028c57806386959b4b146103025780638a8bb03d1461032f5780638b6099db146103515780638bcd40161461036457600080fd5b80633cb581a1116100f25780633cb581a1146101ca57806349c03582146101f75780634bbf5b3c146102245780635f4950531461024457806367a74ddc1461026c57600080fd5b806309c144c91461012f5780630a69fca3146101625780630ac7f14414610175578063144c96241461019557806327c2f17c146101b7575b600080fd5b34801561013b57600080fd5b5061014f61014a36600461148d565b610437565b6040519081526020015b60405180910390f35b61014f61017036600461112b565b6104dc565b34801561018157600080fd5b5061014f610190366004611192565b6105ec565b3480156101a157600080fd5b506101b56101b03660046110ac565b61064b565b005b61014f6101c536600461148d565b6106ca565b3480156101d657600080fd5b506101ea6101e536600461145b565b61071a565b6040516101599190611766565b34801561020357600080fd5b50610217610212366004611088565b61084a565b6040516101599190611646565b34801561023057600080fd5b506101b561023f3660046110e5565b6108ea565b61025761025236600461148d565b610978565b60408051928352602083019190915201610159565b34801561027857600080fd5b506101b56102873660046110ac565b610a26565b34801561029857600080fd5b506102ac6102a7366004611192565b610a75565b6040516101599190600060e082019050825182526020830151602083015260408301516040830152606083015160608301526080830151608083015260a083015160a083015260c083015160c083015292915050565b34801561030e57600080fd5b5061032261031d366004611088565b610b4e565b6040516101599190611695565b34801561033b57600080fd5b50610344610be7565b6040516101599190611703565b61014f61035f3660046111be565b610c76565b34801561037057600080fd5b506101b561037f366004611088565b610d62565b34801561039057600080fd5b506101b561039f36600461145b565b610dd8565b3480156103b057600080fd5b506101b56103bf36600461148d565b610e1e565b61014f6103d236600461148d565b610e64565b3480156103e357600080fd5b506101b56103f2366004611192565b610ead565b34801561040357600080fd5b506101b5610412366004611088565b610efb565b34801561042357600080fd5b506101b561043236600461145b565b610f42565b6040516312959ed560e21b81526010600482015260006024820181905260448201849052606482018390529073__LoanManager___________________________90634a567b54906084015b60206040518083038186803b15801561049b57600080fd5b505af41580156104af573d6000803e3d6000fd5b505050506040513d601f19601f820116820180604052508101906104d39190611474565b90505b92915050565b6040805160c0810182526001600160a01b03888116825287811660208301908152828401888152606084018881526080850188815287851660a08701908152965163097e950160e31b81526010600482015260006024820181905260076044830152875187166064830152945186166084820152925160a4840152905160c48301525160e482015293519091166101048401529173__LoanManager___________________________90634bf4a808906101240160206040518083038186803b1580156105a857600080fd5b505af41580156105bc573d6000803e3d6000fd5b505050506040513d601f19601f820116820180604052508101906105e09190611474565b98975050505050505050565b60405163f9a8a23d60e01b815260106004820152600060248201819052600760448301526001600160a01b0384166064830152608482018390529073__LoanManager___________________________9063f9a8a23d9060a401610483565b60405163b4125fab60e01b8152601060048201526001600160a01b0380841660248301528216604482015273__LoanManager___________________________9063b4125fab906064015b60006040518083038186803b1580156106ae57600080fd5b505af41580156106c2573d6000803e3d6000fd5b505050505050565b6040516355e168c760e11b81526010600482015260076024820152604481018390526064810182905260009073__LoanManager___________________________9063abc2d18e90608401610483565b6107b86040518061022001604052806000151581526020016000801916815260200160006001600160a01b0316815260200160006001600160a01b03168152602001600081526020016000815260200160008152602001600081526020016000815260200160008152602001600081526020016000815260200160008152602001600081526020016000815260200160008152602001600081525090565b60405163eda4761560e01b815260106004820152600060248201526044810183905273__LoanManager___________________________9063eda47615906064016102206040518083038186803b15801561081257600080fd5b505af4158015610826573d6000803e3d6000fd5b505050506040513d601f19601f820116820180604052508101906104d691906114af565b60405163dd6b791d60e01b815260106004820152600060248201526001600160a01b038216604482015260609073__LoanManager___________________________9063dd6b791d9060640160006040518083038186803b1580156108ae57600080fd5b505af41580156108c2573d6000803e3d6000fd5b505050506040513d6000823e601f3d908101601f191682016040526104d69190810190611208565b6040516392f0341160e01b8152601060048201526001600160a01b03808616602483015284166044820152606481018390526084810182905273__LoanManager___________________________906392f034119060a40160006040518083038186803b15801561095a57600080fd5b505af415801561096e573d6000803e3d6000fd5b5050505050505050565b604051630c1af83160e21b81526010600482015260006024820181905260076044830152606482018490526084820183905290819073__LoanManager___________________________9063306be0c49060a401604080518083038186803b1580156109e357600080fd5b505af41580156109f7573d6000803e3d6000fd5b505050506040513d601f19601f82011682018060405250810190610a1b9190611550565b915091509250929050565b604051635562758f60e01b8152600060048201526001600160a01b0380841660248301528216604482015273__Configuration_________________________90635562758f90606401610696565b610ab56040518060e00160405280600081526020016000815260200160008152602001600081526020016000815260200160008152602001600081525090565b6040516352af126f60e01b8152600760048201526001600160a01b03841660248201526044810183905273__LiquidityPools________________________906352af126f9060640160e06040518083038186803b158015610b1657600080fd5b505af4158015610b2a573d6000803e3d6000fd5b505050506040513d601f19601f820116820180604052508101906104d391906114cc565b60405163991a26b360e01b8152600760048201526001600160a01b038216602482015260609073__LiquidityPools________________________9063991a26b39060440160006040518083038186803b158015610bab57600080fd5b505af4158015610bbf573d6000803e3d6000fd5b505050506040513d6000823e601f3d908101601f191682016040526104d691908101906112b1565b6040516364f9e96f60e11b81526010600482015260609073__LoanManager___________________________9063c9f3d2de9060240160006040518083038186803b158015610c3557600080fd5b505af4158015610c49573d6000803e3d6000fd5b505050506040513d6000823e601f3d908101601f19168201604052610c719190810190611388565b905090565b604080516080810182526001600160a01b03868116825260208201868152828401868152858316606085019081529451636aa1d5e360e01b8152600960048201526007602482015260006044820181905285518516606483015292516084820152905160a4820152935190911660c48401529173__DepositManager________________________90636aa1d5e39060e40160206040518083038186803b158015610d2057600080fd5b505af4158015610d34573d6000803e3d6000fd5b505050506040513d601f19601f82011682018060405250810190610d589190611474565b9695505050505050565b604051630d08a83960e41b8152600060048201526001600160a01b038216602482015273__Configuration_________________________9063d08a8390906044015b60006040518083038186803b158015610dbd57600080fd5b505af4158015610dd1573d6000803e3d6000fd5b5050505050565b604051630e273fb560e31b815260096004820152600760248201526044810182905273__DepositManager________________________90637139fda890606401610da5565b604051632b05cfad60e01b815260006004820152602481018390526044810182905273__Configuration_________________________90632b05cfad90606401610696565b604051633b502e2b60e01b815260106004820152602481018390526044810182905260009073__LoanManager___________________________90633b502e2b90606401610483565b604051633b7dd5d560e21b8152600060048201526001600160a01b03831660248201526044810182905273__Configuration_________________________9063edf7575490606401610696565b60405163486f118960e11b8152600960048201526001600160a01b038216602482015273__DepositManager________________________906390de231290604401610da5565b604051631421448b60e21b8152600760048201526024810182905273__LiquidityPools________________________90635085122c90604401610da5565b8051610f8c81611850565b919050565b80518015158114610f8c57600080fd5b60006102208284031215610fb457600080fd5b610fbc611775565b9050610fc782610f91565b815260208201516020820152610fdf60408301610f81565b6040820152610ff060608301610f81565b60608201526080828101519082015260a0808301519082015260c0808301519082015260e08083015190820152610100808301519082015261012080830151908201526101408083015190820152610160808301519082015261018080830151908201526101a080830151908201526101c080830151908201526101e080830151908201526102009182015191810191909152919050565b60006020828403121561109a57600080fd5b81356110a581611850565b9392505050565b600080604083850312156110bf57600080fd5b82356110ca81611850565b915060208301356110da81611850565b809150509250929050565b600080600080608085870312156110fb57600080fd5b843561110681611850565b9350602085013561111681611850565b93969395505050506040820135916060013590565b60008060008060008060c0878903121561114457600080fd5b863561114f81611850565b9550602087013561115f81611850565b945060408701359350606087013592506080870135915060a087013561118481611850565b809150509295509295509295565b600080604083850312156111a557600080fd5b82356111b081611850565b946020939093013593505050565b600080600080608085870312156111d457600080fd5b84356111df81611850565b9350602085013592506040850135915060608501356111fd81611850565b939692955090935050565b6000602080838503121561121b57600080fd5b825167ffffffffffffffff81111561123257600080fd5b8301601f8101851361124357600080fd5b805161125661125182611816565b6117e5565b81815283810190838501610220808502860187018a101561127657600080fd5b600095505b848610156112a35761128d8a83610fa1565b845260019590950194928601929081019061127b565b509098975050505050505050565b600060208083850312156112c457600080fd5b825167ffffffffffffffff8111156112db57600080fd5b8301601f810185136112ec57600080fd5b80516112fa61125182611816565b8181528381019083850160a0808502860187018a101561131957600080fd5b60009550855b858110156113795781838c031215611335578687fd5b61133d61179f565b8351815288840151898201526040808501519082015260608085015190820152608080850151908201528552938701939181019160010161131f565b50919998505050505050505050565b6000602080838503121561139b57600080fd5b825167ffffffffffffffff8111156113b257600080fd5b8301601f810185136113c357600080fd5b80516113d161125182611816565b80828252848201915084840188868560071b87010111156113f157600080fd5b60009450845b848110156112a357608080838c03121561140f578687fd5b6114176117c2565b835161142281611850565b81528389015161143181611850565b818a01526040848101519082015260608085015190820152855293870193909101906001016113f7565b60006020828403121561146d57600080fd5b5035919050565b60006020828403121561148657600080fd5b5051919050565b600080604083850312156114a057600080fd5b50508035926020909101359150565b600061022082840312156114c257600080fd5b6104d38383610fa1565b600060e082840312156114de57600080fd5b60405160e0810181811067ffffffffffffffff821117156115015761150161183a565b8060405250825181526020830151602082015260408301516040820152606083015160608201526080830151608082015260a083015160a082015260c083015160c08201528091505092915050565b6000806040838503121561156357600080fd5b505080516020909101519092909150565b80511515825260208101516020830152604081015161159e60408401826001600160a01b03169052565b5060608101516115b960608401826001600160a01b03169052565b506080818101519083015260a0808201519083015260c0808201519083015260e08082015190830152610100808201519083015261012080820151908301526101408082015190830152610160808201519083015261018080820151908301526101a080820151908301526101c080820151908301526101e0808201519083015261020090810151910152565b6020808252825182820181905260009190848201906040850190845b8181101561168957611675838551611574565b928401926102209290920191600101611662565b50909695505050505050565b602080825282518282018190526000919060409081850190868401855b828110156116f65781518051855286810151878601528581015186860152606080820151908601526080908101519085015260a090930192908501906001016116b2565b5091979650505050505050565b602080825282518282018190526000919060409081850190868401855b828110156116f657815180516001600160a01b03908116865287820151168786015285810151868601526060908101519085015260809093019290850190600101611720565b61022081016104d68284611574565b604051610220810167ffffffffffffffff811182821017156117995761179961183a565b60405290565b60405160a0810167ffffffffffffffff811182821017156117995761179961183a565b6040516080810167ffffffffffffffff811182821017156117995761179961183a565b604051601f8201601f1916810167ffffffffffffffff8111828210171561180e5761180e61183a565b604052919050565b600067ffffffffffffffff8211156118305761183061183a565b5060051b60200190565b634e487b7160e01b600052604160045260246000fd5b6001600160a01b038116811461186557600080fd5b5056fea26469706673582212204a3f89803c377ee9eabd4ff3f98ed360b497782c4354388b3b491b11ef2fd29964736f6c63430008070033",
  "immutableReferences": {},
  "source": "// SPDX-License-Identifier: UNLICENSED\npragma solidity ^0.8.7;\npragma experimental ABIEncoderV2;\n\nimport '../../oracle/interface/IPriceOracle.sol';\nimport '../interface/IInterestRateModel.sol';\nimport '../interface/IStruct.sol';\nimport '../lib/Configuration.sol';\nimport '../lib/LiquidityPools.sol';\nimport '../lib/DepositManager.sol';\nimport '../lib/LoanManager.sol';\n\ncontract LoanManagerMock {\n    using Configuration for Configuration.State;\n    using LiquidityPools for LiquidityPools.State;\n    using DepositManager for DepositManager.State;\n    using LoanManager for LoanManager.State;\n\n    Configuration.State _configuration;\n    LiquidityPools.State _liquidityPools;\n    DepositManager.State _depositManager;\n    LoanManager.State _loanManager;\n\n    function setMaxDistributorFeeRatios(\n        uint256 depositDistributorFeeRatio,\n        uint256 loanDistributorFeeRatio\n    ) external {\n        _configuration.setMaxDistributorFeeRatios(\n            depositDistributorFeeRatio,\n            loanDistributorFeeRatio\n        );\n    }\n\n    function loan(\n        address loanTokenAddress,\n        address collateralTokenAddress,\n        uint256 loanAmount,\n        uint256 collateralAmount,\n        uint256 loanTerm,\n        address payable distributorAddress\n    ) external payable returns (bytes32 loanId) {\n        IStruct.LoanParameters memory loanParameters = IStruct.LoanParameters({\n            loanTokenAddress: loanTokenAddress,\n            collateralTokenAddress: collateralTokenAddress,\n            loanAmount: loanAmount,\n            collateralAmount: collateralAmount,\n            loanTerm: loanTerm,\n            distributorAddress: distributorAddress\n        });\n\n        return\n            _loanManager.loan(_configuration, _liquidityPools, loanParameters);\n    }\n\n    function repayLoan(bytes32 loanId, uint256 repayAmount)\n        external\n        payable\n        returns (uint256 remainingDebt)\n    {\n        return _loanManager.repayLoan(_liquidityPools, loanId, repayAmount);\n    }\n\n    function liquidateLoan(bytes32 loanId, uint256 liquidateAmount)\n        external\n        payable\n        returns (uint256 remainingCollateral, uint256 liquidatedAmount)\n    {\n        return\n            _loanManager.liquidateLoan(\n                _configuration,\n                _liquidityPools,\n                loanId,\n                liquidateAmount\n            );\n    }\n\n    function getLoanRecordById(bytes32 loanId)\n        external\n        view\n        returns (IStruct.GetLoanRecordResponse memory loanRecord)\n    {\n        return _loanManager.getLoanRecordById(_configuration, loanId);\n    }\n\n    function getLoanRecordsByAccount(address accountAddress)\n        external\n        view\n        returns (IStruct.GetLoanRecordResponse[] memory loanRecordList)\n    {\n        return\n            _loanManager.getLoanRecordsByAccount(\n                _configuration,\n                accountAddress\n            );\n    }\n\n    function addCollateral(bytes32 loanId, uint256 collateralAmount)\n        external\n        payable\n        returns (uint256 totalCollateralAmount)\n    {\n        return _loanManager.addCollateral(loanId, collateralAmount);\n    }\n\n    function subtractCollateral(bytes32 loanId, uint256 collateralAmount)\n        external\n        returns (uint256 totalCollateralAmount)\n    {\n        return\n            _loanManager.subtractCollateral(\n                _configuration,\n                loanId,\n                collateralAmount\n            );\n    }\n\n    function setLoanAndCollateralTokenPair(\n        address loanTokenAddress,\n        address collateralTokenAddress,\n        uint256 minCollateralCoverageRatio,\n        uint256 liquidationDiscount\n    ) external {\n        _loanManager.setLoanAndCollateralTokenPair(\n            loanTokenAddress,\n            collateralTokenAddress,\n            minCollateralCoverageRatio,\n            liquidationDiscount\n        );\n    }\n\n    function removeLoanAndCollateralTokenPair(\n        address loanTokenAddress,\n        address collateralTokenAddress\n    ) external {\n        _loanManager.removeLoanAndCollateralTokenPair(\n            loanTokenAddress,\n            collateralTokenAddress\n        );\n    }\n\n    function getLoanAndCollateralTokenPairs()\n        external\n        view\n        returns (\n            IStruct.LoanAndCollateralTokenPair[]\n                memory loanAndCollateralTokenPairList\n        )\n    {\n        return _loanManager.getLoanAndCollateralTokenPairs();\n    }\n\n    /// --- Helpers ---\n\n    function enableDepositTerm(uint256 term) external {\n        _depositManager.enableDepositTerm(_liquidityPools, term);\n    }\n\n    function enableDepositToken(address tokenAddress) external {\n        _depositManager.enableDepositToken(tokenAddress);\n    }\n\n    function deposit(\n        address tokenAddress,\n        uint256 depositAmount,\n        uint256 depositTerm,\n        address payable distributorAddress\n    ) external payable returns (bytes32 depositId) {\n        IStruct.DepositParameters memory depositParameters = IStruct\n            .DepositParameters({\n                tokenAddress: tokenAddress,\n                depositAmount: depositAmount,\n                depositTerm: depositTerm,\n                distributorAddress: distributorAddress\n            });\n\n        return\n            _depositManager.deposit(\n                _liquidityPools,\n                _configuration,\n                depositParameters\n            );\n    }\n\n    function getLoanInterestRate(address tokenAddress, uint256 term)\n        external\n        view\n        returns (uint256 loanInterestRate)\n    {\n        return\n            _loanManager.getLoanInterestRate(\n                _configuration,\n                _liquidityPools,\n                tokenAddress,\n                term\n            );\n    }\n\n    function getPoolsByToken(address tokenAddress)\n        external\n        view\n        returns (IStruct.GetPoolsByTokenResponse[] memory poolList)\n    {\n        return _liquidityPools.getPoolsByToken(tokenAddress);\n    }\n\n    function getPoolById(address tokenAddress, uint256 poolId)\n        external\n        view\n        returns (IStruct.Pool memory pool)\n    {\n        return _liquidityPools.getPoolById(tokenAddress, poolId);\n    }\n\n    function setPriceOracle(address tokenAddress, IPriceOracle priceOracle)\n        external\n    {\n        _configuration.setPriceOracle(tokenAddress, priceOracle);\n    }\n\n    function setPoolGroupSize(uint256 poolGroupSize) external {\n        _liquidityPools.setPoolGroupSize(poolGroupSize);\n    }\n\n    function setInterestRateModel(IInterestRateModel interestRateModel)\n        external\n    {\n        _configuration.setInterestRateModel(interestRateModel);\n    }\n\n    function setBalanceCap(address tokenAddress, uint256 balanceCap) external {\n        _configuration.setBalanceCap(tokenAddress, balanceCap);\n    }\n}\n",
  "sourcePath": "/Users/liyangfan/Projects/WorkSpace/bluestone/contracts/protocol/mock/LoanManagerMock.sol",
  "compiler": {
    "name": "solc",
    "version": "0.8.7+commit.e28d00a7.Emscripten.clang"
  },
  "schemaVersion": "3.4.4",
  "updatedAt": "2022-11-01T09:41:33.048Z",
  "devdoc": {
    "kind": "dev",
    "methods": {},
    "version": 1
  },
  "userdoc": {
    "kind": "user",
    "methods": {
      "enableDepositTerm(uint256)": {
        "notice": "--- Helpers ---"
      }
    },
    "version": 1
  }
}