{
  "contractName": "LoanManagerMock",
  "abi": [
    {
      "inputs": [
        {
          "internalType": "uint256",
          "name": "depositDistributorFeeRatio",
          "type": "uint256"
        },
        {
          "internalType": "uint256",
          "name": "loanDistributorFeeRatio",
          "type": "uint256"
        }
      ],
      "name": "setMaxDistributorFeeRatios",
      "outputs": [],
      "stateMutability": "nonpayable",
      "type": "function"
    },
    {
      "inputs": [
        {
          "internalType": "address",
          "name": "loanTokenAddress",
          "type": "address"
        },
        {
          "internalType": "address",
          "name": "collateralTokenAddress",
          "type": "address"
        },
        {
          "internalType": "uint256",
          "name": "loanAmount",
          "type": "uint256"
        },
        {
          "internalType": "uint256",
          "name": "collateralAmount",
          "type": "uint256"
        },
        {
          "internalType": "uint256",
          "name": "loanTerm",
          "type": "uint256"
        },
        {
          "internalType": "address payable",
          "name": "distributorAddress",
          "type": "address"
        }
      ],
      "name": "loan",
      "outputs": [
        {
          "internalType": "bytes32",
          "name": "loanId",
          "type": "bytes32"
        }
      ],
      "stateMutability": "payable",
      "type": "function"
    },
    {
      "inputs": [
        {
          "internalType": "bytes32",
          "name": "loanId",
          "type": "bytes32"
        },
        {
          "internalType": "uint256",
          "name": "repayAmount",
          "type": "uint256"
        }
      ],
      "name": "repayLoan",
      "outputs": [
        {
          "internalType": "uint256",
          "name": "remainingDebt",
          "type": "uint256"
        }
      ],
      "stateMutability": "payable",
      "type": "function"
    },
    {
      "inputs": [
        {
          "internalType": "bytes32",
          "name": "loanId",
          "type": "bytes32"
        },
        {
          "internalType": "uint256",
          "name": "liquidateAmount",
          "type": "uint256"
        }
      ],
      "name": "liquidateLoan",
      "outputs": [
        {
          "internalType": "uint256",
          "name": "remainingCollateral",
          "type": "uint256"
        },
        {
          "internalType": "uint256",
          "name": "liquidatedAmount",
          "type": "uint256"
        }
      ],
      "stateMutability": "payable",
      "type": "function"
    },
    {
      "inputs": [
        {
          "internalType": "bytes32",
          "name": "loanId",
          "type": "bytes32"
        }
      ],
      "name": "getLoanRecordById",
      "outputs": [
        {
          "components": [
            {
              "internalType": "bool",
              "name": "isClosed",
              "type": "bool"
            },
            {
              "internalType": "bytes32",
              "name": "loanId",
              "type": "bytes32"
            },
            {
              "internalType": "address",
              "name": "loanTokenAddress",
              "type": "address"
            },
            {
              "internalType": "address",
              "name": "collateralTokenAddress",
              "type": "address"
            },
            {
              "internalType": "uint256",
              "name": "loanAmount",
              "type": "uint256"
            },
            {
              "internalType": "uint256",
              "name": "collateralAmount",
              "type": "uint256"
            },
            {
              "internalType": "uint256",
              "name": "loanTerm",
              "type": "uint256"
            },
            {
              "internalType": "uint256",
              "name": "annualInterestRate",
              "type": "uint256"
            },
            {
              "internalType": "uint256",
              "name": "interest",
              "type": "uint256"
            },
            {
              "internalType": "uint256",
              "name": "collateralCoverageRatio",
              "type": "uint256"
            },
            {
              "internalType": "uint256",
              "name": "minCollateralCoverageRatio",
              "type": "uint256"
            },
            {
              "internalType": "uint256",
              "name": "alreadyPaidAmount",
              "type": "uint256"
            },
            {
              "internalType": "uint256",
              "name": "liquidatedAmount",
              "type": "uint256"
            },
            {
              "internalType": "uint256",
              "name": "soldCollateralAmount",
              "type": "uint256"
            },
            {
              "internalType": "uint256",
              "name": "createdAt",
              "type": "uint256"
            },
            {
              "internalType": "uint256",
              "name": "dueAt",
              "type": "uint256"
            },
            {
              "internalType": "uint256",
              "name": "remainingDebt",
              "type": "uint256"
            }
          ],
          "internalType": "struct IStruct.GetLoanRecordResponse",
          "name": "loanRecord",
          "type": "tuple"
        }
      ],
      "stateMutability": "view",
      "type": "function"
    },
    {
      "inputs": [
        {
          "internalType": "address",
          "name": "accountAddress",
          "type": "address"
        }
      ],
      "name": "getLoanRecordsByAccount",
      "outputs": [
        {
          "components": [
            {
              "internalType": "bool",
              "name": "isClosed",
              "type": "bool"
            },
            {
              "internalType": "bytes32",
              "name": "loanId",
              "type": "bytes32"
            },
            {
              "internalType": "address",
              "name": "loanTokenAddress",
              "type": "address"
            },
            {
              "internalType": "address",
              "name": "collateralTokenAddress",
              "type": "address"
            },
            {
              "internalType": "uint256",
              "name": "loanAmount",
              "type": "uint256"
            },
            {
              "internalType": "uint256",
              "name": "collateralAmount",
              "type": "uint256"
            },
            {
              "internalType": "uint256",
              "name": "loanTerm",
              "type": "uint256"
            },
            {
              "internalType": "uint256",
              "name": "annualInterestRate",
              "type": "uint256"
            },
            {
              "internalType": "uint256",
              "name": "interest",
              "type": "uint256"
            },
            {
              "internalType": "uint256",
              "name": "collateralCoverageRatio",
              "type": "uint256"
            },
            {
              "internalType": "uint256",
              "name": "minCollateralCoverageRatio",
              "type": "uint256"
            },
            {
              "internalType": "uint256",
              "name": "alreadyPaidAmount",
              "type": "uint256"
            },
            {
              "internalType": "uint256",
              "name": "liquidatedAmount",
              "type": "uint256"
            },
            {
              "internalType": "uint256",
              "name": "soldCollateralAmount",
              "type": "uint256"
            },
            {
              "internalType": "uint256",
              "name": "createdAt",
              "type": "uint256"
            },
            {
              "internalType": "uint256",
              "name": "dueAt",
              "type": "uint256"
            },
            {
              "internalType": "uint256",
              "name": "remainingDebt",
              "type": "uint256"
            }
          ],
          "internalType": "struct IStruct.GetLoanRecordResponse[]",
          "name": "loanRecordList",
          "type": "tuple[]"
        }
      ],
      "stateMutability": "view",
      "type": "function"
    },
    {
      "inputs": [
        {
          "internalType": "bytes32",
          "name": "loanId",
          "type": "bytes32"
        },
        {
          "internalType": "uint256",
          "name": "collateralAmount",
          "type": "uint256"
        }
      ],
      "name": "addCollateral",
      "outputs": [
        {
          "internalType": "uint256",
          "name": "totalCollateralAmount",
          "type": "uint256"
        }
      ],
      "stateMutability": "payable",
      "type": "function"
    },
    {
      "inputs": [
        {
          "internalType": "bytes32",
          "name": "loanId",
          "type": "bytes32"
        },
        {
          "internalType": "uint256",
          "name": "collateralAmount",
          "type": "uint256"
        }
      ],
      "name": "subtractCollateral",
      "outputs": [
        {
          "internalType": "uint256",
          "name": "totalCollateralAmount",
          "type": "uint256"
        }
      ],
      "stateMutability": "nonpayable",
      "type": "function"
    },
    {
      "inputs": [
        {
          "internalType": "address",
          "name": "loanTokenAddress",
          "type": "address"
        },
        {
          "internalType": "address",
          "name": "collateralTokenAddress",
          "type": "address"
        },
        {
          "internalType": "uint256",
          "name": "minCollateralCoverageRatio",
          "type": "uint256"
        },
        {
          "internalType": "uint256",
          "name": "liquidationDiscount",
          "type": "uint256"
        }
      ],
      "name": "setLoanAndCollateralTokenPair",
      "outputs": [],
      "stateMutability": "nonpayable",
      "type": "function"
    },
    {
      "inputs": [
        {
          "internalType": "address",
          "name": "loanTokenAddress",
          "type": "address"
        },
        {
          "internalType": "address",
          "name": "collateralTokenAddress",
          "type": "address"
        }
      ],
      "name": "removeLoanAndCollateralTokenPair",
      "outputs": [],
      "stateMutability": "nonpayable",
      "type": "function"
    },
    {
      "inputs": [],
      "name": "getLoanAndCollateralTokenPairs",
      "outputs": [
        {
          "components": [
            {
              "internalType": "address",
              "name": "loanTokenAddress",
              "type": "address"
            },
            {
              "internalType": "address",
              "name": "collateralTokenAddress",
              "type": "address"
            },
            {
              "internalType": "uint256",
              "name": "minCollateralCoverageRatio",
              "type": "uint256"
            },
            {
              "internalType": "uint256",
              "name": "liquidationDiscount",
              "type": "uint256"
            }
          ],
          "internalType": "struct IStruct.LoanAndCollateralTokenPair[]",
          "name": "loanAndCollateralTokenPairList",
          "type": "tuple[]"
        }
      ],
      "stateMutability": "view",
      "type": "function"
    },
    {
      "inputs": [
        {
          "internalType": "uint256",
          "name": "term",
          "type": "uint256"
        }
      ],
      "name": "enableDepositTerm",
      "outputs": [],
      "stateMutability": "nonpayable",
      "type": "function"
    },
    {
      "inputs": [
        {
          "internalType": "address",
          "name": "tokenAddress",
          "type": "address"
        }
      ],
      "name": "enableDepositToken",
      "outputs": [],
      "stateMutability": "nonpayable",
      "type": "function"
    },
    {
      "inputs": [
        {
          "internalType": "address",
          "name": "tokenAddress",
          "type": "address"
        },
        {
          "internalType": "uint256",
          "name": "depositAmount",
          "type": "uint256"
        },
        {
          "internalType": "uint256",
          "name": "depositTerm",
          "type": "uint256"
        },
        {
          "internalType": "address payable",
          "name": "distributorAddress",
          "type": "address"
        }
      ],
      "name": "deposit",
      "outputs": [
        {
          "internalType": "bytes32",
          "name": "depositId",
          "type": "bytes32"
        }
      ],
      "stateMutability": "payable",
      "type": "function"
    },
    {
      "inputs": [
        {
          "internalType": "address",
          "name": "tokenAddress",
          "type": "address"
        },
        {
          "internalType": "uint256",
          "name": "term",
          "type": "uint256"
        }
      ],
      "name": "getLoanInterestRate",
      "outputs": [
        {
          "internalType": "uint256",
          "name": "loanInterestRate",
          "type": "uint256"
        }
      ],
      "stateMutability": "view",
      "type": "function"
    },
    {
      "inputs": [
        {
          "internalType": "address",
          "name": "tokenAddress",
          "type": "address"
        }
      ],
      "name": "getPoolsByToken",
      "outputs": [
        {
          "components": [
            {
              "internalType": "uint256",
              "name": "poolId",
              "type": "uint256"
            },
            {
              "internalType": "uint256",
              "name": "depositAmount",
              "type": "uint256"
            },
            {
              "internalType": "uint256",
              "name": "availableAmount",
              "type": "uint256"
            },
            {
              "internalType": "uint256",
              "name": "loanInterest",
              "type": "uint256"
            },
            {
              "internalType": "uint256",
              "name": "totalDepositWeight",
              "type": "uint256"
            }
          ],
          "internalType": "struct IStruct.GetPoolsByTokenResponse[]",
          "name": "poolList",
          "type": "tuple[]"
        }
      ],
      "stateMutability": "view",
      "type": "function"
    },
    {
      "inputs": [
        {
          "internalType": "address",
          "name": "tokenAddress",
          "type": "address"
        },
        {
          "internalType": "uint256",
          "name": "poolId",
          "type": "uint256"
        }
      ],
      "name": "getPoolById",
      "outputs": [
        {
          "components": [
            {
              "internalType": "uint256",
              "name": "depositAmount",
              "type": "uint256"
            },
            {
              "internalType": "uint256",
              "name": "availableAmount",
              "type": "uint256"
            },
            {
              "internalType": "uint256",
              "name": "loanInterest",
              "type": "uint256"
            },
            {
              "internalType": "uint256",
              "name": "totalDepositWeight",
              "type": "uint256"
            },
            {
              "internalType": "uint256",
              "name": "depositDistributorFeeRatio",
              "type": "uint256"
            },
            {
              "internalType": "uint256",
              "name": "loanDistributorFeeRatio",
              "type": "uint256"
            },
            {
              "internalType": "uint256",
              "name": "protocolReserveRatio",
              "type": "uint256"
            }
          ],
          "internalType": "struct IStruct.Pool",
          "name": "pool",
          "type": "tuple"
        }
      ],
      "stateMutability": "view",
      "type": "function"
    },
    {
      "inputs": [
        {
          "internalType": "address",
          "name": "tokenAddress",
          "type": "address"
        },
        {
          "internalType": "contract IPriceOracle",
          "name": "priceOracle",
          "type": "address"
        }
      ],
      "name": "setPriceOracle",
      "outputs": [],
      "stateMutability": "nonpayable",
      "type": "function"
    },
    {
      "inputs": [
        {
          "internalType": "uint256",
          "name": "poolGroupSize",
          "type": "uint256"
        }
      ],
      "name": "setPoolGroupSize",
      "outputs": [],
      "stateMutability": "nonpayable",
      "type": "function"
    },
    {
      "inputs": [
        {
          "internalType": "contract IInterestModel",
          "name": "interestModel",
          "type": "address"
        }
      ],
      "name": "setInterestModel",
      "outputs": [],
      "stateMutability": "nonpayable",
      "type": "function"
    },
    {
      "inputs": [
        {
          "internalType": "address",
          "name": "tokenAddress",
          "type": "address"
        },
        {
          "internalType": "uint256",
          "name": "balanceCap",
          "type": "uint256"
        }
      ],
      "name": "setBalanceCap",
      "outputs": [],
      "stateMutability": "nonpayable",
      "type": "function"
    }
  ],
  "bytecode": "0x608060405234801561001057600080fd5b5061193c806100206000396000f3fe60806040526004361061012a5760003560e01c80636e3f5d52116100ab57806394a68ef71161006f57806394a68ef714610337578063a04360b614610357578063db2f90ae14610377578063e064e8171461038a578063ebd7445f146103aa578063f6dabb71146103ca5761012a565b80636e3f5d52146102885780637550baef146102a857806386959b4b146102d55780638a8bb03d146103025780638b6099db146103245761012a565b80633cb581a1116100f25780633cb581a1146101cd57806349c03582146101fa5780634bbf5b3c146102275780635f4950531461024757806367a74ddc146102685761012a565b806309c144c91461012f5780630a69fca3146101655780630ac7f14414610178578063144c96241461019857806327c2f17c146101ba575b600080fd5b34801561013b57600080fd5b5061014f61014a36600461139a565b6103ea565b60405161015c9190611659565b60405180910390f35b61014f61017336600461103d565b610484565b34801561018457600080fd5b5061014f6101933660046110b5565b610564565b3480156101a457600080fd5b506101b86101b3366004610fc0565b6105a8565b005b61014f6101c836600461139a565b610618565b3480156101d957600080fd5b506101ed6101e836600461136a565b61065a565b60405161015c9190611662565b34801561020657600080fd5b5061021a610215366004610f9d565b6106f0565b60405161015c9190611539565b34801561023357600080fd5b506101b8610242366004610ff8565b610784565b61025a61025536600461139a565b6107fa565b60405161015c929190611778565b34801561027457600080fd5b506101b86102833660046110a3565b61089a565b34801561029457600080fd5b506101b86102a3366004610f9d565b6108d6565b3480156102b457600080fd5b506102c86102c33660046110b5565b610943565b60405161015c9190611671565b3480156102e157600080fd5b506102f56102f0366004610f9d565b6109d7565b60405161015c9190611588565b34801561030e57600080fd5b50610317610a68565b60405161015c91906115f6565b61014f6103323660046110e0565b610afc565b34801561034357600080fd5b506101b861035236600461136a565b610bcb565b34801561036357600080fd5b506101b861037236600461139a565b610c08565b61014f61038536600461139a565b610c44565b34801561039657600080fd5b506101b86103a53660046110b5565b610c83565b3480156103b657600080fd5b506101b86103c5366004610f9d565b610cbf565b3480156103d657600080fd5b506101b86103e536600461136a565b610cf9565b6040516312959ed560e21b815260009073__LoanManager___________________________90634a567b549061042b906010908590889088906004016117d4565b60206040518083038186803b15801561044357600080fd5b505af4158015610457573d6000803e3d6000fd5b505050506040513d601f19601f8201168201806040525081019061047b9190611382565b90505b92915050565b600061048e610d33565b506040805160c0810182526001600160a01b03808a16825288811660208301528183018890526060820187905260808201869052841660a0820152905163097e950160e31b815273__LoanManager___________________________90634bf4a8089061050890601090600090600790879060040161183e565b60206040518083038186803b15801561052057600080fd5b505af4158015610534573d6000803e3d6000fd5b505050506040513d601f19601f820116820180604052508101906105589190611382565b98975050505050505050565b60405163f9a8a23d60e01b815260009073__LoanManager___________________________9063f9a8a23d9061042b906010908590600790899089906004016117ef565b60405163b4125fab60e01b815273__LoanManager___________________________9063b4125fab906105e490601090869086906004016116bf565b60006040518083038186803b1580156105fc57600080fd5b505af4158015610610573d6000803e3d6000fd5b505050505050565b6040516355e168c760e11b815260009073__LoanManager___________________________9063abc2d18e9061042b90601090600790889088906004016117d4565b610662610d84565b60405163eda4761560e01b815273__LoanManager___________________________9063eda476159061069f906010906000908790600401611714565b6102206040518083038186803b1580156106b857600080fd5b505af41580156106cc573d6000803e3d6000fd5b505050506040513d601f19601f8201168201806040525081019061047e91906113bb565b60405163dd6b791d60e01b815260609073__LoanManager___________________________9063dd6b791d906107309060109060009087906004016117b5565b60006040518083038186803b15801561074857600080fd5b505af415801561075c573d6000803e3d6000fd5b505050506040513d6000823e601f3d908101601f1916820160405261047e9190810190611129565b6040516392f0341160e01b815273__LoanManager___________________________906392f03411906107c4906010908890889088908890600401611786565b60006040518083038186803b1580156107dc57600080fd5b505af41580156107f0573d6000803e3d6000fd5b5050505050505050565b604051630c1af83160e21b8152600090819073__LoanManager___________________________9063306be0c4906108409060109085906007908a908a9060040161181b565b604080518083038186803b15801561085757600080fd5b505af415801561086b573d6000803e3d6000fd5b505050506040513d601f19601f8201168201806040525081019061088f919061143c565b915091509250929050565b604051635562758f60e01b815273__Configuration_________________________90635562758f906105e490600090869086906004016116bf565b604051633e814c3b60e01b815273__Configuration_________________________90633e814c3b906109109060009085906004016116fd565b60006040518083038186803b15801561092857600080fd5b505af415801561093c573d6000803e3d6000fd5b5050505050565b61094b610e1f565b6040516352af126f60e01b815273__LiquidityPools________________________906352af126f9061098790600790879087906004016116de565b60e06040518083038186803b15801561099f57600080fd5b505af41580156109b3573d6000803e3d6000fd5b505050506040513d601f19601f8201168201806040525081019061047b91906113d7565b60405163991a26b360e01b815260609073__LiquidityPools________________________9063991a26b390610a149060079086906004016116fd565b60006040518083038186803b158015610a2c57600080fd5b505af4158015610a40573d6000803e3d6000fd5b505050506040513d6000823e601f3d908101601f1916820160405261047e91908101906111d0565b6040516364f9e96f60e11b815260609073__LoanManager___________________________9063c9f3d2de90610aa390601090600401611659565b60006040518083038186803b158015610abb57600080fd5b505af4158015610acf573d6000803e3d6000fd5b505050506040513d6000823e601f3d908101601f19168201604052610af7919081019061129a565b905090565b6000610b06610e5c565b50604080516080810182526001600160a01b03808816825260208201879052818301869052841660608201529051636aa1d5e360e01b815273__DepositManager________________________90636aa1d5e390610b7190600990600790600090879060040161172a565b60206040518083038186803b158015610b8957600080fd5b505af4158015610b9d573d6000803e3d6000fd5b505050506040513d601f19601f82011682018060405250810190610bc19190611382565b9695505050505050565b604051630e273fb560e31b815273__DepositManager________________________90637139fda890610910906009906007908690600401611714565b604051632b05cfad60e01b815273__Configuration_________________________90632b05cfad906105e49060009086908690600401611714565b604051633b502e2b60e01b815260009073__LoanManager___________________________90633b502e2b9061042b9060109087908790600401611714565b604051633b7dd5d560e21b815273__Configuration_________________________9063edf75754906105e490600090869086906004016116de565b60405163486f118960e11b815273__DepositManager________________________906390de2312906109109060099085906004016116fd565b604051631421448b60e21b815273__LiquidityPools________________________90635085122c90610910906007908590600401611778565b6040518060c0016040528060006001600160a01b0316815260200160006001600160a01b0316815260200160008152602001600081526020016000815260200160006001600160a01b031681525090565b6040518061022001604052806000151581526020016000801916815260200160006001600160a01b0316815260200160006001600160a01b03168152602001600081526020016000815260200160008152602001600081526020016000815260200160008152602001600081526020016000815260200160008152602001600081526020016000815260200160008152602001600081525090565b6040518060e00160405280600081526020016000815260200160008152602001600081526020016000815260200160008152602001600081525090565b604051806080016040528060006001600160a01b03168152602001600081526020016000815260200160006001600160a01b031681525090565b805161047e816118ee565b8051801515811461047e57600080fd5b6000610220808385031215610ec4578182fd5b610ecd816118a7565b915050610eda8383610ea1565b815260208201516020820152610ef38360408401610e96565b6040820152610f058360608401610e96565b60608201526080828101519082015260a0808301519082015260c0808301519082015260e08083015190820152610100808301519082015261012080830151908201526101408083015190820152610160808301519082015261018080830151908201526101a080830151908201526101c080830151908201526101e080830151908201526102009182015191810191909152919050565b600060208284031215610fae578081fd5b8135610fb9816118ee565b9392505050565b60008060408385031215610fd2578081fd5b8235610fdd816118ee565b91506020830135610fed816118ee565b809150509250929050565b6000806000806080858703121561100d578182fd5b8435611018816118ee565b93506020850135611028816118ee565b93969395505050506040820135916060013590565b60008060008060008060c08789031215611055578384fd5b8635611060816118ee565b95506020870135611070816118ee565b945060408701359350606087013592506080870135915060a0870135611095816118ee565b809150509295509295509295565b60008060408385031215610fd2578182fd5b600080604083850312156110c7578182fd5b82356110d2816118ee565b946020939093013593505050565b600080600080608085870312156110f5578182fd5b8435611100816118ee565b93506020850135925060408501359150606085013561111e816118ee565b939692955090935050565b6000602080838503121561113b578182fd5b825167ffffffffffffffff811115611151578283fd5b80840185601f820112611162578384fd5b80519150611177611172836118ce565b6118a7565b82815283810190828501610220808602850187018a1015611196578788fd5b8794505b858510156111c2576111ac8a83610eb1565b845260019490940193928601929081019061119a565b509098975050505050505050565b600060208083850312156111e2578182fd5b825167ffffffffffffffff8111156111f8578283fd5b80840185601f820112611209578384fd5b80519150611219611172836118ce565b8281528381019082850160a0808602850187018a1015611237578788fd5b8794505b858510156111c25780828b031215611251578788fd5b61125a816118a7565b825181528783015188820152604080840151908201526060808401519082015260808084015190820152845260019490940193928601929081019061123b565b600060208083850312156112ac578182fd5b825167ffffffffffffffff8111156112c2578283fd5b80840185601f8201126112d3578384fd5b805191506112e3611172836118ce565b828152838101908285016080808602850187018a1015611301578788fd5b8794505b858510156111c25780828b03121561131b578788fd5b611324816118a7565b61132e8b84610e96565b815261133c8b898501610e96565b8189015260408381015190820152606080840151908201528452600194909401939286019290810190611305565b60006020828403121561137b578081fd5b5035919050565b600060208284031215611393578081fd5b5051919050565b600080604083850312156113ac578182fd5b50508035926020909101359150565b600061022082840312156113cd578081fd5b61047b8383610eb1565b600060e082840312156113e8578081fd5b6113f260e06118a7565b825181526020830151602082015260408301516040820152606083015160608201526080830151608082015260a083015160a082015260c083015160c08201528091505092915050565b6000806040838503121561144e578182fd5b505080516020909101519092909150565b6001600160a01b03169052565b15159052565b61147d82825161146c565b602081015160208301526040810151611499604084018261145f565b5060608101516114ac606084018261145f565b506080818101519083015260a0808201519083015260c0808201519083015260e08082015190830152610100808201519083015261012080820151908301526101408082015190830152610160808201519083015261018080820151908301526101a080820151908301526101c080820151908301526101e0808201519083015261020090810151910152565b6020808252825182820181905260009190848201906040850190845b8181101561157c57611568838551611472565b928401926102209290920191600101611555565b50909695505050505050565b602080825282518282018190526000919060409081850190868401855b828110156115e95781518051855286810151878601528581015186860152606080820151908601526080908101519085015260a090930192908501906001016115a5565b5091979650505050505050565b602080825282518282018190526000919060409081850190868401855b828110156115e957815180516001600160a01b03908116865287820151168786015285810151868601526060908101519085015260809093019290850190600101611613565b90815260200190565b610220810161047e8284611472565b600060e082019050825182526020830151602083015260408301516040830152606083015160608301526080830151608083015260a083015160a083015260c083015160c083015292915050565b9283526001600160a01b03918216602084015216604082015260600190565b9283526001600160a01b03919091166020830152604082015260600190565b9182526001600160a01b0316602082015260400190565b9283526020830191909152604082015260600190565b93845260208085019390935260408085019290925280516001600160a01b039081166060808701919091529382015160808601529181015160a085015291909101511660c082015260e00190565b918252602082015260400190565b9485526001600160a01b0393841660208601529190921660408401526060830191909152608082015260a00190565b92835260208301919091526001600160a01b0316604082015260600190565b93845260208401929092526040830152606082015260800190565b948552602085019390935260408401919091526001600160a01b03166060830152608082015260a00190565b948552602085019390935260408401919091526060830152608082015260a00190565b60006101208201905085825284602083015283604083015260018060a01b03808451166060840152806020850151166080840152604084015160a0840152606084015160c0840152608084015160e08401528060a0850151166101008401525095945050505050565b60405181810167ffffffffffffffff811182821017156118c657600080fd5b604052919050565b600067ffffffffffffffff8211156118e4578081fd5b5060209081020190565b6001600160a01b038116811461190357600080fd5b5056fea2646970667358221220e0146cb9da68b64a0fb21300b76e26940409a09f31c98b9332893ec25617bb5064736f6c63430006070033",
  "immutableReferences": {},
  "source": "pragma solidity ^0.6.7;\npragma experimental ABIEncoderV2;\n\nimport '../../oracle/interface/IPriceOracle.sol';\nimport '../interface/IInterestModel.sol';\nimport '../interface/IStruct.sol';\nimport '../lib/Configuration.sol';\nimport '../lib/LiquidityPools.sol';\nimport '../lib/DepositManager.sol';\nimport '../lib/LoanManager.sol';\n\n\ncontract LoanManagerMock {\n    using Configuration for Configuration.State;\n    using LiquidityPools for LiquidityPools.State;\n    using DepositManager for DepositManager.State;\n    using LoanManager for LoanManager.State;\n\n    Configuration.State _configuration;\n    LiquidityPools.State _liquidityPools;\n    DepositManager.State _depositManager;\n    LoanManager.State _loanManager;\n\n    function setMaxDistributorFeeRatios(\n        uint256 depositDistributorFeeRatio,\n        uint256 loanDistributorFeeRatio\n    ) external {\n        _configuration.setMaxDistributorFeeRatios(\n            depositDistributorFeeRatio,\n            loanDistributorFeeRatio\n        );\n    }\n\n    function loan(\n        address loanTokenAddress,\n        address collateralTokenAddress,\n        uint256 loanAmount,\n        uint256 collateralAmount,\n        uint256 loanTerm,\n        address payable distributorAddress\n    ) external payable returns (bytes32 loanId) {\n        IStruct.LoanParameters memory loanParameters = IStruct.LoanParameters({\n            loanTokenAddress: loanTokenAddress,\n            collateralTokenAddress: collateralTokenAddress,\n            loanAmount: loanAmount,\n            collateralAmount: collateralAmount,\n            loanTerm: loanTerm,\n            distributorAddress: distributorAddress\n        });\n\n        return\n            _loanManager.loan(_configuration, _liquidityPools, loanParameters);\n    }\n\n    function repayLoan(bytes32 loanId, uint256 repayAmount)\n        external\n        payable\n        returns (uint256 remainingDebt)\n    {\n        return _loanManager.repayLoan(_liquidityPools, loanId, repayAmount);\n    }\n\n    function liquidateLoan(bytes32 loanId, uint256 liquidateAmount)\n        external\n        payable\n        returns (uint256 remainingCollateral, uint256 liquidatedAmount)\n    {\n        return\n            _loanManager.liquidateLoan(\n                _configuration,\n                _liquidityPools,\n                loanId,\n                liquidateAmount\n            );\n    }\n\n    function getLoanRecordById(bytes32 loanId)\n        external\n        view\n        returns (IStruct.GetLoanRecordResponse memory loanRecord)\n    {\n        return _loanManager.getLoanRecordById(_configuration, loanId);\n    }\n\n    function getLoanRecordsByAccount(address accountAddress)\n        external\n        view\n        returns (IStruct.GetLoanRecordResponse[] memory loanRecordList)\n    {\n        return\n            _loanManager.getLoanRecordsByAccount(\n                _configuration,\n                accountAddress\n            );\n    }\n\n    function addCollateral(bytes32 loanId, uint256 collateralAmount)\n        external\n        payable\n        returns (uint256 totalCollateralAmount)\n    {\n        return _loanManager.addCollateral(loanId, collateralAmount);\n    }\n\n    function subtractCollateral(bytes32 loanId, uint256 collateralAmount)\n        external\n        returns (uint256 totalCollateralAmount)\n    {\n        return\n            _loanManager.subtractCollateral(\n                _configuration,\n                loanId,\n                collateralAmount\n            );\n    }\n\n    function setLoanAndCollateralTokenPair(\n        address loanTokenAddress,\n        address collateralTokenAddress,\n        uint256 minCollateralCoverageRatio,\n        uint256 liquidationDiscount\n    ) external {\n        _loanManager.setLoanAndCollateralTokenPair(\n            loanTokenAddress,\n            collateralTokenAddress,\n            minCollateralCoverageRatio,\n            liquidationDiscount\n        );\n    }\n\n    function removeLoanAndCollateralTokenPair(\n        address loanTokenAddress,\n        address collateralTokenAddress\n    ) external {\n        _loanManager.removeLoanAndCollateralTokenPair(\n            loanTokenAddress,\n            collateralTokenAddress\n        );\n    }\n\n    function getLoanAndCollateralTokenPairs()\n        external\n        view\n        returns (\n            IStruct.LoanAndCollateralTokenPair[] memory loanAndCollateralTokenPairList\n        )\n    {\n        return _loanManager.getLoanAndCollateralTokenPairs();\n    }\n\n    /// --- Helpers ---\n\n    function enableDepositTerm(uint256 term) external {\n        _depositManager.enableDepositTerm(_liquidityPools, term);\n    }\n\n    function enableDepositToken(address tokenAddress) external {\n        _depositManager.enableDepositToken(tokenAddress);\n    }\n\n    function deposit(\n        address tokenAddress,\n        uint256 depositAmount,\n        uint256 depositTerm,\n        address payable distributorAddress\n    ) external payable returns (bytes32 depositId) {\n        IStruct.DepositParameters memory depositParameters = IStruct\n            .DepositParameters({\n            tokenAddress: tokenAddress,\n            depositAmount: depositAmount,\n            depositTerm: depositTerm,\n            distributorAddress: distributorAddress\n        });\n\n        return\n            _depositManager.deposit(\n                _liquidityPools,\n                _configuration,\n                depositParameters\n            );\n    }\n\n    function getLoanInterestRate(address tokenAddress, uint256 term)\n        external\n        view\n        returns (uint256 loanInterestRate)\n    {\n        return\n            _loanManager.getLoanInterestRate(\n                _configuration,\n                _liquidityPools,\n                tokenAddress,\n                term\n            );\n    }\n\n    function getPoolsByToken(address tokenAddress)\n        external\n        view\n        returns (IStruct.GetPoolsByTokenResponse[] memory poolList)\n    {\n        return _liquidityPools.getPoolsByToken(tokenAddress);\n    }\n\n    function getPoolById(address tokenAddress, uint256 poolId)\n        external\n        view\n        returns (IStruct.Pool memory pool)\n    {\n        return _liquidityPools.getPoolById(tokenAddress, poolId);\n    }\n\n    function setPriceOracle(address tokenAddress, IPriceOracle priceOracle)\n        external\n    {\n        _configuration.setPriceOracle(tokenAddress, priceOracle);\n    }\n\n    function setPoolGroupSize(uint256 poolGroupSize) external {\n        _liquidityPools.setPoolGroupSize(poolGroupSize);\n    }\n\n    function setInterestModel(IInterestModel interestModel) external {\n        _configuration.setInterestModel(interestModel);\n    }\n\n    function setBalanceCap(address tokenAddress, uint256 balanceCap) external {\n        _configuration.setBalanceCap(tokenAddress, balanceCap);\n    }\n}\n",
  "sourcePath": "/Users/ethereum/Projects/bluestone/bluestone/contracts/protocol/mock/LoanManagerMock.sol",
  "compiler": {
    "name": "solc",
    "version": "0.6.7+commit.b8d736ae.Emscripten.clang"
  },
  "schemaVersion": "3.1.0",
  "updatedAt": "2020-09-15T02:50:37.549Z",
  "devdoc": {
    "methods": {}
  },
  "userdoc": {
    "methods": {
      "enableDepositTerm(uint256)": {
        "notice": "--- Helpers ---"
      }
    }
  }
}