{
  "contractName": "MappingInterestRateModel",
  "abi": [
    {
      "anonymous": false,
      "inputs": [
        {
          "indexed": true,
          "internalType": "address",
          "name": "previousOwner",
          "type": "address"
        },
        {
          "indexed": true,
          "internalType": "address",
          "name": "newOwner",
          "type": "address"
        }
      ],
      "name": "OwnershipTransferred",
      "type": "event"
    },
    {
      "inputs": [],
      "name": "owner",
      "outputs": [
        {
          "internalType": "address",
          "name": "",
          "type": "address"
        }
      ],
      "stateMutability": "view",
      "type": "function",
      "constant": true
    },
    {
      "inputs": [],
      "name": "renounceOwnership",
      "outputs": [],
      "stateMutability": "nonpayable",
      "type": "function"
    },
    {
      "inputs": [
        {
          "internalType": "address",
          "name": "newOwner",
          "type": "address"
        }
      ],
      "name": "transferOwnership",
      "outputs": [],
      "stateMutability": "nonpayable",
      "type": "function"
    },
    {
      "inputs": [
        {
          "internalType": "uint256",
          "name": "amount",
          "type": "uint256"
        },
        {
          "internalType": "uint256",
          "name": "term",
          "type": "uint256"
        }
      ],
      "name": "getDepositWeight",
      "outputs": [
        {
          "internalType": "uint256",
          "name": "",
          "type": "uint256"
        }
      ],
      "stateMutability": "pure",
      "type": "function",
      "constant": true
    },
    {
      "inputs": [
        {
          "internalType": "address",
          "name": "tokenAddress",
          "type": "address"
        },
        {
          "internalType": "uint256",
          "name": "loanTerm",
          "type": "uint256"
        },
        {
          "internalType": "uint256",
          "name": "maxLoanTerm",
          "type": "uint256"
        }
      ],
      "name": "getLoanInterestRate",
      "outputs": [
        {
          "internalType": "uint256",
          "name": "loanInterestRate",
          "type": "uint256"
        }
      ],
      "stateMutability": "view",
      "type": "function",
      "constant": true
    },
    {
      "inputs": [
        {
          "internalType": "address",
          "name": "tokenAddress",
          "type": "address"
        }
      ],
      "name": "getAllRates",
      "outputs": [
        {
          "internalType": "uint256[]",
          "name": "termList",
          "type": "uint256[]"
        },
        {
          "internalType": "uint256[]",
          "name": "interestRateList",
          "type": "uint256[]"
        }
      ],
      "stateMutability": "view",
      "type": "function",
      "constant": true
    },
    {
      "inputs": [
        {
          "internalType": "address",
          "name": "tokenAddress",
          "type": "address"
        },
        {
          "internalType": "uint256[]",
          "name": "loanTerms",
          "type": "uint256[]"
        },
        {
          "internalType": "uint256[]",
          "name": "loanInterestRates",
          "type": "uint256[]"
        }
      ],
      "name": "setRates",
      "outputs": [],
      "stateMutability": "nonpayable",
      "type": "function"
    }
  ],
  "bytecode": "0x608060405234801561001057600080fd5b5061001a3361001f565b61006f565b600080546001600160a01b038381166001600160a01b0319831681178455604051919092169283917f8be0079c531659141344cd1fd0a4f28419497f9722a3daafe3b4186f6b6457e09190a35050565b6109398061007e6000396000f3fe608060405234801561001057600080fd5b506004361061007d5760003560e01c8063715018a61161005b578063715018a6146100dc5780638da5cb5b146100e6578063b390e4b314610101578063f2fde38b1461011457600080fd5b80634ddaf8dc146100825780635ac0e1d2146100a85780636e0921bc146100bb575b600080fd5b6100956100903660046107d2565b610127565b6040519081526020015b60405180910390f35b6100956100b6366004610805565b610231565b6100ce6100c9366004610736565b610244565b60405161009f929190610862565b6100e461036f565b005b6000546040516001600160a01b03909116815260200161009f565b6100e461010f366004610751565b610383565b6100e4610122366004610736565b61054b565b6001600160a01b03831660009081526002602052604081205460ff166101a45760405162461bcd60e51b815260206004820152602760248201527f496e746572657374526174654d6f64656c3a20746f6b656e206973206e6f7420604482015266195b98589b195960ca1b60648201526084015b60405180910390fd5b6001600160a01b038416600090815260016020818152604080842087855292830190915290912054806102285760405162461bcd60e51b815260206004820152602660248201527f496e746572657374526174654d6f64656c3a207465726d206973206e6f7420656044820152651b98589b195960d21b606482015260840161019b565b95945050505050565b600061023d8284610887565b9392505050565b6001600160a01b03811660009081526001602090815260409182902080548351818402810184019094528084526060938493909183918301828280156102a957602002820191906000526020600020905b815481526020019060010190808311610295575b50508454939650505067ffffffffffffffff82111590506102cc576102cc6108ed565b6040519080825280602002602001820160405280156102f5578160200160208202803683370190505b50915060005b82518110156103685781600101600083600001838154811061031f5761031f6108d7565b906000526020600020015481526020019081526020016000205483828151811061034b5761034b6108d7565b602090810291909101015280610360816108a6565b9150506102fb565b5050915091565b6103776105c4565b610381600061061e565b565b61038b6105c4565b82811461041f5760405162461bcd60e51b815260206004820152605660248201527f496e746572657374526174654d6f64656c3a20746865206c656e677468206f6660448201527f206c6f616e5465726d73206172726179206d75737420657175616c20746f206c6064820152756f616e496e746572657374526174657320617272617960501b608482015260a40161019b565b6001600160a01b038516600090815260016020526040902061044281868661066e565b5060005b8481101561051f576000848483818110610462576104626108d7565b905060200201359050600081116104d95760405162461bcd60e51b815260206004820152603560248201527f496e746572657374526174654d6f64656c3a206c6f616e20696e74657265737460448201527420726174652063616e206e6f74206265207a65726f60581b606482015260840161019b565b808360010160008989868181106104f2576104f26108d7565b90506020020135815260200190815260200160002081905550508080610517906108a6565b915050610446565b5050506001600160a01b039093166000908152600260205260409020805460ff19166001179055505050565b6105536105c4565b6001600160a01b0381166105b85760405162461bcd60e51b815260206004820152602660248201527f4f776e61626c653a206e6577206f776e657220697320746865207a65726f206160448201526564647265737360d01b606482015260840161019b565b6105c18161061e565b50565b6000546001600160a01b031633146103815760405162461bcd60e51b815260206004820181905260248201527f4f776e61626c653a2063616c6c6572206973206e6f7420746865206f776e6572604482015260640161019b565b600080546001600160a01b038381166001600160a01b0319831681178455604051919092169283917f8be0079c531659141344cd1fd0a4f28419497f9722a3daafe3b4186f6b6457e09190a35050565b8280548282559060005260206000209081019282156106a9579160200282015b828111156106a957823582559160200191906001019061068e565b506106b59291506106b9565b5090565b5b808211156106b557600081556001016106ba565b80356001600160a01b03811681146106e557600080fd5b919050565b60008083601f8401126106fc57600080fd5b50813567ffffffffffffffff81111561071457600080fd5b6020830191508360208260051b850101111561072f57600080fd5b9250929050565b60006020828403121561074857600080fd5b61023d826106ce565b60008060008060006060868803121561076957600080fd5b610772866106ce565b9450602086013567ffffffffffffffff8082111561078f57600080fd5b61079b89838a016106ea565b909650945060408801359150808211156107b457600080fd5b506107c1888289016106ea565b969995985093965092949392505050565b6000806000606084860312156107e757600080fd5b6107f0846106ce565b95602085013595506040909401359392505050565b6000806040838503121561081857600080fd5b50508035926020909101359150565b600081518084526020808501945080840160005b838110156108575781518752958201959082019060010161083b565b509495945050505050565b6040815260006108756040830185610827565b82810360208401526102288185610827565b60008160001904831182151516156108a1576108a16108c1565b500290565b60006000198214156108ba576108ba6108c1565b5060010190565b634e487b7160e01b600052601160045260246000fd5b634e487b7160e01b600052603260045260246000fd5b634e487b7160e01b600052604160045260246000fdfea2646970667358221220398e4a6afd3011c7b4132dd370f2f6f07716ab0d4094caed807b91b304287be864736f6c63430008070033",
  "immutableReferences": {},
  "source": "// SPDX-License-Identifier: UNLICENSED\npragma solidity ^0.8.7;\n\nimport '@openzeppelin/contracts/access/Ownable.sol';\nimport '../interface/IInterestRateModel.sol';\n\ncontract MappingInterestRateModel is IInterestRateModel, Ownable {\n    mapping(address => InterestRateDetail) _interestRateDetailByTokenAddress;\n    mapping(address => bool) private _isTokenAvailable;\n\n    struct InterestRateDetail {\n        uint256[] termList;\n        mapping(uint256 => uint256) interestRateByTerm;\n    }\n\n    function getDepositWeight(uint256 amount, uint256 term)\n        external\n        pure\n        override\n        returns (uint256)\n    {\n        return amount * term;\n    }\n\n    function getLoanInterestRate(\n        address tokenAddress,\n        uint256 loanTerm,\n        uint256 maxLoanTerm\n    ) external view override returns (uint256 loanInterestRate) {\n        require(\n            _isTokenAvailable[tokenAddress],\n            'InterestRateModel: token is not enabled'\n        );\n        InterestRateDetail\n            storage interestRateDetail = _interestRateDetailByTokenAddress[\n                tokenAddress\n            ];\n        uint256 rate = interestRateDetail.interestRateByTerm[loanTerm];\n        require(rate != 0, 'InterestRateModel: term is not enabled');\n        return rate;\n    }\n\n    function getAllRates(address tokenAddress)\n        external\n        view\n        returns (uint256[] memory termList, uint256[] memory interestRateList)\n    {\n        InterestRateDetail\n            storage interestRateDetail = _interestRateDetailByTokenAddress[\n                tokenAddress\n            ];\n\n        termList = interestRateDetail.termList;\n\n        interestRateList = new uint256[](\n            interestRateDetail.termList.length\n        );\n        for (uint256 i = 0; i < interestRateList.length; i++) {\n            interestRateList[i] = interestRateDetail.interestRateByTerm[\n                interestRateDetail.termList[i]\n            ];\n        }\n\n        // return (interestRateDetail.termList, interestRateList);\n    }\n\n    function setRates(\n        address tokenAddress,\n        uint256[] calldata loanTerms,\n        uint256[] calldata loanInterestRates\n    ) external onlyOwner {\n        require(\n            loanTerms.length == loanInterestRates.length,\n            'InterestRateModel: the length of loanTerms array must equal to loanInterestRates array'\n        );\n        InterestRateDetail\n            storage interestRateDetail = _interestRateDetailByTokenAddress[\n                tokenAddress\n            ];\n        interestRateDetail.termList = loanTerms;\n        for (uint256 i = 0; i < loanTerms.length; i++) {\n            uint256 rate = loanInterestRates[i];\n            require(\n                rate > 0,\n                'InterestRateModel: loan interest rate can not be zero'\n            );\n            interestRateDetail.interestRateByTerm[loanTerms[i]] = rate;\n        }\n        _isTokenAvailable[tokenAddress] = true;\n    }\n}\n",
  "sourcePath": "/Users/liyangfan/Projects/WorkSpace/bluestone/contracts/protocol/interestRateModels/MappingInterestRateModel.sol",
  "compiler": {
    "name": "solc",
    "version": "0.8.7+commit.e28d00a7.Emscripten.clang"
  },
  "schemaVersion": "3.4.4",
  "updatedAt": "2022-11-01T13:56:14.065Z",
  "networkType": "ethereum",
  "devdoc": {
    "kind": "dev",
    "methods": {
      "owner()": {
        "details": "Returns the address of the current owner."
      },
      "renounceOwnership()": {
        "details": "Leaves the contract without owner. It will not be possible to call `onlyOwner` functions anymore. Can only be called by the current owner. NOTE: Renouncing ownership will leave the contract without an owner, thereby removing any functionality that is only available to the owner."
      },
      "transferOwnership(address)": {
        "details": "Transfers ownership of the contract to a new account (`newOwner`). Can only be called by the current owner."
      }
    },
    "version": 1
  },
  "userdoc": {
    "kind": "user",
    "methods": {},
    "version": 1
  }
}