{
  "contractName": "MedianizerMock",
  "abi": [
    {
      "inputs": [
        {
          "internalType": "uint256",
          "name": "price",
          "type": "uint256"
        }
      ],
      "name": "setPrice",
      "outputs": [],
      "stateMutability": "nonpayable",
      "type": "function"
    },
    {
      "inputs": [],
      "name": "peek",
      "outputs": [
        {
          "internalType": "bytes32",
          "name": "",
          "type": "bytes32"
        },
        {
          "internalType": "bool",
          "name": "",
          "type": "bool"
        }
      ],
      "stateMutability": "view",
      "type": "function"
    },
    {
      "inputs": [],
      "name": "read",
      "outputs": [
        {
          "internalType": "bytes32",
          "name": "",
          "type": "bytes32"
        }
      ],
      "stateMutability": "view",
      "type": "function"
    }
  ],
  "bytecode": "0x608060405234801561001057600080fd5b5060fb8061001f6000396000f3fe6080604052348015600f57600080fd5b5060043610603c5760003560e01c806357de26a414604157806359e02dd714605a57806391b7f5ed146077575b600080fd5b60476095565b6040519081526020015b60405180910390f35b60005460015460ff16604080519283529015156020830152016051565b6093608236600460ad565b6000556001805460ff191681179055565b005b60015460009060ff1660a657600080fd5b5060005490565b60006020828403121560be57600080fd5b503591905056fea2646970667358221220d6614219684cd6f951ebe37e55769a0bd596d1a314a9838610aa57b533e3341264736f6c63430008070033",
  "immutableReferences": {},
  "source": "// SPDX-License-Identifier: UNLICENSED\npragma solidity ^0.8.7;\n\nimport '../interface/IMedianizer.sol';\n\n\ncontract MedianizerMock is IMedianizer {\n    uint256 val;\n    bool has;\n\n    function setPrice(uint256 price) external {\n        val = price;\n        has = true;\n    }\n\n    function peek() external override view returns (bytes32, bool) {\n        return (bytes32(val), has);\n    }\n\n    function read() external override view returns (bytes32) {\n        require(has);\n\n        return bytes32(val);\n    }\n}\n",
  "sourcePath": "/Users/liyangfan/Projects/WorkSpace/bluestone/contracts/common/mock/MedianizerMock.sol",
  "compiler": {
    "name": "solc",
    "version": "0.8.7+commit.e28d00a7.Emscripten.clang"
  },
  "schemaVersion": "3.4.4",
  "updatedAt": "2022-09-02T13:05:37.244Z",
  "devdoc": {
    "kind": "dev",
    "methods": {},
    "version": 1
  },
  "userdoc": {
    "kind": "user",
    "methods": {},
    "version": 1
  }
}