{
  "contractName": "MedianizerMock",
  "abi": [
    {
      "inputs": [
        {
          "internalType": "uint256",
          "name": "price",
          "type": "uint256"
        }
      ],
      "name": "setPrice",
      "outputs": [],
      "stateMutability": "nonpayable",
      "type": "function"
    },
    {
      "inputs": [],
      "name": "peek",
      "outputs": [
        {
          "internalType": "bytes32",
          "name": "",
          "type": "bytes32"
        },
        {
          "internalType": "bool",
          "name": "",
          "type": "bool"
        }
      ],
      "stateMutability": "view",
      "type": "function"
    },
    {
      "inputs": [],
      "name": "read",
      "outputs": [
        {
          "internalType": "bytes32",
          "name": "",
          "type": "bytes32"
        }
      ],
      "stateMutability": "view",
      "type": "function"
    }
  ],
  "bytecode": "0x608060405234801561001057600080fd5b50610100806100206000396000f3fe6080604052348015600f57600080fd5b5060043610603c5760003560e01c806357de26a414604157806359e02dd714605957806391b7f5ed146078575b600080fd5b60476094565b60408051918252519081900360200190f35b605f60ac565b6040805192835290151560208301528051918290030190f35b609260048036036020811015608c57600080fd5b503560b9565b005b60015460009060ff1660a557600080fd5b5060005490565b60005460015460ff169091565b6000556001805460ff19168117905556fea26469706673582212201398a26fa92b72650d3cbe8fbdda472163b3cd03d74398df9660200bd7a82e5b64736f6c63430006070033",
  "immutableReferences": {},
  "source": "pragma solidity ^0.6.7;\n\nimport '../interface/IMedianizer.sol';\n\n\ncontract MedianizerMock is IMedianizer {\n    uint256 val;\n    bool has;\n\n    function setPrice(uint256 price) external {\n        val = price;\n        has = true;\n    }\n\n    function peek() external override view returns (bytes32, bool) {\n        return (bytes32(val), has);\n    }\n\n    function read() external override view returns (bytes32) {\n        require(has);\n\n        return bytes32(val);\n    }\n}\n",
  "sourcePath": "/Users/tianyouluo/codes/bluestone/contracts/common/mock/MedianizerMock.sol",
  "compiler": {
    "name": "solc",
    "version": "0.6.7+commit.b8d736ae.Emscripten.clang"
  },
  "schemaVersion": "3.3.3",
  "updatedAt": "2021-05-28T02:21:29.952Z",
  "networkType": "ethereum",
  "devdoc": {
    "methods": {}
  },
  "userdoc": {
    "methods": {}
  }
}