{
  "contractName": "OasisDexMock",
  "abi": [
    {
      "inputs": [],
      "name": "stopped",
      "outputs": [
        {
          "internalType": "bool",
          "name": "",
          "type": "bool"
        }
      ],
      "stateMutability": "view",
      "type": "function"
    },
    {
      "inputs": [],
      "name": "buyEnabled",
      "outputs": [
        {
          "internalType": "bool",
          "name": "",
          "type": "bool"
        }
      ],
      "stateMutability": "pure",
      "type": "function"
    },
    {
      "inputs": [],
      "name": "matchingEnabled",
      "outputs": [
        {
          "internalType": "bool",
          "name": "",
          "type": "bool"
        }
      ],
      "stateMutability": "pure",
      "type": "function"
    },
    {
      "inputs": [],
      "name": "isClosed",
      "outputs": [
        {
          "internalType": "bool",
          "name": "",
          "type": "bool"
        }
      ],
      "stateMutability": "view",
      "type": "function"
    },
    {
      "inputs": [
        {
          "internalType": "uint256",
          "name": "ethPrice",
          "type": "uint256"
        }
      ],
      "name": "setEthPrice",
      "outputs": [],
      "stateMutability": "nonpayable",
      "type": "function"
    },
    {
      "inputs": [
        {
          "internalType": "uint256",
          "name": "buyAmount",
          "type": "uint256"
        }
      ],
      "name": "setBuyAmount",
      "outputs": [],
      "stateMutability": "nonpayable",
      "type": "function"
    },
    {
      "inputs": [
        {
          "internalType": "uint256",
          "name": "payAmount",
          "type": "uint256"
        }
      ],
      "name": "setPayAmount",
      "outputs": [],
      "stateMutability": "nonpayable",
      "type": "function"
    },
    {
      "inputs": [
        {
          "internalType": "address",
          "name": "",
          "type": "address"
        },
        {
          "internalType": "address",
          "name": "",
          "type": "address"
        },
        {
          "internalType": "uint256",
          "name": "",
          "type": "uint256"
        }
      ],
      "name": "getBuyAmount",
      "outputs": [
        {
          "internalType": "uint256",
          "name": "",
          "type": "uint256"
        }
      ],
      "stateMutability": "view",
      "type": "function"
    },
    {
      "inputs": [
        {
          "internalType": "address",
          "name": "",
          "type": "address"
        },
        {
          "internalType": "address",
          "name": "",
          "type": "address"
        },
        {
          "internalType": "uint256",
          "name": "",
          "type": "uint256"
        }
      ],
      "name": "getPayAmount",
      "outputs": [
        {
          "internalType": "uint256",
          "name": "",
          "type": "uint256"
        }
      ],
      "stateMutability": "view",
      "type": "function"
    }
  ],
  "bytecode": "0x608060405234801561001057600080fd5b506101e7806100206000396000f3fe608060405234801561001057600080fd5b50600436106100925760003560e01c8063c2b6b58c11610066578063c2b6b58c146100f7578063c318266b14610102578063ef8e5aee14610115578063f582d293146100ac578063ff1fd9741461012857600080fd5b80629f92621461009757806301492a0b146100ac578063144a2752146100c457806375f12b21146100ea575b600080fd5b6100aa6100a5366004610198565b600155565b005b60015b60405190151581526020015b60405180910390f35b6100dc6100d236600461015c565b6002549392505050565b6040519081526020016100bb565b6000546100af9060ff1681565b60005460ff166100af565b6100aa610110366004610198565b600355565b6100aa610123366004610198565b600255565b6100dc61013636600461015c565b6003549392505050565b80356001600160a01b038116811461015757600080fd5b919050565b60008060006060848603121561017157600080fd5b61017a84610140565b925061018860208501610140565b9150604084013590509250925092565b6000602082840312156101aa57600080fd5b503591905056fea26469706673582212200d2cb793d121fbc9d983e95d6215a9cd578e08d85356282cbb79714555d4e57864736f6c63430008070033",
  "immutableReferences": {},
  "source": "// SPDX-License-Identifier: UNLICENSED\npragma solidity ^0.8.7;\n\nimport '../interface/IOasisDex.sol';\n\n\ncontract OasisDexMock is IOasisDex {\n    bool public stopped;\n    uint256 private _ethPrice;\n    uint256 private _buyAmount;\n    uint256 private _payAmount;\n\n    function buyEnabled() external override pure returns (bool) {\n        return true;\n    }\n\n    function matchingEnabled() external override pure returns (bool) {\n        return true;\n    }\n\n    function isClosed() external override view returns (bool) {\n        return stopped;\n    }\n\n    function setEthPrice(uint256 ethPrice) external {\n        _ethPrice = ethPrice;\n    }\n\n    function setBuyAmount(uint256 buyAmount) external {\n        _buyAmount = buyAmount;\n    }\n\n    function setPayAmount(uint256 payAmount) external {\n        _payAmount = payAmount;\n    }\n\n    function getBuyAmount(\n        address, /* buy_gem */\n        address, /* pay_gem */\n        uint256 /* pay_amt */\n    ) external override view returns (uint256) {\n        return _buyAmount;\n    }\n\n    function getPayAmount(\n        address, /* pay_gem */\n        address, /* buy_gem */\n        uint256 /* buy_amt */\n    ) external override view returns (uint256) {\n        return _payAmount;\n    }\n}\n",
  "sourcePath": "/Users/liyangfan/Projects/WorkSpace/bluestone/contracts/common/mock/OasisDexMock.sol",
  "compiler": {
    "name": "solc",
    "version": "0.8.7+commit.e28d00a7.Emscripten.clang"
  },
  "schemaVersion": "3.4.4",
  "updatedAt": "2022-09-02T13:05:37.245Z",
  "devdoc": {
    "kind": "dev",
    "methods": {},
    "version": 1
  },
  "userdoc": {
    "kind": "user",
    "methods": {},
    "version": 1
  }
}