{
  "contractName": "OasisDexMock",
  "abi": [
    {
      "inputs": [],
      "name": "stopped",
      "outputs": [
        {
          "internalType": "bool",
          "name": "",
          "type": "bool"
        }
      ],
      "stateMutability": "view",
      "type": "function"
    },
    {
      "inputs": [],
      "name": "buyEnabled",
      "outputs": [
        {
          "internalType": "bool",
          "name": "",
          "type": "bool"
        }
      ],
      "stateMutability": "view",
      "type": "function"
    },
    {
      "inputs": [],
      "name": "matchingEnabled",
      "outputs": [
        {
          "internalType": "bool",
          "name": "",
          "type": "bool"
        }
      ],
      "stateMutability": "view",
      "type": "function"
    },
    {
      "inputs": [],
      "name": "isClosed",
      "outputs": [
        {
          "internalType": "bool",
          "name": "",
          "type": "bool"
        }
      ],
      "stateMutability": "view",
      "type": "function"
    },
    {
      "inputs": [
        {
          "internalType": "uint256",
          "name": "ethPrice",
          "type": "uint256"
        }
      ],
      "name": "setEthPrice",
      "outputs": [],
      "stateMutability": "nonpayable",
      "type": "function"
    },
    {
      "inputs": [
        {
          "internalType": "uint256",
          "name": "buyAmount",
          "type": "uint256"
        }
      ],
      "name": "setBuyAmount",
      "outputs": [],
      "stateMutability": "nonpayable",
      "type": "function"
    },
    {
      "inputs": [
        {
          "internalType": "uint256",
          "name": "payAmount",
          "type": "uint256"
        }
      ],
      "name": "setPayAmount",
      "outputs": [],
      "stateMutability": "nonpayable",
      "type": "function"
    },
    {
      "inputs": [
        {
          "internalType": "address",
          "name": "",
          "type": "address"
        },
        {
          "internalType": "address",
          "name": "",
          "type": "address"
        },
        {
          "internalType": "uint256",
          "name": "",
          "type": "uint256"
        }
      ],
      "name": "getBuyAmount",
      "outputs": [
        {
          "internalType": "uint256",
          "name": "",
          "type": "uint256"
        }
      ],
      "stateMutability": "view",
      "type": "function"
    },
    {
      "inputs": [
        {
          "internalType": "address",
          "name": "",
          "type": "address"
        },
        {
          "internalType": "address",
          "name": "",
          "type": "address"
        },
        {
          "internalType": "uint256",
          "name": "",
          "type": "uint256"
        }
      ],
      "name": "getPayAmount",
      "outputs": [
        {
          "internalType": "uint256",
          "name": "",
          "type": "uint256"
        }
      ],
      "stateMutability": "view",
      "type": "function"
    }
  ],
  "bytecode": "0x608060405234801561001057600080fd5b5061020a806100206000396000f3fe608060405234801561001057600080fd5b50600436106100925760003560e01c8063c2b6b58c11610066578063c2b6b58c14610122578063c318266b1461012a578063ef8e5aee14610147578063f582d293146100b6578063ff1fd9741461016457610092565b80629f92621461009757806301492a0b146100b6578063144a2752146100d257806375f12b211461011a575b600080fd5b6100b4600480360360208110156100ad57600080fd5b503561019a565b005b6100be61019f565b604080519115158252519081900360200190f35b610108600480360360608110156100e857600080fd5b506001600160a01b038135811691602081013590911690604001356101a4565b60408051918252519081900360200190f35b6100be6101ae565b6100be6101b7565b6100b46004803603602081101561014057600080fd5b50356101c0565b6100b46004803603602081101561015d57600080fd5b50356101c5565b6101086004803603606081101561017a57600080fd5b506001600160a01b038135811691602081013590911690604001356101ca565b600155565b600190565b6002549392505050565b60005460ff1681565b60005460ff1690565b600355565b600255565b600354939250505056fea26469706673582212208c30af6482d04ff007152283cbc06126d7b83cda2fc551cca1b363ba014d378764736f6c63430006070033",
  "immutableReferences": {},
  "source": "pragma solidity ^0.6.7;\n\nimport '../interface/IOasisDex.sol';\n\n\ncontract OasisDexMock is IOasisDex {\n    bool public stopped;\n    uint256 private _ethPrice;\n    uint256 private _buyAmount;\n    uint256 private _payAmount;\n\n    function buyEnabled() external override view returns (bool) {\n        return true;\n    }\n\n    function matchingEnabled() external override view returns (bool) {\n        return true;\n    }\n\n    function isClosed() external override view returns (bool) {\n        return stopped;\n    }\n\n    function setEthPrice(uint256 ethPrice) external {\n        _ethPrice = ethPrice;\n    }\n\n    function setBuyAmount(uint256 buyAmount) external {\n        _buyAmount = buyAmount;\n    }\n\n    function setPayAmount(uint256 payAmount) external {\n        _payAmount = payAmount;\n    }\n\n    function getBuyAmount(\n        address, /* buy_gem */\n        address, /* pay_gem */\n        uint256 /* pay_amt */\n    ) external override view returns (uint256) {\n        return _buyAmount;\n    }\n\n    function getPayAmount(\n        address, /* pay_gem */\n        address, /* buy_gem */\n        uint256 /* buy_amt */\n    ) external override view returns (uint256) {\n        return _payAmount;\n    }\n}\n",
  "sourcePath": "/Users/ethereum/Projects/bluestone/bluestone/contracts/common/mock/OasisDexMock.sol",
  "compiler": {
    "name": "solc",
    "version": "0.6.7+commit.b8d736ae.Emscripten.clang"
  },
  "schemaVersion": "3.1.0",
  "updatedAt": "2020-09-15T02:50:37.447Z",
  "devdoc": {
    "methods": {}
  },
  "userdoc": {
    "methods": {}
  }
}