{
  "contractName": "Protocol",
  "abi": [
    {
      "anonymous": false,
      "inputs": [
        {
          "indexed": true,
          "internalType": "address",
          "name": "account",
          "type": "address"
        }
      ],
      "name": "AddBorrowerWhitelisted",
      "type": "event"
    },
    {
      "anonymous": false,
      "inputs": [
        {
          "indexed": true,
          "internalType": "address",
          "name": "accountAddress",
          "type": "address"
        },
        {
          "indexed": false,
          "internalType": "bytes32",
          "name": "recordId",
          "type": "bytes32"
        },
        {
          "indexed": true,
          "internalType": "address",
          "name": "collateralTokenAddress",
          "type": "address"
        },
        {
          "indexed": false,
          "internalType": "uint256",
          "name": "collateralAmount",
          "type": "uint256"
        }
      ],
      "name": "AddCollateralSucceed",
      "type": "event"
    },
    {
      "anonymous": false,
      "inputs": [
        {
          "indexed": true,
          "internalType": "address",
          "name": "account",
          "type": "address"
        }
      ],
      "name": "AddKeeperWhitelisted",
      "type": "event"
    },
    {
      "anonymous": false,
      "inputs": [
        {
          "indexed": true,
          "internalType": "address",
          "name": "account",
          "type": "address"
        }
      ],
      "name": "AddLenderWhitelisted",
      "type": "event"
    },
    {
      "anonymous": false,
      "inputs": [
        {
          "indexed": true,
          "internalType": "address",
          "name": "distributorAccountAddress",
          "type": "address"
        },
        {
          "indexed": false,
          "internalType": "bytes32",
          "name": "recordId",
          "type": "bytes32"
        },
        {
          "indexed": true,
          "internalType": "address",
          "name": "depositTokenAddress",
          "type": "address"
        },
        {
          "indexed": false,
          "internalType": "uint256",
          "name": "interestForDistributor",
          "type": "uint256"
        }
      ],
      "name": "DepositDistributorFeeTransferred",
      "type": "event"
    },
    {
      "anonymous": false,
      "inputs": [
        {
          "indexed": true,
          "internalType": "address",
          "name": "accountAddress",
          "type": "address"
        },
        {
          "indexed": false,
          "internalType": "bytes32",
          "name": "recordId",
          "type": "bytes32"
        },
        {
          "indexed": true,
          "internalType": "address",
          "name": "depositTokenAddress",
          "type": "address"
        },
        {
          "indexed": false,
          "internalType": "uint256",
          "name": "amount",
          "type": "uint256"
        }
      ],
      "name": "DepositSucceed",
      "type": "event"
    },
    {
      "anonymous": false,
      "inputs": [
        {
          "indexed": true,
          "internalType": "address",
          "name": "adminAddress",
          "type": "address"
        },
        {
          "indexed": false,
          "internalType": "uint256[]",
          "name": "terms",
          "type": "uint256[]"
        }
      ],
      "name": "DisableDepositTermsSucceed",
      "type": "event"
    },
    {
      "anonymous": false,
      "inputs": [
        {
          "indexed": true,
          "internalType": "address",
          "name": "adminAddress",
          "type": "address"
        },
        {
          "indexed": false,
          "internalType": "address",
          "name": "tokenAddress",
          "type": "address"
        }
      ],
      "name": "DisableDepositTokenSucceed",
      "type": "event"
    },
    {
      "anonymous": false,
      "inputs": [
        {
          "indexed": true,
          "internalType": "address",
          "name": "accountAddress",
          "type": "address"
        },
        {
          "indexed": false,
          "internalType": "bytes32",
          "name": "recordId",
          "type": "bytes32"
        },
        {
          "indexed": true,
          "internalType": "address",
          "name": "depositTokenAddress",
          "type": "address"
        },
        {
          "indexed": false,
          "internalType": "uint256",
          "name": "amount",
          "type": "uint256"
        }
      ],
      "name": "EarlyWithdrawSucceed",
      "type": "event"
    },
    {
      "anonymous": false,
      "inputs": [
        {
          "indexed": true,
          "internalType": "address",
          "name": "adminAddress",
          "type": "address"
        },
        {
          "indexed": false,
          "internalType": "uint256[]",
          "name": "terms",
          "type": "uint256[]"
        }
      ],
      "name": "EnableDepositTermsSucceed",
      "type": "event"
    },
    {
      "anonymous": false,
      "inputs": [
        {
          "indexed": true,
          "internalType": "address",
          "name": "adminAddress",
          "type": "address"
        },
        {
          "indexed": false,
          "internalType": "address",
          "name": "tokenAddress",
          "type": "address"
        }
      ],
      "name": "EnableDepositTokenSucceed",
      "type": "event"
    },
    {
      "anonymous": false,
      "inputs": [
        {
          "indexed": true,
          "internalType": "address",
          "name": "accountAddress",
          "type": "address"
        },
        {
          "indexed": false,
          "internalType": "bytes32",
          "name": "recordId",
          "type": "bytes32"
        },
        {
          "indexed": true,
          "internalType": "address",
          "name": "depositTokenAddress",
          "type": "address"
        },
        {
          "indexed": false,
          "internalType": "uint256",
          "name": "interestForProtocolReserve",
          "type": "uint256"
        }
      ],
      "name": "InterestReserveTransferred",
      "type": "event"
    },
    {
      "anonymous": false,
      "inputs": [
        {
          "indexed": true,
          "internalType": "address",
          "name": "accountAddress",
          "type": "address"
        },
        {
          "indexed": false,
          "internalType": "bytes32",
          "name": "recordId",
          "type": "bytes32"
        },
        {
          "indexed": true,
          "internalType": "address",
          "name": "loanTokenAddress",
          "type": "address"
        },
        {
          "indexed": false,
          "internalType": "uint256",
          "name": "liquidateAmount",
          "type": "uint256"
        },
        {
          "indexed": true,
          "internalType": "address",
          "name": "collateralTokenAddress",
          "type": "address"
        },
        {
          "indexed": false,
          "internalType": "uint256",
          "name": "soldCollateralAmount",
          "type": "uint256"
        }
      ],
      "name": "LiquidateLoanSucceed",
      "type": "event"
    },
    {
      "anonymous": false,
      "inputs": [
        {
          "indexed": true,
          "internalType": "address",
          "name": "distributorAccountAddress",
          "type": "address"
        },
        {
          "indexed": false,
          "internalType": "bytes32",
          "name": "recordId",
          "type": "bytes32"
        },
        {
          "indexed": true,
          "internalType": "address",
          "name": "loanTokenAddress",
          "type": "address"
        },
        {
          "indexed": false,
          "internalType": "uint256",
          "name": "interestForLoanDistributor",
          "type": "uint256"
        }
      ],
      "name": "LoanDistributorFeeTransferred",
      "type": "event"
    },
    {
      "anonymous": false,
      "inputs": [
        {
          "indexed": true,
          "internalType": "address",
          "name": "accountAddress",
          "type": "address"
        },
        {
          "indexed": false,
          "internalType": "bytes32",
          "name": "recordId",
          "type": "bytes32"
        },
        {
          "indexed": true,
          "internalType": "address",
          "name": "loanTokenAddress",
          "type": "address"
        },
        {
          "indexed": false,
          "internalType": "uint256",
          "name": "loanAmount",
          "type": "uint256"
        },
        {
          "indexed": true,
          "internalType": "address",
          "name": "collateralTokenAddress",
          "type": "address"
        },
        {
          "indexed": false,
          "internalType": "uint256",
          "name": "collateralAmount",
          "type": "uint256"
        }
      ],
      "name": "LoanSucceed",
      "type": "event"
    },
    {
      "anonymous": false,
      "inputs": [
        {
          "indexed": true,
          "internalType": "address",
          "name": "previousOwner",
          "type": "address"
        },
        {
          "indexed": true,
          "internalType": "address",
          "name": "newOwner",
          "type": "address"
        }
      ],
      "name": "OwnershipTransferred",
      "type": "event"
    },
    {
      "anonymous": false,
      "inputs": [
        {
          "indexed": false,
          "internalType": "address",
          "name": "account",
          "type": "address"
        }
      ],
      "name": "Paused",
      "type": "event"
    },
    {
      "anonymous": false,
      "inputs": [
        {
          "indexed": true,
          "internalType": "address",
          "name": "distributorAddress",
          "type": "address"
        },
        {
          "indexed": false,
          "internalType": "bytes32",
          "name": "recordId",
          "type": "bytes32"
        },
        {
          "indexed": false,
          "internalType": "uint256",
          "name": "amount",
          "type": "uint256"
        }
      ],
      "name": "PayDepositDistributorFailed",
      "type": "event"
    },
    {
      "anonymous": false,
      "inputs": [
        {
          "indexed": true,
          "internalType": "address",
          "name": "distributorAddress",
          "type": "address"
        },
        {
          "indexed": false,
          "internalType": "bytes32",
          "name": "recordId",
          "type": "bytes32"
        },
        {
          "indexed": false,
          "internalType": "uint256",
          "name": "amount",
          "type": "uint256"
        }
      ],
      "name": "PayLoanDistributorFailed",
      "type": "event"
    },
    {
      "anonymous": false,
      "inputs": [
        {
          "indexed": true,
          "internalType": "address",
          "name": "account",
          "type": "address"
        }
      ],
      "name": "RemoveBorrowerWhitelisted",
      "type": "event"
    },
    {
      "anonymous": false,
      "inputs": [
        {
          "indexed": true,
          "internalType": "address",
          "name": "account",
          "type": "address"
        }
      ],
      "name": "RemoveKeeperWhitelisted",
      "type": "event"
    },
    {
      "anonymous": false,
      "inputs": [
        {
          "indexed": true,
          "internalType": "address",
          "name": "account",
          "type": "address"
        }
      ],
      "name": "RemoveLenderWhitelisted",
      "type": "event"
    },
    {
      "anonymous": false,
      "inputs": [
        {
          "indexed": true,
          "internalType": "address",
          "name": "adminAddress",
          "type": "address"
        },
        {
          "indexed": false,
          "internalType": "address",
          "name": "loanTokenAddress",
          "type": "address"
        },
        {
          "indexed": false,
          "internalType": "address",
          "name": "collateralTokenAddress",
          "type": "address"
        }
      ],
      "name": "RemoveLoanAndCollateralTokenPairSucceed",
      "type": "event"
    },
    {
      "anonymous": false,
      "inputs": [
        {
          "indexed": true,
          "internalType": "address",
          "name": "accountAddress",
          "type": "address"
        },
        {
          "indexed": false,
          "internalType": "bytes32",
          "name": "recordId",
          "type": "bytes32"
        },
        {
          "indexed": true,
          "internalType": "address",
          "name": "loanTokenAddress",
          "type": "address"
        },
        {
          "indexed": false,
          "internalType": "uint256",
          "name": "repayAmount",
          "type": "uint256"
        },
        {
          "indexed": true,
          "internalType": "address",
          "name": "collateralTokenAddress",
          "type": "address"
        },
        {
          "indexed": false,
          "internalType": "uint256",
          "name": "returnedCollateralAmount",
          "type": "uint256"
        },
        {
          "indexed": false,
          "internalType": "bool",
          "name": "isFullyRepaid",
          "type": "bool"
        }
      ],
      "name": "RepayLoanSucceed",
      "type": "event"
    },
    {
      "anonymous": false,
      "inputs": [
        {
          "indexed": true,
          "internalType": "address",
          "name": "adminAddress",
          "type": "address"
        },
        {
          "indexed": false,
          "internalType": "address",
          "name": "interestRateModelAddress",
          "type": "address"
        }
      ],
      "name": "SetInterestRateModelSucceed",
      "type": "event"
    },
    {
      "anonymous": false,
      "inputs": [
        {
          "indexed": true,
          "internalType": "address",
          "name": "adminAddress",
          "type": "address"
        },
        {
          "indexed": false,
          "internalType": "address",
          "name": "loanTokenAddress",
          "type": "address"
        },
        {
          "indexed": false,
          "internalType": "address",
          "name": "collateralTokenAddress",
          "type": "address"
        },
        {
          "indexed": false,
          "internalType": "uint256",
          "name": "minCollateralCoverageRatio",
          "type": "uint256"
        },
        {
          "indexed": false,
          "internalType": "uint256",
          "name": "liquidationDiscount",
          "type": "uint256"
        }
      ],
      "name": "SetLoanAndCollateralTokenPairSucceed",
      "type": "event"
    },
    {
      "anonymous": false,
      "inputs": [
        {
          "indexed": true,
          "internalType": "address",
          "name": "adminAddress",
          "type": "address"
        },
        {
          "indexed": false,
          "internalType": "uint256",
          "name": "maxDepositDistributorFeeRatio",
          "type": "uint256"
        },
        {
          "indexed": false,
          "internalType": "uint256",
          "name": "maxLoanDistributorFeeRatio",
          "type": "uint256"
        }
      ],
      "name": "SetMaxDistributionFeeRatiosSucceed",
      "type": "event"
    },
    {
      "anonymous": false,
      "inputs": [
        {
          "indexed": true,
          "internalType": "address",
          "name": "adminAddress",
          "type": "address"
        },
        {
          "indexed": false,
          "internalType": "address",
          "name": "tokenAddress",
          "type": "address"
        },
        {
          "indexed": false,
          "internalType": "address",
          "name": "priceOracleAddress",
          "type": "address"
        }
      ],
      "name": "SetPriceOracleSucceed",
      "type": "event"
    },
    {
      "anonymous": false,
      "inputs": [
        {
          "indexed": true,
          "internalType": "address",
          "name": "adminAddress",
          "type": "address"
        },
        {
          "indexed": false,
          "internalType": "address",
          "name": "protocolAddress",
          "type": "address"
        }
      ],
      "name": "SetProtocolAddressSucceed",
      "type": "event"
    },
    {
      "anonymous": false,
      "inputs": [
        {
          "indexed": true,
          "internalType": "address",
          "name": "adminAddress",
          "type": "address"
        },
        {
          "indexed": false,
          "internalType": "uint256",
          "name": "protocolReserveRatio",
          "type": "uint256"
        }
      ],
      "name": "SetProtocolReserveRatioSucceed",
      "type": "event"
    },
    {
      "anonymous": false,
      "inputs": [
        {
          "indexed": true,
          "internalType": "address",
          "name": "accountAddress",
          "type": "address"
        },
        {
          "indexed": true,
          "internalType": "address",
          "name": "collateralTokenAddress",
          "type": "address"
        },
        {
          "indexed": false,
          "internalType": "bytes32",
          "name": "recordId",
          "type": "bytes32"
        },
        {
          "indexed": false,
          "internalType": "uint256",
          "name": "collateralAmount",
          "type": "uint256"
        }
      ],
      "name": "SubtractCollateralSucceed",
      "type": "event"
    },
    {
      "anonymous": false,
      "inputs": [
        {
          "indexed": false,
          "internalType": "address",
          "name": "account",
          "type": "address"
        }
      ],
      "name": "Unpaused",
      "type": "event"
    },
    {
      "anonymous": false,
      "inputs": [
        {
          "indexed": true,
          "internalType": "address",
          "name": "accountAddress",
          "type": "address"
        },
        {
          "indexed": false,
          "internalType": "bytes32",
          "name": "recordId",
          "type": "bytes32"
        },
        {
          "indexed": true,
          "internalType": "address",
          "name": "depositTokenAddress",
          "type": "address"
        },
        {
          "indexed": false,
          "internalType": "uint256",
          "name": "amount",
          "type": "uint256"
        }
      ],
      "name": "WithdrawSucceed",
      "type": "event"
    },
    {
      "inputs": [
        {
          "internalType": "address",
          "name": "account",
          "type": "address"
        }
      ],
      "name": "addBorrowerWhitelisted",
      "outputs": [],
      "stateMutability": "nonpayable",
      "type": "function"
    },
    {
      "inputs": [
        {
          "internalType": "address",
          "name": "account",
          "type": "address"
        }
      ],
      "name": "addKeeperWhitelisted",
      "outputs": [],
      "stateMutability": "nonpayable",
      "type": "function"
    },
    {
      "inputs": [
        {
          "internalType": "address",
          "name": "account",
          "type": "address"
        }
      ],
      "name": "addLenderWhitelisted",
      "outputs": [],
      "stateMutability": "nonpayable",
      "type": "function"
    },
    {
      "inputs": [],
      "name": "getWhitelistedBorrowers",
      "outputs": [
        {
          "internalType": "address[]",
          "name": "",
          "type": "address[]"
        }
      ],
      "stateMutability": "view",
      "type": "function",
      "constant": true
    },
    {
      "inputs": [],
      "name": "getWhitelistedKeepers",
      "outputs": [
        {
          "internalType": "address[]",
          "name": "",
          "type": "address[]"
        }
      ],
      "stateMutability": "view",
      "type": "function",
      "constant": true
    },
    {
      "inputs": [],
      "name": "getWhitelistedLenders",
      "outputs": [
        {
          "internalType": "address[]",
          "name": "",
          "type": "address[]"
        }
      ],
      "stateMutability": "view",
      "type": "function",
      "constant": true
    },
    {
      "inputs": [
        {
          "internalType": "address",
          "name": "",
          "type": "address"
        }
      ],
      "name": "isBorrowerWhitelisted",
      "outputs": [
        {
          "internalType": "bool",
          "name": "",
          "type": "bool"
        }
      ],
      "stateMutability": "view",
      "type": "function",
      "constant": true
    },
    {
      "inputs": [
        {
          "internalType": "address",
          "name": "",
          "type": "address"
        }
      ],
      "name": "isKeeperWhitelisted",
      "outputs": [
        {
          "internalType": "bool",
          "name": "",
          "type": "bool"
        }
      ],
      "stateMutability": "view",
      "type": "function",
      "constant": true
    },
    {
      "inputs": [
        {
          "internalType": "address",
          "name": "",
          "type": "address"
        }
      ],
      "name": "isLenderWhitelisted",
      "outputs": [
        {
          "internalType": "bool",
          "name": "",
          "type": "bool"
        }
      ],
      "stateMutability": "view",
      "type": "function",
      "constant": true
    },
    {
      "inputs": [],
      "name": "owner",
      "outputs": [
        {
          "internalType": "address",
          "name": "",
          "type": "address"
        }
      ],
      "stateMutability": "view",
      "type": "function",
      "constant": true
    },
    {
      "inputs": [],
      "name": "paused",
      "outputs": [
        {
          "internalType": "bool",
          "name": "",
          "type": "bool"
        }
      ],
      "stateMutability": "view",
      "type": "function",
      "constant": true
    },
    {
      "inputs": [
        {
          "internalType": "address",
          "name": "account",
          "type": "address"
        }
      ],
      "name": "removeBorrowerWhitelisted",
      "outputs": [],
      "stateMutability": "nonpayable",
      "type": "function"
    },
    {
      "inputs": [
        {
          "internalType": "address",
          "name": "account",
          "type": "address"
        }
      ],
      "name": "removeKeeperWhitelisted",
      "outputs": [],
      "stateMutability": "nonpayable",
      "type": "function"
    },
    {
      "inputs": [
        {
          "internalType": "address",
          "name": "account",
          "type": "address"
        }
      ],
      "name": "removeLenderWhitelisted",
      "outputs": [],
      "stateMutability": "nonpayable",
      "type": "function"
    },
    {
      "inputs": [],
      "name": "renounceOwnership",
      "outputs": [],
      "stateMutability": "nonpayable",
      "type": "function"
    },
    {
      "inputs": [
        {
          "internalType": "address",
          "name": "newOwner",
          "type": "address"
        }
      ],
      "name": "transferOwnership",
      "outputs": [],
      "stateMutability": "nonpayable",
      "type": "function"
    },
    {
      "stateMutability": "payable",
      "type": "receive",
      "payable": true
    },
    {
      "inputs": [],
      "name": "pause",
      "outputs": [],
      "stateMutability": "nonpayable",
      "type": "function"
    },
    {
      "inputs": [],
      "name": "unpause",
      "outputs": [],
      "stateMutability": "nonpayable",
      "type": "function"
    },
    {
      "inputs": [
        {
          "internalType": "uint256",
          "name": "term",
          "type": "uint256"
        }
      ],
      "name": "enableDepositTerm",
      "outputs": [],
      "stateMutability": "nonpayable",
      "type": "function"
    },
    {
      "inputs": [
        {
          "internalType": "uint256[]",
          "name": "terms",
          "type": "uint256[]"
        }
      ],
      "name": "enableDepositTerms",
      "outputs": [],
      "stateMutability": "nonpayable",
      "type": "function"
    },
    {
      "inputs": [
        {
          "internalType": "uint256",
          "name": "term",
          "type": "uint256"
        }
      ],
      "name": "disableDepositTerm",
      "outputs": [],
      "stateMutability": "nonpayable",
      "type": "function"
    },
    {
      "inputs": [
        {
          "internalType": "uint256[]",
          "name": "terms",
          "type": "uint256[]"
        }
      ],
      "name": "disableDepositTerms",
      "outputs": [],
      "stateMutability": "nonpayable",
      "type": "function"
    },
    {
      "inputs": [
        {
          "internalType": "address",
          "name": "tokenAddress",
          "type": "address"
        }
      ],
      "name": "enableDepositToken",
      "outputs": [],
      "stateMutability": "nonpayable",
      "type": "function"
    },
    {
      "inputs": [
        {
          "internalType": "address",
          "name": "tokenAddress",
          "type": "address"
        }
      ],
      "name": "disableDepositToken",
      "outputs": [],
      "stateMutability": "nonpayable",
      "type": "function"
    },
    {
      "inputs": [
        {
          "internalType": "address",
          "name": "loanTokenAddress",
          "type": "address"
        },
        {
          "internalType": "address",
          "name": "collateralTokenAddress",
          "type": "address"
        },
        {
          "internalType": "uint256",
          "name": "minCollateralCoverageRatio",
          "type": "uint256"
        },
        {
          "internalType": "uint256",
          "name": "liquidationDiscount",
          "type": "uint256"
        }
      ],
      "name": "setLoanAndCollateralTokenPair",
      "outputs": [],
      "stateMutability": "nonpayable",
      "type": "function"
    },
    {
      "inputs": [
        {
          "internalType": "address",
          "name": "loanTokenAddress",
          "type": "address"
        },
        {
          "internalType": "address",
          "name": "collateralTokenAddress",
          "type": "address"
        }
      ],
      "name": "removeLoanAndCollateralTokenPair",
      "outputs": [],
      "stateMutability": "nonpayable",
      "type": "function"
    },
    {
      "inputs": [
        {
          "internalType": "address",
          "name": "tokenAddress",
          "type": "address"
        },
        {
          "internalType": "contract IPriceOracle",
          "name": "priceOracle",
          "type": "address"
        }
      ],
      "name": "setPriceOracle",
      "outputs": [],
      "stateMutability": "nonpayable",
      "type": "function"
    },
    {
      "inputs": [
        {
          "internalType": "contract IInterestRateModel",
          "name": "interestRateModel",
          "type": "address"
        }
      ],
      "name": "setInterestRateModel",
      "outputs": [],
      "stateMutability": "nonpayable",
      "type": "function"
    },
    {
      "inputs": [
        {
          "internalType": "address payable",
          "name": "interestReserveAddress",
          "type": "address"
        }
      ],
      "name": "setInterestReserveAddress",
      "outputs": [],
      "stateMutability": "nonpayable",
      "type": "function"
    },
    {
      "inputs": [
        {
          "internalType": "uint256",
          "name": "protocolReserveRatio",
          "type": "uint256"
        }
      ],
      "name": "setProtocolReserveRatio",
      "outputs": [],
      "stateMutability": "nonpayable",
      "type": "function"
    },
    {
      "inputs": [
        {
          "internalType": "uint256",
          "name": "depositDistributorFeeRatio",
          "type": "uint256"
        },
        {
          "internalType": "uint256",
          "name": "loanDistributorFeeRatio",
          "type": "uint256"
        }
      ],
      "name": "setMaxDistributorFeeRatios",
      "outputs": [],
      "stateMutability": "nonpayable",
      "type": "function"
    },
    {
      "inputs": [
        {
          "internalType": "address",
          "name": "tokenAddress",
          "type": "address"
        },
        {
          "internalType": "uint256",
          "name": "balanceCap",
          "type": "uint256"
        }
      ],
      "name": "setBalanceCap",
      "outputs": [],
      "stateMutability": "nonpayable",
      "type": "function"
    },
    {
      "inputs": [
        {
          "internalType": "address",
          "name": "tokenAddress",
          "type": "address"
        },
        {
          "internalType": "uint256",
          "name": "depositAmount",
          "type": "uint256"
        },
        {
          "internalType": "uint256",
          "name": "depositTerm",
          "type": "uint256"
        },
        {
          "internalType": "address payable",
          "name": "distributorAddress",
          "type": "address"
        }
      ],
      "name": "deposit",
      "outputs": [
        {
          "internalType": "bytes32",
          "name": "depositId",
          "type": "bytes32"
        }
      ],
      "stateMutability": "payable",
      "type": "function",
      "payable": true
    },
    {
      "inputs": [
        {
          "internalType": "bytes32",
          "name": "depositId",
          "type": "bytes32"
        }
      ],
      "name": "withdraw",
      "outputs": [
        {
          "internalType": "uint256",
          "name": "withdrewAmount",
          "type": "uint256"
        }
      ],
      "stateMutability": "nonpayable",
      "type": "function"
    },
    {
      "inputs": [
        {
          "internalType": "bytes32",
          "name": "depositId",
          "type": "bytes32"
        }
      ],
      "name": "earlyWithdraw",
      "outputs": [
        {
          "internalType": "uint256",
          "name": "withdrewAmount",
          "type": "uint256"
        }
      ],
      "stateMutability": "nonpayable",
      "type": "function"
    },
    {
      "inputs": [
        {
          "internalType": "address",
          "name": "loanTokenAddress",
          "type": "address"
        },
        {
          "internalType": "address",
          "name": "collateralTokenAddress",
          "type": "address"
        },
        {
          "internalType": "uint256",
          "name": "loanAmount",
          "type": "uint256"
        },
        {
          "internalType": "uint256",
          "name": "collateralAmount",
          "type": "uint256"
        },
        {
          "internalType": "uint256",
          "name": "loanTerm",
          "type": "uint256"
        },
        {
          "internalType": "address payable",
          "name": "distributorAddress",
          "type": "address"
        }
      ],
      "name": "loan",
      "outputs": [
        {
          "internalType": "bytes32",
          "name": "loanId",
          "type": "bytes32"
        }
      ],
      "stateMutability": "payable",
      "type": "function",
      "payable": true
    },
    {
      "inputs": [
        {
          "internalType": "bytes32",
          "name": "loanId",
          "type": "bytes32"
        },
        {
          "internalType": "uint256",
          "name": "repayAmount",
          "type": "uint256"
        }
      ],
      "name": "repayLoan",
      "outputs": [
        {
          "internalType": "uint256",
          "name": "remainingDebt",
          "type": "uint256"
        }
      ],
      "stateMutability": "payable",
      "type": "function",
      "payable": true
    },
    {
      "inputs": [
        {
          "internalType": "bytes32",
          "name": "loanId",
          "type": "bytes32"
        },
        {
          "internalType": "uint256",
          "name": "collateralAmount",
          "type": "uint256"
        }
      ],
      "name": "addCollateral",
      "outputs": [
        {
          "internalType": "uint256",
          "name": "totalCollateralAmount",
          "type": "uint256"
        }
      ],
      "stateMutability": "payable",
      "type": "function",
      "payable": true
    },
    {
      "inputs": [
        {
          "internalType": "bytes32",
          "name": "loanId",
          "type": "bytes32"
        },
        {
          "internalType": "uint256",
          "name": "collateralAmount",
          "type": "uint256"
        }
      ],
      "name": "subtractCollateral",
      "outputs": [
        {
          "internalType": "uint256",
          "name": "totalCollateralAmount",
          "type": "uint256"
        }
      ],
      "stateMutability": "nonpayable",
      "type": "function"
    },
    {
      "inputs": [
        {
          "internalType": "bytes32",
          "name": "loanId",
          "type": "bytes32"
        },
        {
          "internalType": "uint256",
          "name": "liquidateAmount",
          "type": "uint256"
        }
      ],
      "name": "liquidateLoan",
      "outputs": [
        {
          "internalType": "uint256",
          "name": "remainingCollateral",
          "type": "uint256"
        },
        {
          "internalType": "uint256",
          "name": "liquidatedAmount",
          "type": "uint256"
        }
      ],
      "stateMutability": "payable",
      "type": "function",
      "payable": true
    },
    {
      "inputs": [],
      "name": "getDepositTerms",
      "outputs": [
        {
          "internalType": "uint256[]",
          "name": "depositTermList",
          "type": "uint256[]"
        }
      ],
      "stateMutability": "view",
      "type": "function",
      "constant": true
    },
    {
      "inputs": [],
      "name": "getDepositTokens",
      "outputs": [
        {
          "internalType": "address[]",
          "name": "depositTokenAddressList",
          "type": "address[]"
        }
      ],
      "stateMutability": "view",
      "type": "function",
      "constant": true
    },
    {
      "inputs": [
        {
          "internalType": "bytes32",
          "name": "depositId",
          "type": "bytes32"
        }
      ],
      "name": "getDepositRecordById",
      "outputs": [
        {
          "components": [
            {
              "internalType": "bytes32",
              "name": "depositId",
              "type": "bytes32"
            },
            {
              "internalType": "address",
              "name": "tokenAddress",
              "type": "address"
            },
            {
              "internalType": "uint256",
              "name": "depositTerm",
              "type": "uint256"
            },
            {
              "internalType": "uint256",
              "name": "depositAmount",
              "type": "uint256"
            },
            {
              "internalType": "uint256",
              "name": "poolId",
              "type": "uint256"
            },
            {
              "internalType": "uint256",
              "name": "interest",
              "type": "uint256"
            },
            {
              "internalType": "uint256",
              "name": "createdAt",
              "type": "uint256"
            },
            {
              "internalType": "uint256",
              "name": "withdrewAt",
              "type": "uint256"
            },
            {
              "internalType": "uint256",
              "name": "weight",
              "type": "uint256"
            }
          ],
          "internalType": "struct IStruct.GetDepositRecordResponse",
          "name": "depositRecord",
          "type": "tuple"
        }
      ],
      "stateMutability": "view",
      "type": "function",
      "constant": true
    },
    {
      "inputs": [
        {
          "internalType": "address",
          "name": "accountAddress",
          "type": "address"
        }
      ],
      "name": "getDepositRecordsByAccount",
      "outputs": [
        {
          "components": [
            {
              "internalType": "bytes32",
              "name": "depositId",
              "type": "bytes32"
            },
            {
              "internalType": "address",
              "name": "tokenAddress",
              "type": "address"
            },
            {
              "internalType": "uint256",
              "name": "depositTerm",
              "type": "uint256"
            },
            {
              "internalType": "uint256",
              "name": "depositAmount",
              "type": "uint256"
            },
            {
              "internalType": "uint256",
              "name": "poolId",
              "type": "uint256"
            },
            {
              "internalType": "uint256",
              "name": "interest",
              "type": "uint256"
            },
            {
              "internalType": "uint256",
              "name": "createdAt",
              "type": "uint256"
            },
            {
              "internalType": "uint256",
              "name": "withdrewAt",
              "type": "uint256"
            },
            {
              "internalType": "uint256",
              "name": "weight",
              "type": "uint256"
            }
          ],
          "internalType": "struct IStruct.GetDepositRecordResponse[]",
          "name": "depositRecordList",
          "type": "tuple[]"
        }
      ],
      "stateMutability": "view",
      "type": "function",
      "constant": true
    },
    {
      "inputs": [
        {
          "internalType": "bytes32",
          "name": "depositId",
          "type": "bytes32"
        }
      ],
      "name": "isDepositEarlyWithdrawable",
      "outputs": [
        {
          "internalType": "bool",
          "name": "isEarlyWithdrawable",
          "type": "bool"
        }
      ],
      "stateMutability": "view",
      "type": "function",
      "constant": true
    },
    {
      "inputs": [],
      "name": "getLoanAndCollateralTokenPairs",
      "outputs": [
        {
          "components": [
            {
              "internalType": "address",
              "name": "loanTokenAddress",
              "type": "address"
            },
            {
              "internalType": "address",
              "name": "collateralTokenAddress",
              "type": "address"
            },
            {
              "internalType": "uint256",
              "name": "minCollateralCoverageRatio",
              "type": "uint256"
            },
            {
              "internalType": "uint256",
              "name": "liquidationDiscount",
              "type": "uint256"
            }
          ],
          "internalType": "struct IStruct.LoanAndCollateralTokenPair[]",
          "name": "loanAndCollateralTokenPairList",
          "type": "tuple[]"
        }
      ],
      "stateMutability": "view",
      "type": "function",
      "constant": true
    },
    {
      "inputs": [],
      "name": "getMaxLoanTerm",
      "outputs": [
        {
          "internalType": "uint256",
          "name": "maxLoanTerm",
          "type": "uint256"
        }
      ],
      "stateMutability": "view",
      "type": "function",
      "constant": true
    },
    {
      "inputs": [
        {
          "internalType": "address",
          "name": "tokenAddress",
          "type": "address"
        },
        {
          "internalType": "uint256",
          "name": "term",
          "type": "uint256"
        }
      ],
      "name": "getLoanInterestRate",
      "outputs": [
        {
          "internalType": "uint256",
          "name": "loanInterestRate",
          "type": "uint256"
        }
      ],
      "stateMutability": "view",
      "type": "function",
      "constant": true
    },
    {
      "inputs": [
        {
          "internalType": "bytes32",
          "name": "loanId",
          "type": "bytes32"
        }
      ],
      "name": "getLoanRecordById",
      "outputs": [
        {
          "components": [
            {
              "internalType": "bool",
              "name": "isClosed",
              "type": "bool"
            },
            {
              "internalType": "bytes32",
              "name": "loanId",
              "type": "bytes32"
            },
            {
              "internalType": "address",
              "name": "loanTokenAddress",
              "type": "address"
            },
            {
              "internalType": "address",
              "name": "collateralTokenAddress",
              "type": "address"
            },
            {
              "internalType": "uint256",
              "name": "loanAmount",
              "type": "uint256"
            },
            {
              "internalType": "uint256",
              "name": "collateralAmount",
              "type": "uint256"
            },
            {
              "internalType": "uint256",
              "name": "loanTerm",
              "type": "uint256"
            },
            {
              "internalType": "uint256",
              "name": "annualInterestRate",
              "type": "uint256"
            },
            {
              "internalType": "uint256",
              "name": "interest",
              "type": "uint256"
            },
            {
              "internalType": "uint256",
              "name": "collateralCoverageRatio",
              "type": "uint256"
            },
            {
              "internalType": "uint256",
              "name": "minCollateralCoverageRatio",
              "type": "uint256"
            },
            {
              "internalType": "uint256",
              "name": "alreadyPaidAmount",
              "type": "uint256"
            },
            {
              "internalType": "uint256",
              "name": "liquidatedAmount",
              "type": "uint256"
            },
            {
              "internalType": "uint256",
              "name": "soldCollateralAmount",
              "type": "uint256"
            },
            {
              "internalType": "uint256",
              "name": "createdAt",
              "type": "uint256"
            },
            {
              "internalType": "uint256",
              "name": "dueAt",
              "type": "uint256"
            },
            {
              "internalType": "uint256",
              "name": "remainingDebt",
              "type": "uint256"
            }
          ],
          "internalType": "struct IStruct.GetLoanRecordResponse",
          "name": "loanRecord",
          "type": "tuple"
        }
      ],
      "stateMutability": "view",
      "type": "function",
      "constant": true
    },
    {
      "inputs": [
        {
          "internalType": "address",
          "name": "accountAddress",
          "type": "address"
        }
      ],
      "name": "getLoanRecordsByAccount",
      "outputs": [
        {
          "components": [
            {
              "internalType": "bool",
              "name": "isClosed",
              "type": "bool"
            },
            {
              "internalType": "bytes32",
              "name": "loanId",
              "type": "bytes32"
            },
            {
              "internalType": "address",
              "name": "loanTokenAddress",
              "type": "address"
            },
            {
              "internalType": "address",
              "name": "collateralTokenAddress",
              "type": "address"
            },
            {
              "internalType": "uint256",
              "name": "loanAmount",
              "type": "uint256"
            },
            {
              "internalType": "uint256",
              "name": "collateralAmount",
              "type": "uint256"
            },
            {
              "internalType": "uint256",
              "name": "loanTerm",
              "type": "uint256"
            },
            {
              "internalType": "uint256",
              "name": "annualInterestRate",
              "type": "uint256"
            },
            {
              "internalType": "uint256",
              "name": "interest",
              "type": "uint256"
            },
            {
              "internalType": "uint256",
              "name": "collateralCoverageRatio",
              "type": "uint256"
            },
            {
              "internalType": "uint256",
              "name": "minCollateralCoverageRatio",
              "type": "uint256"
            },
            {
              "internalType": "uint256",
              "name": "alreadyPaidAmount",
              "type": "uint256"
            },
            {
              "internalType": "uint256",
              "name": "liquidatedAmount",
              "type": "uint256"
            },
            {
              "internalType": "uint256",
              "name": "soldCollateralAmount",
              "type": "uint256"
            },
            {
              "internalType": "uint256",
              "name": "createdAt",
              "type": "uint256"
            },
            {
              "internalType": "uint256",
              "name": "dueAt",
              "type": "uint256"
            },
            {
              "internalType": "uint256",
              "name": "remainingDebt",
              "type": "uint256"
            }
          ],
          "internalType": "struct IStruct.GetLoanRecordResponse[]",
          "name": "loanRecordList",
          "type": "tuple[]"
        }
      ],
      "stateMutability": "view",
      "type": "function",
      "constant": true
    },
    {
      "inputs": [
        {
          "internalType": "address",
          "name": "tokenAddress",
          "type": "address"
        }
      ],
      "name": "getPoolsByToken",
      "outputs": [
        {
          "components": [
            {
              "internalType": "uint256",
              "name": "poolId",
              "type": "uint256"
            },
            {
              "internalType": "uint256",
              "name": "depositAmount",
              "type": "uint256"
            },
            {
              "internalType": "uint256",
              "name": "availableAmount",
              "type": "uint256"
            },
            {
              "internalType": "uint256",
              "name": "loanInterest",
              "type": "uint256"
            },
            {
              "internalType": "uint256",
              "name": "totalDepositWeight",
              "type": "uint256"
            }
          ],
          "internalType": "struct IStruct.GetPoolsByTokenResponse[]",
          "name": "poolList",
          "type": "tuple[]"
        }
      ],
      "stateMutability": "view",
      "type": "function",
      "constant": true
    },
    {
      "inputs": [
        {
          "internalType": "address",
          "name": "tokenAddress",
          "type": "address"
        },
        {
          "internalType": "uint256",
          "name": "poolId",
          "type": "uint256"
        }
      ],
      "name": "getPoolById",
      "outputs": [
        {
          "components": [
            {
              "internalType": "uint256",
              "name": "depositAmount",
              "type": "uint256"
            },
            {
              "internalType": "uint256",
              "name": "availableAmount",
              "type": "uint256"
            },
            {
              "internalType": "uint256",
              "name": "loanInterest",
              "type": "uint256"
            },
            {
              "internalType": "uint256",
              "name": "totalDepositWeight",
              "type": "uint256"
            },
            {
              "internalType": "uint256",
              "name": "depositDistributorFeeRatio",
              "type": "uint256"
            },
            {
              "internalType": "uint256",
              "name": "loanDistributorFeeRatio",
              "type": "uint256"
            },
            {
              "internalType": "uint256",
              "name": "protocolReserveRatio",
              "type": "uint256"
            }
          ],
          "internalType": "struct IStruct.Pool",
          "name": "pool",
          "type": "tuple"
        }
      ],
      "stateMutability": "view",
      "type": "function",
      "constant": true
    },
    {
      "inputs": [
        {
          "internalType": "address",
          "name": "tokenAddress",
          "type": "address"
        }
      ],
      "name": "getBalanceCap",
      "outputs": [
        {
          "internalType": "uint256",
          "name": "balanceCap",
          "type": "uint256"
        }
      ],
      "stateMutability": "view",
      "type": "function",
      "constant": true
    },
    {
      "inputs": [],
      "name": "getInterestRateModelAddress",
      "outputs": [
        {
          "internalType": "address",
          "name": "interestRateModelAddress",
          "type": "address"
        }
      ],
      "stateMutability": "view",
      "type": "function",
      "constant": true
    },
    {
      "inputs": [
        {
          "internalType": "address",
          "name": "tokenAddress",
          "type": "address"
        }
      ],
      "name": "getTokenPrice",
      "outputs": [
        {
          "internalType": "uint256",
          "name": "tokenPrice",
          "type": "uint256"
        }
      ],
      "stateMutability": "view",
      "type": "function",
      "constant": true
    },
    {
      "inputs": [],
      "name": "getMaxDistributorFeeRatios",
      "outputs": [
        {
          "internalType": "uint256",
          "name": "depositDistributorFeeRatio",
          "type": "uint256"
        },
        {
          "internalType": "uint256",
          "name": "loanDistributorFeeRatio",
          "type": "uint256"
        }
      ],
      "stateMutability": "view",
      "type": "function",
      "constant": true
    },
    {
      "inputs": [],
      "name": "getProtocolReserveRatio",
      "outputs": [
        {
          "internalType": "uint256",
          "name": "protocolReserveRatio",
          "type": "uint256"
        }
      ],
      "stateMutability": "view",
      "type": "function",
      "constant": true
    },
    {
      "inputs": [],
      "name": "getInterestReserveAddress",
      "outputs": [
        {
          "internalType": "address",
          "name": "interestReserveAddress",
          "type": "address"
        }
      ],
      "stateMutability": "view",
      "type": "function",
      "constant": true
    }
  ],
  "bytecode": "0x60806040523480156200001157600080fd5b506200001d3362000034565b6000805460ff60a01b191690556001805562000084565b600080546001600160a01b038381166001600160a01b0319831681178455604051919092169283917f8be0079c531659141344cd1fd0a4f28419497f9722a3daafe3b4186f6b6457e09190a35050565b613aa180620000946000396000f3fe6080604052600436106103855760003560e01c80637f58568c116101d1578063b9a850e311610102578063e064e817116100a0578063ebd7445f1161006f578063ebd7445f14610ad8578063f2fde38b14610af8578063fb01600d14610b18578063fdcd987d14610b2d57600080fd5b8063e064e81714610a6e578063e08912a714610a8e578063e14eb4c014610aa3578063e6e9fea514610ab857600080fd5b8063d02641a0116100dc578063d02641a0146109eb578063d924fd3214610a0b578063db2f90ae14610a3b578063ddd99eeb14610a4e57600080fd5b8063b9a850e314610996578063ce7e856a146109b6578063cebe314c146109d657600080fd5b80638bcd40161161016f57806394a68ef71161014957806394a68ef71461091e578063a04360b61461093e578063a30de1791461095e578063a461279e1461097e57600080fd5b80638bcd4016146108c05780638da5cb5b146108e05780638e19899e146108fe57600080fd5b806386111b78116101ab57806386111b781461083157806386959b4b1461085e5780638a8bb03d1461088b5780638b6099db146108ad57600080fd5b80637f58568c146107de57806383f99157146107fe5780638456cb591461081c57600080fd5b806346b87f83116102b65780635f49505311610254578063715018a611610223578063715018a6146107135780637550baef14610728578063757c792c1461079e5780637d22afda146107be57600080fd5b80635f4950531461068957806367a74ddc146106b15780636cf6f524146106d15780636d2b0839146106f357600080fd5b80634bbf5b3c116102905780634bbf5b3c1461060a57806350780dbb1461062a57806355ded3461461064a5780635c975abb1461066a57600080fd5b806346b87f831461058e57806349c03582146105b05780634b3c7b6a146105dd57600080fd5b80632cb8d119116103235780633cb581a1116102fd5780633cb581a1146104ec5780633f4ba83a146105195780634306c6dc1461052e578063455872b91461054e57600080fd5b80632cb8d119146104855780632fb893421461049a5780633250ef9e146104cc57600080fd5b80630ac7f1441161035f5780630ac7f14414610410578063144c96241461043057806327c2f17c1461045257806327efcbfe1461046557600080fd5b806307a7f1591461039457806309c144c9146103dd5780630a69fca3146103fd57600080fd5b3661038f57600080fd5b600080fd5b3480156103a057600080fd5b506103ca6103af366004612e37565b6001600160a01b03166000908152600d602052604090205490565b6040519081526020015b60405180910390f35b3480156103e957600080fd5b506103ca6103f8366004613362565b610b5d565b6103ca61040b366004612eda565b610c41565b34801561041c57600080fd5b506103ca61042b366004612f41565b610db1565b34801561043c57600080fd5b5061045061044b366004612e5b565b610e10565b005b6103ca610460366004613362565b610e97565b34801561047157600080fd5b50610450610480366004613330565b610f9b565b34801561049157600080fd5b506010546103ca565b3480156104a657600080fd5b50600e546001600160a01b03165b6040516001600160a01b0390911681526020016103d4565b3480156104d857600080fd5b506103ca6104e7366004613330565b611011565b3480156104f857600080fd5b5061050c610507366004613330565b61110e565b6040516103d49190613887565b34801561052557600080fd5b5061045061123e565b34801561053a57600080fd5b50610450610549366004612e37565b611258565b34801561055a57600080fd5b5061057e610569366004612e37565b60076020526000908152604090205460ff1681565b60405190151581526020016103d4565b34801561059a57600080fd5b506105a3611371565b6040516103d491906135cd565b3480156105bc57600080fd5b506105d06105cb366004612e37565b6113d3565b6040516103d4919061365d565b3480156105e957600080fd5b506105fd6105f8366004612e37565b611473565b6040516103d4919061361a565b34801561061657600080fd5b50610450610625366004612e94565b611513565b34801561063657600080fd5b50610450610645366004613330565b6115a9565b34801561065657600080fd5b50610450610665366004612e37565b6115f3565b34801561067657600080fd5b50600054600160a01b900460ff1661057e565b61069c610697366004613362565b61170c565b604080519283526020830191909152016103d4565b3480156106bd57600080fd5b506104506106cc366004612e5b565b61185f565b3480156106dd57600080fd5b506106e66118b6565b6040516103d49190613771565b3480156106ff57600080fd5b5061057e61070e366004613330565b611910565b34801561071f57600080fd5b506104506119a4565b34801561073457600080fd5b50610748610743366004612f41565b6119b6565b6040516103d49190600060e082019050825182526020830151602083015260408301516040830152606083015160608301526080830151608083015260a083015160a083015260c083015160c083015292915050565b3480156107aa57600080fd5b506104506107b9366004612e37565b611a8f565b3480156107ca57600080fd5b506104506107d93660046132a0565b611c6f565b3480156107ea57600080fd5b506104506107f9366004612e37565b611cb6565b34801561080a57600080fd5b50600b546001600160a01b03166104b4565b34801561082857600080fd5b50610450611dd1565b34801561083d57600080fd5b5061085161084c366004613330565b611de9565b6040516103d49190613878565b34801561086a57600080fd5b5061087e610879366004612e37565b611ed6565b6040516103d491906136a0565b34801561089757600080fd5b506108a0611f6f565b6040516103d4919061370e565b6103ca6108bb366004612f6d565b611ffe565b3480156108cc57600080fd5b506104506108db366004612e37565b61214a565b3480156108ec57600080fd5b506000546001600160a01b03166104b4565b34801561090a57600080fd5b506103ca610919366004613330565b612199565b34801561092a57600080fd5b50610450610939366004613330565b612247565b34801561094a57600080fd5b50610450610959366004613362565b612295565b34801561096a57600080fd5b50610450610979366004612e37565b6122e3565b34801561098a57600080fd5b5060085460095461069c565b3480156109a257600080fd5b506104506109b13660046132a0565b6124c3565b3480156109c257600080fd5b506104506109d1366004612e37565b612507565b3480156109e257600080fd5b50600a546103ca565b3480156109f757600080fd5b506103ca610a06366004612e37565b612556565b348015610a1757600080fd5b5061057e610a26366004612e37565b60066020526000908152604090205460ff1681565b6103ca610a49366004613362565b6125e0565b348015610a5a57600080fd5b50610450610a69366004612e37565b61265f565b348015610a7a57600080fd5b50610450610a89366004612f41565b6126ae565b348015610a9a57600080fd5b506105a3612704565b348015610aaf57600080fd5b506105a3612764565b348015610ac457600080fd5b50610450610ad3366004612e37565b6127c4565b348015610ae457600080fd5b50610450610af3366004612e37565b6129a6565b348015610b0457600080fd5b50610450610b13366004612e37565b6129f5565b348015610b2457600080fd5b506105a3612a6e565b348015610b3957600080fd5b5061057e610b48366004612e37565b60056020526000908152604090205460ff1681565b6000610b67612ad1565b3360009081526007602052604090205460ff16610b9f5760405162461bcd60e51b8152600401610b96906137f4565b60405180910390fd5b6040516312959ed560e21b81526018600482015260086024820152604481018490526064810183905273__LoanManager___________________________90634a567b54906084015b60206040518083038186803b158015610c0057600080fd5b505af4158015610c14573d6000803e3d6000fd5b505050506040513d601f19601f82011682018060405250810190610c389190613349565b90505b92915050565b6000610c4b612ad1565b60026001541415610c6e5760405162461bcd60e51b8152600401610b9690613841565b60026001553360009081526007602052604090205460ff16610ca25760405162461bcd60e51b8152600401610b96906137f4565b6040805160c0810182526001600160a01b03898116825288811660208301908152828401898152606084018981526080850189815288851660a08701908152965163097e950160e31b81526018600482015260086024820152600f6044820152865186166064820152935185166084850152915160a48401525160c48301525160e48201529251166101048301529073__LoanManager___________________________90634bf4a808906101240160206040518083038186803b158015610d6957600080fd5b505af4158015610d7d573d6000803e3d6000fd5b505050506040513d601f19601f82011682018060405250810190610da19190613349565b6001805598975050505050505050565b60405163f9a8a23d60e01b81526018600482015260086024820152600f60448201526001600160a01b03831660648201526084810182905260009073__LoanManager___________________________9063f9a8a23d9060a401610be8565b610e18612b1e565b60405163b4125fab60e01b8152601860048201526001600160a01b0380841660248301528216604482015273__LoanManager___________________________9063b4125fab906064015b60006040518083038186803b158015610e7b57600080fd5b505af4158015610e8f573d6000803e3d6000fd5b505050505050565b6000610ea1612ad1565b60026001541415610ec45760405162461bcd60e51b8152600401610b9690613841565b60026001553360009081526007602052604090205460ff16610ef85760405162461bcd60e51b8152600401610b96906137f4565b6040516355e168c760e11b815260186004820152600f6024820152604481018490526064810183905273__LoanManager___________________________9063abc2d18e9060840160206040518083038186803b158015610f5857600080fd5b505af4158015610f6c573d6000803e3d6000fd5b505050506040513d601f19601f82011682018060405250810190610f909190613349565b600180559392505050565b610fa3612b1e565b604051636fdbf96d60e11b8152600860048201526024810182905273__Configuration_________________________9063dfb7f2da906044015b60006040518083038186803b158015610ff657600080fd5b505af415801561100a573d6000803e3d6000fd5b5050505050565b600061101b612ad1565b6002600154141561103e5760405162461bcd60e51b8152600401610b9690613841565b60026001553360009081526006602052604090205460ff166110725760405162461bcd60e51b8152600401610b96906137a9565b604051630e53750760e41b815260116004820152600f60248201526044810183905273__DepositManager________________________9063e5375070906064015b60206040518083038186803b1580156110cc57600080fd5b505af41580156110e0573d6000803e3d6000fd5b505050506040513d601f19601f820116820180604052508101906111049190613349565b6001805592915050565b6111ac6040518061022001604052806000151581526020016000801916815260200160006001600160a01b0316815260200160006001600160a01b03168152602001600081526020016000815260200160008152602001600081526020016000815260200160008152602001600081526020016000815260200160008152602001600081526020016000815260200160008152602001600081525090565b60405163eda4761560e01b815260186004820152600860248201526044810183905273__LoanManager___________________________9063eda47615906064016102206040518083038186803b15801561120657600080fd5b505af415801561121a573d6000803e3d6000fd5b505050506040513d601f19601f82011682018060405250810190610c3b91906133a1565b611246612b1e565b61124e612b78565b611256612bc8565b565b611260612b1e565b6001600160a01b03811660009081526005602052604090205460ff16156112e25760405162461bcd60e51b815260206004820152603060248201527f57686974656c6973743a206b6565706572206163636f756e7420697320616c7260448201526f1958591e481dda1a5d195b1a5cdd195960821b6064820152608401610b96565b6002805460018082019092557f405787fa12a823e0f2b7631cc41b3ba8828b3321ca811111fa75cd3aa3bb5ace0180546001600160a01b0319166001600160a01b038416908117909155600081815260056020526040808220805460ff1916909417909355915190917f9b76412f86e34cb8adec4672756b35f8861e4d4b6c12b6b39875aca184ba402491a250565b606060038054806020026020016040519081016040528092919081815260200182805480156113c957602002820191906000526020600020905b81546001600160a01b031681526001909101906020018083116113ab575b5050505050905090565b60405163dd6b791d60e01b815260186004820152600860248201526001600160a01b038216604482015260609073__LoanManager___________________________9063dd6b791d9060640160006040518083038186803b15801561143757600080fd5b505af415801561144b573d6000803e3d6000fd5b505050506040513d6000823e601f3d908101601f19168201604052610c3b9190810190613060565b604051630e654ee760e41b815260116004820152600f60248201526001600160a01b038216604482015260609073__DepositManager________________________9063e654ee709060640160006040518083038186803b1580156114d757600080fd5b505af41580156114eb573d6000803e3d6000fd5b505050506040513d6000823e601f3d908101601f19168201604052610c3b9190810190612fb7565b61151b612b1e565b6040516392f0341160e01b8152601860048201526001600160a01b03808616602483015284166044820152606481018390526084810182905273__LoanManager___________________________906392f034119060a40160006040518083038186803b15801561158b57600080fd5b505af415801561159f573d6000803e3d6000fd5b5050505050505050565b6115b1612b1e565b604051600162b7e75360e01b03198152601160048201526024810182905273__DepositManager________________________9063ff4818ad90604401610fde565b6115fb612b1e565b6001600160a01b03811660009081526006602052604090205460ff161561167d5760405162461bcd60e51b815260206004820152603060248201527f57686974656c6973743a206c656e646572206163636f756e7420697320616c7260448201526f1958591e481dda1a5d195b1a5cdd195960821b6064820152608401610b96565b6003805460018082019092557fc2575a0e9e593c00f959f8c92f12db2869c3395a3b0502d05e2516446f71f85b0180546001600160a01b0319166001600160a01b038416908117909155600081815260066020526040808220805460ff1916909417909355915190917fc40ba5fc28619d22df2a573791064a5a80e202a594efd3208c27fcbb30aaf06191a250565b600080611717612ad1565b6002600154141561173a5760405162461bcd60e51b8152600401610b9690613841565b60026001553360009081526005602052604090205460ff166117b25760405162461bcd60e51b815260206004820152602b60248201527f57686974656c6973743a2063616c6c6572206973206e6f742077686974656c6960448201526a39ba32b21035b2b2b832b960a91b6064820152608401610b96565b604051630c1af83160e21b81526018600482015260086024820152600f6044820152606481018590526084810184905273__LoanManager___________________________9063306be0c49060a401604080518083038186803b15801561181857600080fd5b505af415801561182c573d6000803e3d6000fd5b505050506040513d601f19601f820116820180604052508101906118509190613442565b60018055909590945092505050565b611867612b1e565b604051635562758f60e01b8152600860048201526001600160a01b0380841660248301528216604482015273__Configuration_________________________90635562758f90606401610e63565b606060116001018054806020026020016040519081016040528092919081815260200182805480156113c957602002820191906000526020600020905b8154815260200190600101908083116118f3575050505050905090565b60405163284e74a560e21b815260116004820152600f60248201526044810182905260009073__DepositManager________________________9063a139d2949060640160206040518083038186803b15801561196c57600080fd5b505af4158015611980573d6000803e3d6000fd5b505050506040513d601f19601f82011682018060405250810190610c3b9190613315565b6119ac612b1e565b6112566000612c1d565b6119f66040518060e00160405280600081526020016000815260200160008152602001600081526020016000815260200160008152602001600081525090565b6040516352af126f60e01b8152600f60048201526001600160a01b03841660248201526044810183905273__LiquidityPools________________________906352af126f9060640160e06040518083038186803b158015611a5757600080fd5b505af4158015611a6b573d6000803e3d6000fd5b505050506040513d601f19601f82011682018060405250810190610c3891906133be565b611a97612b1e565b6001600160a01b03811660009081526006602052604090205460ff16611b145760405162461bcd60e51b815260206004820152602c60248201527f57686974656c6973743a206c656e646572206163636f756e74206973206e6f7460448201526b081dda1a5d195b1a5cdd195960a21b6064820152608401610b96565b6003805460009190611b28906001906139cc565b81548110611b3857611b38613a2a565b600091825260209091200154600380546001600160a01b0390921692509080611b6357611b63613a14565b600082815260208120820160001990810180546001600160a01b03191690559091019091555b600354811015611c2457826001600160a01b031660038281548110611bb057611bb0613a2a565b6000918252602090912001546001600160a01b03161415611c12578160038281548110611bdf57611bdf613a2a565b9060005260206000200160006101000a8154816001600160a01b0302191690836001600160a01b03160217905550611c24565b80611c1c816139e3565b915050611b89565b506001600160a01b038216600081815260066020526040808220805460ff19169055517f94e65f8eb74bcdbdd449ed4da488a54fdb4f63d2d9bc2dfcaafb6d94cdd03ad59190a25050565b611c77612b1e565b60405163156368df60e01b815273__DepositManager________________________9063156368df90610e6390601190600f90879087906004016138b9565b611cbe612b1e565b6001600160a01b03811660009081526007602052604090205460ff1615611d425760405162461bcd60e51b815260206004820152603260248201527f57686974656c6973743a20626f72726f776572206163636f756e7420697320616044820152711b1c9958591e481dda1a5d195b1a5cdd195960721b6064820152608401610b96565b6004805460018082019092557f8a35acfbc15ff81a39ae7d344fd709f28e8600b4aa8c65c6b64bfe7fe36bd19b0180546001600160a01b0319166001600160a01b038416908117909155600081815260076020526040808220805460ff1916909417909355915190917fb21febde3c13ce82fc320466669e27ef68e8da5cdfec6213929e3aaab29c495c91a250565b611dd9612b1e565b611de1612ad1565b611256612c6d565b611e446040518061012001604052806000801916815260200160006001600160a01b03168152602001600081526020016000815260200160008152602001600081526020016000815260200160008152602001600081525090565b604051631c63e3d760e11b815260116004820152600f60248201526044810183905273__DepositManager________________________906338c7c7ae906064016101206040518083038186803b158015611e9e57600080fd5b505af4158015611eb2573d6000803e3d6000fd5b505050506040513d601f19601f82011682018060405250810190610c3b9190613384565b60405163991a26b360e01b8152600f60048201526001600160a01b038216602482015260609073__LiquidityPools________________________9063991a26b39060440160006040518083038186803b158015611f3357600080fd5b505af4158015611f47573d6000803e3d6000fd5b505050506040513d6000823e601f3d908101601f19168201604052610c3b91908101906130f6565b6040516364f9e96f60e11b81526018600482015260609073__LoanManager___________________________9063c9f3d2de9060240160006040518083038186803b158015611fbd57600080fd5b505af4158015611fd1573d6000803e3d6000fd5b505050506040513d6000823e601f3d908101601f19168201604052611ff991908101906131cd565b905090565b6000612008612ad1565b6002600154141561202b5760405162461bcd60e51b8152600401610b9690613841565b60026001553360009081526006602052604090205460ff1661205f5760405162461bcd60e51b8152600401610b96906137a9565b604080516080810182526001600160a01b03878116825260208201878152828401878152868316606085019081529451636aa1d5e360e01b815260116004820152600f602482015260086044820152845184166064820152915160848301525160a482015292511660c48301529073__DepositManager________________________90636aa1d5e39060e40160206040518083038186803b15801561210457600080fd5b505af4158015612118573d6000803e3d6000fd5b505050506040513d601f19601f8201168201806040525081019061213c9190613349565b600180559695505050505050565b612152612b1e565b604051630d08a83960e41b8152600860048201526001600160a01b038216602482015273__Configuration_________________________9063d08a839090604401610fde565b60006121a3612ad1565b600260015414156121c65760405162461bcd60e51b8152600401610b9690613841565b60026001553360009081526006602052604090205460ff166121fa5760405162461bcd60e51b8152600401610b96906137a9565b6040516321ca206960e01b81526011600482015260086024820152600f60448201526064810183905273__DepositManager________________________906321ca2069906084016110b4565b61224f612b1e565b604051630e273fb560e31b815260116004820152600f60248201526044810182905273__DepositManager________________________90637139fda890606401610fde565b61229d612b1e565b604051632b05cfad60e01b815260086004820152602481018390526044810182905273__Configuration_________________________90632b05cfad90606401610e63565b6122eb612b1e565b6001600160a01b03811660009081526005602052604090205460ff166123685760405162461bcd60e51b815260206004820152602c60248201527f57686974656c6973743a206b6565706572206163636f756e74206973206e6f7460448201526b081dda1a5d195b1a5cdd195960a21b6064820152608401610b96565b600280546000919061237c906001906139cc565b8154811061238c5761238c613a2a565b600091825260209091200154600280546001600160a01b03909216925090806123b7576123b7613a14565b600082815260208120820160001990810180546001600160a01b03191690559091019091555b60025481101561247857826001600160a01b03166002828154811061240457612404613a2a565b6000918252602090912001546001600160a01b0316141561246657816002828154811061243357612433613a2a565b9060005260206000200160006101000a8154816001600160a01b0302191690836001600160a01b03160217905550612478565b80612470816139e3565b9150506123dd565b506001600160a01b038216600081815260056020526040808220805460ff19169055517f5703a95f8ff5431eaea4926ee2b6a7eed349aeca5ed960ea9c5f81e872d948a39190a25050565b6124cb612b1e565b604051630ac9024b60e11b815273__DepositManager________________________90631592049690610e639060119086908690600401613896565b61250f612b1e565b604051631c2f3ab560e31b8152601160048201526001600160a01b038216602482015273__DepositManager________________________9063e179d5a890604401610fde565b6001600160a01b038082166000908152600c60209081526040808320548151634c6afee560e11b81529151939416926398d5fdca92600483810193919291829003018186803b1580156125a857600080fd5b505afa1580156125bc573d6000803e3d6000fd5b505050506040513d601f19601f82011682018060405250810190610c3b9190613349565b60006125ea612ad1565b3360009081526007602052604090205460ff166126195760405162461bcd60e51b8152600401610b96906137f4565b604051633b502e2b60e01b815260186004820152602481018490526044810183905273__LoanManager___________________________90633b502e2b90606401610be8565b612667612b1e565b60405163044b515960e31b8152600860048201526001600160a01b038216602482015273__Configuration_________________________9063225a8ac890604401610fde565b6126b6612b1e565b604051633b7dd5d560e21b8152600860048201526001600160a01b03831660248201526044810182905273__Configuration_________________________9063edf7575490606401610e63565b606060028054806020026020016040519081016040528092919081815260200182805480156113c9576020028201919060005260206000209081546001600160a01b031681526001909101906020018083116113ab575050505050905090565b606060048054806020026020016040519081016040528092919081815260200182805480156113c9576020028201919060005260206000209081546001600160a01b031681526001909101906020018083116113ab575050505050905090565b6127cc612b1e565b6001600160a01b03811660009081526007602052604090205460ff1661284b5760405162461bcd60e51b815260206004820152602e60248201527f57686974656c6973743a20626f72726f776572206163636f756e74206973206e60448201526d1bdd081dda1a5d195b1a5cdd195960921b6064820152608401610b96565b600480546000919061285f906001906139cc565b8154811061286f5761286f613a2a565b600091825260209091200154600480546001600160a01b039092169250908061289a5761289a613a14565b600082815260208120820160001990810180546001600160a01b03191690559091019091555b60045481101561295b57826001600160a01b0316600482815481106128e7576128e7613a2a565b6000918252602090912001546001600160a01b0316141561294957816004828154811061291657612916613a2a565b9060005260206000200160006101000a8154816001600160a01b0302191690836001600160a01b0316021790555061295b565b80612953816139e3565b9150506128c0565b506001600160a01b038216600081815260076020526040808220805460ff19169055517f2deb4e1230396a9120187676061aea9047202ab0d653dbdedd42a9158a05d05f9190a25050565b6129ae612b1e565b60405163486f118960e11b8152601160048201526001600160a01b038216602482015273__DepositManager________________________906390de231290604401610fde565b6129fd612b1e565b6001600160a01b038116612a625760405162461bcd60e51b815260206004820152602660248201527f4f776e61626c653a206e6577206f776e657220697320746865207a65726f206160448201526564647265737360d01b6064820152608401610b96565b612a6b81612c1d565b50565b606060116002018054806020026020016040519081016040528092919081815260200182805480156113c9576020028201919060005260206000209081546001600160a01b031681526001909101906020018083116113ab575050505050905090565b600054600160a01b900460ff16156112565760405162461bcd60e51b815260206004820152601060248201526f14185d5cd8589b194e881c185d5cd95960821b6044820152606401610b96565b6000546001600160a01b031633146112565760405162461bcd60e51b815260206004820181905260248201527f4f776e61626c653a2063616c6c6572206973206e6f7420746865206f776e65726044820152606401610b96565b600054600160a01b900460ff166112565760405162461bcd60e51b815260206004820152601460248201527314185d5cd8589b194e881b9bdd081c185d5cd95960621b6044820152606401610b96565b612bd0612b78565b6000805460ff60a01b191690557f5db9ee0a495bf2e6ff9c91a7834c1ba4fdd244a5e8aa4e537bd38aeae4b073aa335b6040516001600160a01b03909116815260200160405180910390a1565b600080546001600160a01b038381166001600160a01b0319831681178455604051919092169283917f8be0079c531659141344cd1fd0a4f28419497f9722a3daafe3b4186f6b6457e09190a35050565b612c75612ad1565b6000805460ff60a01b1916600160a01b1790557f62e78cea01bee320cd4e420270b5ea74000d11b0c9f74754ebdbfc544b05a258612c003390565b8051612cbb81613a56565b919050565b80518015158114612cbb57600080fd5b60006101208284031215612ce357600080fd5b612ceb6138e3565b905081518152612cfd60208301612cb0565b602082015260408201516040820152606082015160608201526080820151608082015260a082015160a082015260c082015160c082015260e082015160e082015261010080830151818301525092915050565b60006102208284031215612d6357600080fd5b612d6b61390d565b9050612d7682612cc0565b815260208201516020820152612d8e60408301612cb0565b6040820152612d9f60608301612cb0565b60608201526080828101519082015260a0808301519082015260c0808301519082015260e08083015190820152610100808301519082015261012080830151908201526101408083015190820152610160808301519082015261018080830151908201526101a080830151908201526101c080830151908201526101e080830151908201526102009182015191810191909152919050565b600060208284031215612e4957600080fd5b8135612e5481613a56565b9392505050565b60008060408385031215612e6e57600080fd5b8235612e7981613a56565b91506020830135612e8981613a56565b809150509250929050565b60008060008060808587031215612eaa57600080fd5b8435612eb581613a56565b93506020850135612ec581613a56565b93969395505050506040820135916060013590565b60008060008060008060c08789031215612ef357600080fd5b8635612efe81613a56565b95506020870135612f0e81613a56565b945060408701359350606087013592506080870135915060a0870135612f3381613a56565b809150509295509295509295565b60008060408385031215612f5457600080fd5b8235612f5f81613a56565b946020939093013593505050565b60008060008060808587031215612f8357600080fd5b8435612f8e81613a56565b935060208501359250604085013591506060850135612fac81613a56565b939692955090935050565b60006020808385031215612fca57600080fd5b825167ffffffffffffffff811115612fe157600080fd5b8301601f81018513612ff257600080fd5b8051613005613000826139a8565b613977565b81815283810190838501610120808502860187018a101561302557600080fd5b600095505b848610156130525761303c8a83612cd0565b845260019590950194928601929081019061302a565b509098975050505050505050565b6000602080838503121561307357600080fd5b825167ffffffffffffffff81111561308a57600080fd5b8301601f8101851361309b57600080fd5b80516130a9613000826139a8565b81815283810190838501610220808502860187018a10156130c957600080fd5b600095505b84861015613052576130e08a83612d50565b84526001959095019492860192908101906130ce565b6000602080838503121561310957600080fd5b825167ffffffffffffffff81111561312057600080fd5b8301601f8101851361313157600080fd5b805161313f613000826139a8565b8181528381019083850160a0808502860187018a101561315e57600080fd5b60009550855b858110156131be5781838c03121561317a578687fd5b613182613931565b83518152888401518982015260408085015190820152606080850151908201526080808501519082015285529387019391810191600101613164565b50919998505050505050505050565b600060208083850312156131e057600080fd5b825167ffffffffffffffff8111156131f757600080fd5b8301601f8101851361320857600080fd5b8051613216613000826139a8565b80828252848201915084840188868560071b870101111561323657600080fd5b60009450845b8481101561305257608080838c031215613254578687fd5b61325c613954565b835161326781613a56565b81528389015161327681613a56565b818a015260408481015190820152606080850151908201528552938701939091019060010161323c565b600080602083850312156132b357600080fd5b823567ffffffffffffffff808211156132cb57600080fd5b818501915085601f8301126132df57600080fd5b8135818111156132ee57600080fd5b8660208260051b850101111561330357600080fd5b60209290920196919550909350505050565b60006020828403121561332757600080fd5b610c3882612cc0565b60006020828403121561334257600080fd5b5035919050565b60006020828403121561335b57600080fd5b5051919050565b6000806040838503121561337557600080fd5b50508035926020909101359150565b6000610120828403121561339757600080fd5b610c388383612cd0565b600061022082840312156133b457600080fd5b610c388383612d50565b600060e082840312156133d057600080fd5b60405160e0810181811067ffffffffffffffff821117156133f3576133f3613a40565b8060405250825181526020830151602082015260408301516040820152606083015160608201526080830151608082015260a083015160a082015260c083015160c08201528091505092915050565b6000806040838503121561345557600080fd5b505080516020909101519092909150565b81835260006001600160fb1b0383111561347f57600080fd5b8260051b8083602087013760009401602001938452509192915050565b805182526020808201516001600160a01b03169083015260408082015190830152606080820151908301526080808201519083015260a0808201519083015260c0808201519083015260e0808201519083015261010090810151910152565b80511515825260208101516020830152604081015161352560408401826001600160a01b03169052565b50606081015161354060608401826001600160a01b03169052565b506080818101519083015260a0808201519083015260c0808201519083015260e08082015190830152610100808201519083015261012080820151908301526101408082015190830152610160808201519083015261018080820151908301526101a080820151908301526101c080820151908301526101e0808201519083015261020090810151910152565b6020808252825182820181905260009190848201906040850190845b8181101561360e5783516001600160a01b0316835292840192918401916001016135e9565b50909695505050505050565b6020808252825182820181905260009190848201906040850190845b8181101561360e5761364983855161349c565b928401926101209290920191600101613636565b6020808252825182820181905260009190848201906040850190845b8181101561360e5761368c8385516134fb565b928401926102209290920191600101613679565b602080825282518282018190526000919060409081850190868401855b828110156137015781518051855286810151878601528581015186860152606080820151908601526080908101519085015260a090930192908501906001016136bd565b5091979650505050505050565b602080825282518282018190526000919060409081850190868401855b8281101561370157815180516001600160a01b0390811686528782015116878601528581015186860152606090810151908501526080909301929085019060010161372b565b6020808252825182820181905260009190848201906040850190845b8181101561360e5783518352928401929184019160010161378d565b6020808252602b908201527f57686974656c6973743a2063616c6c6572206973206e6f742077686974656c6960408201526a39ba32b2103632b73232b960a91b606082015260800190565b6020808252602d908201527f57686974656c6973743a2063616c6c6572206973206e6f742077686974656c6960408201526c39ba32b2103137b93937bbb2b960991b606082015260800190565b6020808252601f908201527f5265656e7472616e637947756172643a207265656e7472616e742063616c6c00604082015260600190565b6101208101610c3b828461349c565b6102208101610c3b82846134fb565b8381526040602082015260006138b0604083018486613466565b95945050505050565b8481528360208201526060604082015260006138d9606083018486613466565b9695505050505050565b604051610120810167ffffffffffffffff8111828210171561390757613907613a40565b60405290565b604051610220810167ffffffffffffffff8111828210171561390757613907613a40565b60405160a0810167ffffffffffffffff8111828210171561390757613907613a40565b6040516080810167ffffffffffffffff8111828210171561390757613907613a40565b604051601f8201601f1916810167ffffffffffffffff811182821017156139a0576139a0613a40565b604052919050565b600067ffffffffffffffff8211156139c2576139c2613a40565b5060051b60200190565b6000828210156139de576139de6139fe565b500390565b60006000198214156139f7576139f76139fe565b5060010190565b634e487b7160e01b600052601160045260246000fd5b634e487b7160e01b600052603160045260246000fd5b634e487b7160e01b600052603260045260246000fd5b634e487b7160e01b600052604160045260246000fd5b6001600160a01b0381168114612a6b57600080fdfea26469706673582212201202662a77c45999d745c5edff1ac3e3563f4960bbf205e6ca771094b41fbe1664736f6c63430008070033",
  "immutableReferences": {},
  "source": "// SPDX-License-Identifier: UNLICENSED\npragma solidity ^0.8.7;\npragma experimental ABIEncoderV2;\n\nimport '@openzeppelin/contracts/access/Ownable.sol';\nimport '@openzeppelin/contracts/security/Pausable.sol';\nimport '@openzeppelin/contracts/security/ReentrancyGuard.sol';\nimport '../oracle/interface/IPriceOracle.sol';\nimport './interface/IProtocol.sol';\nimport './interface/IInterestRateModel.sol';\nimport './lib/Configuration.sol';\nimport './lib/LiquidityPools.sol';\nimport './lib/DepositManager.sol';\nimport './lib/LoanManager.sol';\nimport './Whitelist.sol';\n\n/// @title The main contract that exposes all external functions\n/// @dev We can consider this contract as a master contract that contains no actual\n/// business logic but enforces permission checks and delegates function calls to\n/// corresponding libraries. Although contract states are defined in libraries,\n/// they are initialized and stored in this contract.\ncontract Protocol is IProtocol, Ownable, Pausable, ReentrancyGuard, Whitelist {\n    using Configuration for Configuration.State;\n    using LiquidityPools for LiquidityPools.State;\n    using DepositManager for DepositManager.State;\n    using LoanManager for LoanManager.State;\n\n    /// Initialize library instances\n    Configuration.State _configuration;\n    LiquidityPools.State _liquidityPools;\n    DepositManager.State _depositManager;\n    LoanManager.State _loanManager;\n\n    /// Events\n    event EnableDepositTermsSucceed(address indexed adminAddress, uint256[] terms);\n\n    event DisableDepositTermsSucceed(address indexed adminAddress, uint256[] terms);\n\n    event EnableDepositTokenSucceed(\n        address indexed adminAddress,\n        address tokenAddress\n    );\n\n    event DisableDepositTokenSucceed(\n        address indexed adminAddress,\n        address tokenAddress\n    );\n\n    event DepositSucceed(\n        address indexed accountAddress,\n        bytes32 recordId,\n        address indexed depositTokenAddress,\n        uint256 amount\n    );\n\n    event WithdrawSucceed(\n        address indexed accountAddress,\n        bytes32 recordId,\n        address indexed depositTokenAddress,\n        uint256 amount\n    );\n\n    event EarlyWithdrawSucceed(\n        address indexed accountAddress,\n        bytes32 recordId,\n        address indexed depositTokenAddress,\n        uint256 amount\n    );\n\n    event InterestReserveTransferred(\n        address indexed accountAddress,\n        bytes32 recordId,\n        address indexed depositTokenAddress,\n        uint256 interestForProtocolReserve\n    );\n\n    event DepositDistributorFeeTransferred(\n        address indexed distributorAccountAddress,\n        bytes32 recordId,\n        address indexed depositTokenAddress,\n        uint256 interestForDistributor\n    );\n    event PayDepositDistributorFailed(\n        address indexed distributorAddress,\n        bytes32 recordId,\n        uint256 amount\n    );\n\n    event SetLoanAndCollateralTokenPairSucceed(\n        address indexed adminAddress,\n        address loanTokenAddress,\n        address collateralTokenAddress,\n        uint256 minCollateralCoverageRatio,\n        uint256 liquidationDiscount\n    );\n\n    event RemoveLoanAndCollateralTokenPairSucceed(\n        address indexed adminAddress,\n        address loanTokenAddress,\n        address collateralTokenAddress\n    );\n\n    event LoanSucceed(\n        address indexed accountAddress,\n        bytes32 recordId,\n        address indexed loanTokenAddress,\n        uint256 loanAmount,\n        address indexed collateralTokenAddress,\n        uint256 collateralAmount\n    );\n\n    event RepayLoanSucceed(\n        address indexed accountAddress,\n        bytes32 recordId,\n        address indexed loanTokenAddress,\n        uint256 repayAmount,\n        address indexed collateralTokenAddress,\n        uint256 returnedCollateralAmount,\n        bool isFullyRepaid\n    );\n\n    event LiquidateLoanSucceed(\n        address indexed accountAddress,\n        bytes32 recordId,\n        address indexed loanTokenAddress,\n        uint256 liquidateAmount,\n        address indexed collateralTokenAddress,\n        uint256 soldCollateralAmount\n    );\n\n    event LoanDistributorFeeTransferred(\n        address indexed distributorAccountAddress,\n        bytes32 recordId,\n        address indexed loanTokenAddress,\n        uint256 interestForLoanDistributor\n    );\n\n    event AddCollateralSucceed(\n        address indexed accountAddress,\n        bytes32 recordId,\n        address indexed collateralTokenAddress,\n        uint256 collateralAmount\n    );\n\n    event SubtractCollateralSucceed(\n        address indexed accountAddress,\n        address indexed collateralTokenAddress,\n        bytes32 recordId,\n        uint256 collateralAmount\n    );\n\n    event PayLoanDistributorFailed(\n        address indexed distributorAddress,\n        bytes32 recordId,\n        uint256 amount\n    );\n\n    event SetPriceOracleSucceed(\n        address indexed adminAddress,\n        address tokenAddress,\n        address priceOracleAddress\n    );\n\n    event SetProtocolAddressSucceed(\n        address indexed adminAddress,\n        address protocolAddress\n    );\n\n    event SetInterestRateModelSucceed(\n        address indexed adminAddress,\n        address interestRateModelAddress\n    );\n\n    event SetProtocolReserveRatioSucceed(\n        address indexed adminAddress,\n        uint256 protocolReserveRatio\n    );\n\n    event SetMaxDistributionFeeRatiosSucceed(\n        address indexed adminAddress,\n        uint256 maxDepositDistributorFeeRatio,\n        uint256 maxLoanDistributorFeeRatio\n    );\n\n    /// Prevent direct transfer to the contract.\n    receive() external payable {\n        revert();\n    }\n\n    /// Admin functions\n    function pause() external onlyOwner whenNotPaused override {\n        _pause();\n    }\n\n    function unpause() external onlyOwner whenPaused override {\n        _unpause();\n    }\n\n    function enableDepositTerm(uint256 term) external onlyOwner override {\n        _depositManager.enableDepositTerm(_liquidityPools, term);\n    }\n\n    function enableDepositTerms(uint256[] calldata terms) external onlyOwner override {\n        _depositManager.enableDepositTerms(_liquidityPools, terms);\n    }\n\n    function disableDepositTerm(uint256 term) external onlyOwner override {\n        _depositManager.disableDepositTerm(term);\n    }\n\n    function disableDepositTerms(uint256[] calldata terms) external onlyOwner override {\n        _depositManager.disableDepositTerms(terms);\n    }\n\n    function enableDepositToken(address tokenAddress)\n        external\n        onlyOwner\n        override\n    {\n        _depositManager.enableDepositToken(tokenAddress);\n    }\n\n    function disableDepositToken(address tokenAddress)\n        external\n        onlyOwner\n        override\n    {\n        _depositManager.disableDepositToken(tokenAddress);\n    }\n\n    function setLoanAndCollateralTokenPair(\n        address loanTokenAddress,\n        address collateralTokenAddress,\n        uint256 minCollateralCoverageRatio,\n        uint256 liquidationDiscount\n    ) external onlyOwner override {\n        _loanManager.setLoanAndCollateralTokenPair(\n            loanTokenAddress,\n            collateralTokenAddress,\n            minCollateralCoverageRatio,\n            liquidationDiscount\n        );\n    }\n\n    function removeLoanAndCollateralTokenPair(\n        address loanTokenAddress,\n        address collateralTokenAddress\n    ) external onlyOwner override {\n        _loanManager.removeLoanAndCollateralTokenPair(\n            loanTokenAddress,\n            collateralTokenAddress\n        );\n    }\n\n    function setPriceOracle(address tokenAddress, IPriceOracle priceOracle)\n        external\n        onlyOwner\n        override\n    {\n        _configuration.setPriceOracle(tokenAddress, priceOracle);\n    }\n\n    function setInterestRateModel(IInterestRateModel interestRateModel)\n        external\n        onlyOwner\n        override\n    {\n        _configuration.setInterestRateModel(interestRateModel);\n    }\n\n    function setInterestReserveAddress(address payable interestReserveAddress)\n        external\n        onlyOwner\n        override\n    {\n        _configuration.setInterestReserveAddress(interestReserveAddress);\n    }\n\n    function setProtocolReserveRatio(uint256 protocolReserveRatio)\n        external\n        onlyOwner\n        override\n    {\n        _configuration.setProtocolReserveRatio(protocolReserveRatio);\n    }\n\n    function setMaxDistributorFeeRatios(\n        uint256 depositDistributorFeeRatio,\n        uint256 loanDistributorFeeRatio\n    ) external onlyOwner override {\n        _configuration.setMaxDistributorFeeRatios(\n            depositDistributorFeeRatio,\n            loanDistributorFeeRatio\n        );\n    }\n\n    function setBalanceCap(\n        address tokenAddress,\n        uint256 balanceCap\n    ) external onlyOwner override {\n        _configuration.setBalanceCap(\n            tokenAddress,\n            balanceCap\n        );\n    }\n\n    /// Lender functions\n    function deposit(\n        address tokenAddress,\n        uint256 depositAmount,\n        uint256 depositTerm,\n        address payable distributorAddress\n    ) external payable whenNotPaused nonReentrant onlyWhitelistedLender override returns (bytes32 depositId) {\n        IStruct.DepositParameters memory depositParameters = IStruct.DepositParameters({\n            tokenAddress: tokenAddress,\n            depositAmount: depositAmount,\n            depositTerm: depositTerm,\n            distributorAddress: distributorAddress\n        });\n\n        return\n            _depositManager.deposit(\n                _liquidityPools,\n                _configuration,\n                depositParameters\n            );\n    }\n\n    function withdraw(bytes32 depositId)\n        external\n        whenNotPaused\n        nonReentrant\n        onlyWhitelistedLender\n        override\n        returns (uint256 withdrewAmount)\n    {\n        return\n            _depositManager.withdraw(\n                _configuration,\n                _liquidityPools,\n                depositId\n            );\n    }\n\n    function earlyWithdraw(bytes32 depositId)\n        external\n        whenNotPaused\n        nonReentrant\n        onlyWhitelistedLender\n        override\n        returns (uint256 withdrewAmount)\n    {\n        return\n            _depositManager.earlyWithdraw(\n                _liquidityPools,\n                depositId\n            );\n    }\n\n    /// Borrower functions\n    function loan(\n        address loanTokenAddress,\n        address collateralTokenAddress,\n        uint256 loanAmount,\n        uint256 collateralAmount,\n        uint256 loanTerm,\n        address payable distributorAddress\n    ) external payable whenNotPaused nonReentrant onlyWhitelistedBorrower override returns (bytes32 loanId) {\n        IStruct.LoanParameters memory loanParameters = IStruct.LoanParameters({\n            loanTokenAddress: loanTokenAddress,\n            collateralTokenAddress: collateralTokenAddress,\n            loanAmount: loanAmount,\n            collateralAmount: collateralAmount,\n            loanTerm: loanTerm,\n            distributorAddress: distributorAddress\n        });\n\n        loanId = _loanManager.loan(\n            _configuration,\n            _liquidityPools,\n            loanParameters\n        );\n\n        return loanId;\n    }\n\n    function repayLoan(bytes32 loanId, uint256 repayAmount)\n        external\n        payable\n        whenNotPaused\n        nonReentrant\n        onlyWhitelistedBorrower\n        override\n        returns (uint256 remainingDebt)\n    {\n        return\n            _loanManager.repayLoan(\n                _liquidityPools,\n                loanId,\n                repayAmount\n            );\n    }\n\n    function addCollateral(\n        bytes32 loanId,\n        uint256 collateralAmount\n    )\n        external\n        payable\n        whenNotPaused\n        onlyWhitelistedBorrower\n        override\n        returns (uint256 totalCollateralAmount)\n    {\n        return _loanManager.addCollateral(loanId, collateralAmount);\n    }\n\n    function subtractCollateral(\n        bytes32 loanId,\n        uint256 collateralAmount\n    )\n        external\n        whenNotPaused\n        onlyWhitelistedBorrower\n        override\n        returns (uint256 totalCollateralAmount)\n    {\n        return _loanManager.subtractCollateral(_configuration, loanId, collateralAmount);\n    }\n\n    /// Liquidator functions\n    function liquidateLoan(bytes32 loanId, uint256 liquidateAmount)\n        external\n        payable\n        whenNotPaused\n        nonReentrant\n        onlyWhitelistedKeeper\n        override\n        returns (uint256 remainingCollateral, uint256 liquidatedAmount)\n    {\n        return\n            _loanManager.liquidateLoan(\n                _configuration,\n                _liquidityPools,\n                loanId,\n                liquidateAmount\n            );\n    }\n\n    /// Getters about deposit\n    function getDepositTerms()\n        external\n        view\n        override\n        returns (uint256[] memory depositTermList)\n    {\n        return _depositManager.depositTermList;\n    }\n\n    function getDepositTokens()\n        external\n        view\n        override\n        returns (address[] memory depositTokenAddressList)\n    {\n        return _depositManager.depositTokenAddressList;\n    }\n\n    function getDepositRecordById(bytes32 depositId)\n        external\n        view\n        override\n        returns (IStruct.GetDepositRecordResponse memory depositRecord)\n    {\n        return _depositManager.getDepositRecordById(_liquidityPools, depositId);\n    }\n\n    function getDepositRecordsByAccount(address accountAddress)\n        external\n        view\n        override\n        returns (IStruct.GetDepositRecordResponse[] memory depositRecordList)\n    {\n        return _depositManager.getDepositRecordsByAccount(_liquidityPools, accountAddress);\n    }\n\n    function isDepositEarlyWithdrawable(bytes32 depositId)\n        external\n        view\n        override\n        returns (bool isEarlyWithdrawable)\n    {\n        return\n            _depositManager.isDepositEarlyWithdrawable(\n                _liquidityPools,\n                depositId\n            );\n    }\n\n    /// Getters about loan\n    function getLoanAndCollateralTokenPairs()\n        external\n        view\n        override\n        returns (\n            IStruct.LoanAndCollateralTokenPair[] memory loanAndCollateralTokenPairList\n        )\n    {\n        return _loanManager.getLoanAndCollateralTokenPairs();\n    }\n\n    function getMaxLoanTerm()\n        external\n        view\n        override\n        returns (uint256 maxLoanTerm)\n    {\n        return _liquidityPools.poolGroupSize;\n    }\n\n    function getLoanInterestRate(address tokenAddress, uint256 term)\n        external\n        view\n        override\n        returns (uint256 loanInterestRate)\n    {\n        return\n            _loanManager.getLoanInterestRate(\n                _configuration,\n                _liquidityPools,\n                tokenAddress,\n                term\n            );\n    }\n\n    function getLoanRecordById(bytes32 loanId)\n        external\n        view\n        override\n        returns (IStruct.GetLoanRecordResponse memory loanRecord)\n    {\n        return _loanManager.getLoanRecordById(_configuration, loanId);\n    }\n\n    function getLoanRecordsByAccount(address accountAddress)\n        external\n        view\n        override\n        returns (IStruct.GetLoanRecordResponse[] memory loanRecordList)\n    {\n        return _loanManager.getLoanRecordsByAccount(_configuration, accountAddress);\n    }\n\n    /// Getters about liquidity pools\n    function getPoolsByToken(address tokenAddress)\n        external\n        view\n        override\n        returns (IStruct.GetPoolsByTokenResponse[] memory poolList)\n    {\n        return _liquidityPools.getPoolsByToken(tokenAddress);\n    }\n\n    function getPoolById(address tokenAddress, uint256 poolId)\n        external\n        view\n        override\n        returns (IStruct.Pool memory pool)\n    {\n        return _liquidityPools.getPoolById(tokenAddress, poolId);\n    }\n\n    /// Miscellaneous functions\n    function getBalanceCap(address tokenAddress)\n        external\n        view\n        override\n        returns (uint256 balanceCap)\n    {\n        return _configuration.balanceCapByToken[tokenAddress];\n    }\n\n    function getInterestRateModelAddress()\n        external\n        view\n        override\n        returns (address interestRateModelAddress)\n    {\n        return address(_configuration.interestRateModel);\n    }\n\n    function getTokenPrice(address tokenAddress)\n        external\n        view\n        override\n        returns (uint256 tokenPrice)\n    {\n        return _configuration.priceOracleByToken[tokenAddress].getPrice();\n    }\n\n    function getMaxDistributorFeeRatios()\n        external\n        view\n        override\n        returns (\n            uint256 depositDistributorFeeRatio,\n            uint256 loanDistributorFeeRatio\n        )\n    {\n        return (\n            _configuration.depositDistributorFeeRatio,\n            _configuration.loanDistributorFeeRatio\n        );\n    }\n\n    function getProtocolReserveRatio()\n        external\n        view\n        override\n        returns (uint256 protocolReserveRatio)\n    {\n        return _configuration.protocolReserveRatio;\n    }\n\n    function getInterestReserveAddress()\n        external\n        view\n        override\n        returns (address interestReserveAddress)\n    {\n        return _configuration.interestReserveAddress;\n    }\n}",
  "sourcePath": "/Users/liyangfan/Projects/WorkSpace/bluestone/contracts/protocol/Protocol.sol",
  "compiler": {
    "name": "solc",
    "version": "0.8.7+commit.e28d00a7.Emscripten.clang"
  },
  "schemaVersion": "3.4.4",
  "updatedAt": "2022-11-01T09:53:15.002Z",
  "networkType": "ethereum",
  "devdoc": {
    "details": "We can consider this contract as a master contract that contains no actual business logic but enforces permission checks and delegates function calls to corresponding libraries. Although contract states are defined in libraries, they are initialized and stored in this contract.",
    "kind": "dev",
    "methods": {
      "addBorrowerWhitelisted(address)": {
        "params": {
          "account": "Account address"
        }
      },
      "addCollateral(bytes32,uint256)": {
        "params": {
          "collateralAmount": "The collateral amount to be added to the loan (overwritten by msg.value if collateral token is ETH)",
          "loanId": "ID that identifies the loan"
        },
        "returns": {
          "totalCollateralAmount": "The total collateral amount after adding collateral"
        }
      },
      "addKeeperWhitelisted(address)": {
        "params": {
          "account": "Account address"
        }
      },
      "addLenderWhitelisted(address)": {
        "params": {
          "account": "Account address"
        }
      },
      "disableDepositToken(address)": {
        "params": {
          "tokenAddress": "Token address"
        }
      },
      "earlyWithdraw(bytes32)": {
        "params": {
          "depositId": "Id that identifies the deposit"
        },
        "returns": {
          "withdrewAmount": "Total amount withdrew, not including interest"
        }
      },
      "enableDepositToken(address)": {
        "params": {
          "tokenAddress": "Token address"
        }
      },
      "getDepositRecordById(bytes32)": {
        "params": {
          "depositId": "ID that identifies the deposit"
        },
        "returns": {
          "depositRecord": "depositRecord"
        }
      },
      "getDepositRecordsByAccount(address)": {
        "returns": {
          "depositRecordList": "depositRecordList"
        }
      },
      "getDepositTokens()": {
        "returns": {
          "depositTokenAddressList": "A list of deposit tokens"
        }
      },
      "getInterestRateModelAddress()": {
        "returns": {
          "interestRateModelAddress": "Interest model address"
        }
      },
      "getInterestReserveAddress()": {
        "returns": {
          "interestReserveAddress": "interest reserve address"
        }
      },
      "getLoanInterestRate(address,uint256)": {
        "returns": {
          "loanInterestRate": "loan interest rate"
        }
      },
      "getLoanRecordById(bytes32)": {
        "params": {
          "loanId": "ID that identifies the loan record"
        },
        "returns": {
          "loanRecord": "loanRecord"
        }
      },
      "getLoanRecordsByAccount(address)": {
        "returns": {
          "loanRecordList": "loanRecordList"
        }
      },
      "getMaxDistributorFeeRatios()": {
        "returns": {
          "depositDistributorFeeRatio": "depositDistributorFeeRatio",
          "loanDistributorFeeRatio": "loanDistributorFeeRatio"
        }
      },
      "getMaxLoanTerm()": {
        "details": "Remove documentation of return parameters in order to compile",
        "returns": {
          "maxLoanTerm": "maxLoanTerm"
        }
      },
      "getProtocolReserveRatio()": {
        "returns": {
          "protocolReserveRatio": "Protocol reserve ratio"
        }
      },
      "getTokenPrice(address)": {
        "params": {
          "tokenAddress": "Token address"
        },
        "returns": {
          "tokenPrice": "Token price in USD"
        }
      },
      "isDepositEarlyWithdrawable(bytes32)": {
        "params": {
          "depositId": "ID that identifies the deposit"
        },
        "returns": {
          "isEarlyWithdrawable": "isEarlyWithdrawable"
        }
      },
      "owner()": {
        "details": "Returns the address of the current owner."
      },
      "paused()": {
        "details": "Returns true if the contract is paused, and false otherwise."
      },
      "removeBorrowerWhitelisted(address)": {
        "params": {
          "account": "Account address"
        }
      },
      "removeKeeperWhitelisted(address)": {
        "params": {
          "account": "Account address"
        }
      },
      "removeLenderWhitelisted(address)": {
        "params": {
          "account": "Account address"
        }
      },
      "removeLoanAndCollateralTokenPair(address,address)": {
        "params": {
          "collateralTokenAddress": "collateral token address",
          "loanTokenAddress": "Loan token address"
        }
      },
      "renounceOwnership()": {
        "details": "Leaves the contract without owner. It will not be possible to call `onlyOwner` functions anymore. Can only be called by the current owner. NOTE: Renouncing ownership will leave the contract without an owner, thereby removing any functionality that is only available to the owner."
      },
      "repayLoan(bytes32,uint256)": {
        "params": {
          "loanId": "ID that identifies the loan",
          "repayAmount": "Amount to repay (overwritten by msg.value if loan token is ETH)"
        },
        "returns": {
          "remainingDebt": "remaining debt of the loan"
        }
      },
      "setBalanceCap(address,uint256)": {
        "params": {
          "balanceCap": "Maximum balance allowed",
          "tokenAddress": "Token address"
        }
      },
      "setInterestRateModel(address)": {
        "params": {
          "interestRateModel": "Interest model"
        }
      },
      "setInterestReserveAddress(address)": {
        "params": {
          "interestReserveAddress": "Protocol address"
        }
      },
      "setLoanAndCollateralTokenPair(address,address,uint256,uint256)": {
        "params": {
          "collateralTokenAddress": "Collateral token address",
          "liquidationDiscount": "Liquidation Discount",
          "loanTokenAddress": "Loan token address",
          "minCollateralCoverageRatio": "Minimum collateral coverage ratio"
        }
      },
      "setMaxDistributorFeeRatios(uint256,uint256)": {
        "params": {
          "depositDistributorFeeRatio": "deposit distributor fee ratio",
          "loanDistributorFeeRatio": "loan fee ratio"
        }
      },
      "setPriceOracle(address,address)": {
        "params": {
          "priceOracle": "Price oracle",
          "tokenAddress": "Token address"
        }
      },
      "setProtocolReserveRatio(uint256)": {
        "params": {
          "protocolReserveRatio": "Protocol reserve ratio"
        }
      },
      "subtractCollateral(bytes32,uint256)": {
        "params": {
          "collateralAmount": "The collateral amount to be subtracted from the loan",
          "loanId": "ID that identifies the loan"
        },
        "returns": {
          "totalCollateralAmount": "The total collateral amount after subtracting collateral"
        }
      },
      "transferOwnership(address)": {
        "details": "Transfers ownership of the contract to a new account (`newOwner`). Can only be called by the current owner."
      },
      "withdraw(bytes32)": {
        "params": {
          "depositId": "Id that identifies the deposit"
        },
        "returns": {
          "withdrewAmount": "Total amount withdrew, including interest"
        }
      }
    },
    "title": "The main contract that exposes all external functions",
    "version": 1
  },
  "userdoc": {
    "events": {
      "EnableDepositTermsSucceed(address,uint256[])": {
        "notice": "Events"
      }
    },
    "kind": "user",
    "methods": {
      "addBorrowerWhitelisted(address)": {
        "notice": "Add account to whitelistedBorrowers"
      },
      "addCollateral(bytes32,uint256)": {
        "notice": "Add collateral to a loan"
      },
      "addKeeperWhitelisted(address)": {
        "notice": "Add account to whitelistedKeepers"
      },
      "addLenderWhitelisted(address)": {
        "notice": "Add account to whitelistedLenders"
      },
      "deposit(address,uint256,uint256,address)": {
        "notice": "Lender functions"
      },
      "disableDepositToken(address)": {
        "notice": "Disable an token, i.e., ERC20 token, for deposit"
      },
      "earlyWithdraw(bytes32)": {
        "notice": "Early withdraw a deposit"
      },
      "enableDepositToken(address)": {
        "notice": "Enable an ERC20 token for deposit"
      },
      "getBalanceCap(address)": {
        "notice": "Miscellaneous functions"
      },
      "getDepositRecordById(bytes32)": {
        "notice": "Return details about a deposit"
      },
      "getDepositRecordsByAccount(address)": {
        "notice": "Return details about all deposits"
      },
      "getDepositTerms()": {
        "notice": "Getters about deposit"
      },
      "getDepositTokens()": {
        "notice": "Return details for each deposit token"
      },
      "getInterestRateModelAddress()": {
        "notice": "Return interest model address"
      },
      "getInterestReserveAddress()": {
        "notice": "Return interest reserve address"
      },
      "getLoanAndCollateralTokenPairs()": {
        "notice": "Getters about loan"
      },
      "getLoanInterestRate(address,uint256)": {
        "notice": "Return loan interest rate for given token"
      },
      "getLoanRecordById(bytes32)": {
        "notice": "Return basic info of a loan record"
      },
      "getLoanRecordsByAccount(address)": {
        "notice": "Return details of all loans owned by the caller"
      },
      "getMaxDistributorFeeRatios()": {
        "notice": "Return the maximum fee ratio for distributors"
      },
      "getMaxLoanTerm()": {
        "notice": "Get maximum loan term"
      },
      "getPoolsByToken(address)": {
        "notice": "Getters about liquidity pools"
      },
      "getProtocolReserveRatio()": {
        "notice": "Return protocol reserve ratio"
      },
      "getTokenPrice(address)": {
        "notice": "Return USD price of a token"
      },
      "getWhitelistedBorrowers()": {
        "notice": "Whitelisted borrowers getter"
      },
      "getWhitelistedKeepers()": {
        "notice": "Whitelisted keepers getter"
      },
      "getWhitelistedLenders()": {
        "notice": "Whitelisted lenders getter"
      },
      "isDepositEarlyWithdrawable(bytes32)": {
        "notice": "Return whether a deposit can be early withdrew."
      },
      "liquidateLoan(bytes32,uint256)": {
        "notice": "Liquidator functions"
      },
      "loan(address,address,uint256,uint256,uint256,address)": {
        "notice": "Borrower functions"
      },
      "pause()": {
        "notice": "Admin functions"
      },
      "removeBorrowerWhitelisted(address)": {
        "notice": "Remove account from whitelistedBorrowers"
      },
      "removeKeeperWhitelisted(address)": {
        "notice": "Remove account from whitelistedKeepers"
      },
      "removeLenderWhitelisted(address)": {
        "notice": "Remove account from whitelistedLenders"
      },
      "removeLoanAndCollateralTokenPair(address,address)": {
        "notice": "Remove a loan and collateral token pair, e.g., ETH_DAI"
      },
      "repayLoan(bytes32,uint256)": {
        "notice": "Pay back a specific amount of loan"
      },
      "setBalanceCap(address,uint256)": {
        "notice": "Set balance cap for a token"
      },
      "setInterestRateModel(address)": {
        "notice": "Set interest model"
      },
      "setInterestReserveAddress(address)": {
        "notice": "Set interest reserve address, which receives protocol reserve."
      },
      "setLoanAndCollateralTokenPair(address,address,uint256,uint256)": {
        "notice": "Set a loan and collateral token pair, e.g., ETH_DAI."
      },
      "setMaxDistributorFeeRatios(uint256,uint256)": {
        "notice": "Set the maximum fee ratio for distributors"
      },
      "setPriceOracle(address,address)": {
        "notice": "Set price oracle address"
      },
      "setProtocolReserveRatio(uint256)": {
        "notice": "Set protocol reserve ratio, which determines the percentage         of interest that goes to protocol reserve."
      },
      "subtractCollateral(bytes32,uint256)": {
        "notice": "Subtract collateral from a loan"
      },
      "unpause()": {
        "notice": "Unpause the contract"
      },
      "withdraw(bytes32)": {
        "notice": "Withdraw a deposit"
      }
    },
    "version": 1
  }
}