{
  "contractName": "Protocol",
  "abi": [
    {
      "anonymous": false,
      "inputs": [
        {
          "indexed": true,
          "internalType": "address",
          "name": "accountAddress",
          "type": "address"
        },
        {
          "indexed": false,
          "internalType": "bytes32",
          "name": "recordId",
          "type": "bytes32"
        },
        {
          "indexed": true,
          "internalType": "address",
          "name": "collateralTokenAddress",
          "type": "address"
        },
        {
          "indexed": false,
          "internalType": "uint256",
          "name": "collateralAmount",
          "type": "uint256"
        }
      ],
      "name": "AddCollateralSucceed",
      "type": "event"
    },
    {
      "anonymous": false,
      "inputs": [
        {
          "indexed": true,
          "internalType": "address",
          "name": "distributorAccountAddress",
          "type": "address"
        },
        {
          "indexed": false,
          "internalType": "bytes32",
          "name": "recordId",
          "type": "bytes32"
        },
        {
          "indexed": true,
          "internalType": "address",
          "name": "depositTokenAddress",
          "type": "address"
        },
        {
          "indexed": false,
          "internalType": "uint256",
          "name": "interestForDistributor",
          "type": "uint256"
        }
      ],
      "name": "DepositDistributorFeeTransferred",
      "type": "event"
    },
    {
      "anonymous": false,
      "inputs": [
        {
          "indexed": true,
          "internalType": "address",
          "name": "accountAddress",
          "type": "address"
        },
        {
          "indexed": false,
          "internalType": "bytes32",
          "name": "recordId",
          "type": "bytes32"
        },
        {
          "indexed": true,
          "internalType": "address",
          "name": "depositTokenAddress",
          "type": "address"
        },
        {
          "indexed": false,
          "internalType": "uint256",
          "name": "amount",
          "type": "uint256"
        }
      ],
      "name": "DepositSucceed",
      "type": "event"
    },
    {
      "anonymous": false,
      "inputs": [
        {
          "indexed": true,
          "internalType": "address",
          "name": "adminAddress",
          "type": "address"
        },
        {
          "indexed": false,
          "internalType": "uint256",
          "name": "term",
          "type": "uint256"
        }
      ],
      "name": "DisableDepositTermSucceed",
      "type": "event"
    },
    {
      "anonymous": false,
      "inputs": [
        {
          "indexed": true,
          "internalType": "address",
          "name": "adminAddress",
          "type": "address"
        },
        {
          "indexed": false,
          "internalType": "address",
          "name": "tokenAddress",
          "type": "address"
        }
      ],
      "name": "DisableDepositTokenSucceed",
      "type": "event"
    },
    {
      "anonymous": false,
      "inputs": [
        {
          "indexed": true,
          "internalType": "address",
          "name": "accountAddress",
          "type": "address"
        },
        {
          "indexed": false,
          "internalType": "bytes32",
          "name": "recordId",
          "type": "bytes32"
        },
        {
          "indexed": true,
          "internalType": "address",
          "name": "depositTokenAddress",
          "type": "address"
        },
        {
          "indexed": false,
          "internalType": "uint256",
          "name": "amount",
          "type": "uint256"
        }
      ],
      "name": "EarlyWithdrawSucceed",
      "type": "event"
    },
    {
      "anonymous": false,
      "inputs": [
        {
          "indexed": true,
          "internalType": "address",
          "name": "adminAddress",
          "type": "address"
        },
        {
          "indexed": false,
          "internalType": "uint256",
          "name": "term",
          "type": "uint256"
        }
      ],
      "name": "EnableDepositTermSucceed",
      "type": "event"
    },
    {
      "anonymous": false,
      "inputs": [
        {
          "indexed": true,
          "internalType": "address",
          "name": "adminAddress",
          "type": "address"
        },
        {
          "indexed": false,
          "internalType": "address",
          "name": "tokenAddress",
          "type": "address"
        }
      ],
      "name": "EnableDepositTokenSucceed",
      "type": "event"
    },
    {
      "anonymous": false,
      "inputs": [
        {
          "indexed": true,
          "internalType": "address",
          "name": "accountAddress",
          "type": "address"
        },
        {
          "indexed": false,
          "internalType": "bytes32",
          "name": "recordId",
          "type": "bytes32"
        },
        {
          "indexed": true,
          "internalType": "address",
          "name": "depositTokenAddress",
          "type": "address"
        },
        {
          "indexed": false,
          "internalType": "uint256",
          "name": "interestForProtocolReserve",
          "type": "uint256"
        }
      ],
      "name": "InterestReserveTransferred",
      "type": "event"
    },
    {
      "anonymous": false,
      "inputs": [
        {
          "indexed": true,
          "internalType": "address",
          "name": "accountAddress",
          "type": "address"
        },
        {
          "indexed": false,
          "internalType": "bytes32",
          "name": "recordId",
          "type": "bytes32"
        },
        {
          "indexed": true,
          "internalType": "address",
          "name": "loanTokenAddress",
          "type": "address"
        },
        {
          "indexed": false,
          "internalType": "uint256",
          "name": "liquidateAmount",
          "type": "uint256"
        },
        {
          "indexed": true,
          "internalType": "address",
          "name": "collateralTokenAddress",
          "type": "address"
        },
        {
          "indexed": false,
          "internalType": "uint256",
          "name": "soldCollateralAmount",
          "type": "uint256"
        }
      ],
      "name": "LiquidateLoanSucceed",
      "type": "event"
    },
    {
      "anonymous": false,
      "inputs": [
        {
          "indexed": true,
          "internalType": "address",
          "name": "distributorAccountAddress",
          "type": "address"
        },
        {
          "indexed": false,
          "internalType": "bytes32",
          "name": "recordId",
          "type": "bytes32"
        },
        {
          "indexed": true,
          "internalType": "address",
          "name": "loanTokenAddress",
          "type": "address"
        },
        {
          "indexed": false,
          "internalType": "uint256",
          "name": "interestForLoanDistributor",
          "type": "uint256"
        }
      ],
      "name": "LoanDistributorFeeTransferred",
      "type": "event"
    },
    {
      "anonymous": false,
      "inputs": [
        {
          "indexed": true,
          "internalType": "address",
          "name": "accountAddress",
          "type": "address"
        },
        {
          "indexed": false,
          "internalType": "bytes32",
          "name": "recordId",
          "type": "bytes32"
        },
        {
          "indexed": true,
          "internalType": "address",
          "name": "loanTokenAddress",
          "type": "address"
        },
        {
          "indexed": false,
          "internalType": "uint256",
          "name": "loanAmount",
          "type": "uint256"
        },
        {
          "indexed": true,
          "internalType": "address",
          "name": "collateralTokenAddress",
          "type": "address"
        },
        {
          "indexed": false,
          "internalType": "uint256",
          "name": "collateralAmount",
          "type": "uint256"
        }
      ],
      "name": "LoanSucceed",
      "type": "event"
    },
    {
      "anonymous": false,
      "inputs": [
        {
          "indexed": true,
          "internalType": "address",
          "name": "previousOwner",
          "type": "address"
        },
        {
          "indexed": true,
          "internalType": "address",
          "name": "newOwner",
          "type": "address"
        }
      ],
      "name": "OwnershipTransferred",
      "type": "event"
    },
    {
      "anonymous": false,
      "inputs": [
        {
          "indexed": false,
          "internalType": "address",
          "name": "account",
          "type": "address"
        }
      ],
      "name": "Paused",
      "type": "event"
    },
    {
      "anonymous": false,
      "inputs": [
        {
          "indexed": true,
          "internalType": "address",
          "name": "distributorAddress",
          "type": "address"
        },
        {
          "indexed": false,
          "internalType": "bytes32",
          "name": "recordId",
          "type": "bytes32"
        },
        {
          "indexed": false,
          "internalType": "uint256",
          "name": "amount",
          "type": "uint256"
        }
      ],
      "name": "PayDepositDistributorFailed",
      "type": "event"
    },
    {
      "anonymous": false,
      "inputs": [
        {
          "indexed": true,
          "internalType": "address",
          "name": "distributorAddress",
          "type": "address"
        },
        {
          "indexed": false,
          "internalType": "bytes32",
          "name": "recordId",
          "type": "bytes32"
        },
        {
          "indexed": false,
          "internalType": "uint256",
          "name": "amount",
          "type": "uint256"
        }
      ],
      "name": "PayLoanDistributorFailed",
      "type": "event"
    },
    {
      "anonymous": false,
      "inputs": [
        {
          "indexed": true,
          "internalType": "address",
          "name": "adminAddress",
          "type": "address"
        },
        {
          "indexed": false,
          "internalType": "address",
          "name": "loanTokenAddress",
          "type": "address"
        },
        {
          "indexed": false,
          "internalType": "address",
          "name": "collateralTokenAddress",
          "type": "address"
        }
      ],
      "name": "RemoveLoanAndCollateralTokenPairSucceed",
      "type": "event"
    },
    {
      "anonymous": false,
      "inputs": [
        {
          "indexed": true,
          "internalType": "address",
          "name": "accountAddress",
          "type": "address"
        },
        {
          "indexed": false,
          "internalType": "bytes32",
          "name": "recordId",
          "type": "bytes32"
        },
        {
          "indexed": true,
          "internalType": "address",
          "name": "loanTokenAddress",
          "type": "address"
        },
        {
          "indexed": false,
          "internalType": "uint256",
          "name": "repayAmount",
          "type": "uint256"
        },
        {
          "indexed": true,
          "internalType": "address",
          "name": "collateralTokenAddress",
          "type": "address"
        },
        {
          "indexed": false,
          "internalType": "uint256",
          "name": "returnedCollateralAmount",
          "type": "uint256"
        },
        {
          "indexed": false,
          "internalType": "bool",
          "name": "isFullyRepaid",
          "type": "bool"
        }
      ],
      "name": "RepayLoanSucceed",
      "type": "event"
    },
    {
      "anonymous": false,
      "inputs": [
        {
          "indexed": true,
          "internalType": "address",
          "name": "adminAddress",
          "type": "address"
        },
        {
          "indexed": false,
          "internalType": "address",
          "name": "interestModelAddress",
          "type": "address"
        }
      ],
      "name": "SetInterestModelSucceed",
      "type": "event"
    },
    {
      "anonymous": false,
      "inputs": [
        {
          "indexed": true,
          "internalType": "address",
          "name": "adminAddress",
          "type": "address"
        },
        {
          "indexed": false,
          "internalType": "address",
          "name": "loanTokenAddress",
          "type": "address"
        },
        {
          "indexed": false,
          "internalType": "address",
          "name": "collateralTokenAddress",
          "type": "address"
        },
        {
          "indexed": false,
          "internalType": "uint256",
          "name": "minCollateralCoverageRatio",
          "type": "uint256"
        },
        {
          "indexed": false,
          "internalType": "uint256",
          "name": "liquidationDiscount",
          "type": "uint256"
        }
      ],
      "name": "SetLoanAndCollateralTokenPairSucceed",
      "type": "event"
    },
    {
      "anonymous": false,
      "inputs": [
        {
          "indexed": true,
          "internalType": "address",
          "name": "adminAddress",
          "type": "address"
        },
        {
          "indexed": false,
          "internalType": "uint256",
          "name": "maxDepositDistributorFeeRatio",
          "type": "uint256"
        },
        {
          "indexed": false,
          "internalType": "uint256",
          "name": "maxLoanDistributorFeeRatio",
          "type": "uint256"
        }
      ],
      "name": "SetMaxDistributionFeeRatiosSucceed",
      "type": "event"
    },
    {
      "anonymous": false,
      "inputs": [
        {
          "indexed": true,
          "internalType": "address",
          "name": "adminAddress",
          "type": "address"
        },
        {
          "indexed": false,
          "internalType": "address",
          "name": "tokenAddress",
          "type": "address"
        },
        {
          "indexed": false,
          "internalType": "address",
          "name": "priceOracleAddress",
          "type": "address"
        }
      ],
      "name": "SetPriceOracleSucceed",
      "type": "event"
    },
    {
      "anonymous": false,
      "inputs": [
        {
          "indexed": true,
          "internalType": "address",
          "name": "adminAddress",
          "type": "address"
        },
        {
          "indexed": false,
          "internalType": "address",
          "name": "protocolAddress",
          "type": "address"
        }
      ],
      "name": "SetProtocolAddressSucceed",
      "type": "event"
    },
    {
      "anonymous": false,
      "inputs": [
        {
          "indexed": true,
          "internalType": "address",
          "name": "adminAddress",
          "type": "address"
        },
        {
          "indexed": false,
          "internalType": "uint256",
          "name": "protocolReserveRatio",
          "type": "uint256"
        }
      ],
      "name": "SetProtocolReserveRatioSucceed",
      "type": "event"
    },
    {
      "anonymous": false,
      "inputs": [
        {
          "indexed": true,
          "internalType": "address",
          "name": "accountAddress",
          "type": "address"
        },
        {
          "indexed": true,
          "internalType": "address",
          "name": "collateralTokenAddress",
          "type": "address"
        },
        {
          "indexed": false,
          "internalType": "bytes32",
          "name": "recordId",
          "type": "bytes32"
        },
        {
          "indexed": false,
          "internalType": "uint256",
          "name": "collateralAmount",
          "type": "uint256"
        }
      ],
      "name": "SubtractCollateralSucceed",
      "type": "event"
    },
    {
      "anonymous": false,
      "inputs": [
        {
          "indexed": false,
          "internalType": "address",
          "name": "account",
          "type": "address"
        }
      ],
      "name": "Unpaused",
      "type": "event"
    },
    {
      "anonymous": false,
      "inputs": [
        {
          "indexed": true,
          "internalType": "address",
          "name": "accountAddress",
          "type": "address"
        },
        {
          "indexed": false,
          "internalType": "bytes32",
          "name": "recordId",
          "type": "bytes32"
        },
        {
          "indexed": true,
          "internalType": "address",
          "name": "depositTokenAddress",
          "type": "address"
        },
        {
          "indexed": false,
          "internalType": "uint256",
          "name": "amount",
          "type": "uint256"
        }
      ],
      "name": "WithdrawSucceed",
      "type": "event"
    },
    {
      "inputs": [],
      "name": "owner",
      "outputs": [
        {
          "internalType": "address",
          "name": "",
          "type": "address"
        }
      ],
      "stateMutability": "view",
      "type": "function"
    },
    {
      "inputs": [],
      "name": "paused",
      "outputs": [
        {
          "internalType": "bool",
          "name": "",
          "type": "bool"
        }
      ],
      "stateMutability": "view",
      "type": "function"
    },
    {
      "inputs": [],
      "name": "renounceOwnership",
      "outputs": [],
      "stateMutability": "nonpayable",
      "type": "function"
    },
    {
      "inputs": [
        {
          "internalType": "address",
          "name": "newOwner",
          "type": "address"
        }
      ],
      "name": "transferOwnership",
      "outputs": [],
      "stateMutability": "nonpayable",
      "type": "function"
    },
    {
      "stateMutability": "payable",
      "type": "receive"
    },
    {
      "inputs": [],
      "name": "pause",
      "outputs": [],
      "stateMutability": "nonpayable",
      "type": "function"
    },
    {
      "inputs": [],
      "name": "unpause",
      "outputs": [],
      "stateMutability": "nonpayable",
      "type": "function"
    },
    {
      "inputs": [
        {
          "internalType": "uint256",
          "name": "term",
          "type": "uint256"
        }
      ],
      "name": "enableDepositTerm",
      "outputs": [],
      "stateMutability": "nonpayable",
      "type": "function"
    },
    {
      "inputs": [
        {
          "internalType": "uint256",
          "name": "term",
          "type": "uint256"
        }
      ],
      "name": "disableDepositTerm",
      "outputs": [],
      "stateMutability": "nonpayable",
      "type": "function"
    },
    {
      "inputs": [
        {
          "internalType": "address",
          "name": "tokenAddress",
          "type": "address"
        }
      ],
      "name": "enableDepositToken",
      "outputs": [],
      "stateMutability": "nonpayable",
      "type": "function"
    },
    {
      "inputs": [
        {
          "internalType": "address",
          "name": "tokenAddress",
          "type": "address"
        }
      ],
      "name": "disableDepositToken",
      "outputs": [],
      "stateMutability": "nonpayable",
      "type": "function"
    },
    {
      "inputs": [
        {
          "internalType": "address",
          "name": "loanTokenAddress",
          "type": "address"
        },
        {
          "internalType": "address",
          "name": "collateralTokenAddress",
          "type": "address"
        },
        {
          "internalType": "uint256",
          "name": "minCollateralCoverageRatio",
          "type": "uint256"
        },
        {
          "internalType": "uint256",
          "name": "liquidationDiscount",
          "type": "uint256"
        }
      ],
      "name": "setLoanAndCollateralTokenPair",
      "outputs": [],
      "stateMutability": "nonpayable",
      "type": "function"
    },
    {
      "inputs": [
        {
          "internalType": "address",
          "name": "loanTokenAddress",
          "type": "address"
        },
        {
          "internalType": "address",
          "name": "collateralTokenAddress",
          "type": "address"
        }
      ],
      "name": "removeLoanAndCollateralTokenPair",
      "outputs": [],
      "stateMutability": "nonpayable",
      "type": "function"
    },
    {
      "inputs": [
        {
          "internalType": "address",
          "name": "tokenAddress",
          "type": "address"
        },
        {
          "internalType": "contract IPriceOracle",
          "name": "priceOracle",
          "type": "address"
        }
      ],
      "name": "setPriceOracle",
      "outputs": [],
      "stateMutability": "nonpayable",
      "type": "function"
    },
    {
      "inputs": [
        {
          "internalType": "contract IInterestModel",
          "name": "interestModel",
          "type": "address"
        }
      ],
      "name": "setInterestModel",
      "outputs": [],
      "stateMutability": "nonpayable",
      "type": "function"
    },
    {
      "inputs": [
        {
          "internalType": "address payable",
          "name": "interestReserveAddress",
          "type": "address"
        }
      ],
      "name": "setInterestReserveAddress",
      "outputs": [],
      "stateMutability": "nonpayable",
      "type": "function"
    },
    {
      "inputs": [
        {
          "internalType": "uint256",
          "name": "protocolReserveRatio",
          "type": "uint256"
        }
      ],
      "name": "setProtocolReserveRatio",
      "outputs": [],
      "stateMutability": "nonpayable",
      "type": "function"
    },
    {
      "inputs": [
        {
          "internalType": "uint256",
          "name": "depositDistributorFeeRatio",
          "type": "uint256"
        },
        {
          "internalType": "uint256",
          "name": "loanDistributorFeeRatio",
          "type": "uint256"
        }
      ],
      "name": "setMaxDistributorFeeRatios",
      "outputs": [],
      "stateMutability": "nonpayable",
      "type": "function"
    },
    {
      "inputs": [
        {
          "internalType": "address",
          "name": "tokenAddress",
          "type": "address"
        },
        {
          "internalType": "uint256",
          "name": "balanceCap",
          "type": "uint256"
        }
      ],
      "name": "setBalanceCap",
      "outputs": [],
      "stateMutability": "nonpayable",
      "type": "function"
    },
    {
      "inputs": [
        {
          "internalType": "address",
          "name": "tokenAddress",
          "type": "address"
        },
        {
          "internalType": "uint256",
          "name": "depositAmount",
          "type": "uint256"
        },
        {
          "internalType": "uint256",
          "name": "depositTerm",
          "type": "uint256"
        },
        {
          "internalType": "address payable",
          "name": "distributorAddress",
          "type": "address"
        }
      ],
      "name": "deposit",
      "outputs": [
        {
          "internalType": "bytes32",
          "name": "depositId",
          "type": "bytes32"
        }
      ],
      "stateMutability": "payable",
      "type": "function"
    },
    {
      "inputs": [
        {
          "internalType": "bytes32",
          "name": "depositId",
          "type": "bytes32"
        }
      ],
      "name": "withdraw",
      "outputs": [
        {
          "internalType": "uint256",
          "name": "withdrewAmount",
          "type": "uint256"
        }
      ],
      "stateMutability": "nonpayable",
      "type": "function"
    },
    {
      "inputs": [
        {
          "internalType": "bytes32",
          "name": "depositId",
          "type": "bytes32"
        }
      ],
      "name": "earlyWithdraw",
      "outputs": [
        {
          "internalType": "uint256",
          "name": "withdrewAmount",
          "type": "uint256"
        }
      ],
      "stateMutability": "nonpayable",
      "type": "function"
    },
    {
      "inputs": [
        {
          "internalType": "address",
          "name": "loanTokenAddress",
          "type": "address"
        },
        {
          "internalType": "address",
          "name": "collateralTokenAddress",
          "type": "address"
        },
        {
          "internalType": "uint256",
          "name": "loanAmount",
          "type": "uint256"
        },
        {
          "internalType": "uint256",
          "name": "collateralAmount",
          "type": "uint256"
        },
        {
          "internalType": "uint256",
          "name": "loanTerm",
          "type": "uint256"
        },
        {
          "internalType": "address payable",
          "name": "distributorAddress",
          "type": "address"
        }
      ],
      "name": "loan",
      "outputs": [
        {
          "internalType": "bytes32",
          "name": "loanId",
          "type": "bytes32"
        }
      ],
      "stateMutability": "payable",
      "type": "function"
    },
    {
      "inputs": [
        {
          "internalType": "bytes32",
          "name": "loanId",
          "type": "bytes32"
        },
        {
          "internalType": "uint256",
          "name": "repayAmount",
          "type": "uint256"
        }
      ],
      "name": "repayLoan",
      "outputs": [
        {
          "internalType": "uint256",
          "name": "remainingDebt",
          "type": "uint256"
        }
      ],
      "stateMutability": "payable",
      "type": "function"
    },
    {
      "inputs": [
        {
          "internalType": "bytes32",
          "name": "loanId",
          "type": "bytes32"
        },
        {
          "internalType": "uint256",
          "name": "collateralAmount",
          "type": "uint256"
        }
      ],
      "name": "addCollateral",
      "outputs": [
        {
          "internalType": "uint256",
          "name": "totalCollateralAmount",
          "type": "uint256"
        }
      ],
      "stateMutability": "payable",
      "type": "function"
    },
    {
      "inputs": [
        {
          "internalType": "bytes32",
          "name": "loanId",
          "type": "bytes32"
        },
        {
          "internalType": "uint256",
          "name": "collateralAmount",
          "type": "uint256"
        }
      ],
      "name": "subtractCollateral",
      "outputs": [
        {
          "internalType": "uint256",
          "name": "totalCollateralAmount",
          "type": "uint256"
        }
      ],
      "stateMutability": "nonpayable",
      "type": "function"
    },
    {
      "inputs": [
        {
          "internalType": "bytes32",
          "name": "loanId",
          "type": "bytes32"
        },
        {
          "internalType": "uint256",
          "name": "liquidateAmount",
          "type": "uint256"
        }
      ],
      "name": "liquidateLoan",
      "outputs": [
        {
          "internalType": "uint256",
          "name": "remainingCollateral",
          "type": "uint256"
        },
        {
          "internalType": "uint256",
          "name": "liquidatedAmount",
          "type": "uint256"
        }
      ],
      "stateMutability": "payable",
      "type": "function"
    },
    {
      "inputs": [],
      "name": "getDepositTerms",
      "outputs": [
        {
          "internalType": "uint256[]",
          "name": "depositTermList",
          "type": "uint256[]"
        }
      ],
      "stateMutability": "view",
      "type": "function"
    },
    {
      "inputs": [],
      "name": "getDepositTokens",
      "outputs": [
        {
          "internalType": "address[]",
          "name": "depositTokenAddressList",
          "type": "address[]"
        }
      ],
      "stateMutability": "view",
      "type": "function"
    },
    {
      "inputs": [
        {
          "internalType": "bytes32",
          "name": "depositId",
          "type": "bytes32"
        }
      ],
      "name": "getDepositRecordById",
      "outputs": [
        {
          "components": [
            {
              "internalType": "bytes32",
              "name": "depositId",
              "type": "bytes32"
            },
            {
              "internalType": "address",
              "name": "tokenAddress",
              "type": "address"
            },
            {
              "internalType": "uint256",
              "name": "depositTerm",
              "type": "uint256"
            },
            {
              "internalType": "uint256",
              "name": "depositAmount",
              "type": "uint256"
            },
            {
              "internalType": "uint256",
              "name": "poolId",
              "type": "uint256"
            },
            {
              "internalType": "uint256",
              "name": "interest",
              "type": "uint256"
            },
            {
              "internalType": "uint256",
              "name": "createdAt",
              "type": "uint256"
            },
            {
              "internalType": "uint256",
              "name": "withdrewAt",
              "type": "uint256"
            },
            {
              "internalType": "uint256",
              "name": "weight",
              "type": "uint256"
            }
          ],
          "internalType": "struct IStruct.GetDepositRecordResponse",
          "name": "depositRecord",
          "type": "tuple"
        }
      ],
      "stateMutability": "view",
      "type": "function"
    },
    {
      "inputs": [
        {
          "internalType": "address",
          "name": "accountAddress",
          "type": "address"
        }
      ],
      "name": "getDepositRecordsByAccount",
      "outputs": [
        {
          "components": [
            {
              "internalType": "bytes32",
              "name": "depositId",
              "type": "bytes32"
            },
            {
              "internalType": "address",
              "name": "tokenAddress",
              "type": "address"
            },
            {
              "internalType": "uint256",
              "name": "depositTerm",
              "type": "uint256"
            },
            {
              "internalType": "uint256",
              "name": "depositAmount",
              "type": "uint256"
            },
            {
              "internalType": "uint256",
              "name": "poolId",
              "type": "uint256"
            },
            {
              "internalType": "uint256",
              "name": "interest",
              "type": "uint256"
            },
            {
              "internalType": "uint256",
              "name": "createdAt",
              "type": "uint256"
            },
            {
              "internalType": "uint256",
              "name": "withdrewAt",
              "type": "uint256"
            },
            {
              "internalType": "uint256",
              "name": "weight",
              "type": "uint256"
            }
          ],
          "internalType": "struct IStruct.GetDepositRecordResponse[]",
          "name": "depositRecordList",
          "type": "tuple[]"
        }
      ],
      "stateMutability": "view",
      "type": "function"
    },
    {
      "inputs": [
        {
          "internalType": "bytes32",
          "name": "depositId",
          "type": "bytes32"
        }
      ],
      "name": "isDepositEarlyWithdrawable",
      "outputs": [
        {
          "internalType": "bool",
          "name": "isEarlyWithdrawable",
          "type": "bool"
        }
      ],
      "stateMutability": "view",
      "type": "function"
    },
    {
      "inputs": [],
      "name": "getLoanAndCollateralTokenPairs",
      "outputs": [
        {
          "components": [
            {
              "internalType": "address",
              "name": "loanTokenAddress",
              "type": "address"
            },
            {
              "internalType": "address",
              "name": "collateralTokenAddress",
              "type": "address"
            },
            {
              "internalType": "uint256",
              "name": "minCollateralCoverageRatio",
              "type": "uint256"
            },
            {
              "internalType": "uint256",
              "name": "liquidationDiscount",
              "type": "uint256"
            }
          ],
          "internalType": "struct IStruct.LoanAndCollateralTokenPair[]",
          "name": "loanAndCollateralTokenPairList",
          "type": "tuple[]"
        }
      ],
      "stateMutability": "view",
      "type": "function"
    },
    {
      "inputs": [],
      "name": "getMaxLoanTerm",
      "outputs": [
        {
          "internalType": "uint256",
          "name": "maxLoanTerm",
          "type": "uint256"
        }
      ],
      "stateMutability": "view",
      "type": "function"
    },
    {
      "inputs": [
        {
          "internalType": "address",
          "name": "tokenAddress",
          "type": "address"
        },
        {
          "internalType": "uint256",
          "name": "term",
          "type": "uint256"
        }
      ],
      "name": "getLoanInterestRate",
      "outputs": [
        {
          "internalType": "uint256",
          "name": "loanInterestRate",
          "type": "uint256"
        }
      ],
      "stateMutability": "view",
      "type": "function"
    },
    {
      "inputs": [
        {
          "internalType": "bytes32",
          "name": "loanId",
          "type": "bytes32"
        }
      ],
      "name": "getLoanRecordById",
      "outputs": [
        {
          "components": [
            {
              "internalType": "bool",
              "name": "isClosed",
              "type": "bool"
            },
            {
              "internalType": "bytes32",
              "name": "loanId",
              "type": "bytes32"
            },
            {
              "internalType": "address",
              "name": "loanTokenAddress",
              "type": "address"
            },
            {
              "internalType": "address",
              "name": "collateralTokenAddress",
              "type": "address"
            },
            {
              "internalType": "uint256",
              "name": "loanAmount",
              "type": "uint256"
            },
            {
              "internalType": "uint256",
              "name": "collateralAmount",
              "type": "uint256"
            },
            {
              "internalType": "uint256",
              "name": "loanTerm",
              "type": "uint256"
            },
            {
              "internalType": "uint256",
              "name": "annualInterestRate",
              "type": "uint256"
            },
            {
              "internalType": "uint256",
              "name": "interest",
              "type": "uint256"
            },
            {
              "internalType": "uint256",
              "name": "collateralCoverageRatio",
              "type": "uint256"
            },
            {
              "internalType": "uint256",
              "name": "minCollateralCoverageRatio",
              "type": "uint256"
            },
            {
              "internalType": "uint256",
              "name": "alreadyPaidAmount",
              "type": "uint256"
            },
            {
              "internalType": "uint256",
              "name": "liquidatedAmount",
              "type": "uint256"
            },
            {
              "internalType": "uint256",
              "name": "soldCollateralAmount",
              "type": "uint256"
            },
            {
              "internalType": "uint256",
              "name": "createdAt",
              "type": "uint256"
            },
            {
              "internalType": "uint256",
              "name": "dueAt",
              "type": "uint256"
            },
            {
              "internalType": "uint256",
              "name": "remainingDebt",
              "type": "uint256"
            }
          ],
          "internalType": "struct IStruct.GetLoanRecordResponse",
          "name": "loanRecord",
          "type": "tuple"
        }
      ],
      "stateMutability": "view",
      "type": "function"
    },
    {
      "inputs": [
        {
          "internalType": "address",
          "name": "accountAddress",
          "type": "address"
        }
      ],
      "name": "getLoanRecordsByAccount",
      "outputs": [
        {
          "components": [
            {
              "internalType": "bool",
              "name": "isClosed",
              "type": "bool"
            },
            {
              "internalType": "bytes32",
              "name": "loanId",
              "type": "bytes32"
            },
            {
              "internalType": "address",
              "name": "loanTokenAddress",
              "type": "address"
            },
            {
              "internalType": "address",
              "name": "collateralTokenAddress",
              "type": "address"
            },
            {
              "internalType": "uint256",
              "name": "loanAmount",
              "type": "uint256"
            },
            {
              "internalType": "uint256",
              "name": "collateralAmount",
              "type": "uint256"
            },
            {
              "internalType": "uint256",
              "name": "loanTerm",
              "type": "uint256"
            },
            {
              "internalType": "uint256",
              "name": "annualInterestRate",
              "type": "uint256"
            },
            {
              "internalType": "uint256",
              "name": "interest",
              "type": "uint256"
            },
            {
              "internalType": "uint256",
              "name": "collateralCoverageRatio",
              "type": "uint256"
            },
            {
              "internalType": "uint256",
              "name": "minCollateralCoverageRatio",
              "type": "uint256"
            },
            {
              "internalType": "uint256",
              "name": "alreadyPaidAmount",
              "type": "uint256"
            },
            {
              "internalType": "uint256",
              "name": "liquidatedAmount",
              "type": "uint256"
            },
            {
              "internalType": "uint256",
              "name": "soldCollateralAmount",
              "type": "uint256"
            },
            {
              "internalType": "uint256",
              "name": "createdAt",
              "type": "uint256"
            },
            {
              "internalType": "uint256",
              "name": "dueAt",
              "type": "uint256"
            },
            {
              "internalType": "uint256",
              "name": "remainingDebt",
              "type": "uint256"
            }
          ],
          "internalType": "struct IStruct.GetLoanRecordResponse[]",
          "name": "loanRecordList",
          "type": "tuple[]"
        }
      ],
      "stateMutability": "view",
      "type": "function"
    },
    {
      "inputs": [
        {
          "internalType": "address",
          "name": "tokenAddress",
          "type": "address"
        }
      ],
      "name": "getPoolsByToken",
      "outputs": [
        {
          "components": [
            {
              "internalType": "uint256",
              "name": "poolId",
              "type": "uint256"
            },
            {
              "internalType": "uint256",
              "name": "depositAmount",
              "type": "uint256"
            },
            {
              "internalType": "uint256",
              "name": "availableAmount",
              "type": "uint256"
            },
            {
              "internalType": "uint256",
              "name": "loanInterest",
              "type": "uint256"
            },
            {
              "internalType": "uint256",
              "name": "totalDepositWeight",
              "type": "uint256"
            }
          ],
          "internalType": "struct IStruct.GetPoolsByTokenResponse[]",
          "name": "poolList",
          "type": "tuple[]"
        }
      ],
      "stateMutability": "view",
      "type": "function"
    },
    {
      "inputs": [
        {
          "internalType": "address",
          "name": "tokenAddress",
          "type": "address"
        },
        {
          "internalType": "uint256",
          "name": "poolId",
          "type": "uint256"
        }
      ],
      "name": "getPoolById",
      "outputs": [
        {
          "components": [
            {
              "internalType": "uint256",
              "name": "depositAmount",
              "type": "uint256"
            },
            {
              "internalType": "uint256",
              "name": "availableAmount",
              "type": "uint256"
            },
            {
              "internalType": "uint256",
              "name": "loanInterest",
              "type": "uint256"
            },
            {
              "internalType": "uint256",
              "name": "totalDepositWeight",
              "type": "uint256"
            },
            {
              "internalType": "uint256",
              "name": "depositDistributorFeeRatio",
              "type": "uint256"
            },
            {
              "internalType": "uint256",
              "name": "loanDistributorFeeRatio",
              "type": "uint256"
            },
            {
              "internalType": "uint256",
              "name": "protocolReserveRatio",
              "type": "uint256"
            }
          ],
          "internalType": "struct IStruct.Pool",
          "name": "pool",
          "type": "tuple"
        }
      ],
      "stateMutability": "view",
      "type": "function"
    },
    {
      "inputs": [
        {
          "internalType": "address",
          "name": "tokenAddress",
          "type": "address"
        }
      ],
      "name": "getBalanceCap",
      "outputs": [
        {
          "internalType": "uint256",
          "name": "balanceCap",
          "type": "uint256"
        }
      ],
      "stateMutability": "view",
      "type": "function"
    },
    {
      "inputs": [],
      "name": "getInterestModelAddress",
      "outputs": [
        {
          "internalType": "address",
          "name": "interestModelAddress",
          "type": "address"
        }
      ],
      "stateMutability": "view",
      "type": "function"
    },
    {
      "inputs": [
        {
          "internalType": "address",
          "name": "tokenAddress",
          "type": "address"
        }
      ],
      "name": "getTokenPrice",
      "outputs": [
        {
          "internalType": "uint256",
          "name": "tokenPrice",
          "type": "uint256"
        }
      ],
      "stateMutability": "view",
      "type": "function"
    },
    {
      "inputs": [],
      "name": "getMaxDistributorFeeRatios",
      "outputs": [
        {
          "internalType": "uint256",
          "name": "depositDistributorFeeRatio",
          "type": "uint256"
        },
        {
          "internalType": "uint256",
          "name": "loanDistributorFeeRatio",
          "type": "uint256"
        }
      ],
      "stateMutability": "view",
      "type": "function"
    },
    {
      "inputs": [],
      "name": "getProtocolReserveRatio",
      "outputs": [
        {
          "internalType": "uint256",
          "name": "protocolReserveRatio",
          "type": "uint256"
        }
      ],
      "stateMutability": "view",
      "type": "function"
    },
    {
      "inputs": [],
      "name": "getInterestReserveAddress",
      "outputs": [
        {
          "internalType": "address",
          "name": "interestReserveAddress",
          "type": "address"
        }
      ],
      "stateMutability": "view",
      "type": "function"
    }
  ],
  "bytecode": "0x608060405260006100176001600160e01b0361007a16565b600080546001600160a01b0319166001600160a01b0383169081178255604051929350917f8be0079c531659141344cd1fd0a4f28419497f9722a3daafe3b4186f6b6457e0908290a3506000805461ffff60a01b1916600160a81b17905561007e565b3390565b612ed88061008d6000396000f3fe60806040526004361061026b5760003560e01c80637550baef11610144578063a04360b6116100b6578063db2f90ae1161007a578063db2f90ae1461072a578063ddd99eeb1461073d578063e064e8171461075d578063ebd7445f1461077d578063f2fde38b1461079d578063fb01600d146107bd57610275565b8063a04360b6146106a0578063a461279e146106c0578063ce7e856a146106d5578063cebe314c146106f5578063d02641a01461070a57610275565b806386959b4b1161010857806386959b4b146105e95780638a8bb03d146106165780638b6099db146106385780638da5cb5b1461064b5780638e19899e1461066057806394a68ef71461068057610275565b80637550baef146105435780637e18af181461057057806383f99157146105925780638456cb59146105a757806386111b78146105bc57610275565b806349c03582116101dd5780635f495053116101a15780635f4950531461048b57806367a74ddc146104ac5780636cf6f524146104cc5780636d2b0839146104ee5780636e3f5d521461050e578063715018a61461052e57610275565b806349c03582146103cf5780634b3c7b6a146103fc5780634bbf5b3c1461042957806350780dbb146104495780635c975abb1461046957610275565b806327c2f17c1161022f57806327c2f17c1461032557806327efcbfe146103385780632cb8d119146103585780633250ef9e1461036d5780633cb581a11461038d5780633f4ba83a146103ba57610275565b806307a7f1591461027a57806309c144c9146102b05780630a69fca3146102d05780630ac7f144146102e3578063144c96241461030357610275565b3661027557600080fd5b600080fd5b34801561028657600080fd5b5061029a610295366004612216565b6107df565b6040516102a79190612adc565b60405180910390f35b3480156102bc57600080fd5b5061029a6102cb3660046126c7565b6107fa565b61029a6102de3660046122b6565b6108c6565b3480156102ef57600080fd5b5061029a6102fe36600461232e565b610a19565b34801561030f57600080fd5b5061032361031e366004612239565b610a5e565b005b61029a6103333660046126c7565b610b03565b34801561034457600080fd5b50610323610353366004612697565b610c0e565b34801561036457600080fd5b5061029a610cb0565b34801561037957600080fd5b5061029a610388366004612697565b610cb6565b34801561039957600080fd5b506103ad6103a8366004612697565b610dbe565b6040516102a79190612bfe565b3480156103c657600080fd5b50610323610e54565b3480156103db57600080fd5b506103ef6103ea366004612216565b610ebc565b6040516102a79190612985565b34801561040857600080fd5b5061041c610417366004612216565b610f50565b6040516102a79190612942565b34801561043557600080fd5b50610323610444366004612271565b610fe4565b34801561045557600080fd5b50610323610464366004612697565b61108f565b34801561047557600080fd5b5061047e611101565b6040516102a79190612ad1565b61049e6104993660046126c7565b611111565b6040516102a7929190612cb0565b3480156104b857600080fd5b506103236104c736600461231c565b611225565b3480156104d857600080fd5b506104e1611296565b6040516102a79190612a99565b3480156104fa57600080fd5b5061047e610509366004612697565b6112f1565b34801561051a57600080fd5b50610323610529366004612216565b611381565b34801561053a57600080fd5b506103236113f0565b34801561054f57600080fd5b5061056361055e36600461232e565b61146f565b6040516102a79190612c0d565b34801561057c57600080fd5b50610585611503565b6040516102a791906128e1565b34801561059e57600080fd5b50610585611512565b3480156105b357600080fd5b50610323611521565b3480156105c857600080fd5b506105dc6105d7366004612697565b611588565b6040516102a79190612bef565b3480156105f557600080fd5b50610609610604366004612216565b61161e565b6040516102a791906129c8565b34801561062257600080fd5b5061062b6116af565b6040516102a79190612a36565b61029a610646366004612359565b611743565b34801561065757600080fd5b50610585611885565b34801561066c57600080fd5b5061029a61067b366004612697565b611894565b34801561068c57600080fd5b5061032361069b366004612697565b611935565b3480156106ac57600080fd5b506103236106bb3660046126c7565b6119a7565b3480156106cc57600080fd5b5061049e611a18565b3480156106e157600080fd5b506103236106f0366004612216565b611a22565b34801561070157600080fd5b5061029a611a91565b34801561071657600080fd5b5061029a610725366004612216565b611a97565b61029a6107383660046126c7565b611b21565b34801561074957600080fd5b50610323610758366004612216565b611b88565b34801561076957600080fd5b5061032361077836600461232e565b611bf7565b34801561078957600080fd5b50610323610798366004612216565b611c68565b3480156107a957600080fd5b506103236107b8366004612216565b611cd7565b3480156107c957600080fd5b506107d2611d8d565b6040516102a791906128f5565b6001600160a01b031660009081526006602052604090205490565b60008054600160a01b900460ff161561082e5760405162461bcd60e51b815260040161082590612b59565b60405180910390fd5b6040516312959ed560e21b815273__LoanManager___________________________90634a567b549061086d9060119060019088908890600401612cd4565b60206040518083038186803b15801561088557600080fd5b505af4158015610899573d6000803e3d6000fd5b505050506040513d601f19601f820116820180604052508101906108bd91906126af565b90505b92915050565b60008054600160a01b900460ff16156108f15760405162461bcd60e51b815260040161082590612b59565b600054600160a81b900460ff1661091a5760405162461bcd60e51b815260040161082590612bb8565b6000805460ff60a81b1916905561092f611ed1565b506040805160c0810182526001600160a01b03808a16825288811660208301528183018890526060820187905260808201869052841660a0820152905163097e950160e31b815273__LoanManager___________________________90634bf4a808906109a9906011906001906008908790600401612dda565b60206040518083038186803b1580156109c157600080fd5b505af41580156109d5573d6000803e3d6000fd5b505050506040513d601f19601f820116820180604052508101906109f991906126af565b9150506000805460ff60a81b1916600160a81b1790559695505050505050565b60405163f9a8a23d60e01b815260009073__LoanManager___________________________9063f9a8a23d9061086d9060119060019060089089908990600401612d8b565b610a66611df1565b6000546001600160a01b03908116911614610a935760405162461bcd60e51b815260040161082590612b83565b60405163b4125fab60e01b815273__LoanManager___________________________9063b4125fab90610acf9060119086908690600401612c72565b60006040518083038186803b158015610ae757600080fd5b505af4158015610afb573d6000803e3d6000fd5b505050505050565b60008054600160a01b900460ff1615610b2e5760405162461bcd60e51b815260040161082590612b59565b600054600160a81b900460ff16610b575760405162461bcd60e51b815260040161082590612bb8565b6000805460ff60a81b191690556040516355e168c760e11b815273__LoanManager___________________________9063abc2d18e90610ba39060119060089088908890600401612cd4565b60206040518083038186803b158015610bbb57600080fd5b505af4158015610bcf573d6000803e3d6000fd5b505050506040513d601f19601f82011682018060405250810190610bf391906126af565b90506000805460ff60a81b1916600160a81b17905592915050565b610c16611df1565b6000546001600160a01b03908116911614610c435760405162461bcd60e51b815260040161082590612b83565b604051636fdbf96d60e11b815273__Configuration_________________________9063dfb7f2da90610c7d906001908590600401612cb0565b60006040518083038186803b158015610c9557600080fd5b505af4158015610ca9573d6000803e3d6000fd5b5050505050565b60095490565b60008054600160a01b900460ff1615610ce15760405162461bcd60e51b815260040161082590612b59565b600054600160a81b900460ff16610d0a5760405162461bcd60e51b815260040161082590612bb8565b6000805460ff60a81b19169055604051630e53750760e41b815273__DepositManager________________________9063e537507090610d5490600a906008908790600401612cbe565b60206040518083038186803b158015610d6c57600080fd5b505af4158015610d80573d6000803e3d6000fd5b505050506040513d601f19601f82011682018060405250810190610da491906126af565b90506000805460ff60a81b1916600160a81b179055919050565b610dc6611f22565b60405163eda4761560e01b815273__LoanManager___________________________9063eda4761590610e03906011906001908790600401612cbe565b6102206040518083038186803b158015610e1c57600080fd5b505af4158015610e30573d6000803e3d6000fd5b505050506040513d601f19601f820116820180604052508101906108c09190612704565b610e5c611df1565b6000546001600160a01b03908116911614610e895760405162461bcd60e51b815260040161082590612b83565b600054600160a01b900460ff16610eb25760405162461bcd60e51b815260040161082590612ae5565b610eba611df5565b565b60405163dd6b791d60e01b815260609073__LoanManager___________________________9063dd6b791d90610efc906011906001908790600401612cef565b60006040518083038186803b158015610f1457600080fd5b505af4158015610f28573d6000803e3d6000fd5b505050506040513d6000823e601f3d908101601f191682016040526108c09190810190612449565b604051630e654ee760e41b815260609073__DepositManager________________________9063e654ee7090610f9090600a906008908790600401612cef565b60006040518083038186803b158015610fa857600080fd5b505af4158015610fbc573d6000803e3d6000fd5b505050506040513d6000823e601f3d908101601f191682016040526108c091908101906123a2565b610fec611df1565b6000546001600160a01b039081169116146110195760405162461bcd60e51b815260040161082590612b83565b6040516392f0341160e01b815273__LoanManager___________________________906392f0341190611059906011908890889088908890600401612d5c565b60006040518083038186803b15801561107157600080fd5b505af4158015611085573d6000803e3d6000fd5b5050505050505050565b611097611df1565b6000546001600160a01b039081169116146110c45760405162461bcd60e51b815260040161082590612b83565b604051600162b7e75360e01b0319815273__DepositManager________________________9063ff4818ad90610c7d90600a908590600401612cb0565b600054600160a01b900460ff1690565b600080548190600160a01b900460ff161561113e5760405162461bcd60e51b815260040161082590612b59565b600054600160a81b900460ff166111675760405162461bcd60e51b815260040161082590612bb8565b6000805460ff60a81b19169055604051630c1af83160e21b815273__LoanManager___________________________9063306be0c4906111b6906011906001906008908a908a90600401612db7565b604080518083038186803b1580156111cd57600080fd5b505af41580156111e1573d6000803e3d6000fd5b505050506040513d601f19601f820116820180604052508101906112059190612785565b915091506000805460ff60a81b1916600160a81b17905590939092509050565b61122d611df1565b6000546001600160a01b0390811691161461125a5760405162461bcd60e51b815260040161082590612b83565b604051635562758f60e01b815273__Configuration_________________________90635562758f90610acf9060019086908690600401612c72565b6060600a6001018054806020026020016040519081016040528092919081815260200182805480156112e757602002820191906000526020600020905b8154815260200190600101908083116112d3575b5050505050905090565b60405163284e74a560e21b815260009073__DepositManager________________________9063a139d2949061133190600a906008908790600401612cbe565b60206040518083038186803b15801561134957600080fd5b505af415801561135d573d6000803e3d6000fd5b505050506040513d601f19601f820116820180604052508101906108c09190612677565b611389611df1565b6000546001600160a01b039081169116146113b65760405162461bcd60e51b815260040161082590612b83565b604051633e814c3b60e01b815273__Configuration_________________________90633e814c3b90610c7d906001908590600401612c5b565b6113f8611df1565b6000546001600160a01b039081169116146114255760405162461bcd60e51b815260040161082590612b83565b600080546040516001600160a01b03909116907f8be0079c531659141344cd1fd0a4f28419497f9722a3daafe3b4186f6b6457e0908390a3600080546001600160a01b0319169055565b611477611fbd565b6040516352af126f60e01b815273__LiquidityPools________________________906352af126f906114b39060089087908790600401612c91565b60e06040518083038186803b1580156114cb57600080fd5b505af41580156114df573d6000803e3d6000fd5b505050506040513d601f19601f820116820180604052508101906108bd9190612720565b6007546001600160a01b031690565b6004546001600160a01b031690565b611529611df1565b6000546001600160a01b039081169116146115565760405162461bcd60e51b815260040161082590612b83565b600054600160a01b900460ff16156115805760405162461bcd60e51b815260040161082590612b59565b610eba611e6b565b611590611ffa565b604051631c63e3d760e11b815273__DepositManager________________________906338c7c7ae906115cd90600a906008908790600401612cbe565b6101206040518083038186803b1580156115e657600080fd5b505af41580156115fa573d6000803e3d6000fd5b505050506040513d601f19601f820116820180604052508101906108c091906126e8565b60405163991a26b360e01b815260609073__LiquidityPools________________________9063991a26b39061165b906008908690600401612c5b565b60006040518083038186803b15801561167357600080fd5b505af4158015611687573d6000803e3d6000fd5b505050506040513d6000823e601f3d908101601f191682016040526108c091908101906124dd565b6040516364f9e96f60e11b815260609073__LoanManager___________________________9063c9f3d2de906116ea90601190600401612adc565b60006040518083038186803b15801561170257600080fd5b505af4158015611716573d6000803e3d6000fd5b505050506040513d6000823e601f3d908101601f1916820160405261173e91908101906125a7565b905090565b60008054600160a01b900460ff161561176e5760405162461bcd60e51b815260040161082590612b59565b600054600160a81b900460ff166117975760405162461bcd60e51b815260040161082590612bb8565b6000805460ff60a81b191690556117ac612052565b50604080516080810182526001600160a01b03808816825260208201879052818301869052841660608201529051636aa1d5e360e01b815273__DepositManager________________________90636aa1d5e39061181790600a906008906001908790600401612d0e565b60206040518083038186803b15801561182f57600080fd5b505af4158015611843573d6000803e3d6000fd5b505050506040513d601f19601f8201168201806040525081019061186791906126af565b9150506000805460ff60a81b1916600160a81b179055949350505050565b6000546001600160a01b031690565b60008054600160a01b900460ff16156118bf5760405162461bcd60e51b815260040161082590612b59565b600054600160a81b900460ff166118e85760405162461bcd60e51b815260040161082590612bb8565b6000805460ff60a81b191690556040516321ca206960e01b815273__DepositManager________________________906321ca206990610d5490600a906001906008908890600401612cd4565b61193d611df1565b6000546001600160a01b0390811691161461196a5760405162461bcd60e51b815260040161082590612b83565b604051630e273fb560e31b815273__DepositManager________________________90637139fda890610c7d90600a906008908690600401612cbe565b6119af611df1565b6000546001600160a01b039081169116146119dc5760405162461bcd60e51b815260040161082590612b83565b604051632b05cfad60e01b815273__Configuration_________________________90632b05cfad90610acf9060019086908690600401612cbe565b6001546002549091565b611a2a611df1565b6000546001600160a01b03908116911614611a575760405162461bcd60e51b815260040161082590612b83565b604051631c2f3ab560e31b815273__DepositManager________________________9063e179d5a890610c7d90600a908590600401612c5b565b60035490565b6001600160a01b038082166000908152600560209081526040808320548151634c6afee560e11b81529151939416926398d5fdca92600483810193919291829003018186803b158015611ae957600080fd5b505afa158015611afd573d6000803e3d6000fd5b505050506040513d601f19601f820116820180604052508101906108c091906126af565b60008054600160a01b900460ff1615611b4c5760405162461bcd60e51b815260040161082590612b59565b604051633b502e2b60e01b815273__LoanManager___________________________90633b502e2b9061086d9060119087908790600401612cbe565b611b90611df1565b6000546001600160a01b03908116911614611bbd5760405162461bcd60e51b815260040161082590612b83565b60405163044b515960e31b815273__Configuration_________________________9063225a8ac890610c7d906001908590600401612c5b565b611bff611df1565b6000546001600160a01b03908116911614611c2c5760405162461bcd60e51b815260040161082590612b83565b604051633b7dd5d560e21b815273__Configuration_________________________9063edf7575490610acf9060019086908690600401612c91565b611c70611df1565b6000546001600160a01b03908116911614611c9d5760405162461bcd60e51b815260040161082590612b83565b60405163486f118960e11b815273__DepositManager________________________906390de231290610c7d90600a908590600401612c5b565b611cdf611df1565b6000546001600160a01b03908116911614611d0c5760405162461bcd60e51b815260040161082590612b83565b6001600160a01b038116611d325760405162461bcd60e51b815260040161082590612b13565b600080546040516001600160a01b03808516939216917f8be0079c531659141344cd1fd0a4f28419497f9722a3daafe3b4186f6b6457e091a3600080546001600160a01b0319166001600160a01b0392909216919091179055565b6060600a6002018054806020026020016040519081016040528092919081815260200182805480156112e757602002820191906000526020600020905b81546001600160a01b03168152600190910190602001808311611dca575050505050905090565b3390565b600054600160a01b900460ff16611e1e5760405162461bcd60e51b815260040161082590612ae5565b6000805460ff60a01b191690557f5db9ee0a495bf2e6ff9c91a7834c1ba4fdd244a5e8aa4e537bd38aeae4b073aa611e54611df1565b604051611e6191906128e1565b60405180910390a1565b600054600160a01b900460ff1615611e955760405162461bcd60e51b815260040161082590612b59565b6000805460ff60a01b1916600160a01b1790557f62e78cea01bee320cd4e420270b5ea74000d11b0c9f74754ebdbfc544b05a258611e54611df1565b6040518060c0016040528060006001600160a01b0316815260200160006001600160a01b0316815260200160008152602001600081526020016000815260200160006001600160a01b031681525090565b6040518061022001604052806000151581526020016000801916815260200160006001600160a01b0316815260200160006001600160a01b03168152602001600081526020016000815260200160008152602001600081526020016000815260200160008152602001600081526020016000815260200160008152602001600081526020016000815260200160008152602001600081525090565b6040518060e00160405280600081526020016000815260200160008152602001600081526020016000815260200160008152602001600081525090565b6040518061012001604052806000801916815260200160006001600160a01b03168152602001600081526020016000815260200160008152602001600081526020016000815260200160008152602001600081525090565b604051806080016040528060006001600160a01b03168152602001600081526020016000815260200160006001600160a01b031681525090565b80516108c081612e8a565b805180151581146108c057600080fd5b60006101208083850312156120ba578182fd5b6120c381612e43565b915050815181526120d7836020840161208c565b602082015260408201516040820152606082015160608201526080820151608082015260a082015160a082015260c082015160c082015260e082015160e082015261010080830151818301525092915050565b600061022080838503121561213d578182fd5b61214681612e43565b9150506121538383612097565b81526020820151602082015261216c836040840161208c565b604082015261217e836060840161208c565b60608201526080828101519082015260a0808301519082015260c0808301519082015260e08083015190820152610100808301519082015261012080830151908201526101408083015190820152610160808301519082015261018080830151908201526101a080830151908201526101c080830151908201526101e080830151908201526102009182015191810191909152919050565b600060208284031215612227578081fd5b813561223281612e8a565b9392505050565b6000806040838503121561224b578081fd5b823561225681612e8a565b9150602083013561226681612e8a565b809150509250929050565b60008060008060808587031215612286578182fd5b843561229181612e8a565b935060208501356122a181612e8a565b93969395505050506040820135916060013590565b60008060008060008060c087890312156122ce578384fd5b86356122d981612e8a565b955060208701356122e981612e8a565b945060408701359350606087013592506080870135915060a087013561230e81612e8a565b809150509295509295509295565b6000806040838503121561224b578182fd5b60008060408385031215612340578182fd5b823561234b81612e8a565b946020939093013593505050565b6000806000806080858703121561236e578182fd5b843561237981612e8a565b93506020850135925060408501359150606085013561239781612e8a565b939692955090935050565b600060208083850312156123b4578182fd5b825167ffffffffffffffff8111156123ca578283fd5b80840185601f8201126123db578384fd5b805191506123f06123eb83612e6a565b612e43565b82815283810190828501610120808602850187018a101561240f578788fd5b8794505b8585101561243b576124258a836120a7565b8452600194909401939286019290810190612413565b509098975050505050505050565b6000602080838503121561245b578182fd5b825167ffffffffffffffff811115612471578283fd5b80840185601f820112612482578384fd5b805191506124926123eb83612e6a565b82815283810190828501610220808602850187018a10156124b1578788fd5b8794505b8585101561243b576124c78a8361212a565b84526001949094019392860192908101906124b5565b600060208083850312156124ef578182fd5b825167ffffffffffffffff811115612505578283fd5b80840185601f820112612516578384fd5b805191506125266123eb83612e6a565b8281528381019082850160a0808602850187018a1015612544578788fd5b8794505b8585101561243b5780828b03121561255e578788fd5b61256781612e43565b8251815287830151888201526040808401519082015260608084015190820152608080840151908201528452600194909401939286019290810190612548565b600060208083850312156125b9578182fd5b825167ffffffffffffffff8111156125cf578283fd5b80840185601f8201126125e0578384fd5b805191506125f06123eb83612e6a565b828152838101908285016080808602850187018a101561260e578788fd5b8794505b8585101561243b5780828b031215612628578788fd5b61263181612e43565b61263b8b8461208c565b81526126498b89850161208c565b8189015260408381015190820152606080840151908201528452600194909401939286019290810190612612565b600060208284031215612688578081fd5b81518015158114612232578182fd5b6000602082840312156126a8578081fd5b5035919050565b6000602082840312156126c0578081fd5b5051919050565b600080604083850312156126d9578182fd5b50508035926020909101359150565b600061012082840312156126fa578081fd5b6108bd83836120a7565b60006102208284031215612716578081fd5b6108bd838361212a565b600060e08284031215612731578081fd5b61273b60e0612e43565b825181526020830151602082015260408301516040820152606083015160608201526080830151608082015260a083015160a082015260c083015160c08201528091505092915050565b60008060408385031215612797578182fd5b505080516020909101519092909150565b6001600160a01b03169052565b15159052565b805182526020808201516001600160a01b03169083015260408082015190830152606080820151908301526080808201519083015260a0808201519083015260c0808201519083015260e0808201519083015261010090810151910152565b6128258282516127b5565b60208101516020830152604081015161284160408401826127a8565b50606081015161285460608401826127a8565b506080818101519083015260a0808201519083015260c0808201519083015260e08082015190830152610100808201519083015261012080820151908301526101408082015190830152610160808201519083015261018080820151908301526101a080820151908301526101c080820151908301526101e0808201519083015261020090810151910152565b6001600160a01b0391909116815260200190565b6020808252825182820181905260009190848201906040850190845b818110156129365783516001600160a01b031683529284019291840191600101612911565b50909695505050505050565b6020808252825182820181905260009190848201906040850190845b81811015612936576129718385516127bb565b92840192610120929092019160010161295e565b6020808252825182820181905260009190848201906040850190845b81811015612936576129b483855161281a565b9284019261022092909201916001016129a1565b602080825282518282018190526000919060409081850190868401855b82811015612a295781518051855286810151878601528581015186860152606080820151908601526080908101519085015260a090930192908501906001016129e5565b5091979650505050505050565b602080825282518282018190526000919060409081850190868401855b82811015612a2957815180516001600160a01b03908116865287820151168786015285810151868601526060908101519085015260809093019290850190600101612a53565b6020808252825182820181905260009190848201906040850190845b8181101561293657835183529284019291840191600101612ab5565b901515815260200190565b90815260200190565b60208082526014908201527314185d5cd8589b194e881b9bdd081c185d5cd95960621b604082015260600190565b60208082526026908201527f4f776e61626c653a206e6577206f776e657220697320746865207a65726f206160408201526564647265737360d01b606082015260800190565b60208082526010908201526f14185d5cd8589b194e881c185d5cd95960821b604082015260600190565b6020808252818101527f4f776e61626c653a2063616c6c6572206973206e6f7420746865206f776e6572604082015260600190565b6020808252601f908201527f5265656e7472616e637947756172643a207265656e7472616e742063616c6c00604082015260600190565b61012081016108c082846127bb565b61022081016108c0828461281a565b600060e082019050825182526020830151602083015260408301516040830152606083015160608301526080830151608083015260a083015160a083015260c083015160c083015292915050565b9182526001600160a01b0316602082015260400190565b9283526001600160a01b03918216602084015216604082015260600190565b9283526001600160a01b03919091166020830152604082015260600190565b918252602082015260400190565b9283526020830191909152604082015260600190565b93845260208401929092526040830152606082015260800190565b92835260208301919091526001600160a01b0316604082015260600190565b93845260208085019390935260408085019290925280516001600160a01b039081166060808701919091529382015160808601529181015160a085015291909101511660c082015260e00190565b9485526001600160a01b0393841660208601529190921660408401526060830191909152608082015260a00190565b948552602085019390935260408401919091526001600160a01b03166060830152608082015260a00190565b948552602085019390935260408401919091526060830152608082015260a00190565b60006101208201905085825284602083015283604083015260018060a01b03808451166060840152806020850151166080840152604084015160a0840152606084015160c0840152608084015160e08401528060a0850151166101008401525095945050505050565b60405181810167ffffffffffffffff81118282101715612e6257600080fd5b604052919050565b600067ffffffffffffffff821115612e80578081fd5b5060209081020190565b6001600160a01b0381168114612e9f57600080fd5b5056fea26469706673582212202ef9e58cc118dff5b089ae4925a8c421c0967e2d3d26f8ffec927043bb4cd60a64736f6c63430006070033",
  "immutableReferences": {},
  "source": "pragma solidity ^0.6.7;\npragma experimental ABIEncoderV2;\n\nimport '@openzeppelin/contracts/access/Ownable.sol';\nimport '@openzeppelin/contracts/utils/Pausable.sol';\nimport '@openzeppelin/contracts/utils/ReentrancyGuard.sol';\nimport '../oracle/interface/IPriceOracle.sol';\nimport './interface/IProtocol.sol';\nimport './interface/IInterestModel.sol';\nimport './lib/Configuration.sol';\nimport './lib/LiquidityPools.sol';\nimport './lib/DepositManager.sol';\nimport './lib/LoanManager.sol';\n\n/// @title The main contract that exposes all external functions\n/// @dev We can consider this contract as a master contract that contains no actual\n/// business logic but enforces permission checks and delegates function calls to\n/// corresponding libraries. Although contract states are defined in libraries,\n/// they are initialized and stored in this contract.\ncontract Protocol is IProtocol, Ownable, Pausable, ReentrancyGuard {\n    using Configuration for Configuration.State;\n    using LiquidityPools for LiquidityPools.State;\n    using DepositManager for DepositManager.State;\n    using LoanManager for LoanManager.State;\n\n    /// Initialize library instances\n    Configuration.State _configuration;\n    LiquidityPools.State _liquidityPools;\n    DepositManager.State _depositManager;\n    LoanManager.State _loanManager;\n\n    /// Events\n    event EnableDepositTermSucceed(address indexed adminAddress, uint256 term);\n\n    event DisableDepositTermSucceed(address indexed adminAddress, uint256 term);\n\n    event EnableDepositTokenSucceed(\n        address indexed adminAddress,\n        address tokenAddress\n    );\n\n    event DisableDepositTokenSucceed(\n        address indexed adminAddress,\n        address tokenAddress\n    );\n\n    event DepositSucceed(\n        address indexed accountAddress,\n        bytes32 recordId,\n        address indexed depositTokenAddress,\n        uint256 amount\n    );\n\n    event WithdrawSucceed(\n        address indexed accountAddress,\n        bytes32 recordId,\n        address indexed depositTokenAddress,\n        uint256 amount\n    );\n\n    event EarlyWithdrawSucceed(\n        address indexed accountAddress,\n        bytes32 recordId,\n        address indexed depositTokenAddress,\n        uint256 amount\n    );\n\n    event InterestReserveTransferred(\n        address indexed accountAddress,\n        bytes32 recordId,\n        address indexed depositTokenAddress,\n        uint256 interestForProtocolReserve\n    );\n\n    event DepositDistributorFeeTransferred(\n        address indexed distributorAccountAddress,\n        bytes32 recordId,\n        address indexed depositTokenAddress,\n        uint256 interestForDistributor\n    );\n    event PayDepositDistributorFailed(\n        address indexed distributorAddress,\n        bytes32 recordId,\n        uint256 amount\n    );\n\n    event SetLoanAndCollateralTokenPairSucceed(\n        address indexed adminAddress,\n        address loanTokenAddress,\n        address collateralTokenAddress,\n        uint256 minCollateralCoverageRatio,\n        uint256 liquidationDiscount\n    );\n\n    event RemoveLoanAndCollateralTokenPairSucceed(\n        address indexed adminAddress,\n        address loanTokenAddress,\n        address collateralTokenAddress\n    );\n\n    event LoanSucceed(\n        address indexed accountAddress,\n        bytes32 recordId,\n        address indexed loanTokenAddress,\n        uint256 loanAmount,\n        address indexed collateralTokenAddress,\n        uint256 collateralAmount\n    );\n\n    event RepayLoanSucceed(\n        address indexed accountAddress,\n        bytes32 recordId,\n        address indexed loanTokenAddress,\n        uint256 repayAmount,\n        address indexed collateralTokenAddress,\n        uint256 returnedCollateralAmount,\n        bool isFullyRepaid\n    );\n\n    event LiquidateLoanSucceed(\n        address indexed accountAddress,\n        bytes32 recordId,\n        address indexed loanTokenAddress,\n        uint256 liquidateAmount,\n        address indexed collateralTokenAddress,\n        uint256 soldCollateralAmount\n    );\n\n    event LoanDistributorFeeTransferred(\n        address indexed distributorAccountAddress,\n        bytes32 recordId,\n        address indexed loanTokenAddress,\n        uint256 interestForLoanDistributor\n    );\n\n    event AddCollateralSucceed(\n        address indexed accountAddress,\n        bytes32 recordId,\n        address indexed collateralTokenAddress,\n        uint256 collateralAmount\n    );\n\n    event SubtractCollateralSucceed(\n        address indexed accountAddress,\n        address indexed collateralTokenAddress,\n        bytes32 recordId,\n        uint256 collateralAmount\n    );\n\n    event PayLoanDistributorFailed(\n        address indexed distributorAddress,\n        bytes32 recordId,\n        uint256 amount\n    );\n\n    event SetPriceOracleSucceed(\n        address indexed adminAddress,\n        address tokenAddress,\n        address priceOracleAddress\n    );\n\n    event SetProtocolAddressSucceed(\n        address indexed adminAddress,\n        address protocolAddress\n    );\n\n    event SetInterestModelSucceed(\n        address indexed adminAddress,\n        address interestModelAddress\n    );\n\n    event SetProtocolReserveRatioSucceed(\n        address indexed adminAddress,\n        uint256 protocolReserveRatio\n    );\n\n    event SetMaxDistributionFeeRatiosSucceed(\n        address indexed adminAddress,\n        uint256 maxDepositDistributorFeeRatio,\n        uint256 maxLoanDistributorFeeRatio\n    );\n\n    /// Prevent direct transfer to the contract.\n    receive() external payable {\n        revert();\n    }\n\n    /// Admin functions\n    function pause() external onlyOwner whenNotPaused override {\n        _pause();\n    }\n\n    function unpause() external onlyOwner whenPaused override {\n        _unpause();\n    }\n\n    function enableDepositTerm(uint256 term) external onlyOwner override {\n        _depositManager.enableDepositTerm(_liquidityPools, term);\n    }\n\n    function disableDepositTerm(uint256 term) external onlyOwner override {\n        _depositManager.disableDepositTerm(term);\n    }\n\n    function enableDepositToken(address tokenAddress)\n        external\n        onlyOwner\n        override\n    {\n        _depositManager.enableDepositToken(tokenAddress);\n    }\n\n    function disableDepositToken(address tokenAddress)\n        external\n        onlyOwner\n        override\n    {\n        _depositManager.disableDepositToken(tokenAddress);\n    }\n\n    function setLoanAndCollateralTokenPair(\n        address loanTokenAddress,\n        address collateralTokenAddress,\n        uint256 minCollateralCoverageRatio,\n        uint256 liquidationDiscount\n    ) external onlyOwner override {\n        _loanManager.setLoanAndCollateralTokenPair(\n            loanTokenAddress,\n            collateralTokenAddress,\n            minCollateralCoverageRatio,\n            liquidationDiscount\n        );\n    }\n\n    function removeLoanAndCollateralTokenPair(\n        address loanTokenAddress,\n        address collateralTokenAddress\n    ) external onlyOwner override {\n        _loanManager.removeLoanAndCollateralTokenPair(\n            loanTokenAddress,\n            collateralTokenAddress\n        );\n    }\n\n    function setPriceOracle(address tokenAddress, IPriceOracle priceOracle)\n        external\n        onlyOwner\n        override\n    {\n        _configuration.setPriceOracle(tokenAddress, priceOracle);\n    }\n\n    function setInterestModel(IInterestModel interestModel)\n        external\n        onlyOwner\n        override\n    {\n        _configuration.setInterestModel(interestModel);\n    }\n\n    function setInterestReserveAddress(address payable interestReserveAddress)\n        external\n        onlyOwner\n        override\n    {\n        _configuration.setInterestReserveAddress(interestReserveAddress);\n    }\n\n    function setProtocolReserveRatio(uint256 protocolReserveRatio)\n        external\n        onlyOwner\n        override\n    {\n        _configuration.setProtocolReserveRatio(protocolReserveRatio);\n    }\n\n    function setMaxDistributorFeeRatios(\n        uint256 depositDistributorFeeRatio,\n        uint256 loanDistributorFeeRatio\n    ) external onlyOwner override {\n        _configuration.setMaxDistributorFeeRatios(\n            depositDistributorFeeRatio,\n            loanDistributorFeeRatio\n        );\n    }\n\n    function setBalanceCap(\n        address tokenAddress,\n        uint256 balanceCap\n    ) external onlyOwner override {\n        _configuration.setBalanceCap(\n            tokenAddress,\n            balanceCap\n        );\n    }\n\n    /// Lender functions\n    function deposit(\n        address tokenAddress,\n        uint256 depositAmount,\n        uint256 depositTerm,\n        address payable distributorAddress\n    ) external payable whenNotPaused nonReentrant override returns (bytes32 depositId) {\n        IStruct.DepositParameters memory depositParameters = IStruct.DepositParameters({\n            tokenAddress: tokenAddress,\n            depositAmount: depositAmount,\n            depositTerm: depositTerm,\n            distributorAddress: distributorAddress\n        });\n\n        return\n            _depositManager.deposit(\n                _liquidityPools,\n                _configuration,\n                depositParameters\n            );\n    }\n\n    function withdraw(bytes32 depositId)\n        external\n        whenNotPaused\n        nonReentrant\n        override\n        returns (uint256 withdrewAmount)\n    {\n        return\n            _depositManager.withdraw(\n                _configuration,\n                _liquidityPools,\n                depositId\n            );\n    }\n\n    function earlyWithdraw(bytes32 depositId)\n        external\n        whenNotPaused\n        nonReentrant\n        override\n        returns (uint256 withdrewAmount)\n    {\n        return\n            _depositManager.earlyWithdraw(\n                _liquidityPools,\n                depositId\n            );\n    }\n\n    /// Borrower functions\n    function loan(\n        address loanTokenAddress,\n        address collateralTokenAddress,\n        uint256 loanAmount,\n        uint256 collateralAmount,\n        uint256 loanTerm,\n        address payable distributorAddress\n    ) external payable whenNotPaused nonReentrant override returns (bytes32 loanId) {\n        IStruct.LoanParameters memory loanParameters = IStruct.LoanParameters({\n            loanTokenAddress: loanTokenAddress,\n            collateralTokenAddress: collateralTokenAddress,\n            loanAmount: loanAmount,\n            collateralAmount: collateralAmount,\n            loanTerm: loanTerm,\n            distributorAddress: distributorAddress\n        });\n\n        loanId = _loanManager.loan(\n            _configuration,\n            _liquidityPools,\n            loanParameters\n        );\n\n        return loanId;\n    }\n\n    function repayLoan(bytes32 loanId, uint256 repayAmount)\n        external\n        payable\n        whenNotPaused\n        nonReentrant\n        override\n        returns (uint256 remainingDebt)\n    {\n        return\n            _loanManager.repayLoan(\n                _liquidityPools,\n                loanId,\n                repayAmount\n            );\n    }\n\n    function addCollateral(\n        bytes32 loanId,\n        uint256 collateralAmount\n    )\n        external\n        payable\n        whenNotPaused\n        override\n        returns (uint256 totalCollateralAmount)\n    {\n        return _loanManager.addCollateral(loanId, collateralAmount);\n    }\n\n    function subtractCollateral(\n        bytes32 loanId,\n        uint256 collateralAmount\n    )\n        external\n        whenNotPaused\n        override\n        returns (uint256 totalCollateralAmount)\n    {\n        return _loanManager.subtractCollateral(_configuration, loanId, collateralAmount);\n    }\n\n    /// Liquidator functions\n    function liquidateLoan(bytes32 loanId, uint256 liquidateAmount)\n        external\n        payable\n        whenNotPaused\n        nonReentrant\n        override\n        returns (uint256 remainingCollateral, uint256 liquidatedAmount)\n    {\n        return\n            _loanManager.liquidateLoan(\n                _configuration,\n                _liquidityPools,\n                loanId,\n                liquidateAmount\n            );\n    }\n\n    /// Getters about deposit\n    function getDepositTerms()\n        external\n        view\n        override\n        returns (uint256[] memory depositTermList)\n    {\n        return _depositManager.depositTermList;\n    }\n\n    function getDepositTokens()\n        external\n        view\n        override\n        returns (address[] memory depositTokenAddressList)\n    {\n        return _depositManager.depositTokenAddressList;\n    }\n\n    function getDepositRecordById(bytes32 depositId)\n        external\n        view\n        override\n        returns (IStruct.GetDepositRecordResponse memory depositRecord)\n    {\n        return _depositManager.getDepositRecordById(_liquidityPools, depositId);\n    }\n\n    function getDepositRecordsByAccount(address accountAddress)\n        external\n        view\n        override\n        returns (IStruct.GetDepositRecordResponse[] memory depositRecordList)\n    {\n        return _depositManager.getDepositRecordsByAccount(_liquidityPools, accountAddress);\n    }\n\n    function isDepositEarlyWithdrawable(bytes32 depositId)\n        external\n        view\n        override\n        returns (bool isEarlyWithdrawable)\n    {\n        return\n            _depositManager.isDepositEarlyWithdrawable(\n                _liquidityPools,\n                depositId\n            );\n    }\n\n    /// Getters about loan\n    function getLoanAndCollateralTokenPairs()\n        external\n        view\n        override\n        returns (\n            IStruct.LoanAndCollateralTokenPair[] memory loanAndCollateralTokenPairList\n        )\n    {\n        return _loanManager.getLoanAndCollateralTokenPairs();\n    }\n\n    function getMaxLoanTerm()\n        external\n        view\n        override\n        returns (uint256 maxLoanTerm)\n    {\n        return _liquidityPools.poolGroupSize;\n    }\n\n    function getLoanInterestRate(address tokenAddress, uint256 term)\n        external\n        view\n        override\n        returns (uint256 loanInterestRate)\n    {\n        return\n            _loanManager.getLoanInterestRate(\n                _configuration,\n                _liquidityPools,\n                tokenAddress,\n                term\n            );\n    }\n\n    function getLoanRecordById(bytes32 loanId)\n        external\n        view\n        override\n        returns (IStruct.GetLoanRecordResponse memory loanRecord)\n    {\n        return _loanManager.getLoanRecordById(_configuration, loanId);\n    }\n\n    function getLoanRecordsByAccount(address accountAddress)\n        external\n        view\n        override\n        returns (IStruct.GetLoanRecordResponse[] memory loanRecordList)\n    {\n        return _loanManager.getLoanRecordsByAccount(_configuration, accountAddress);\n    }\n\n    /// Getters about liquidity pools\n    function getPoolsByToken(address tokenAddress)\n        external\n        view\n        override\n        returns (IStruct.GetPoolsByTokenResponse[] memory poolList)\n    {\n        return _liquidityPools.getPoolsByToken(tokenAddress);\n    }\n\n    function getPoolById(address tokenAddress, uint256 poolId)\n        external\n        view\n        override\n        returns (IStruct.Pool memory pool)\n    {\n        return _liquidityPools.getPoolById(tokenAddress, poolId);\n    }\n\n    /// Miscellaneous functions\n    function getBalanceCap(address tokenAddress)\n        external\n        view\n        override\n        returns (uint256 balanceCap)\n    {\n        return _configuration.balanceCapByToken[tokenAddress];\n    }\n\n    function getInterestModelAddress()\n        external\n        view\n        override\n        returns (address interestModelAddress)\n    {\n        return address(_configuration.interestModel);\n    }\n\n    function getTokenPrice(address tokenAddress)\n        external\n        view\n        override\n        returns (uint256 tokenPrice)\n    {\n        return _configuration.priceOracleByToken[tokenAddress].getPrice();\n    }\n\n    function getMaxDistributorFeeRatios()\n        external\n        view\n        override\n        returns (\n            uint256 depositDistributorFeeRatio,\n            uint256 loanDistributorFeeRatio\n        )\n    {\n        return (\n            _configuration.depositDistributorFeeRatio,\n            _configuration.loanDistributorFeeRatio\n        );\n    }\n\n    function getProtocolReserveRatio()\n        external\n        view\n        override\n        returns (uint256 protocolReserveRatio)\n    {\n        return _configuration.protocolReserveRatio;\n    }\n\n    function getInterestReserveAddress()\n        external\n        view\n        override\n        returns (address interestReserveAddress)\n    {\n        return _configuration.interestReserveAddress;\n    }\n}\n",
  "sourcePath": "/Users/ethereum/Projects/bluestone/bluestone/contracts/protocol/Protocol.sol",
  "compiler": {
    "name": "solc",
    "version": "0.6.7+commit.b8d736ae.Emscripten.clang"
  },
  "schemaVersion": "3.1.0",
  "updatedAt": "2020-09-15T02:50:37.467Z",
  "devdoc": {
    "details": "We can consider this contract as a master contract that contains no actual business logic but enforces permission checks and delegates function calls to corresponding libraries. Although contract states are defined in libraries, they are initialized and stored in this contract.",
    "methods": {
      "owner()": {
        "details": "Returns the address of the current owner."
      },
      "paused()": {
        "details": "Returns true if the contract is paused, and false otherwise."
      },
      "renounceOwnership()": {
        "details": "Leaves the contract without owner. It will not be possible to call `onlyOwner` functions anymore. Can only be called by the current owner.     * NOTE: Renouncing ownership will leave the contract without an owner, thereby removing any functionality that is only available to the owner."
      },
      "transferOwnership(address)": {
        "details": "Transfers ownership of the contract to a new account (`newOwner`). Can only be called by the current owner."
      }
    },
    "title": "The main contract that exposes all external functions"
  },
  "userdoc": {
    "methods": {
      "deposit(address,uint256,uint256,address)": {
        "notice": "Lender functions"
      },
      "getBalanceCap(address)": {
        "notice": "Miscellaneous functions"
      },
      "getDepositTerms()": {
        "notice": "Getters about deposit"
      },
      "getLoanAndCollateralTokenPairs()": {
        "notice": "Getters about loan"
      },
      "getPoolsByToken(address)": {
        "notice": "Getters about liquidity pools"
      },
      "liquidateLoan(bytes32,uint256)": {
        "notice": "Liquidator functions"
      },
      "loan(address,address,uint256,uint256,uint256,address)": {
        "notice": "Borrower functions"
      },
      "pause()": {
        "notice": "Admin functions"
      }
    }
  }
}