{
  "contractName": "SingleFeedPriceOracle",
  "abi": [
    {
      "anonymous": false,
      "inputs": [
        {
          "indexed": true,
          "internalType": "address",
          "name": "previousOwner",
          "type": "address"
        },
        {
          "indexed": true,
          "internalType": "address",
          "name": "newOwner",
          "type": "address"
        }
      ],
      "name": "OwnershipTransferred",
      "type": "event"
    },
    {
      "inputs": [],
      "name": "lastUpdatedAt",
      "outputs": [
        {
          "internalType": "uint256",
          "name": "",
          "type": "uint256"
        }
      ],
      "stateMutability": "view",
      "type": "function"
    },
    {
      "inputs": [],
      "name": "owner",
      "outputs": [
        {
          "internalType": "address",
          "name": "",
          "type": "address"
        }
      ],
      "stateMutability": "view",
      "type": "function"
    },
    {
      "inputs": [],
      "name": "renounceOwnership",
      "outputs": [],
      "stateMutability": "nonpayable",
      "type": "function"
    },
    {
      "inputs": [
        {
          "internalType": "address",
          "name": "newOwner",
          "type": "address"
        }
      ],
      "name": "transferOwnership",
      "outputs": [],
      "stateMutability": "nonpayable",
      "type": "function"
    },
    {
      "inputs": [],
      "name": "updatePriceIfNeeded",
      "outputs": [],
      "stateMutability": "nonpayable",
      "type": "function"
    },
    {
      "inputs": [],
      "name": "getPrice",
      "outputs": [
        {
          "internalType": "uint256",
          "name": "",
          "type": "uint256"
        }
      ],
      "stateMutability": "view",
      "type": "function"
    },
    {
      "inputs": [
        {
          "internalType": "uint256",
          "name": "requestedPrice",
          "type": "uint256"
        }
      ],
      "name": "setPrice",
      "outputs": [],
      "stateMutability": "nonpayable",
      "type": "function"
    }
  ],
  "bytecode": "0x608060405260006100176001600160e01b0361006616565b600080546001600160a01b0319166001600160a01b0383169081178255604051929350917f8be0079c531659141344cd1fd0a4f28419497f9722a3daafe3b4186f6b6457e0908290a35061006a565b3390565b610420806100796000396000f3fe608060405234801561001057600080fd5b506004361061007d5760003560e01c806391b7f5ed1161005b57806391b7f5ed146100ca57806398d5fdca146100e7578063f2fde38b146100ef578063f62fb7d2146101155761007d565b806354aea12714610082578063715018a61461009c5780638da5cb5b146100a6575b600080fd5b61008a61011d565b60408051918252519081900360200190f35b6100a4610123565b005b6100ae6101d7565b604080516001600160a01b039092168252519081900360200190f35b6100a4600480360360208110156100e057600080fd5b50356101e6565b61008a6102ae565b6100a46004803603602081101561010557600080fd5b50356001600160a01b03166102b4565b6100a46103be565b60025481565b61012b6103c0565b6000546001600160a01b0390811691161461018d576040805162461bcd60e51b815260206004820181905260248201527f4f776e61626c653a2063616c6c6572206973206e6f7420746865206f776e6572604482015290519081900360640190fd5b600080546040516001600160a01b03909116907f8be0079c531659141344cd1fd0a4f28419497f9722a3daafe3b4186f6b6457e0908390a3600080546001600160a01b0319169055565b6000546001600160a01b031690565b6101ee6103c0565b6000546001600160a01b03908116911614610250576040805162461bcd60e51b815260206004820181905260248201527f4f776e61626c653a2063616c6c6572206973206e6f7420746865206f776e6572604482015290519081900360640190fd5b600081116102a5576040805162461bcd60e51b815260206004820152601a60248201527f50726963654f7261636c653a20696e76616c6964207072696365000000000000604482015290519081900360640190fd5b60015542600255565b60015490565b6102bc6103c0565b6000546001600160a01b0390811691161461031e576040805162461bcd60e51b815260206004820181905260248201527f4f776e61626c653a2063616c6c6572206973206e6f7420746865206f776e6572604482015290519081900360640190fd5b6001600160a01b0381166103635760405162461bcd60e51b81526004018080602001828103825260268152602001806103c56026913960400191505060405180910390fd5b600080546040516001600160a01b03808516939216917f8be0079c531659141344cd1fd0a4f28419497f9722a3daafe3b4186f6b6457e091a3600080546001600160a01b0319166001600160a01b0392909216919091179055565b565b339056fe4f776e61626c653a206e6577206f776e657220697320746865207a65726f2061646472657373a2646970667358221220a0ce545e4d24fe16a79edf8eac7ef07b216a9f1f33d4a8e11eb980410673230b64736f6c63430006070033",
  "immutableReferences": {},
  "source": "pragma solidity ^0.6.7;\n\nimport '@openzeppelin/contracts/access/Ownable.sol';\nimport './interface/IPriceOracle.sol';\n\n\n/// A simple price oracle that receives price update from owner only.\ncontract SingleFeedPriceOracle is IPriceOracle, Ownable {\n    uint256 private _price;\n    uint256 public lastUpdatedAt;\n\n    function updatePriceIfNeeded() external override {\n        return;\n    }\n\n    function getPrice() external override view returns (uint256) {\n        return _price;\n    }\n\n    function setPrice(uint256 requestedPrice) external onlyOwner {\n        require(requestedPrice > 0, 'PriceOracle: invalid price');\n\n        _price = requestedPrice;\n        lastUpdatedAt = now;\n    }\n}\n",
  "sourcePath": "/Users/tianyouluo/codes/bluestone/contracts/oracle/SingleFeedPriceOracle.sol",
  "compiler": {
    "name": "solc",
    "version": "0.6.7+commit.b8d736ae.Emscripten.clang"
  },
  "schemaVersion": "3.3.3",
  "updatedAt": "2021-05-28T02:21:22.555Z",
  "devdoc": {
    "methods": {
      "owner()": {
        "details": "Returns the address of the current owner."
      },
      "renounceOwnership()": {
        "details": "Leaves the contract without owner. It will not be possible to call `onlyOwner` functions anymore. Can only be called by the current owner.     * NOTE: Renouncing ownership will leave the contract without an owner, thereby removing any functionality that is only available to the owner."
      },
      "transferOwnership(address)": {
        "details": "Transfers ownership of the contract to a new account (`newOwner`). Can only be called by the current owner."
      }
    }
  },
  "userdoc": {
    "methods": {},
    "notice": "A simple price oracle that receives price update from owner only."
  }
}