{
  "contractName": "Whitelist",
  "abi": [
    {
      "anonymous": false,
      "inputs": [
        {
          "indexed": true,
          "internalType": "address",
          "name": "account",
          "type": "address"
        }
      ],
      "name": "AddBorrowerWhitelisted",
      "type": "event"
    },
    {
      "anonymous": false,
      "inputs": [
        {
          "indexed": true,
          "internalType": "address",
          "name": "account",
          "type": "address"
        }
      ],
      "name": "AddKeeperWhitelisted",
      "type": "event"
    },
    {
      "anonymous": false,
      "inputs": [
        {
          "indexed": true,
          "internalType": "address",
          "name": "account",
          "type": "address"
        }
      ],
      "name": "AddLenderWhitelisted",
      "type": "event"
    },
    {
      "anonymous": false,
      "inputs": [
        {
          "indexed": true,
          "internalType": "address",
          "name": "previousOwner",
          "type": "address"
        },
        {
          "indexed": true,
          "internalType": "address",
          "name": "newOwner",
          "type": "address"
        }
      ],
      "name": "OwnershipTransferred",
      "type": "event"
    },
    {
      "anonymous": false,
      "inputs": [
        {
          "indexed": true,
          "internalType": "address",
          "name": "account",
          "type": "address"
        }
      ],
      "name": "RemoveBorrowerWhitelisted",
      "type": "event"
    },
    {
      "anonymous": false,
      "inputs": [
        {
          "indexed": true,
          "internalType": "address",
          "name": "account",
          "type": "address"
        }
      ],
      "name": "RemoveKeeperWhitelisted",
      "type": "event"
    },
    {
      "anonymous": false,
      "inputs": [
        {
          "indexed": true,
          "internalType": "address",
          "name": "account",
          "type": "address"
        }
      ],
      "name": "RemoveLenderWhitelisted",
      "type": "event"
    },
    {
      "inputs": [
        {
          "internalType": "address",
          "name": "",
          "type": "address"
        }
      ],
      "name": "isBorrowerWhitelisted",
      "outputs": [
        {
          "internalType": "bool",
          "name": "",
          "type": "bool"
        }
      ],
      "stateMutability": "view",
      "type": "function"
    },
    {
      "inputs": [
        {
          "internalType": "address",
          "name": "",
          "type": "address"
        }
      ],
      "name": "isKeeperWhitelisted",
      "outputs": [
        {
          "internalType": "bool",
          "name": "",
          "type": "bool"
        }
      ],
      "stateMutability": "view",
      "type": "function"
    },
    {
      "inputs": [
        {
          "internalType": "address",
          "name": "",
          "type": "address"
        }
      ],
      "name": "isLenderWhitelisted",
      "outputs": [
        {
          "internalType": "bool",
          "name": "",
          "type": "bool"
        }
      ],
      "stateMutability": "view",
      "type": "function"
    },
    {
      "inputs": [],
      "name": "owner",
      "outputs": [
        {
          "internalType": "address",
          "name": "",
          "type": "address"
        }
      ],
      "stateMutability": "view",
      "type": "function"
    },
    {
      "inputs": [],
      "name": "renounceOwnership",
      "outputs": [],
      "stateMutability": "nonpayable",
      "type": "function"
    },
    {
      "inputs": [
        {
          "internalType": "address",
          "name": "newOwner",
          "type": "address"
        }
      ],
      "name": "transferOwnership",
      "outputs": [],
      "stateMutability": "nonpayable",
      "type": "function"
    },
    {
      "inputs": [],
      "name": "getWhitelistedKeepers",
      "outputs": [
        {
          "internalType": "address[]",
          "name": "",
          "type": "address[]"
        }
      ],
      "stateMutability": "view",
      "type": "function"
    },
    {
      "inputs": [],
      "name": "getWhitelistedLenders",
      "outputs": [
        {
          "internalType": "address[]",
          "name": "",
          "type": "address[]"
        }
      ],
      "stateMutability": "view",
      "type": "function"
    },
    {
      "inputs": [],
      "name": "getWhitelistedBorrowers",
      "outputs": [
        {
          "internalType": "address[]",
          "name": "",
          "type": "address[]"
        }
      ],
      "stateMutability": "view",
      "type": "function"
    },
    {
      "inputs": [
        {
          "internalType": "address",
          "name": "account",
          "type": "address"
        }
      ],
      "name": "addKeeperWhitelisted",
      "outputs": [],
      "stateMutability": "nonpayable",
      "type": "function"
    },
    {
      "inputs": [
        {
          "internalType": "address",
          "name": "account",
          "type": "address"
        }
      ],
      "name": "removeKeeperWhitelisted",
      "outputs": [],
      "stateMutability": "nonpayable",
      "type": "function"
    },
    {
      "inputs": [
        {
          "internalType": "address",
          "name": "account",
          "type": "address"
        }
      ],
      "name": "addLenderWhitelisted",
      "outputs": [],
      "stateMutability": "nonpayable",
      "type": "function"
    },
    {
      "inputs": [
        {
          "internalType": "address",
          "name": "account",
          "type": "address"
        }
      ],
      "name": "removeLenderWhitelisted",
      "outputs": [],
      "stateMutability": "nonpayable",
      "type": "function"
    },
    {
      "inputs": [
        {
          "internalType": "address",
          "name": "account",
          "type": "address"
        }
      ],
      "name": "addBorrowerWhitelisted",
      "outputs": [],
      "stateMutability": "nonpayable",
      "type": "function"
    },
    {
      "inputs": [
        {
          "internalType": "address",
          "name": "account",
          "type": "address"
        }
      ],
      "name": "removeBorrowerWhitelisted",
      "outputs": [],
      "stateMutability": "nonpayable",
      "type": "function"
    }
  ],
  "bytecode": "0x608060405234801561001057600080fd5b5061001a3361001f565b61006f565b600080546001600160a01b038381166001600160a01b0319831681178455604051919092169283917f8be0079c531659141344cd1fd0a4f28419497f9722a3daafe3b4186f6b6457e09190a35050565b610eb78061007e6000396000f3fe608060405234801561001057600080fd5b50600436106100f55760003560e01c80638da5cb5b11610097578063e14eb4c011610066578063e14eb4c0146101f6578063e6e9fea5146101fe578063f2fde38b14610211578063fdcd987d1461022457600080fd5b80638da5cb5b1461019d578063a30de179146101b8578063d924fd32146101cb578063e08912a7146101ee57600080fd5b806355ded346116100d357806355ded3461461015c578063715018a61461016f578063757c792c146101775780637f58568c1461018a57600080fd5b80634306c6dc146100fa578063455872b91461010f57806346b87f8314610147575b600080fd5b61010d610108366004610d90565b610247565b005b61013261011d366004610d90565b60066020526000908152604090205460ff1681565b60405190151581526020015b60405180910390f35b61014f610362565b60405161013e9190610dc0565b61010d61016a366004610d90565b6103c4565b61010d6104dd565b61010d610185366004610d90565b6104f1565b61010d610198366004610d90565b6106d1565b6000546040516001600160a01b03909116815260200161013e565b61010d6101c6366004610d90565b6107ec565b6101326101d9366004610d90565b60056020526000908152604090205460ff1681565b61014f6109cb565b61014f610a2b565b61010d61020c366004610d90565b610a8b565b61010d61021f366004610d90565b610c6d565b610132610232366004610d90565b60046020526000908152604090205460ff1681565b61024f610ce6565b6001600160a01b03811660009081526004602052604090205460ff16156102d65760405162461bcd60e51b815260206004820152603060248201527f57686974656c6973743a206b6565706572206163636f756e7420697320616c7260448201526f1958591e481dda1a5d195b1a5cdd195960821b60648201526084015b60405180910390fd5b6001805480820182557fb10e2d527612073b26eecdfd717e6a320cf44b4afac2b0732d9fcbe2b7fa0cf60180546001600160a01b0319166001600160a01b038416908117909155600081815260046020526040808220805460ff1916909417909355915190917f9b76412f86e34cb8adec4672756b35f8861e4d4b6c12b6b39875aca184ba402491a250565b606060028054806020026020016040519081016040528092919081815260200182805480156103ba57602002820191906000526020600020905b81546001600160a01b0316815260019091019060200180831161039c575b5050505050905090565b6103cc610ce6565b6001600160a01b03811660009081526005602052604090205460ff161561044e5760405162461bcd60e51b815260206004820152603060248201527f57686974656c6973743a206c656e646572206163636f756e7420697320616c7260448201526f1958591e481dda1a5d195b1a5cdd195960821b60648201526084016102cd565b6002805460018082019092557f405787fa12a823e0f2b7631cc41b3ba8828b3321ca811111fa75cd3aa3bb5ace0180546001600160a01b0319166001600160a01b038416908117909155600081815260056020526040808220805460ff1916909417909355915190917fc40ba5fc28619d22df2a573791064a5a80e202a594efd3208c27fcbb30aaf06191a250565b6104e5610ce6565b6104ef6000610d40565b565b6104f9610ce6565b6001600160a01b03811660009081526005602052604090205460ff166105765760405162461bcd60e51b815260206004820152602c60248201527f57686974656c6973743a206c656e646572206163636f756e74206973206e6f7460448201526b081dda1a5d195b1a5cdd195960a21b60648201526084016102cd565b600280546000919061058a90600190610e0d565b8154811061059a5761059a610e6b565b600091825260209091200154600280546001600160a01b03909216925090806105c5576105c5610e55565b600082815260208120820160001990810180546001600160a01b03191690559091019091555b60025481101561068657826001600160a01b03166002828154811061061257610612610e6b565b6000918252602090912001546001600160a01b0316141561067457816002828154811061064157610641610e6b565b9060005260206000200160006101000a8154816001600160a01b0302191690836001600160a01b03160217905550610686565b8061067e81610e24565b9150506105eb565b506001600160a01b038216600081815260056020526040808220805460ff19169055517f94e65f8eb74bcdbdd449ed4da488a54fdb4f63d2d9bc2dfcaafb6d94cdd03ad59190a25050565b6106d9610ce6565b6001600160a01b03811660009081526006602052604090205460ff161561075d5760405162461bcd60e51b815260206004820152603260248201527f57686974656c6973743a20626f72726f776572206163636f756e7420697320616044820152711b1c9958591e481dda1a5d195b1a5cdd195960721b60648201526084016102cd565b6003805460018082019092557fc2575a0e9e593c00f959f8c92f12db2869c3395a3b0502d05e2516446f71f85b0180546001600160a01b0319166001600160a01b038416908117909155600081815260066020526040808220805460ff1916909417909355915190917fb21febde3c13ce82fc320466669e27ef68e8da5cdfec6213929e3aaab29c495c91a250565b6107f4610ce6565b6001600160a01b03811660009081526004602052604090205460ff166108715760405162461bcd60e51b815260206004820152602c60248201527f57686974656c6973743a206b6565706572206163636f756e74206973206e6f7460448201526b081dda1a5d195b1a5cdd195960a21b60648201526084016102cd565b6001805460009190610884908290610e0d565b8154811061089457610894610e6b565b600091825260209091200154600180546001600160a01b03909216925090806108bf576108bf610e55565b600082815260208120820160001990810180546001600160a01b03191690559091019091555b60015481101561098057826001600160a01b03166001828154811061090c5761090c610e6b565b6000918252602090912001546001600160a01b0316141561096e57816001828154811061093b5761093b610e6b565b9060005260206000200160006101000a8154816001600160a01b0302191690836001600160a01b03160217905550610980565b8061097881610e24565b9150506108e5565b506001600160a01b038216600081815260046020526040808220805460ff19169055517f5703a95f8ff5431eaea4926ee2b6a7eed349aeca5ed960ea9c5f81e872d948a39190a25050565b606060018054806020026020016040519081016040528092919081815260200182805480156103ba576020028201919060005260206000209081546001600160a01b0316815260019091019060200180831161039c575050505050905090565b606060038054806020026020016040519081016040528092919081815260200182805480156103ba576020028201919060005260206000209081546001600160a01b0316815260019091019060200180831161039c575050505050905090565b610a93610ce6565b6001600160a01b03811660009081526006602052604090205460ff16610b125760405162461bcd60e51b815260206004820152602e60248201527f57686974656c6973743a20626f72726f776572206163636f756e74206973206e60448201526d1bdd081dda1a5d195b1a5cdd195960921b60648201526084016102cd565b6003805460009190610b2690600190610e0d565b81548110610b3657610b36610e6b565b600091825260209091200154600380546001600160a01b0390921692509080610b6157610b61610e55565b600082815260208120820160001990810180546001600160a01b03191690559091019091555b600354811015610c2257826001600160a01b031660038281548110610bae57610bae610e6b565b6000918252602090912001546001600160a01b03161415610c10578160038281548110610bdd57610bdd610e6b565b9060005260206000200160006101000a8154816001600160a01b0302191690836001600160a01b03160217905550610c22565b80610c1a81610e24565b915050610b87565b506001600160a01b038216600081815260066020526040808220805460ff19169055517f2deb4e1230396a9120187676061aea9047202ab0d653dbdedd42a9158a05d05f9190a25050565b610c75610ce6565b6001600160a01b038116610cda5760405162461bcd60e51b815260206004820152602660248201527f4f776e61626c653a206e6577206f776e657220697320746865207a65726f206160448201526564647265737360d01b60648201526084016102cd565b610ce381610d40565b50565b6000546001600160a01b031633146104ef5760405162461bcd60e51b815260206004820181905260248201527f4f776e61626c653a2063616c6c6572206973206e6f7420746865206f776e657260448201526064016102cd565b600080546001600160a01b038381166001600160a01b0319831681178455604051919092169283917f8be0079c531659141344cd1fd0a4f28419497f9722a3daafe3b4186f6b6457e09190a35050565b600060208284031215610da257600080fd5b81356001600160a01b0381168114610db957600080fd5b9392505050565b6020808252825182820181905260009190848201906040850190845b81811015610e015783516001600160a01b031683529284019291840191600101610ddc565b50909695505050505050565b600082821015610e1f57610e1f610e3f565b500390565b6000600019821415610e3857610e38610e3f565b5060010190565b634e487b7160e01b600052601160045260246000fd5b634e487b7160e01b600052603160045260246000fd5b634e487b7160e01b600052603260045260246000fdfea26469706673582212203aba03e3a05527e7564a52f29cee1614b22fd61df63e39539dc5b518d246ef0264736f6c63430008070033",
  "immutableReferences": {},
  "source": "// SPDX-License-Identifier: UNLICENSED\npragma solidity ^0.8.7;\n\nimport '@openzeppelin/contracts/access/Ownable.sol';\nimport './interface/IWhitelist.sol';\n\ncontract Whitelist is Ownable, IWhitelist {\n    address[] private whitelistedKeepers;\n    address[] private whitelistedLenders;\n    address[] private whitelistedBorrowers;\n    mapping(address => bool) public isKeeperWhitelisted;\n    mapping(address => bool) public isLenderWhitelisted;\n    mapping(address => bool) public isBorrowerWhitelisted;\n\n    modifier onlyWhitelistedKeeper() {\n        require(\n            isKeeperWhitelisted[msg.sender],\n            'Whitelist: caller is not whitelisted keeper'\n        );\n        _;\n    }\n\n    modifier onlyWhitelistedLender() {\n        require(\n            isLenderWhitelisted[msg.sender],\n            'Whitelist: caller is not whitelisted lender'\n        );\n        _;\n    }\n\n    modifier onlyWhitelistedBorrower() {\n        require(\n            isBorrowerWhitelisted[msg.sender],\n            'Whitelist: caller is not whitelisted borrower'\n        );\n        _;\n    }\n\n    function getWhitelistedKeepers()\n        external\n        view\n        override\n        returns (address[] memory)\n    {\n        return whitelistedKeepers;\n    }\n\n    function getWhitelistedLenders()\n        external\n        view\n        override\n        returns (address[] memory)\n    {\n        return whitelistedLenders;\n    }\n\n    function getWhitelistedBorrowers()\n        external\n        view\n        override\n        returns (address[] memory)\n    {\n        return whitelistedBorrowers;\n    }\n\n    function addKeeperWhitelisted(address account) external override onlyOwner {\n        require(\n            !isKeeperWhitelisted[account],\n            'Whitelist: keeper account is already whitelisted'\n        );\n        whitelistedKeepers.push(account);\n        isKeeperWhitelisted[account] = true;\n        emit AddKeeperWhitelisted(account);\n    }\n\n    function removeKeeperWhitelisted(address account)\n        external\n        override\n        onlyOwner\n    {\n        require(\n            isKeeperWhitelisted[account],\n            'Whitelist: keeper account is not whitelisted'\n        );\n        address lastAccount = whitelistedKeepers[whitelistedKeepers.length - 1];\n        whitelistedKeepers.pop();\n        for (uint256 i = 0; i < whitelistedKeepers.length; i++) {\n            if (whitelistedKeepers[i] == account) {\n                whitelistedKeepers[i] = lastAccount;\n                break;\n            }\n        }\n        delete isKeeperWhitelisted[account];\n        emit RemoveKeeperWhitelisted(account);\n    }\n\n    function addLenderWhitelisted(address account) external override onlyOwner {\n        require(\n            !isLenderWhitelisted[account],\n            'Whitelist: lender account is already whitelisted'\n        );\n        whitelistedLenders.push(account);\n        isLenderWhitelisted[account] = true;\n        emit AddLenderWhitelisted(account);\n    }\n\n    function removeLenderWhitelisted(address account)\n        external\n        override\n        onlyOwner\n    {\n        require(\n            isLenderWhitelisted[account],\n            'Whitelist: lender account is not whitelisted'\n        );\n        address lastAccount = whitelistedLenders[whitelistedLenders.length - 1];\n        whitelistedLenders.pop();\n        for (uint256 i = 0; i < whitelistedLenders.length; i++) {\n            if (whitelistedLenders[i] == account) {\n                whitelistedLenders[i] = lastAccount;\n                break;\n            }\n        }\n        delete isLenderWhitelisted[account];\n        emit RemoveLenderWhitelisted(account);\n    }\n\n    function addBorrowerWhitelisted(address account)\n        external\n        override\n        onlyOwner\n    {\n        require(\n            !isBorrowerWhitelisted[account],\n            'Whitelist: borrower account is already whitelisted'\n        );\n        whitelistedBorrowers.push(account);\n        isBorrowerWhitelisted[account] = true;\n        emit AddBorrowerWhitelisted(account);\n    }\n\n    function removeBorrowerWhitelisted(address account)\n        external\n        override\n        onlyOwner\n    {\n        require(\n            isBorrowerWhitelisted[account],\n            'Whitelist: borrower account is not whitelisted'\n        );\n        address lastAccount = whitelistedBorrowers[\n            whitelistedBorrowers.length - 1\n        ];\n        whitelistedBorrowers.pop();\n        for (uint256 i = 0; i < whitelistedBorrowers.length; i++) {\n            if (whitelistedBorrowers[i] == account) {\n                whitelistedBorrowers[i] = lastAccount;\n                break;\n            }\n        }\n        delete isBorrowerWhitelisted[account];\n        emit RemoveBorrowerWhitelisted(account);\n    }\n}\n",
  "sourcePath": "/Users/liyangfan/Projects/WorkSpace/bluestone/contracts/protocol/Whitelist.sol",
  "compiler": {
    "name": "solc",
    "version": "0.8.7+commit.e28d00a7.Emscripten.clang"
  },
  "schemaVersion": "3.4.4",
  "updatedAt": "2022-11-01T09:41:32.908Z",
  "devdoc": {
    "kind": "dev",
    "methods": {
      "addBorrowerWhitelisted(address)": {
        "params": {
          "account": "Account address"
        }
      },
      "addKeeperWhitelisted(address)": {
        "params": {
          "account": "Account address"
        }
      },
      "addLenderWhitelisted(address)": {
        "params": {
          "account": "Account address"
        }
      },
      "owner()": {
        "details": "Returns the address of the current owner."
      },
      "removeBorrowerWhitelisted(address)": {
        "params": {
          "account": "Account address"
        }
      },
      "removeKeeperWhitelisted(address)": {
        "params": {
          "account": "Account address"
        }
      },
      "removeLenderWhitelisted(address)": {
        "params": {
          "account": "Account address"
        }
      },
      "renounceOwnership()": {
        "details": "Leaves the contract without owner. It will not be possible to call `onlyOwner` functions anymore. Can only be called by the current owner. NOTE: Renouncing ownership will leave the contract without an owner, thereby removing any functionality that is only available to the owner."
      },
      "transferOwnership(address)": {
        "details": "Transfers ownership of the contract to a new account (`newOwner`). Can only be called by the current owner."
      }
    },
    "version": 1
  },
  "userdoc": {
    "kind": "user",
    "methods": {
      "addBorrowerWhitelisted(address)": {
        "notice": "Add account to whitelistedBorrowers"
      },
      "addKeeperWhitelisted(address)": {
        "notice": "Add account to whitelistedKeepers"
      },
      "addLenderWhitelisted(address)": {
        "notice": "Add account to whitelistedLenders"
      },
      "getWhitelistedBorrowers()": {
        "notice": "Whitelisted borrowers getter"
      },
      "getWhitelistedKeepers()": {
        "notice": "Whitelisted keepers getter"
      },
      "getWhitelistedLenders()": {
        "notice": "Whitelisted lenders getter"
      },
      "removeBorrowerWhitelisted(address)": {
        "notice": "Remove account from whitelistedBorrowers"
      },
      "removeKeeperWhitelisted(address)": {
        "notice": "Remove account from whitelistedKeepers"
      },
      "removeLenderWhitelisted(address)": {
        "notice": "Remove account from whitelistedLenders"
      }
    },
    "version": 1
  }
}