{
  "contractName": "Whitelist",
  "abi": [
    {
      "inputs": [],
      "stateMutability": "nonpayable",
      "type": "constructor"
    },
    {
      "anonymous": false,
      "inputs": [
        {
          "indexed": true,
          "internalType": "address",
          "name": "account",
          "type": "address"
        }
      ],
      "name": "AddAdministrator",
      "type": "event"
    },
    {
      "anonymous": false,
      "inputs": [
        {
          "indexed": true,
          "internalType": "address",
          "name": "account",
          "type": "address"
        }
      ],
      "name": "AddBorrowerWhitelisted",
      "type": "event"
    },
    {
      "anonymous": false,
      "inputs": [
        {
          "indexed": true,
          "internalType": "address",
          "name": "account",
          "type": "address"
        }
      ],
      "name": "AddLenderWhitelisted",
      "type": "event"
    },
    {
      "anonymous": false,
      "inputs": [
        {
          "indexed": true,
          "internalType": "address",
          "name": "previousOwner",
          "type": "address"
        },
        {
          "indexed": true,
          "internalType": "address",
          "name": "newOwner",
          "type": "address"
        }
      ],
      "name": "OwnershipTransferred",
      "type": "event"
    },
    {
      "anonymous": false,
      "inputs": [
        {
          "indexed": true,
          "internalType": "address",
          "name": "account",
          "type": "address"
        }
      ],
      "name": "RemoveAdministrator",
      "type": "event"
    },
    {
      "anonymous": false,
      "inputs": [
        {
          "indexed": true,
          "internalType": "address",
          "name": "account",
          "type": "address"
        }
      ],
      "name": "RemoveBorrowerWhitelisted",
      "type": "event"
    },
    {
      "anonymous": false,
      "inputs": [
        {
          "indexed": true,
          "internalType": "address",
          "name": "account",
          "type": "address"
        }
      ],
      "name": "RemoveLenderWhitelisted",
      "type": "event"
    },
    {
      "inputs": [
        {
          "internalType": "address",
          "name": "",
          "type": "address"
        }
      ],
      "name": "isAdministrator",
      "outputs": [
        {
          "internalType": "bool",
          "name": "",
          "type": "bool"
        }
      ],
      "stateMutability": "view",
      "type": "function"
    },
    {
      "inputs": [
        {
          "internalType": "address",
          "name": "",
          "type": "address"
        }
      ],
      "name": "isBorrowerWhitelisted",
      "outputs": [
        {
          "internalType": "bool",
          "name": "",
          "type": "bool"
        }
      ],
      "stateMutability": "view",
      "type": "function"
    },
    {
      "inputs": [
        {
          "internalType": "address",
          "name": "",
          "type": "address"
        }
      ],
      "name": "isLenderWhitelisted",
      "outputs": [
        {
          "internalType": "bool",
          "name": "",
          "type": "bool"
        }
      ],
      "stateMutability": "view",
      "type": "function"
    },
    {
      "inputs": [],
      "name": "owner",
      "outputs": [
        {
          "internalType": "address",
          "name": "",
          "type": "address"
        }
      ],
      "stateMutability": "view",
      "type": "function"
    },
    {
      "inputs": [],
      "name": "renounceOwnership",
      "outputs": [],
      "stateMutability": "nonpayable",
      "type": "function"
    },
    {
      "inputs": [
        {
          "internalType": "address",
          "name": "newOwner",
          "type": "address"
        }
      ],
      "name": "transferOwnership",
      "outputs": [],
      "stateMutability": "nonpayable",
      "type": "function"
    },
    {
      "inputs": [],
      "name": "getAdministrators",
      "outputs": [
        {
          "internalType": "address[]",
          "name": "",
          "type": "address[]"
        }
      ],
      "stateMutability": "view",
      "type": "function"
    },
    {
      "inputs": [],
      "name": "getWhitelistedLenders",
      "outputs": [
        {
          "internalType": "address[]",
          "name": "",
          "type": "address[]"
        }
      ],
      "stateMutability": "view",
      "type": "function"
    },
    {
      "inputs": [],
      "name": "getWhitelistedBorrowers",
      "outputs": [
        {
          "internalType": "address[]",
          "name": "",
          "type": "address[]"
        }
      ],
      "stateMutability": "view",
      "type": "function"
    },
    {
      "inputs": [
        {
          "internalType": "address",
          "name": "account",
          "type": "address"
        }
      ],
      "name": "addAdministrator",
      "outputs": [],
      "stateMutability": "nonpayable",
      "type": "function"
    },
    {
      "inputs": [
        {
          "internalType": "address",
          "name": "account",
          "type": "address"
        }
      ],
      "name": "removeAdministrator",
      "outputs": [],
      "stateMutability": "nonpayable",
      "type": "function"
    },
    {
      "inputs": [
        {
          "internalType": "address",
          "name": "account",
          "type": "address"
        }
      ],
      "name": "addLenderWhitelisted",
      "outputs": [],
      "stateMutability": "nonpayable",
      "type": "function"
    },
    {
      "inputs": [
        {
          "internalType": "address",
          "name": "account",
          "type": "address"
        }
      ],
      "name": "removeLenderWhitelisted",
      "outputs": [],
      "stateMutability": "nonpayable",
      "type": "function"
    },
    {
      "inputs": [
        {
          "internalType": "address",
          "name": "account",
          "type": "address"
        }
      ],
      "name": "addBorrowerWhitelisted",
      "outputs": [],
      "stateMutability": "nonpayable",
      "type": "function"
    },
    {
      "inputs": [
        {
          "internalType": "address",
          "name": "account",
          "type": "address"
        }
      ],
      "name": "removeBorrowerWhitelisted",
      "outputs": [],
      "stateMutability": "nonpayable",
      "type": "function"
    }
  ],
  "bytecode": "0x608060405234801561001057600080fd5b5061001a33610076565b6001805480820182557fb10e2d527612073b26eecdfd717e6a320cf44b4afac2b0732d9fcbe2b7fa0cf60180546001600160a01b031916339081179091556000908152600460205260409020805460ff191690911790556100c6565b600080546001600160a01b038381166001600160a01b0319831681178455604051919092169283917f8be0079c531659141344cd1fd0a4f28419497f9722a3daafe3b4186f6b6457e09190a35050565b611022806100d56000396000f3fe608060405234801561001057600080fd5b50600436106100f55760003560e01c8063757c792c11610097578063d924fd3211610066578063d924fd32146101f6578063e14eb4c014610219578063e6e9fea514610221578063f2fde38b1461023457600080fd5b8063757c792c146101a25780637f58568c146101b55780638da5cb5b146101c8578063c9991176146101e357600080fd5b8063543b3693116100d3578063543b36931461016a57806355ded3461461017257806368fa813414610187578063715018a61461019a57600080fd5b80630a2eb301146100fa578063455872b91461013257806346b87f8314610155575b600080fd5b61011d610108366004610eb5565b60046020526000908152604090205460ff1681565b60405190151581526020015b60405180910390f35b61011d610140366004610eb5565b60066020526000908152604090205460ff1681565b61015d610247565b6040516101299190610ee5565b61015d6102a9565b610185610180366004610eb5565b610309565b005b610185610195366004610eb5565b610452565b6101856106bb565b6101856101b0366004610eb5565b6106cf565b6101856101c3366004610eb5565b6108d6565b6000546040516001600160a01b039091168152602001610129565b6101856101f1366004610eb5565b610a18565b61011d610204366004610eb5565b60056020526000908152604090205460ff1681565b61015d610b29565b61018561022f366004610eb5565b610b89565b610185610242366004610eb5565b610d92565b6060600280548060200260200160405190810160405280929190818152602001828054801561029f57602002820191906000526020600020905b81546001600160a01b03168152600190910190602001808311610281575b5050505050905090565b6060600180548060200260200160405190810160405280929190818152602001828054801561029f576020028201919060005260206000209081546001600160a01b03168152600190910190602001808311610281575050505050905090565b3360009081526004602052604090205460ff166103415760405162461bcd60e51b815260040161033890610f32565b60405180910390fd5b6001600160a01b03811660009081526005602052604090205460ff16156103c35760405162461bcd60e51b815260206004820152603060248201527f57686974656c6973743a206c656e646572206163636f756e7420697320616c7260448201526f1958591e481dda1a5d195b1a5cdd195960821b6064820152608401610338565b6002805460018082019092557f405787fa12a823e0f2b7631cc41b3ba8828b3321ca811111fa75cd3aa3bb5ace0180546001600160a01b0319166001600160a01b038416908117909155600081815260056020526040808220805460ff1916909417909355915190917fc40ba5fc28619d22df2a573791064a5a80e202a594efd3208c27fcbb30aaf06191a250565b61045a610e0b565b6001600160a01b03811660009081526004602052604090205460ff166104d25760405162461bcd60e51b815260206004820152602760248201527f57686974656c6973743a206163636f756e74206973206e6f742061646d696e6960448201526639ba3930ba37b960c91b6064820152608401610338565b806001600160a01b03166104ee6000546001600160a01b031690565b6001600160a01b031614156105615760405162461bcd60e51b815260206004820152603360248201527f57686974656c6973743a2063616e206e6f742072656d6f7665206f776e65722060448201527266726f6d2061646d696e6973747261746f727360681b6064820152608401610338565b6001805460009190610574908290610f78565b8154811061058457610584610fd6565b600091825260209091200154600180546001600160a01b03909216925090806105af576105af610fc0565b600082815260208120820160001990810180546001600160a01b03191690559091019091555b60015481101561067057826001600160a01b0316600182815481106105fc576105fc610fd6565b6000918252602090912001546001600160a01b0316141561065e57816001828154811061062b5761062b610fd6565b9060005260206000200160006101000a8154816001600160a01b0302191690836001600160a01b03160217905550610670565b8061066881610f8f565b9150506105d5565b506001600160a01b038216600081815260046020526040808220805460ff19169055517f5e40a439a19faa971f5d14cf300dcd7ee0d236808b9a988c9b4ca89cb833e9619190a25050565b6106c3610e0b565b6106cd6000610e65565b565b3360009081526004602052604090205460ff166106fe5760405162461bcd60e51b815260040161033890610f32565b6001600160a01b03811660009081526005602052604090205460ff1661077b5760405162461bcd60e51b815260206004820152602c60248201527f57686974656c6973743a206c656e646572206163636f756e74206973206e6f7460448201526b081dda1a5d195b1a5cdd195960a21b6064820152608401610338565b600280546000919061078f90600190610f78565b8154811061079f5761079f610fd6565b600091825260209091200154600280546001600160a01b03909216925090806107ca576107ca610fc0565b600082815260208120820160001990810180546001600160a01b03191690559091019091555b60025481101561088b57826001600160a01b03166002828154811061081757610817610fd6565b6000918252602090912001546001600160a01b0316141561087957816002828154811061084657610846610fd6565b9060005260206000200160006101000a8154816001600160a01b0302191690836001600160a01b0316021790555061088b565b8061088381610f8f565b9150506107f0565b506001600160a01b038216600081815260056020526040808220805460ff19169055517f94e65f8eb74bcdbdd449ed4da488a54fdb4f63d2d9bc2dfcaafb6d94cdd03ad59190a25050565b3360009081526004602052604090205460ff166109055760405162461bcd60e51b815260040161033890610f32565b6001600160a01b03811660009081526006602052604090205460ff16156109895760405162461bcd60e51b815260206004820152603260248201527f57686974656c6973743a20626f72726f776572206163636f756e7420697320616044820152711b1c9958591e481dda1a5d195b1a5cdd195960721b6064820152608401610338565b6003805460018082019092557fc2575a0e9e593c00f959f8c92f12db2869c3395a3b0502d05e2516446f71f85b0180546001600160a01b0319166001600160a01b038416908117909155600081815260066020526040808220805460ff1916909417909355915190917fb21febde3c13ce82fc320466669e27ef68e8da5cdfec6213929e3aaab29c495c91a250565b610a20610e0b565b6001600160a01b03811660009081526004602052604090205460ff1615610a9d5760405162461bcd60e51b815260206004820152602b60248201527f57686974656c6973743a206163636f756e7420697320616c726561647920616460448201526a36b4b734b9ba3930ba37b960a91b6064820152608401610338565b6001805480820182557fb10e2d527612073b26eecdfd717e6a320cf44b4afac2b0732d9fcbe2b7fa0cf60180546001600160a01b0319166001600160a01b038416908117909155600081815260046020526040808220805460ff1916909417909355915190917f6e5eedde7d0d690d55dea362660be04ef1eb36252e48817545afb1ae6b245a4091a250565b6060600380548060200260200160405190810160405280929190818152602001828054801561029f576020028201919060005260206000209081546001600160a01b03168152600190910190602001808311610281575050505050905090565b3360009081526004602052604090205460ff16610bb85760405162461bcd60e51b815260040161033890610f32565b6001600160a01b03811660009081526006602052604090205460ff16610c375760405162461bcd60e51b815260206004820152602e60248201527f57686974656c6973743a20626f72726f776572206163636f756e74206973206e60448201526d1bdd081dda1a5d195b1a5cdd195960921b6064820152608401610338565b6003805460009190610c4b90600190610f78565b81548110610c5b57610c5b610fd6565b600091825260209091200154600380546001600160a01b0390921692509080610c8657610c86610fc0565b600082815260208120820160001990810180546001600160a01b03191690559091019091555b600354811015610d4757826001600160a01b031660038281548110610cd357610cd3610fd6565b6000918252602090912001546001600160a01b03161415610d35578160038281548110610d0257610d02610fd6565b9060005260206000200160006101000a8154816001600160a01b0302191690836001600160a01b03160217905550610d47565b80610d3f81610f8f565b915050610cac565b506001600160a01b038216600081815260066020526040808220805460ff19169055517f2deb4e1230396a9120187676061aea9047202ab0d653dbdedd42a9158a05d05f9190a25050565b610d9a610e0b565b6001600160a01b038116610dff5760405162461bcd60e51b815260206004820152602660248201527f4f776e61626c653a206e6577206f776e657220697320746865207a65726f206160448201526564647265737360d01b6064820152608401610338565b610e0881610e65565b50565b6000546001600160a01b031633146106cd5760405162461bcd60e51b815260206004820181905260248201527f4f776e61626c653a2063616c6c6572206973206e6f7420746865206f776e65726044820152606401610338565b600080546001600160a01b038381166001600160a01b0319831681178455604051919092169283917f8be0079c531659141344cd1fd0a4f28419497f9722a3daafe3b4186f6b6457e09190a35050565b600060208284031215610ec757600080fd5b81356001600160a01b0381168114610ede57600080fd5b9392505050565b6020808252825182820181905260009190848201906040850190845b81811015610f265783516001600160a01b031683529284019291840191600101610f01565b50909695505050505050565b60208082526026908201527f57686974656c6973743a2063616c6c6572206973206e6f742061646d696e69736040820152653a3930ba37b960d11b606082015260800190565b600082821015610f8a57610f8a610faa565b500390565b6000600019821415610fa357610fa3610faa565b5060010190565b634e487b7160e01b600052601160045260246000fd5b634e487b7160e01b600052603160045260246000fd5b634e487b7160e01b600052603260045260246000fdfea2646970667358221220826399ddf707fefba32bf1a9108f26a3e70193d4f71a5e05dbbfd43464cec6d464736f6c63430008070033",
  "immutableReferences": {},
  "source": "// SPDX-License-Identifier: UNLICENSED\npragma solidity ^0.8.7;\n\nimport '@openzeppelin/contracts/access/Ownable.sol';\nimport './interface/IWhitelist.sol';\n\ncontract Whitelist is Ownable, IWhitelist {\n    address[] private administrators;\n    address[] private whitelistedLenders;\n    address[] private whitelistedBorrowers;\n    mapping(address => bool) public isAdministrator;\n    mapping(address => bool) public isLenderWhitelisted;\n    mapping(address => bool) public isBorrowerWhitelisted;\n\n    event AddAdministrator(address indexed account);\n    event RemoveAdministrator(address indexed account);\n    event AddLenderWhitelisted(address indexed account);\n    event RemoveLenderWhitelisted(address indexed account);\n    event AddBorrowerWhitelisted(address indexed account);\n    event RemoveBorrowerWhitelisted(address indexed account);\n\n    constructor() {\n        administrators.push(msg.sender);\n        isAdministrator[msg.sender] = true;\n    }\n\n    modifier onlyAdministrator() {\n        require(\n            isAdministrator[msg.sender],\n            'Whitelist: caller is not administrator'\n        );\n        _;\n    }\n\n    modifier onlyWhitelistedLender() {\n        require(\n            isLenderWhitelisted[msg.sender],\n            'Whitelist: caller is not whitelisted lender'\n        );\n        _;\n    }\n\n    modifier onlyWhitelistedBorrower() {\n        require(\n            isBorrowerWhitelisted[msg.sender],\n            'Whitelist: caller is not whitelisted borrower'\n        );\n        _;\n    }\n\n    function getAdministrators()\n        external\n        view\n        override\n        returns (address[] memory)\n    {\n        return administrators;\n    }\n\n    function getWhitelistedLenders()\n        external\n        view\n        override\n        returns (address[] memory)\n    {\n        return whitelistedLenders;\n    }\n\n    function getWhitelistedBorrowers()\n        external\n        view\n        override\n        returns (address[] memory)\n    {\n        return whitelistedBorrowers;\n    }\n\n    function addAdministrator(address account) external override onlyOwner {\n        require(\n            !isAdministrator[account],\n            'Whitelist: account is already administrator'\n        );\n        administrators.push(account);\n        isAdministrator[account] = true;\n        emit AddAdministrator(account);\n    }\n\n    function removeAdministrator(address account) external override onlyOwner {\n        require(\n            isAdministrator[account],\n            'Whitelist: account is not administrator'\n        );\n        require(\n            owner() != account,\n            'Whitelist: can not remove owner from administrators'\n        );\n        address lastAccount = administrators[administrators.length - 1];\n        administrators.pop();\n        for (uint256 i = 0; i < administrators.length; i++) {\n            if (administrators[i] == account) {\n                administrators[i] = lastAccount;\n                break;\n            }\n        }\n        delete isAdministrator[account];\n        emit RemoveAdministrator(account);\n    }\n\n    function addLenderWhitelisted(address account)\n        external\n        override\n        onlyAdministrator\n    {\n        require(\n            !isLenderWhitelisted[account],\n            'Whitelist: lender account is already whitelisted'\n        );\n        whitelistedLenders.push(account);\n        isLenderWhitelisted[account] = true;\n        emit AddLenderWhitelisted(account);\n    }\n\n    function removeLenderWhitelisted(address account)\n        external\n        override\n        onlyAdministrator\n    {\n        require(\n            isLenderWhitelisted[account],\n            'Whitelist: lender account is not whitelisted'\n        );\n        address lastAccount = whitelistedLenders[whitelistedLenders.length - 1];\n        whitelistedLenders.pop();\n        for (uint256 i = 0; i < whitelistedLenders.length; i++) {\n            if (whitelistedLenders[i] == account) {\n                whitelistedLenders[i] = lastAccount;\n                break;\n            }\n        }\n        delete isLenderWhitelisted[account];\n        emit RemoveLenderWhitelisted(account);\n    }\n\n    function addBorrowerWhitelisted(address account)\n        external\n        override\n        onlyAdministrator\n    {\n        require(\n            !isBorrowerWhitelisted[account],\n            'Whitelist: borrower account is already whitelisted'\n        );\n        whitelistedBorrowers.push(account);\n        isBorrowerWhitelisted[account] = true;\n        emit AddBorrowerWhitelisted(account);\n    }\n\n    function removeBorrowerWhitelisted(address account)\n        external\n        override\n        onlyAdministrator\n    {\n        require(\n            isBorrowerWhitelisted[account],\n            'Whitelist: borrower account is not whitelisted'\n        );\n        address lastAccount = whitelistedBorrowers[\n            whitelistedBorrowers.length - 1\n        ];\n        whitelistedBorrowers.pop();\n        for (uint256 i = 0; i < whitelistedBorrowers.length; i++) {\n            if (whitelistedBorrowers[i] == account) {\n                whitelistedBorrowers[i] = lastAccount;\n                break;\n            }\n        }\n        delete isBorrowerWhitelisted[account];\n        emit RemoveBorrowerWhitelisted(account);\n    }\n}\n",
  "sourcePath": "/Users/liyangfan/Projects/WorkSpace/bluestone/contracts/protocol/Whitelist.sol",
  "compiler": {
    "name": "solc",
    "version": "0.8.7+commit.e28d00a7.Emscripten.clang"
  },
  "schemaVersion": "3.4.4",
  "updatedAt": "2022-09-02T13:05:37.308Z",
  "devdoc": {
    "kind": "dev",
    "methods": {
      "addAdministrator(address)": {
        "params": {
          "account": "Account address"
        }
      },
      "addBorrowerWhitelisted(address)": {
        "params": {
          "account": "Account address"
        }
      },
      "addLenderWhitelisted(address)": {
        "params": {
          "account": "Account address"
        }
      },
      "owner()": {
        "details": "Returns the address of the current owner."
      },
      "removeAdministrator(address)": {
        "params": {
          "account": "Account address"
        }
      },
      "removeBorrowerWhitelisted(address)": {
        "params": {
          "account": "Account address"
        }
      },
      "removeLenderWhitelisted(address)": {
        "params": {
          "account": "Account address"
        }
      },
      "renounceOwnership()": {
        "details": "Leaves the contract without owner. It will not be possible to call `onlyOwner` functions anymore. Can only be called by the current owner. NOTE: Renouncing ownership will leave the contract without an owner, thereby removing any functionality that is only available to the owner."
      },
      "transferOwnership(address)": {
        "details": "Transfers ownership of the contract to a new account (`newOwner`). Can only be called by the current owner."
      }
    },
    "version": 1
  },
  "userdoc": {
    "kind": "user",
    "methods": {
      "addAdministrator(address)": {
        "notice": "Add account to administrators"
      },
      "addBorrowerWhitelisted(address)": {
        "notice": "Add account to whitelistedBorrowers"
      },
      "addLenderWhitelisted(address)": {
        "notice": "Add account to whitelistedLenders"
      },
      "getAdministrators()": {
        "notice": "Whitelisted administrators getter"
      },
      "getWhitelistedBorrowers()": {
        "notice": "Whitelisted borrowers getter"
      },
      "getWhitelistedLenders()": {
        "notice": "Whitelisted lenders getter"
      },
      "removeAdministrator(address)": {
        "notice": "Remove account from administrators"
      },
      "removeBorrowerWhitelisted(address)": {
        "notice": "Remove account from whitelistedBorrowers"
      },
      "removeLenderWhitelisted(address)": {
        "notice": "Remove account from whitelistedLenders"
      }
    },
    "version": 1
  }
}